{
  "contractName": "BNBHPool",
  "abi": [
    {
      "inputs": [],
      "stateMutability": "nonpayable",
      "type": "constructor"
    },
    {
      "anonymous": false,
      "inputs": [
        {
          "indexed": true,
          "internalType": "address",
          "name": "previousOwner",
          "type": "address"
        },
        {
          "indexed": true,
          "internalType": "address",
          "name": "newOwner",
          "type": "address"
        }
      ],
      "name": "OwnershipTransferred",
      "type": "event"
    },
    {
      "anonymous": false,
      "inputs": [
        {
          "indexed": false,
          "internalType": "address",
          "name": "account",
          "type": "address"
        }
      ],
      "name": "UpdatedBNBHeroAddress",
      "type": "event"
    },
    {
      "inputs": [],
      "name": "bnbHeroAddress",
      "outputs": [
        {
          "internalType": "address",
          "name": "",
          "type": "address"
        }
      ],
      "stateMutability": "view",
      "type": "function"
    },
    {
      "inputs": [],
      "name": "name",
      "outputs": [
        {
          "internalType": "string",
          "name": "",
          "type": "string"
        }
      ],
      "stateMutability": "view",
      "type": "function"
    },
    {
      "inputs": [],
      "name": "owner",
      "outputs": [
        {
          "internalType": "address",
          "name": "",
          "type": "address"
        }
      ],
      "stateMutability": "view",
      "type": "function"
    },
    {
      "inputs": [],
      "name": "renounceOwnership",
      "outputs": [],
      "stateMutability": "nonpayable",
      "type": "function"
    },
    {
      "inputs": [
        {
          "internalType": "address",
          "name": "newOwner",
          "type": "address"
        }
      ],
      "name": "transferOwnership",
      "outputs": [],
      "stateMutability": "nonpayable",
      "type": "function"
    },
    {
      "stateMutability": "payable",
      "type": "receive"
    },
    {
      "inputs": [
        {
          "internalType": "address",
          "name": "account",
          "type": "address"
        }
      ],
      "name": "setBNBHeroAddress",
      "outputs": [],
      "stateMutability": "nonpayable",
      "type": "function"
    },
    {
      "inputs": [
        {
          "internalType": "address",
          "name": "account",
          "type": "address"
        },
        {
          "internalType": "uint256",
          "name": "amount",
          "type": "uint256"
        }
      ],
      "name": "claimBNB",
      "outputs": [],
      "stateMutability": "nonpayable",
      "type": "function"
    }
  ],
  "bytecode": "0x60806040523480156200001157600080fd5b50620000446200002f62000098640100000000026401000000009004565b620000a0640100000000026401000000009004565b6040518060400160405280600881526020017f424e4248506f6f6c000000000000000000000000000000000000000000000000815250600290805190602001906200009192919062000164565b5062000279565b600033905090565b60008060009054906101000a900473ffffffffffffffffffffffffffffffffffffffff169050816000806101000a81548173ffffffffffffffffffffffffffffffffffffffff021916908373ffffffffffffffffffffffffffffffffffffffff1602179055508173ffffffffffffffffffffffffffffffffffffffff168173ffffffffffffffffffffffffffffffffffffffff167f8be0079c531659141344cd1fd0a4f28419497f9722a3daafe3b4186f6b6457e060405160405180910390a35050565b828054620001729062000243565b90600052602060002090601f016020900481019282620001965760008555620001e2565b82601f10620001b157805160ff1916838001178555620001e2565b82800160010185558215620001e2579182015b82811115620001e1578251825591602001919060010190620001c4565b5b509050620001f19190620001f5565b5090565b5b8082111562000210576000816000905550600101620001f6565b5090565b7f4e487b7100000000000000000000000000000000000000000000000000000000600052602260045260246000fd5b600060028204905060018216806200025c57607f821691505b6020821081141562000273576200027262000214565b5b50919050565b610ca980620002896000396000f3fe608060405260043610610091576000357c010000000000000000000000000000000000000000000000000000000090048063715018a61161006b578063715018a61461011a5780638da5cb5b14610131578063d2c0db1e1461015c578063f2fde38b1461018757610098565b806306fdde031461009d57806348cafed3146100c857806362d4e0a1146100f157610098565b3661009857005b600080fd5b3480156100a957600080fd5b506100b26101b0565b6040516100bf9190610812565b60405180910390f35b3480156100d457600080fd5b506100ef60048036038101906100ea91906108cd565b61023e565b005b3480156100fd57600080fd5b506101186004803603810190610113919061090d565b6103e7565b005b34801561012657600080fd5b5061012f6104de565b005b34801561013d57600080fd5b50610146610566565b6040516101539190610949565b60405180910390f35b34801561016857600080fd5b5061017161058f565b60405161017e9190610949565b60405180910390f35b34801561019357600080fd5b506101ae60048036038101906101a9919061090d565b6105b5565b005b600280546101bd90610993565b80601f01602080910402602001604051908101604052809291908181526020018280546101e990610993565b80156102365780601f1061020b57610100808354040283529160200191610236565b820191906000526020600020905b81548152906001019060200180831161021957829003601f168201915b505050505081565b600160009054906101000a900473ffffffffffffffffffffffffffffffffffffffff1673ffffffffffffffffffffffffffffffffffffffff1661027f6106ad565b73ffffffffffffffffffffffffffffffffffffffff16146102d5576040517f08c379a00000000000000000000000000000000000000000000000000000000081526004016102cc90610a37565b60405180910390fd5b3073ffffffffffffffffffffffffffffffffffffffff163181111561032f576040517f08c379a000000000000000000000000000000000000000000000000000000000815260040161032690610aa3565b60405180910390fd5b60008273ffffffffffffffffffffffffffffffffffffffff168260405161035590610af4565b60006040518083038185875af1925050503d8060008114610392576040519150601f19603f3d011682016040523d82523d6000602084013e610397565b606091505b5050905060011515811515146103e2576040517f08c379a00000000000000000000000000000000000000000000000000000000081526004016103d990610b55565b60405180910390fd5b505050565b6103ef6106ad565b73ffffffffffffffffffffffffffffffffffffffff1661040d610566565b73ffffffffffffffffffffffffffffffffffffffff1614610463576040517f08c379a000000000000000000000000000000000000000000000000000000000815260040161045a90610bc1565b60405180910390fd5b80600160006101000a81548173ffffffffffffffffffffffffffffffffffffffff021916908373ffffffffffffffffffffffffffffffffffffffff1602179055507f31b644966506cd62c11957e115ba3d1903ec0b7173456340c20f7b796b458f6e816040516104d39190610949565b60405180910390a150565b6104e66106ad565b73ffffffffffffffffffffffffffffffffffffffff16610504610566565b73ffffffffffffffffffffffffffffffffffffffff161461055a576040517f08c379a000000000000000000000000000000000000000000000000000000000815260040161055190610bc1565b60405180910390fd5b61056460006106b5565b565b60008060009054906101000a900473ffffffffffffffffffffffffffffffffffffffff16905090565b600160009054906101000a900473ffffffffffffffffffffffffffffffffffffffff1681565b6105bd6106ad565b73ffffffffffffffffffffffffffffffffffffffff166105db610566565b73ffffffffffffffffffffffffffffffffffffffff1614610631576040517f08c379a000000000000000000000000000000000000000000000000000000000815260040161062890610bc1565b60405180910390fd5b600073ffffffffffffffffffffffffffffffffffffffff168173ffffffffffffffffffffffffffffffffffffffff1614156106a1576040517f08c379a000000000000000000000000000000000000000000000000000000000815260040161069890610c53565b60405180910390fd5b6106aa816106b5565b50565b600033905090565b60008060009054906101000a900473ffffffffffffffffffffffffffffffffffffffff169050816000806101000a81548173ffffffffffffffffffffffffffffffffffffffff021916908373ffffffffffffffffffffffffffffffffffffffff1602179055508173ffffffffffffffffffffffffffffffffffffffff168173ffffffffffffffffffffffffffffffffffffffff167f8be0079c531659141344cd1fd0a4f28419497f9722a3daafe3b4186f6b6457e060405160405180910390a35050565b600081519050919050565b600082825260208201905092915050565b60005b838110156107b3578082015181840152602081019050610798565b838111156107c2576000848401525b50505050565b6000601f19601f8301169050919050565b60006107e482610779565b6107ee8185610784565b93506107fe818560208601610795565b610807816107c8565b840191505092915050565b6000602082019050818103600083015261082c81846107d9565b905092915050565b600080fd5b600073ffffffffffffffffffffffffffffffffffffffff82169050919050565b600061086482610839565b9050919050565b61087481610859565b811461087f57600080fd5b50565b6000813590506108918161086b565b92915050565b6000819050919050565b6108aa81610897565b81146108b557600080fd5b50565b6000813590506108c7816108a1565b92915050565b600080604083850312156108e4576108e3610834565b5b60006108f285828601610882565b9250506020610903858286016108b8565b9150509250929050565b60006020828403121561092357610922610834565b5b600061093184828501610882565b91505092915050565b61094381610859565b82525050565b600060208201905061095e600083018461093a565b92915050565b7f4e487b7100000000000000000000000000000000000000000000000000000000600052602260045260246000fd5b600060028204905060018216806109ab57607f821691505b602082108114156109bf576109be610964565b5b50919050565b7f596f7520617265206e6f7420616c6c6f77656420746f2063616c6c207468697360008201527f2066756e6374696f6e0000000000000000000000000000000000000000000000602082015250565b6000610a21602983610784565b9150610a2c826109c5565b604082019050919050565b60006020820190508181036000830152610a5081610a14565b9050919050565b7f416d6f756e742069732065786365656465640000000000000000000000000000600082015250565b6000610a8d601283610784565b9150610a9882610a57565b602082019050919050565b60006020820190508181036000830152610abc81610a80565b9050919050565b600081905092915050565b50565b6000610ade600083610ac3565b9150610ae982610ace565b600082019050919050565b6000610aff82610ad1565b9150819050919050565b7f5472616e73666572206661696c65642e00000000000000000000000000000000600082015250565b6000610b3f601083610784565b9150610b4a82610b09565b602082019050919050565b60006020820190508181036000830152610b6e81610b32565b9050919050565b7f4f776e61626c653a2063616c6c6572206973206e6f7420746865206f776e6572600082015250565b6000610bab602083610784565b9150610bb682610b75565b602082019050919050565b60006020820190508181036000830152610bda81610b9e565b9050919050565b7f4f776e61626c653a206e6577206f776e657220697320746865207a65726f206160008201527f6464726573730000000000000000000000000000000000000000000000000000602082015250565b6000610c3d602683610784565b9150610c4882610be1565b604082019050919050565b60006020820190508181036000830152610c6c81610c30565b905091905056fea264697066735822122039b924b5aa7fe2bc8dc8d1b396adca2c965b59c8b0f4708fb29d67971012a5e064736f6c634300080c0033",
  "immutableReferences": {},
  "source": "// SPDX-License-Identifier: Unlicensed\n\npragma solidity ^0.8.0;\nimport \"@openzeppelin/contracts/utils/Context.sol\";\nimport \"@openzeppelin/contracts/access/Ownable.sol\";\nimport \"./IBNBHPool.sol\";\nimport \"./IBEP20.sol\";\n\ncontract BNBHPool is Context, IBNBHPool, Ownable {\n\n    address public bnbHeroAddress;\n    string public name;\n    constructor () {\n        name = \"BNBHPool\";\n    }\n    event UpdatedBNBHeroAddress(address account);\n    receive() external payable {}\n\n    function setBNBHeroAddress(address account) external onlyOwner{\n        bnbHeroAddress = account;\n        emit UpdatedBNBHeroAddress(account);\n    }\n    function claimBNB(address account, uint256 amount) external override {\n        require(_msgSender() == bnbHeroAddress, \"You are not allowed to call this function\");\n        require(amount <= address(this).balance, \"Amount is exceeded\");\n        (bool success, ) = payable(account).call{value: amount}(\"\");\n        require(success == true, \"Transfer failed.\");\n    }\n}\n",
  "sourcePath": "/Users/macbook/Desktop/PiratesKingContract2022/PiratesKingContract2022/contracts/BNBHPool.sol",
  "compiler": {
    "name": "solc",
    "version": "0.8.12+commit.f00d7308.Emscripten.clang"
  },
  "schemaVersion": "3.4.4",
  "updatedAt": "2022-02-26T10:07:36.468Z",
  "devdoc": {
    "kind": "dev",
    "methods": {
      "owner()": {
        "details": "Returns the address of the current owner."
      },
      "renounceOwnership()": {
        "details": "Leaves the contract without owner. It will not be possible to call `onlyOwner` functions anymore. Can only be called by the current owner. NOTE: Renouncing ownership will leave the contract without an owner, thereby removing any functionality that is only available to the owner."
      },
      "transferOwnership(address)": {
        "details": "Transfers ownership of the contract to a new account (`newOwner`). Can only be called by the current owner."
      }
    },
    "version": 1
  },
  "userdoc": {
    "kind": "user",
    "methods": {},
    "version": 1
  }
}