{
  "contractName": "ClaimPKT",
  "abi": [
    {
      "inputs": [],
      "stateMutability": "nonpayable",
      "type": "constructor"
    },
    {
      "anonymous": false,
      "inputs": [
        {
          "indexed": false,
          "internalType": "address",
          "name": "newAddress",
          "type": "address"
        },
        {
          "indexed": false,
          "internalType": "bytes32",
          "name": "contractName",
          "type": "bytes32"
        }
      ],
      "name": "LibContractAddressUpdate",
      "type": "event"
    },
    {
      "anonymous": false,
      "inputs": [
        {
          "indexed": true,
          "internalType": "address",
          "name": "previousOwner",
          "type": "address"
        },
        {
          "indexed": true,
          "internalType": "address",
          "name": "newOwner",
          "type": "address"
        }
      ],
      "name": "OwnershipTransferred",
      "type": "event"
    },
    {
      "inputs": [],
      "name": "owner",
      "outputs": [
        {
          "internalType": "address",
          "name": "",
          "type": "address"
        }
      ],
      "stateMutability": "view",
      "type": "function"
    },
    {
      "inputs": [],
      "name": "pktContract",
      "outputs": [
        {
          "internalType": "address",
          "name": "",
          "type": "address"
        }
      ],
      "stateMutability": "view",
      "type": "function"
    },
    {
      "inputs": [],
      "name": "renounceOwnership",
      "outputs": [],
      "stateMutability": "nonpayable",
      "type": "function"
    },
    {
      "inputs": [
        {
          "internalType": "address",
          "name": "newOwner",
          "type": "address"
        }
      ],
      "name": "transferOwnership",
      "outputs": [],
      "stateMutability": "nonpayable",
      "type": "function"
    },
    {
      "inputs": [
        {
          "internalType": "address",
          "name": "_contract",
          "type": "address"
        }
      ],
      "name": "setPKTContractAddress",
      "outputs": [],
      "stateMutability": "nonpayable",
      "type": "function"
    },
    {
      "inputs": [
        {
          "internalType": "uint256",
          "name": "_amount",
          "type": "uint256"
        }
      ],
      "name": "setInitialTokens",
      "outputs": [],
      "stateMutability": "nonpayable",
      "type": "function"
    },
    {
      "inputs": [
        {
          "internalType": "uint256",
          "name": "value",
          "type": "uint256"
        }
      ],
      "name": "setNumberOfClaim",
      "outputs": [],
      "stateMutability": "nonpayable",
      "type": "function"
    },
    {
      "inputs": [
        {
          "internalType": "bool",
          "name": "value",
          "type": "bool"
        }
      ],
      "name": "setLimitedClaim",
      "outputs": [],
      "stateMutability": "nonpayable",
      "type": "function"
    },
    {
      "inputs": [
        {
          "internalType": "address",
          "name": "_to",
          "type": "address"
        }
      ],
      "name": "sendInitialTokensToPlayer",
      "outputs": [],
      "stateMutability": "nonpayable",
      "type": "function"
    }
  ],
  "bytecode": "0x60806040526901ccc9324511e45000006002556000600360006101000a81548160ff021916908315150217905550600160045534801561003e57600080fd5b5061006d6100596100c7640100000000026401000000009004565b6100cf640100000000026401000000009004565b7329bc99648ba29461a2b00ab860280b4309578827600160006101000a81548173ffffffffffffffffffffffffffffffffffffffff021916908373ffffffffffffffffffffffffffffffffffffffff160217905550610193565b600033905090565b60008060009054906101000a900473ffffffffffffffffffffffffffffffffffffffff169050816000806101000a81548173ffffffffffffffffffffffffffffffffffffffff021916908373ffffffffffffffffffffffffffffffffffffffff1602179055508173ffffffffffffffffffffffffffffffffffffffff168173ffffffffffffffffffffffffffffffffffffffff167f8be0079c531659141344cd1fd0a4f28419497f9722a3daafe3b4186f6b6457e060405160405180910390a35050565b611237806101a26000396000f3fe608060405234801561001057600080fd5b50600436106100b0576000357c010000000000000000000000000000000000000000000000000000000090048063c6322bc711610083578063c6322bc714610115578063cbc130e814610131578063d59134ba1461014d578063f2fde38b1461016b578063f47393e714610187576100b0565b806355cdcddf146100b5578063715018a6146100d15780638da5cb5b146100db578063b13a1a0a146100f9575b600080fd5b6100cf60048036038101906100ca9190610bbd565b6101a3565b005b6100d96104b2565b005b6100e361053a565b6040516100f09190610bf9565b60405180910390f35b610113600480360381019061010e9190610bbd565b610563565b005b61012f600480360381019061012a9190610c4a565b6106eb565b005b61014b60048036038101906101469190610c4a565b6107b6565b005b610155610881565b6040516101629190610bf9565b60405180910390f35b61018560048036038101906101809190610bbd565b6108a7565b005b6101a1600480360381019061019c9190610caf565b61099f565b005b600360009054906101000a900460ff161561023d57600454600560008373ffffffffffffffffffffffffffffffffffffffff1673ffffffffffffffffffffffffffffffffffffffff16815260200190815260200160002054111561023c576040517f08c379a000000000000000000000000000000000000000000000000000000000815260040161023390610d39565b60405180910390fd5b5b6000600160009054906101000a900473ffffffffffffffffffffffffffffffffffffffff16905060008173ffffffffffffffffffffffffffffffffffffffff166370a08231306040518263ffffffff167c01000000000000000000000000000000000000000000000000000000000281526004016102bb9190610bf9565b602060405180830381865afa1580156102d8573d6000803e3d6000fd5b505050506040513d601f19601f820116820180604052508101906102fc9190610d6e565b9050600254811015610343576040517f08c379a000000000000000000000000000000000000000000000000000000000815260040161033a90610de7565b60405180910390fd5b8173ffffffffffffffffffffffffffffffffffffffff1663a9059cbb846002546040518363ffffffff167c010000000000000000000000000000000000000000000000000000000002815260040161039c929190610e16565b6020604051808303816000875af11580156103bb573d6000803e3d6000fd5b505050506040513d601f19601f820116820180604052508101906103df9190610e54565b61041e576040517f08c379a000000000000000000000000000000000000000000000000000000000815260040161041590610ecd565b60405180910390fd5b6001600560008573ffffffffffffffffffffffffffffffffffffffff1673ffffffffffffffffffffffffffffffffffffffff1681526020019081526020016000205461046a9190610f1c565b600560008573ffffffffffffffffffffffffffffffffffffffff1673ffffffffffffffffffffffffffffffffffffffff16815260200190815260200160002081905550505050565b6104ba610a8e565b73ffffffffffffffffffffffffffffffffffffffff166104d861053a565b73ffffffffffffffffffffffffffffffffffffffff161461052e576040517f08c379a000000000000000000000000000000000000000000000000000000000815260040161052590610fbe565b60405180910390fd5b6105386000610a96565b565b60008060009054906101000a900473ffffffffffffffffffffffffffffffffffffffff16905090565b61056b610a8e565b73ffffffffffffffffffffffffffffffffffffffff1661058961053a565b73ffffffffffffffffffffffffffffffffffffffff16146105df576040517f08c379a00000000000000000000000000000000000000000000000000000000081526004016105d690610fbe565b60405180910390fd5b8073ffffffffffffffffffffffffffffffffffffffff16600160009054906101000a900473ffffffffffffffffffffffffffffffffffffffff1673ffffffffffffffffffffffffffffffffffffffff161415610670576040517f08c379a00000000000000000000000000000000000000000000000000000000081526004016106679061102a565b60405180910390fd5b80600160006101000a81548173ffffffffffffffffffffffffffffffffffffffff021916908373ffffffffffffffffffffffffffffffffffffffff1602179055507fc02dd078a5d63c2645d0da4b3173f425d353dafebbb14064059edbd4244a31bf816040516106e09190611070565b60405180910390a150565b6106f3610a8e565b73ffffffffffffffffffffffffffffffffffffffff1661071161053a565b73ffffffffffffffffffffffffffffffffffffffff1614610767576040517f08c379a000000000000000000000000000000000000000000000000000000000815260040161075e90610fbe565b60405180910390fd5b8060045414156107ac576040517f08c379a00000000000000000000000000000000000000000000000000000000081526004016107a3906110e3565b60405180910390fd5b8060048190555050565b6107be610a8e565b73ffffffffffffffffffffffffffffffffffffffff166107dc61053a565b73ffffffffffffffffffffffffffffffffffffffff1614610832576040517f08c379a000000000000000000000000000000000000000000000000000000000815260040161082990610fbe565b60405180910390fd5b806002541415610877576040517f08c379a000000000000000000000000000000000000000000000000000000000815260040161086e906110e3565b60405180910390fd5b8060028190555050565b600160009054906101000a900473ffffffffffffffffffffffffffffffffffffffff1681565b6108af610a8e565b73ffffffffffffffffffffffffffffffffffffffff166108cd61053a565b73ffffffffffffffffffffffffffffffffffffffff1614610923576040517f08c379a000000000000000000000000000000000000000000000000000000000815260040161091a90610fbe565b60405180910390fd5b600073ffffffffffffffffffffffffffffffffffffffff168173ffffffffffffffffffffffffffffffffffffffff161415610993576040517f08c379a000000000000000000000000000000000000000000000000000000000815260040161098a90611175565b60405180910390fd5b61099c81610a96565b50565b6109a7610a8e565b73ffffffffffffffffffffffffffffffffffffffff166109c561053a565b73ffffffffffffffffffffffffffffffffffffffff1614610a1b576040517f08c379a0000000000000000000000000000000000000000000000000000000008152600401610a1290610fbe565b60405180910390fd5b801515600360009054906101000a900460ff1615151415610a71576040517f08c379a0000000000000000000000000000000000000000000000000000000008152600401610a68906111e1565b60405180910390fd5b80600360006101000a81548160ff02191690831515021790555050565b600033905090565b60008060009054906101000a900473ffffffffffffffffffffffffffffffffffffffff169050816000806101000a81548173ffffffffffffffffffffffffffffffffffffffff021916908373ffffffffffffffffffffffffffffffffffffffff1602179055508173ffffffffffffffffffffffffffffffffffffffff168173ffffffffffffffffffffffffffffffffffffffff167f8be0079c531659141344cd1fd0a4f28419497f9722a3daafe3b4186f6b6457e060405160405180910390a35050565b600080fd5b600073ffffffffffffffffffffffffffffffffffffffff82169050919050565b6000610b8a82610b5f565b9050919050565b610b9a81610b7f565b8114610ba557600080fd5b50565b600081359050610bb781610b91565b92915050565b600060208284031215610bd357610bd2610b5a565b5b6000610be184828501610ba8565b91505092915050565b610bf381610b7f565b82525050565b6000602082019050610c0e6000830184610bea565b92915050565b6000819050919050565b610c2781610c14565b8114610c3257600080fd5b50565b600081359050610c4481610c1e565b92915050565b600060208284031215610c6057610c5f610b5a565b5b6000610c6e84828501610c35565b91505092915050565b60008115159050919050565b610c8c81610c77565b8114610c9757600080fd5b50565b600081359050610ca981610c83565b92915050565b600060208284031215610cc557610cc4610b5a565b5b6000610cd384828501610c9a565b91505092915050565b600082825260208201905092915050565b7f4f6e6c7920636c61696d206f6e63650000000000000000000000000000000000600082015250565b6000610d23600f83610cdc565b9150610d2e82610ced565b602082019050919050565b60006020820190508181036000830152610d5281610d16565b9050919050565b600081519050610d6881610c1e565b92915050565b600060208284031215610d8457610d83610b5a565b5b6000610d9284828501610d59565b91505092915050565b7f4e6f7420656e6f7567682062616c616e6365206f6e2020636f6e747261637421600082015250565b6000610dd1602083610cdc565b9150610ddc82610d9b565b602082019050919050565b60006020820190508181036000830152610e0081610dc4565b9050919050565b610e1081610c14565b82525050565b6000604082019050610e2b6000830185610bea565b610e386020830184610e07565b9392505050565b600081519050610e4e81610c83565b92915050565b600060208284031215610e6a57610e69610b5a565b5b6000610e7884828501610e3f565b91505092915050565b7f4572726f72207472616e73666572696e6720746f6b656e730000000000000000600082015250565b6000610eb7601883610cdc565b9150610ec282610e81565b602082019050919050565b60006020820190508181036000830152610ee681610eaa565b9050919050565b7f4e487b7100000000000000000000000000000000000000000000000000000000600052601160045260246000fd5b6000610f2782610c14565b9150610f3283610c14565b9250827fffffffffffffffffffffffffffffffffffffffffffffffffffffffffffffffff03821115610f6757610f66610eed565b5b828201905092915050565b7f4f776e61626c653a2063616c6c6572206973206e6f7420746865206f776e6572600082015250565b6000610fa8602083610cdc565b9150610fb382610f72565b602082019050919050565b60006020820190508181036000830152610fd781610f9b565b9050919050565b7f5468697320636f6e74726163742077617320616c726561647920757365640000600082015250565b6000611014601e83610cdc565b915061101f82610fde565b602082019050919050565b6000602082019050818103600083015261104381611007565b9050919050565b7f706b740000000000000000000000000000000000000000000000000000000000815250565b60006040820190506110856000830184610bea565b6110916020830161104a565b92915050565b7f5468697320616d6f756e742077617320616c7265616479207573656400000000600082015250565b60006110cd601c83610cdc565b91506110d882611097565b602082019050919050565b600060208201905081810360008301526110fc816110c0565b9050919050565b7f4f776e61626c653a206e6577206f776e657220697320746865207a65726f206160008201527f6464726573730000000000000000000000000000000000000000000000000000602082015250565b600061115f602683610cdc565b915061116a82611103565b604082019050919050565b6000602082019050818103600083015261118e81611152565b9050919050565b7f546869732076616c75652077617320616c726561647920757365640000000000600082015250565b60006111cb601b83610cdc565b91506111d682611195565b602082019050919050565b600060208201905081810360008301526111fa816111be565b905091905056fea26469706673582212205fb83dc8c4343d91008c1060e8f3f087a3cf216a561354ef88f0a15bc36d626264736f6c634300080c0033",
  "immutableReferences": {},
  "source": "// SPDX-License-Identifier: MIT\npragma solidity ^0.8.0;\npragma abicoder v2;\n\nimport \"@openzeppelin/contracts/utils/Context.sol\";\nimport '@openzeppelin/contracts/utils/math/SafeMath.sol';\nimport \"@openzeppelin/contracts/access/Ownable.sol\";\nimport './IBEP20.sol';\n\n\ncontract ClaimPKT is Context, Ownable\n{\n    using SafeMath for uint256;\n    address public pktContract;\n    uint256 private initialTokens = 8500 * 10**18;\n    bool private isLimitedClaim = false;\n    uint256 private numberOfClaim = 1;\n    mapping (address => uint256) private _isClaimedPKT;\n    event LibContractAddressUpdate(address newAddress, bytes32 contractName);\n\n    constructor(\n    ) {\n        pktContract = payable(0x29bc99648bA29461A2B00aB860280B4309578827);\n    }\n\n    function setPKTContractAddress(address _contract)\n    external\n    onlyOwner\n    {\n        require(pktContract != _contract, 'This contract was already used');\n        pktContract = _contract;\n        emit LibContractAddressUpdate(_contract, 'pkt');\n    }\n\n    function setInitialTokens(uint256 _amount) external onlyOwner {\n        require(initialTokens != _amount, 'This amount was already used');\n        initialTokens = _amount;\n    }\n\n    function setNumberOfClaim(uint256 value) external onlyOwner {\n        require(numberOfClaim != value, 'This amount was already used');\n        numberOfClaim = value;\n    }\n\n    function setLimitedClaim(bool value) external onlyOwner {\n        require(isLimitedClaim != value, 'This value was already used');\n        isLimitedClaim = value;\n    }\n\n    function sendInitialTokensToPlayer(address _to)\n    external\n    {\n        if (isLimitedClaim) {\n            require(_isClaimedPKT[_to] <= numberOfClaim, \"Only claim once\");\n        }\n        IBEP20 PKTToken = IBEP20(pktContract);\n        uint256 balance = PKTToken.balanceOf(address(this));\n        // Check contract balance\n        if (balance < initialTokens) {\n            revert(\"Not enough balance on  contract!\");\n        }\n        if (!PKTToken.transfer(_to, initialTokens)) {\n            revert(\"Error transfering tokens\");\n        }\n\n        _isClaimedPKT[_to] = _isClaimedPKT[_to]  +1;\n    }\n\n}\n",
  "sourcePath": "/Users/macbook/Desktop/PiratesKingContract2022/PiratesKingContract2022/contracts/ClaimPKT.sol",
  "compiler": {
    "name": "solc",
    "version": "0.8.12+commit.f00d7308.Emscripten.clang"
  },
  "schemaVersion": "3.4.4",
  "updatedAt": "2022-02-22T05:36:20.919Z",
  "devdoc": {
    "kind": "dev",
    "methods": {
      "owner()": {
        "details": "Returns the address of the current owner."
      },
      "renounceOwnership()": {
        "details": "Leaves the contract without owner. It will not be possible to call `onlyOwner` functions anymore. Can only be called by the current owner. NOTE: Renouncing ownership will leave the contract without an owner, thereby removing any functionality that is only available to the owner."
      },
      "transferOwnership(address)": {
        "details": "Transfers ownership of the contract to a new account (`newOwner`). Can only be called by the current owner."
      }
    },
    "version": 1
  },
  "userdoc": {
    "kind": "user",
    "methods": {},
    "version": 1
  }
}