{
  "contractName": "FindTreasureIsland",
  "abi": [
    {
      "inputs": [
        {
          "internalType": "address",
          "name": "vrfCoordinator",
          "type": "address"
        },
        {
          "internalType": "address",
          "name": "link",
          "type": "address"
        },
        {
          "internalType": "bytes32",
          "name": "keyHash",
          "type": "bytes32"
        },
        {
          "internalType": "uint256",
          "name": "fee",
          "type": "uint256"
        }
      ],
      "stateMutability": "nonpayable",
      "type": "constructor"
    },
    {
      "anonymous": false,
      "inputs": [
        {
          "indexed": true,
          "internalType": "bytes32",
          "name": "requestId",
          "type": "bytes32"
        },
        {
          "indexed": true,
          "internalType": "uint256",
          "name": "result",
          "type": "uint256"
        }
      ],
      "name": "DiceLanded",
      "type": "event"
    },
    {
      "anonymous": false,
      "inputs": [
        {
          "indexed": true,
          "internalType": "bytes32",
          "name": "requestId",
          "type": "bytes32"
        },
        {
          "indexed": true,
          "internalType": "string",
          "name": "roller",
          "type": "string"
        }
      ],
      "name": "DiceRolled",
      "type": "event"
    },
    {
      "anonymous": false,
      "inputs": [
        {
          "indexed": true,
          "internalType": "address",
          "name": "from",
          "type": "address"
        },
        {
          "indexed": true,
          "internalType": "address",
          "name": "to",
          "type": "address"
        }
      ],
      "name": "OwnershipTransferRequested",
      "type": "event"
    },
    {
      "anonymous": false,
      "inputs": [
        {
          "indexed": true,
          "internalType": "address",
          "name": "from",
          "type": "address"
        },
        {
          "indexed": true,
          "internalType": "address",
          "name": "to",
          "type": "address"
        }
      ],
      "name": "OwnershipTransferred",
      "type": "event"
    },
    {
      "inputs": [],
      "name": "acceptOwnership",
      "outputs": [],
      "stateMutability": "nonpayable",
      "type": "function"
    },
    {
      "inputs": [],
      "name": "owner",
      "outputs": [
        {
          "internalType": "address",
          "name": "",
          "type": "address"
        }
      ],
      "stateMutability": "view",
      "type": "function"
    },
    {
      "inputs": [
        {
          "internalType": "bytes32",
          "name": "requestId",
          "type": "bytes32"
        },
        {
          "internalType": "uint256",
          "name": "randomness",
          "type": "uint256"
        }
      ],
      "name": "rawFulfillRandomness",
      "outputs": [],
      "stateMutability": "nonpayable",
      "type": "function"
    },
    {
      "inputs": [
        {
          "internalType": "address",
          "name": "to",
          "type": "address"
        }
      ],
      "name": "transferOwnership",
      "outputs": [],
      "stateMutability": "nonpayable",
      "type": "function"
    },
    {
      "inputs": [
        {
          "internalType": "string",
          "name": "roller",
          "type": "string"
        }
      ],
      "name": "rollDice",
      "outputs": [
        {
          "internalType": "bytes32",
          "name": "requestId",
          "type": "bytes32"
        }
      ],
      "stateMutability": "nonpayable",
      "type": "function"
    },
    {
      "inputs": [
        {
          "internalType": "string",
          "name": "player",
          "type": "string"
        }
      ],
      "name": "treasureIsland",
      "outputs": [
        {
          "internalType": "string",
          "name": "",
          "type": "string"
        }
      ],
      "stateMutability": "view",
      "type": "function"
    },
    {
      "inputs": [
        {
          "internalType": "address",
          "name": "to",
          "type": "address"
        },
        {
          "internalType": "uint256",
          "name": "value",
          "type": "uint256"
        }
      ],
      "name": "withdrawLINK",
      "outputs": [],
      "stateMutability": "nonpayable",
      "type": "function"
    },
    {
      "inputs": [
        {
          "internalType": "bytes32",
          "name": "keyHash",
          "type": "bytes32"
        }
      ],
      "name": "setKeyHash",
      "outputs": [],
      "stateMutability": "nonpayable",
      "type": "function"
    },
    {
      "inputs": [],
      "name": "keyHash",
      "outputs": [
        {
          "internalType": "bytes32",
          "name": "",
          "type": "bytes32"
        }
      ],
      "stateMutability": "view",
      "type": "function"
    },
    {
      "inputs": [
        {
          "internalType": "uint256",
          "name": "fee",
          "type": "uint256"
        }
      ],
      "name": "setFee",
      "outputs": [],
      "stateMutability": "nonpayable",
      "type": "function"
    },
    {
      "inputs": [],
      "name": "fee",
      "outputs": [
        {
          "internalType": "uint256",
          "name": "",
          "type": "uint256"
        }
      ],
      "stateMutability": "view",
      "type": "function"
    }
  ],
  "bytecode": "0x60c06040523480156200001157600080fd5b50604051620021b0380380620021b08339818101604052810190620000379190620003d8565b3380600086868173ffffffffffffffffffffffffffffffffffffffff1660a08173ffffffffffffffffffffffffffffffffffffffff16815250508073ffffffffffffffffffffffffffffffffffffffff1660808173ffffffffffffffffffffffffffffffffffffffff16815250505050600073ffffffffffffffffffffffffffffffffffffffff168273ffffffffffffffffffffffffffffffffffffffff1614156200011a576040517f08c379a00000000000000000000000000000000000000000000000000000000081526004016200011190620004ab565b60405180910390fd5b81600160006101000a81548173ffffffffffffffffffffffffffffffffffffffff021916908373ffffffffffffffffffffffffffffffffffffffff160217905550600073ffffffffffffffffffffffffffffffffffffffff168173ffffffffffffffffffffffffffffffffffffffff1614620001ab57620001aa81620001c6640100000000026401000000009004565b5b5050508160038190555080600481905550505050506200053f565b3373ffffffffffffffffffffffffffffffffffffffff168173ffffffffffffffffffffffffffffffffffffffff16141562000238576040517f08c379a00000000000000000000000000000000000000000000000000000000081526004016200022f906200051d565b60405180910390fd5b80600260006101000a81548173ffffffffffffffffffffffffffffffffffffffff021916908373ffffffffffffffffffffffffffffffffffffffff1602179055508073ffffffffffffffffffffffffffffffffffffffff16600160009054906101000a900473ffffffffffffffffffffffffffffffffffffffff1673ffffffffffffffffffffffffffffffffffffffff167fed8889f560326eb138920d842192f0eb3dd22b4f139c87a2c57538e05bae127860405160405180910390a350565b600080fd5b600073ffffffffffffffffffffffffffffffffffffffff82169050919050565b60006200032a82620002fd565b9050919050565b6200033c816200031d565b81146200034857600080fd5b50565b6000815190506200035c8162000331565b92915050565b6000819050919050565b620003778162000362565b81146200038357600080fd5b50565b60008151905062000397816200036c565b92915050565b6000819050919050565b620003b2816200039d565b8114620003be57600080fd5b50565b600081519050620003d281620003a7565b92915050565b60008060008060808587031215620003f557620003f4620002f8565b5b600062000405878288016200034b565b945050602062000418878288016200034b565b93505060406200042b8782880162000386565b92505060606200043e87828801620003c1565b91505092959194509250565b600082825260208201905092915050565b7f43616e6e6f7420736574206f776e657220746f207a65726f0000000000000000600082015250565b6000620004936018836200044a565b9150620004a0826200045b565b602082019050919050565b60006020820190508181036000830152620004c68162000484565b9050919050565b7f43616e6e6f74207472616e7366657220746f2073656c66000000000000000000600082015250565b6000620005056017836200044a565b91506200051282620004cd565b602082019050919050565b600060208201905081810360008301526200053881620004f6565b9050919050565b60805160a051611c366200057a600039600081816103fa0152610b4401526000818161049e015281816106ae0152610b080152611c366000f3fe608060405234801561001057600080fd5b50600436106100c6576000357c010000000000000000000000000000000000000000000000000000000090048063983fbab21161008e578063983fbab2146101495780639854471014610165578063a6cdf55a14610181578063d4f3ce7b146101b1578063ddca3f43146101e1578063f2fde38b146101ff576100c6565b806361728f39146100cb57806369fe0e2d146100e957806379ba5097146101055780638da5cb5b1461010f57806394985ddd1461012d575b600080fd5b6100d361021b565b6040516100e09190610ecb565b60405180910390f35b61010360048036038101906100fe9190610f30565b610225565b005b61010d610237565b005b6101176103ce565b6040516101249190610f9e565b60405180910390f35b61014760048036038101906101429190610fe5565b6103f8565b005b610163600480360381019061015e9190611051565b610494565b005b61017f600480360381019061017a9190611091565b610599565b005b61019b60048036038101906101969190611204565b6105ab565b6040516101a891906112d5565b60405180910390f35b6101cb60048036038101906101c69190611204565b61069f565b6040516101d89190610ecb565b60405180910390f35b6101e96108a8565b6040516101f69190611306565b60405180910390f35b61021960048036038101906102149190611321565b6108b2565b005b6000600354905090565b61022d6108c6565b8060048190555050565b600260009054906101000a900473ffffffffffffffffffffffffffffffffffffffff1673ffffffffffffffffffffffffffffffffffffffff163373ffffffffffffffffffffffffffffffffffffffff16146102c7576040517f08c379a00000000000000000000000000000000000000000000000000000000081526004016102be9061139a565b60405180910390fd5b6000600160009054906101000a900473ffffffffffffffffffffffffffffffffffffffff16905033600160006101000a81548173ffffffffffffffffffffffffffffffffffffffff021916908373ffffffffffffffffffffffffffffffffffffffff1602179055506000600260006101000a81548173ffffffffffffffffffffffffffffffffffffffff021916908373ffffffffffffffffffffffffffffffffffffffff1602179055503373ffffffffffffffffffffffffffffffffffffffff168173ffffffffffffffffffffffffffffffffffffffff167f8be0079c531659141344cd1fd0a4f28419497f9722a3daafe3b4186f6b6457e060405160405180910390a350565b6000600160009054906101000a900473ffffffffffffffffffffffffffffffffffffffff16905090565b7f000000000000000000000000000000000000000000000000000000000000000073ffffffffffffffffffffffffffffffffffffffff163373ffffffffffffffffffffffffffffffffffffffff1614610486576040517f08c379a000000000000000000000000000000000000000000000000000000000815260040161047d90611406565b60405180910390fd5b6104908282610958565b5050565b61049c6108c6565b7f000000000000000000000000000000000000000000000000000000000000000073ffffffffffffffffffffffffffffffffffffffff1663a9059cbb83836040518363ffffffff167c0100000000000000000000000000000000000000000000000000000000028152600401610513929190611426565b6020604051808303816000875af1158015610532573d6000803e3d6000fd5b505050506040513d601f19601f820116820180604052508101906105569190611487565b610595576040517f08c379a000000000000000000000000000000000000000000000000000000000815260040161058c90611500565b60405180910390fd5b5050565b6105a16108c6565b8060038190555050565b606060006006836040516105bf919061155c565b908152602001604051809103902054141561060f576040517f08c379a0000000000000000000000000000000000000000000000000000000008152600401610606906115bf565b60405180910390fd5b602a600683604051610621919061155c565b9081526020016040518091039020541415610671576040517f08c379a00000000000000000000000000000000000000000000000000000000081526004016106689061162b565b60405180910390fd5b610698600683604051610684919061155c565b9081526020016040518091039020546109dd565b9050919050565b60006106a96108c6565b6004547f000000000000000000000000000000000000000000000000000000000000000073ffffffffffffffffffffffffffffffffffffffff166370a08231306040518263ffffffff167c01000000000000000000000000000000000000000000000000000000000281526004016107219190610f9e565b602060405180830381865afa15801561073e573d6000803e3d6000fd5b505050506040513d601f19601f820116820180604052508101906107629190611660565b10156107a3576040517f08c379a000000000000000000000000000000000000000000000000000000000815260040161079a906116d9565b60405180910390fd5b60006006836040516107b5919061155c565b90815260200160405180910390205414610804576040517f08c379a00000000000000000000000000000000000000000000000000000000081526004016107fb90611745565b60405180910390fd5b610812600354600454610b04565b90508160056000838152602001908152602001600020908051906020019061083b929190610e0f565b50602a60068360405161084e919061155c565b9081526020016040518091039020819055508160405161086e919061155c565b6040518091039020817fbaabe2263b8ff642436dcf63419c389e66bd4f1324d9c235512faeaf089680b460405160405180910390a3919050565b6000600454905090565b6108ba6108c6565b6108c381610c70565b50565b600160009054906101000a900473ffffffffffffffffffffffffffffffffffffffff1673ffffffffffffffffffffffffffffffffffffffff163373ffffffffffffffffffffffffffffffffffffffff1614610956576040517f08c379a000000000000000000000000000000000000000000000000000000000815260040161094d906117b1565b60405180910390fd5b565b600060016004836109699190611800565b6109739190611860565b90508060066005600086815260200190815260200160002060405161099891906119ab565b90815260200160405180910390208190555080837f909dd726737b7ffa4ae9d137e9edebe8a74a9c2910a4b60e8112f93ab217083760405160405180910390a3505050565b6060600060405180608001604052806040518060400160405280600c81526020017f4c455448455f49534c414e44000000000000000000000000000000000000000081525081526020016040518060400160405280600b81526020017f535459585f49534c414e4400000000000000000000000000000000000000000081525081526020016040518060400160405280600e81526020017f41434845524f4e5f49534c414e4400000000000000000000000000000000000081525081526020016040518060400160405280600e81526020017f434f43595455535f49534c414e44000000000000000000000000000000000000815250815250905080600184610ae691906119c2565b60048110610af757610af66119f6565b5b6020020151915050919050565b60007f000000000000000000000000000000000000000000000000000000000000000073ffffffffffffffffffffffffffffffffffffffff16634000aea07f000000000000000000000000000000000000000000000000000000000000000084866000604051602001610b78929190611a25565b6040516020818303038152906040526040518463ffffffff167c0100000000000000000000000000000000000000000000000000000000028152600401610bc193929190611aa3565b6020604051808303816000875af1158015610be0573d6000803e3d6000fd5b505050506040513d601f19601f82011682018060405250810190610c049190611487565b506000610c268460003060008089815260200190815260200160002054610d9f565b9050600160008086815260200190815260200160002054610c479190611860565b60008086815260200190815260200160002081905550610c678482610ddc565b91505092915050565b3373ffffffffffffffffffffffffffffffffffffffff168173ffffffffffffffffffffffffffffffffffffffff161415610cdf576040517f08c379a0000000000000000000000000000000000000000000000000000000008152600401610cd690611b2d565b60405180910390fd5b80600260006101000a81548173ffffffffffffffffffffffffffffffffffffffff021916908373ffffffffffffffffffffffffffffffffffffffff1602179055508073ffffffffffffffffffffffffffffffffffffffff16600160009054906101000a900473ffffffffffffffffffffffffffffffffffffffff1673ffffffffffffffffffffffffffffffffffffffff167fed8889f560326eb138920d842192f0eb3dd22b4f139c87a2c57538e05bae127860405160405180910390a350565b600084848484604051602001610db89493929190611b4d565b60405160208183030381529060405280519060200120600190049050949350505050565b60008282604051602001610df1929190611bd4565b60405160208183030381529060405280519060200120905092915050565b828054610e1b906118e5565b90600052602060002090601f016020900481019282610e3d5760008555610e84565b82601f10610e5657805160ff1916838001178555610e84565b82800160010185558215610e84579182015b82811115610e83578251825591602001919060010190610e68565b5b509050610e919190610e95565b5090565b5b80821115610eae576000816000905550600101610e96565b5090565b6000819050919050565b610ec581610eb2565b82525050565b6000602082019050610ee06000830184610ebc565b92915050565b6000604051905090565b600080fd5b600080fd5b6000819050919050565b610f0d81610efa565b8114610f1857600080fd5b50565b600081359050610f2a81610f04565b92915050565b600060208284031215610f4657610f45610ef0565b5b6000610f5484828501610f1b565b91505092915050565b600073ffffffffffffffffffffffffffffffffffffffff82169050919050565b6000610f8882610f5d565b9050919050565b610f9881610f7d565b82525050565b6000602082019050610fb36000830184610f8f565b92915050565b610fc281610eb2565b8114610fcd57600080fd5b50565b600081359050610fdf81610fb9565b92915050565b60008060408385031215610ffc57610ffb610ef0565b5b600061100a85828601610fd0565b925050602061101b85828601610f1b565b9150509250929050565b61102e81610f7d565b811461103957600080fd5b50565b60008135905061104b81611025565b92915050565b6000806040838503121561106857611067610ef0565b5b60006110768582860161103c565b925050602061108785828601610f1b565b9150509250929050565b6000602082840312156110a7576110a6610ef0565b5b60006110b584828501610fd0565b91505092915050565b600080fd5b600080fd5b6000601f19601f8301169050919050565b7f4e487b7100000000000000000000000000000000000000000000000000000000600052604160045260246000fd5b611111826110c8565b810181811067ffffffffffffffff821117156111305761112f6110d9565b5b80604052505050565b6000611143610ee6565b905061114f8282611108565b919050565b600067ffffffffffffffff82111561116f5761116e6110d9565b5b611178826110c8565b9050602081019050919050565b82818337600083830152505050565b60006111a76111a284611154565b611139565b9050828152602081018484840111156111c3576111c26110c3565b5b6111ce848285611185565b509392505050565b600082601f8301126111eb576111ea6110be565b5b81356111fb848260208601611194565b91505092915050565b60006020828403121561121a57611219610ef0565b5b600082013567ffffffffffffffff81111561123857611237610ef5565b5b611244848285016111d6565b91505092915050565b600081519050919050565b600082825260208201905092915050565b60005b8381101561128757808201518184015260208101905061126c565b83811115611296576000848401525b50505050565b60006112a78261124d565b6112b18185611258565b93506112c1818560208601611269565b6112ca816110c8565b840191505092915050565b600060208201905081810360008301526112ef818461129c565b905092915050565b61130081610efa565b82525050565b600060208201905061131b60008301846112f7565b92915050565b60006020828403121561133757611336610ef0565b5b60006113458482850161103c565b91505092915050565b7f4d7573742062652070726f706f736564206f776e657200000000000000000000600082015250565b6000611384601683611258565b915061138f8261134e565b602082019050919050565b600060208201905081810360008301526113b381611377565b9050919050565b7f4f6e6c7920565246436f6f7264696e61746f722063616e2066756c66696c6c00600082015250565b60006113f0601f83611258565b91506113fb826113ba565b602082019050919050565b6000602082019050818103600083015261141f816113e3565b9050919050565b600060408201905061143b6000830185610f8f565b61144860208301846112f7565b9392505050565b60008115159050919050565b6114648161144f565b811461146f57600080fd5b50565b6000815190506114818161145b565b92915050565b60006020828403121561149d5761149c610ef0565b5b60006114ab84828501611472565b91505092915050565b7f4e6f7420656e6f756768204c494e4b0000000000000000000000000000000000600082015250565b60006114ea600f83611258565b91506114f5826114b4565b602082019050919050565b60006020820190508181036000830152611519816114dd565b9050919050565b600081905092915050565b60006115368261124d565b6115408185611520565b9350611550818560208601611269565b80840191505092915050565b6000611568828461152b565b915081905092915050565b7f44696365206e6f7420726f6c6c65640000000000000000000000000000000000600082015250565b60006115a9600f83611258565b91506115b482611573565b602082019050919050565b600060208201905081810360008301526115d88161159c565b9050919050565b7f526f6c6c20696e2070726f677265737300000000000000000000000000000000600082015250565b6000611615601083611258565b9150611620826115df565b602082019050919050565b6000602082019050818103600083015261164481611608565b9050919050565b60008151905061165a81610f04565b92915050565b60006020828403121561167657611675610ef0565b5b60006116848482850161164b565b91505092915050565b7f4e6f7420656e6f756768204c494e4b20746f2070617920666565000000000000600082015250565b60006116c3601a83611258565b91506116ce8261168d565b602082019050919050565b600060208201905081810360008301526116f2816116b6565b9050919050565b7f416c726561647920726f6c6c6564000000000000000000000000000000000000600082015250565b600061172f600e83611258565b915061173a826116f9565b602082019050919050565b6000602082019050818103600083015261175e81611722565b9050919050565b7f4f6e6c792063616c6c61626c65206279206f776e657200000000000000000000600082015250565b600061179b601683611258565b91506117a682611765565b602082019050919050565b600060208201905081810360008301526117ca8161178e565b9050919050565b7f4e487b7100000000000000000000000000000000000000000000000000000000600052601260045260246000fd5b600061180b82610efa565b915061181683610efa565b925082611826576118256117d1565b5b828206905092915050565b7f4e487b7100000000000000000000000000000000000000000000000000000000600052601160045260246000fd5b600061186b82610efa565b915061187683610efa565b9250827fffffffffffffffffffffffffffffffffffffffffffffffffffffffffffffffff038211156118ab576118aa611831565b5b828201905092915050565b7f4e487b7100000000000000000000000000000000000000000000000000000000600052602260045260246000fd5b600060028204905060018216806118fd57607f821691505b60208210811415611911576119106118b6565b5b50919050565b60008190508160005260206000209050919050565b60008154611939816118e5565b6119438186611520565b9450600182166000811461195e576001811461196f576119a2565b60ff198316865281860193506119a2565b61197885611917565b60005b8381101561199a5781548189015260018201915060208101905061197b565b838801955050505b50505092915050565b60006119b7828461192c565b915081905092915050565b60006119cd82610efa565b91506119d883610efa565b9250828210156119eb576119ea611831565b5b828203905092915050565b7f4e487b7100000000000000000000000000000000000000000000000000000000600052603260045260246000fd5b6000604082019050611a3a6000830185610ebc565b611a4760208301846112f7565b9392505050565b600081519050919050565b600082825260208201905092915050565b6000611a7582611a4e565b611a7f8185611a59565b9350611a8f818560208601611269565b611a98816110c8565b840191505092915050565b6000606082019050611ab86000830186610f8f565b611ac560208301856112f7565b8181036040830152611ad78184611a6a565b9050949350505050565b7f43616e6e6f74207472616e7366657220746f2073656c66000000000000000000600082015250565b6000611b17601783611258565b9150611b2282611ae1565b602082019050919050565b60006020820190508181036000830152611b4681611b0a565b9050919050565b6000608082019050611b626000830187610ebc565b611b6f60208301866112f7565b611b7c6040830185610f8f565b611b8960608301846112f7565b95945050505050565b6000819050919050565b611bad611ba882610eb2565b611b92565b82525050565b6000819050919050565b611bce611bc982610efa565b611bb3565b82525050565b6000611be08285611b9c565b602082019150611bf08284611bbd565b602082019150819050939250505056fea26469706673582212207d82c4a14b4f223be0d23e2e15633822b1fe4fc0863449c4014f41017a77e26264736f6c634300080c0033",
  "immutableReferences": {
    "255": [
      {
        "length": 32,
        "start": 1182
      },
      {
        "length": 32,
        "start": 1710
      },
      {
        "length": 32,
        "start": 2824
      }
    ],
    "257": [
      {
        "length": 32,
        "start": 1018
      },
      {
        "length": 32,
        "start": 2884
      }
    ]
  },
  "source": "// SPDX-License-Identifier: MIT\npragma solidity ^0.8.0;\n\nimport \"@chainlink/contracts/src/v0.8/VRFConsumerBase.sol\";\nimport \"@chainlink/contracts/src/v0.8/ConfirmedOwner.sol\";\n\n/**\n * @notice A Chainlink VRF consumer which uses randomness to mimic the rolling\n * of a 20 sided die\n * @dev This is only an example implementation and not necessarily suitable for mainnet.\n */\n\n/**\n * Request testnet LINK and ETH here: https://faucets.chain.link/\n * Find information on LINK Token Contracts and get the latest ETH and LINK faucets here: https://docs.chain.link/docs/link-token-contracts/\n */\n\ncontract FindTreasureIsland is VRFConsumerBase, ConfirmedOwner(msg.sender) {\n    uint256 private constant ROLL_IN_PROGRESS = 42;\n\n    bytes32 private s_keyHash;\n    uint256 private s_fee;\n    mapping(bytes32 => string) private s_rollers;\n    mapping(string => uint256) private s_results;\n\n    event DiceRolled(bytes32 indexed requestId, string indexed roller);\n    event DiceLanded(bytes32 indexed requestId, uint256 indexed result);\n\n    /**\n     * @notice Constructor inherits VRFConsumerBase\n     *\n     * @dev NETWORK: KOVAN\n     * @dev   Chainlink VRF Coordinator address: 0xdD3782915140c8f3b190B5D67eAc6dc5760C46E9\n     * @dev   LINK token address:                0x84b9B910527Ad5C03A9Ca831909E21e236EA7b06\n     * @dev   Key Hash:   0x6c3699283bda56ad74f6b855546325b68d482e983852a7a82979cc4807b641f4\n     * @dev   Fee:        0.1 LINK (100000000000000000)\n     *\n     * @param vrfCoordinator address of the VRF Coordinator\n     * @param link address of the LINK token\n     * @param keyHash bytes32 representing the hash of the VRF job\n     * @param fee uint256 fee to pay the VRF oracle\n     */\n    constructor(address vrfCoordinator, address link, bytes32 keyHash, uint256 fee)\n    VRFConsumerBase(vrfCoordinator, link)\n    {\n        s_keyHash = keyHash;\n        s_fee = fee;\n\n    }\n\n    /**\n     * @notice Requests randomness\n     * @dev Warning: if the VRF response is delayed, avoid calling requestRandomness repeatedly\n     * as that would give miners/VRF operators latitude about which VRF response arrives first.\n     * @dev You must review your implementation details with extreme care.\n     *\n     * @param roller address of the roller\n     */\n    function rollDice(string memory roller) public onlyOwner returns (bytes32 requestId) {\n        require(LINK.balanceOf(address(this)) >= s_fee, \"Not enough LINK to pay fee\");\n        require(s_results[roller] == 0, \"Already rolled\");\n        requestId = requestRandomness(s_keyHash, s_fee);\n        s_rollers[requestId] = roller;\n        s_results[roller] = ROLL_IN_PROGRESS;\n        emit DiceRolled(requestId, roller);\n    }\n\n    /**\n     * @notice Callback function used by VRF Coordinator to return the random number\n     * to this contract.\n     * @dev Some action on the contract state should be taken here, like storing the result.\n     * @dev WARNING: take care to avoid having multiple VRF requests in flight if their order of arrival would result\n     * in contract states with different outcomes. Otherwise miners or the VRF operator would could take advantage\n     * by controlling the order.\n     * @dev The VRF Coordinator will only send this function verified responses, and the parent VRFConsumerBase\n     * contract ensures that this method only receives randomness from the designated VRFCoordinator.\n     *\n     * @param requestId bytes32\n     * @param randomness The random result returned by the oracle\n     */\n    function fulfillRandomness(bytes32 requestId, uint256 randomness) internal override {\n        uint256 d20Value = (randomness % 4) + 1;\n        s_results[s_rollers[requestId]] = d20Value;\n        emit DiceLanded(requestId, d20Value);\n    }\n\n    /**\n     * @notice Get the house assigned to the player once the address has rolled\n     * @param player address\n     * @return house as a string\n     */\n    function treasureIsland(string memory player) public view returns (string memory) {\n        require(s_results[player] != 0, \"Dice not rolled\");\n        require(s_results[player] != ROLL_IN_PROGRESS, \"Roll in progress\");\n        return getIslandName(s_results[player]);\n    }\n\n    /**\n     * @notice Withdraw LINK from this contract.\n     * @dev this is an example only, and in a real contract withdrawals should\n     * happen according to the established withdrawal pattern:\n     * https://docs.soliditylang.org/en/v0.4.24/common-patterns.html#withdrawal-from-contracts\n     * @param to the address to withdraw LINK to\n     * @param value the amount of LINK to withdraw\n     */\n    function withdrawLINK(address to, uint256 value) public onlyOwner {\n        require(LINK.transfer(to, value), \"Not enough LINK\");\n    }\n\n    /**\n     * @notice Set the key hash for the oracle\n     *\n     * @param keyHash bytes32\n     */\n    function setKeyHash(bytes32 keyHash) public onlyOwner {\n        s_keyHash = keyHash;\n    }\n\n    /**\n     * @notice Get the current key hash\n     *\n     * @return bytes32\n     */\n    function keyHash() public view returns (bytes32) {\n        return s_keyHash;\n    }\n\n    /**\n     * @notice Set the oracle fee for requesting randomness\n     *\n     * @param fee uint256\n     */\n    function setFee(uint256 fee) public onlyOwner {\n        s_fee = fee;\n    }\n\n    /**\n     * @notice Get the current fee\n     *\n     * @return uint256\n     */\n    function fee() public view returns (uint256) {\n        return s_fee;\n    }\n\n    /**\n     * @notice Get the island namne from the id\n     * @param id uint256\n     * @return island name string\n     */\n    function getIslandName(uint256 id) private pure returns (string memory) {\n        string[4] memory islandNames = [\n        \"LETHE_ISLAND\",\n        \"STYX_ISLAND\",\n        \"ACHERON_ISLAND\",\n        \"COCYTUS_ISLAND\"\n        ];\n        return islandNames[id - 1];\n    }\n}\n",
  "sourcePath": "/Users/macbook/Desktop/PiratesKingContract2022/PiratesKingContract2022/contracts/FindTreasureIsland.sol",
  "compiler": {
    "name": "solc",
    "version": "0.8.12+commit.f00d7308.Emscripten.clang"
  },
  "schemaVersion": "3.4.4",
  "updatedAt": "2022-02-25T14:27:16.495Z",
  "devdoc": {
    "kind": "dev",
    "methods": {
      "constructor": {
        "details": "NETWORK: KOVANChainlink VRF Coordinator address: 0xdD3782915140c8f3b190B5D67eAc6dc5760C46E9LINK token address:                0x84b9B910527Ad5C03A9Ca831909E21e236EA7b06Key Hash:   0x6c3699283bda56ad74f6b855546325b68d482e983852a7a82979cc4807b641f4Fee:        0.1 LINK (100000000000000000)",
        "params": {
          "fee": "uint256 fee to pay the VRF oracle",
          "keyHash": "bytes32 representing the hash of the VRF job",
          "link": "address of the LINK token",
          "vrfCoordinator": "address of the VRF Coordinator"
        }
      },
      "fee()": {
        "returns": {
          "_0": "uint256"
        }
      },
      "keyHash()": {
        "returns": {
          "_0": "bytes32"
        }
      },
      "rollDice(string)": {
        "details": "Warning: if the VRF response is delayed, avoid calling requestRandomness repeatedly as that would give miners/VRF operators latitude about which VRF response arrives first.You must review your implementation details with extreme care.",
        "params": {
          "roller": "address of the roller"
        }
      },
      "setFee(uint256)": {
        "params": {
          "fee": "uint256"
        }
      },
      "setKeyHash(bytes32)": {
        "params": {
          "keyHash": "bytes32"
        }
      },
      "treasureIsland(string)": {
        "params": {
          "player": "address"
        },
        "returns": {
          "_0": "house as a string"
        }
      },
      "withdrawLINK(address,uint256)": {
        "details": "this is an example only, and in a real contract withdrawals should happen according to the established withdrawal pattern: https://docs.soliditylang.org/en/v0.4.24/common-patterns.html#withdrawal-from-contracts",
        "params": {
          "to": "the address to withdraw LINK to",
          "value": "the amount of LINK to withdraw"
        }
      }
    },
    "version": 1
  },
  "userdoc": {
    "kind": "user",
    "methods": {
      "acceptOwnership()": {
        "notice": "Allows an ownership transfer to be completed by the recipient."
      },
      "constructor": {
        "notice": "Constructor inherits VRFConsumerBase"
      },
      "fee()": {
        "notice": "Get the current fee"
      },
      "keyHash()": {
        "notice": "Get the current key hash"
      },
      "owner()": {
        "notice": "Get the current owner"
      },
      "rollDice(string)": {
        "notice": "Requests randomness"
      },
      "setFee(uint256)": {
        "notice": "Set the oracle fee for requesting randomness"
      },
      "setKeyHash(bytes32)": {
        "notice": "Set the key hash for the oracle"
      },
      "transferOwnership(address)": {
        "notice": "Allows an owner to begin transferring ownership to a new address, pending."
      },
      "treasureIsland(string)": {
        "notice": "Get the house assigned to the player once the address has rolled"
      },
      "withdrawLINK(address,uint256)": {
        "notice": "Withdraw LINK from this contract."
      }
    },
    "notice": "Request testnet LINK and ETH here: https://faucets.chain.link/ Find information on LINK Token Contracts and get the latest ETH and LINK faucets here: https://docs.chain.link/docs/link-token-contracts/",
    "version": 1
  }
}