{
  "contractName": "FindTreasureIsland",
  "abi": [
    {
      "inputs": [
        {
          "internalType": "address",
          "name": "vrfCoordinator",
          "type": "address"
        },
        {
          "internalType": "address",
          "name": "link",
          "type": "address"
        },
        {
          "internalType": "bytes32",
          "name": "keyHash",
          "type": "bytes32"
        },
        {
          "internalType": "uint256",
          "name": "fee",
          "type": "uint256"
        }
      ],
      "stateMutability": "nonpayable",
      "type": "constructor"
    },
    {
      "anonymous": false,
      "inputs": [
        {
          "indexed": true,
          "internalType": "bytes32",
          "name": "requestId",
          "type": "bytes32"
        },
        {
          "indexed": true,
          "internalType": "uint256",
          "name": "result",
          "type": "uint256"
        }
      ],
      "name": "DiceLanded",
      "type": "event"
    },
    {
      "anonymous": false,
      "inputs": [
        {
          "indexed": true,
          "internalType": "bytes32",
          "name": "requestId",
          "type": "bytes32"
        },
        {
          "indexed": true,
          "internalType": "string",
          "name": "roller",
          "type": "string"
        }
      ],
      "name": "DiceRolled",
      "type": "event"
    },
    {
      "anonymous": false,
      "inputs": [
        {
          "indexed": true,
          "internalType": "address",
          "name": "from",
          "type": "address"
        },
        {
          "indexed": true,
          "internalType": "address",
          "name": "to",
          "type": "address"
        }
      ],
      "name": "OwnershipTransferRequested",
      "type": "event"
    },
    {
      "anonymous": false,
      "inputs": [
        {
          "indexed": true,
          "internalType": "address",
          "name": "from",
          "type": "address"
        },
        {
          "indexed": true,
          "internalType": "address",
          "name": "to",
          "type": "address"
        }
      ],
      "name": "OwnershipTransferred",
      "type": "event"
    },
    {
      "inputs": [],
      "name": "acceptOwnership",
      "outputs": [],
      "stateMutability": "nonpayable",
      "type": "function"
    },
    {
      "inputs": [],
      "name": "owner",
      "outputs": [
        {
          "internalType": "address",
          "name": "",
          "type": "address"
        }
      ],
      "stateMutability": "view",
      "type": "function",
      "constant": true
    },
    {
      "inputs": [
        {
          "internalType": "bytes32",
          "name": "requestId",
          "type": "bytes32"
        },
        {
          "internalType": "uint256",
          "name": "randomness",
          "type": "uint256"
        }
      ],
      "name": "rawFulfillRandomness",
      "outputs": [],
      "stateMutability": "nonpayable",
      "type": "function"
    },
    {
      "inputs": [
        {
          "internalType": "address",
          "name": "to",
          "type": "address"
        }
      ],
      "name": "transferOwnership",
      "outputs": [],
      "stateMutability": "nonpayable",
      "type": "function"
    },
    {
      "inputs": [
        {
          "internalType": "string",
          "name": "roller",
          "type": "string"
        }
      ],
      "name": "rollDice",
      "outputs": [
        {
          "internalType": "bytes32",
          "name": "requestId",
          "type": "bytes32"
        }
      ],
      "stateMutability": "nonpayable",
      "type": "function"
    },
    {
      "inputs": [
        {
          "internalType": "string",
          "name": "player",
          "type": "string"
        }
      ],
      "name": "treasureIsland",
      "outputs": [
        {
          "internalType": "string",
          "name": "",
          "type": "string"
        }
      ],
      "stateMutability": "view",
      "type": "function",
      "constant": true
    },
    {
      "inputs": [
        {
          "internalType": "address",
          "name": "to",
          "type": "address"
        },
        {
          "internalType": "uint256",
          "name": "value",
          "type": "uint256"
        }
      ],
      "name": "withdrawLINK",
      "outputs": [],
      "stateMutability": "nonpayable",
      "type": "function"
    },
    {
      "inputs": [
        {
          "internalType": "bytes32",
          "name": "keyHash",
          "type": "bytes32"
        }
      ],
      "name": "setKeyHash",
      "outputs": [],
      "stateMutability": "nonpayable",
      "type": "function"
    },
    {
      "inputs": [],
      "name": "keyHash",
      "outputs": [
        {
          "internalType": "bytes32",
          "name": "",
          "type": "bytes32"
        }
      ],
      "stateMutability": "view",
      "type": "function",
      "constant": true
    },
    {
      "inputs": [
        {
          "internalType": "uint256",
          "name": "fee",
          "type": "uint256"
        }
      ],
      "name": "setFee",
      "outputs": [],
      "stateMutability": "nonpayable",
      "type": "function"
    },
    {
      "inputs": [],
      "name": "fee",
      "outputs": [
        {
          "internalType": "uint256",
          "name": "",
          "type": "uint256"
        }
      ],
      "stateMutability": "view",
      "type": "function",
      "constant": true
    }
  ],
  "bytecode": "0x60c06040523480156200001157600080fd5b5060405162002135380380620021358339818101604052810190620000379190620003cf565b3380600086868173ffffffffffffffffffffffffffffffffffffffff1660a08173ffffffffffffffffffffffffffffffffffffffff16815250508073ffffffffffffffffffffffffffffffffffffffff1660808173ffffffffffffffffffffffffffffffffffffffff16815250505050600073ffffffffffffffffffffffffffffffffffffffff168273ffffffffffffffffffffffffffffffffffffffff1614156200011a576040517f08c379a00000000000000000000000000000000000000000000000000000000081526004016200011190620004a2565b60405180910390fd5b81600160006101000a81548173ffffffffffffffffffffffffffffffffffffffff021916908373ffffffffffffffffffffffffffffffffffffffff160217905550600073ffffffffffffffffffffffffffffffffffffffff168173ffffffffffffffffffffffffffffffffffffffff1614620001a257620001a181620001bd60201b60201c565b5b50505081600381905550806004819055505050505062000536565b3373ffffffffffffffffffffffffffffffffffffffff168173ffffffffffffffffffffffffffffffffffffffff1614156200022f576040517f08c379a0000000000000000000000000000000000000000000000000000000008152600401620002269062000514565b60405180910390fd5b80600260006101000a81548173ffffffffffffffffffffffffffffffffffffffff021916908373ffffffffffffffffffffffffffffffffffffffff1602179055508073ffffffffffffffffffffffffffffffffffffffff16600160009054906101000a900473ffffffffffffffffffffffffffffffffffffffff1673ffffffffffffffffffffffffffffffffffffffff167fed8889f560326eb138920d842192f0eb3dd22b4f139c87a2c57538e05bae127860405160405180910390a350565b600080fd5b600073ffffffffffffffffffffffffffffffffffffffff82169050919050565b60006200032182620002f4565b9050919050565b620003338162000314565b81146200033f57600080fd5b50565b600081519050620003538162000328565b92915050565b6000819050919050565b6200036e8162000359565b81146200037a57600080fd5b50565b6000815190506200038e8162000363565b92915050565b6000819050919050565b620003a98162000394565b8114620003b557600080fd5b50565b600081519050620003c9816200039e565b92915050565b60008060008060808587031215620003ec57620003eb620002ef565b5b6000620003fc8782880162000342565b94505060206200040f8782880162000342565b935050604062000422878288016200037d565b92505060606200043587828801620003b8565b91505092959194509250565b600082825260208201905092915050565b7f43616e6e6f7420736574206f776e657220746f207a65726f0000000000000000600082015250565b60006200048a60188362000441565b9150620004978262000452565b602082019050919050565b60006020820190508181036000830152620004bd816200047b565b9050919050565b7f43616e6e6f74207472616e7366657220746f2073656c66000000000000000000600082015250565b6000620004fc60178362000441565b91506200050982620004c4565b602082019050919050565b600060208201905081810360008301526200052f81620004ed565b9050919050565b60805160a051611bc462000571600039600081816103dd0152610aef015260008181610481015281816106750152610ab30152611bc46000f3fe608060405234801561001057600080fd5b50600436106100a95760003560e01c8063983fbab211610071578063983fbab21461012c5780639854471014610148578063a6cdf55a14610164578063d4f3ce7b14610194578063ddca3f43146101c4578063f2fde38b146101e2576100a9565b806361728f39146100ae57806369fe0e2d146100cc57806379ba5097146100e85780638da5cb5b146100f257806394985ddd14610110575b600080fd5b6100b66101fe565b6040516100c39190610e59565b60405180910390f35b6100e660048036038101906100e19190610ebe565b610208565b005b6100f061021a565b005b6100fa6103b1565b6040516101079190610f2c565b60405180910390f35b61012a60048036038101906101259190610f73565b6103db565b005b61014660048036038101906101419190610fdf565b610477565b005b610162600480360381019061015d919061101f565b610560565b005b61017e60048036038101906101799190611192565b610572565b60405161018b9190611263565b60405180910390f35b6101ae60048036038101906101a99190611192565b610666565b6040516101bb9190610e59565b60405180910390f35b6101cc610853565b6040516101d99190611294565b60405180910390f35b6101fc60048036038101906101f791906112af565b61085d565b005b6000600354905090565b610210610871565b8060048190555050565b600260009054906101000a900473ffffffffffffffffffffffffffffffffffffffff1673ffffffffffffffffffffffffffffffffffffffff163373ffffffffffffffffffffffffffffffffffffffff16146102aa576040517f08c379a00000000000000000000000000000000000000000000000000000000081526004016102a190611328565b60405180910390fd5b6000600160009054906101000a900473ffffffffffffffffffffffffffffffffffffffff16905033600160006101000a81548173ffffffffffffffffffffffffffffffffffffffff021916908373ffffffffffffffffffffffffffffffffffffffff1602179055506000600260006101000a81548173ffffffffffffffffffffffffffffffffffffffff021916908373ffffffffffffffffffffffffffffffffffffffff1602179055503373ffffffffffffffffffffffffffffffffffffffff168173ffffffffffffffffffffffffffffffffffffffff167f8be0079c531659141344cd1fd0a4f28419497f9722a3daafe3b4186f6b6457e060405160405180910390a350565b6000600160009054906101000a900473ffffffffffffffffffffffffffffffffffffffff16905090565b7f000000000000000000000000000000000000000000000000000000000000000073ffffffffffffffffffffffffffffffffffffffff163373ffffffffffffffffffffffffffffffffffffffff1614610469576040517f08c379a000000000000000000000000000000000000000000000000000000000815260040161046090611394565b60405180910390fd5b6104738282610903565b5050565b61047f610871565b7f000000000000000000000000000000000000000000000000000000000000000073ffffffffffffffffffffffffffffffffffffffff1663a9059cbb83836040518363ffffffff1660e01b81526004016104da9291906113b4565b6020604051808303816000875af11580156104f9573d6000803e3d6000fd5b505050506040513d601f19601f8201168201806040525081019061051d9190611415565b61055c576040517f08c379a00000000000000000000000000000000000000000000000000000000081526004016105539061148e565b60405180910390fd5b5050565b610568610871565b8060038190555050565b6060600060068360405161058691906114ea565b90815260200160405180910390205414156105d6576040517f08c379a00000000000000000000000000000000000000000000000000000000081526004016105cd9061154d565b60405180910390fd5b602a6006836040516105e891906114ea565b9081526020016040518091039020541415610638576040517f08c379a000000000000000000000000000000000000000000000000000000000815260040161062f906115b9565b60405180910390fd5b61065f60068360405161064b91906114ea565b908152602001604051809103902054610988565b9050919050565b6000610670610871565b6004547f000000000000000000000000000000000000000000000000000000000000000073ffffffffffffffffffffffffffffffffffffffff166370a08231306040518263ffffffff1660e01b81526004016106cc9190610f2c565b602060405180830381865afa1580156106e9573d6000803e3d6000fd5b505050506040513d601f19601f8201168201806040525081019061070d91906115ee565b101561074e576040517f08c379a000000000000000000000000000000000000000000000000000000000815260040161074590611667565b60405180910390fd5b600060068360405161076091906114ea565b908152602001604051809103902054146107af576040517f08c379a00000000000000000000000000000000000000000000000000000000081526004016107a6906116d3565b60405180910390fd5b6107bd600354600454610aaf565b9050816005600083815260200190815260200160002090805190602001906107e6929190610d9d565b50602a6006836040516107f991906114ea565b9081526020016040518091039020819055508160405161081991906114ea565b6040518091039020817fbaabe2263b8ff642436dcf63419c389e66bd4f1324d9c235512faeaf089680b460405160405180910390a3919050565b6000600454905090565b610865610871565b61086e81610bff565b50565b600160009054906101000a900473ffffffffffffffffffffffffffffffffffffffff1673ffffffffffffffffffffffffffffffffffffffff163373ffffffffffffffffffffffffffffffffffffffff1614610901576040517f08c379a00000000000000000000000000000000000000000000000000000000081526004016108f89061173f565b60405180910390fd5b565b60006001600483610914919061178e565b61091e91906117ee565b9050806006600560008681526020019081526020016000206040516109439190611939565b90815260200160405180910390208190555080837f909dd726737b7ffa4ae9d137e9edebe8a74a9c2910a4b60e8112f93ab217083760405160405180910390a3505050565b6060600060405180608001604052806040518060400160405280600c81526020017f4c455448455f49534c414e44000000000000000000000000000000000000000081525081526020016040518060400160405280600b81526020017f535459585f49534c414e4400000000000000000000000000000000000000000081525081526020016040518060400160405280600e81526020017f41434845524f4e5f49534c414e4400000000000000000000000000000000000081525081526020016040518060400160405280600e81526020017f434f43595455535f49534c414e44000000000000000000000000000000000000815250815250905080600184610a919190611950565b60048110610aa257610aa1611984565b5b6020020151915050919050565b60007f000000000000000000000000000000000000000000000000000000000000000073ffffffffffffffffffffffffffffffffffffffff16634000aea07f000000000000000000000000000000000000000000000000000000000000000084866000604051602001610b239291906119b3565b6040516020818303038152906040526040518463ffffffff1660e01b8152600401610b5093929190611a31565b6020604051808303816000875af1158015610b6f573d6000803e3d6000fd5b505050506040513d601f19601f82011682018060405250810190610b939190611415565b506000610bb58460003060008089815260200190815260200160002054610d2e565b9050600160008086815260200190815260200160002054610bd691906117ee565b60008086815260200190815260200160002081905550610bf68482610d6a565b91505092915050565b3373ffffffffffffffffffffffffffffffffffffffff168173ffffffffffffffffffffffffffffffffffffffff161415610c6e576040517f08c379a0000000000000000000000000000000000000000000000000000000008152600401610c6590611abb565b60405180910390fd5b80600260006101000a81548173ffffffffffffffffffffffffffffffffffffffff021916908373ffffffffffffffffffffffffffffffffffffffff1602179055508073ffffffffffffffffffffffffffffffffffffffff16600160009054906101000a900473ffffffffffffffffffffffffffffffffffffffff1673ffffffffffffffffffffffffffffffffffffffff167fed8889f560326eb138920d842192f0eb3dd22b4f139c87a2c57538e05bae127860405160405180910390a350565b600084848484604051602001610d479493929190611adb565b6040516020818303038152906040528051906020012060001c9050949350505050565b60008282604051602001610d7f929190611b62565b60405160208183030381529060405280519060200120905092915050565b828054610da990611873565b90600052602060002090601f016020900481019282610dcb5760008555610e12565b82601f10610de457805160ff1916838001178555610e12565b82800160010185558215610e12579182015b82811115610e11578251825591602001919060010190610df6565b5b509050610e1f9190610e23565b5090565b5b80821115610e3c576000816000905550600101610e24565b5090565b6000819050919050565b610e5381610e40565b82525050565b6000602082019050610e6e6000830184610e4a565b92915050565b6000604051905090565b600080fd5b600080fd5b6000819050919050565b610e9b81610e88565b8114610ea657600080fd5b50565b600081359050610eb881610e92565b92915050565b600060208284031215610ed457610ed3610e7e565b5b6000610ee284828501610ea9565b91505092915050565b600073ffffffffffffffffffffffffffffffffffffffff82169050919050565b6000610f1682610eeb565b9050919050565b610f2681610f0b565b82525050565b6000602082019050610f416000830184610f1d565b92915050565b610f5081610e40565b8114610f5b57600080fd5b50565b600081359050610f6d81610f47565b92915050565b60008060408385031215610f8a57610f89610e7e565b5b6000610f9885828601610f5e565b9250506020610fa985828601610ea9565b9150509250929050565b610fbc81610f0b565b8114610fc757600080fd5b50565b600081359050610fd981610fb3565b92915050565b60008060408385031215610ff657610ff5610e7e565b5b600061100485828601610fca565b925050602061101585828601610ea9565b9150509250929050565b60006020828403121561103557611034610e7e565b5b600061104384828501610f5e565b91505092915050565b600080fd5b600080fd5b6000601f19601f8301169050919050565b7f4e487b7100000000000000000000000000000000000000000000000000000000600052604160045260246000fd5b61109f82611056565b810181811067ffffffffffffffff821117156110be576110bd611067565b5b80604052505050565b60006110d1610e74565b90506110dd8282611096565b919050565b600067ffffffffffffffff8211156110fd576110fc611067565b5b61110682611056565b9050602081019050919050565b82818337600083830152505050565b6000611135611130846110e2565b6110c7565b90508281526020810184848401111561115157611150611051565b5b61115c848285611113565b509392505050565b600082601f8301126111795761117861104c565b5b8135611189848260208601611122565b91505092915050565b6000602082840312156111a8576111a7610e7e565b5b600082013567ffffffffffffffff8111156111c6576111c5610e83565b5b6111d284828501611164565b91505092915050565b600081519050919050565b600082825260208201905092915050565b60005b838110156112155780820151818401526020810190506111fa565b83811115611224576000848401525b50505050565b6000611235826111db565b61123f81856111e6565b935061124f8185602086016111f7565b61125881611056565b840191505092915050565b6000602082019050818103600083015261127d818461122a565b905092915050565b61128e81610e88565b82525050565b60006020820190506112a96000830184611285565b92915050565b6000602082840312156112c5576112c4610e7e565b5b60006112d384828501610fca565b91505092915050565b7f4d7573742062652070726f706f736564206f776e657200000000000000000000600082015250565b60006113126016836111e6565b915061131d826112dc565b602082019050919050565b6000602082019050818103600083015261134181611305565b9050919050565b7f4f6e6c7920565246436f6f7264696e61746f722063616e2066756c66696c6c00600082015250565b600061137e601f836111e6565b915061138982611348565b602082019050919050565b600060208201905081810360008301526113ad81611371565b9050919050565b60006040820190506113c96000830185610f1d565b6113d66020830184611285565b9392505050565b60008115159050919050565b6113f2816113dd565b81146113fd57600080fd5b50565b60008151905061140f816113e9565b92915050565b60006020828403121561142b5761142a610e7e565b5b600061143984828501611400565b91505092915050565b7f4e6f7420656e6f756768204c494e4b0000000000000000000000000000000000600082015250565b6000611478600f836111e6565b915061148382611442565b602082019050919050565b600060208201905081810360008301526114a78161146b565b9050919050565b600081905092915050565b60006114c4826111db565b6114ce81856114ae565b93506114de8185602086016111f7565b80840191505092915050565b60006114f682846114b9565b915081905092915050565b7f44696365206e6f7420726f6c6c65640000000000000000000000000000000000600082015250565b6000611537600f836111e6565b915061154282611501565b602082019050919050565b600060208201905081810360008301526115668161152a565b9050919050565b7f526f6c6c20696e2070726f677265737300000000000000000000000000000000600082015250565b60006115a36010836111e6565b91506115ae8261156d565b602082019050919050565b600060208201905081810360008301526115d281611596565b9050919050565b6000815190506115e881610e92565b92915050565b60006020828403121561160457611603610e7e565b5b6000611612848285016115d9565b91505092915050565b7f4e6f7420656e6f756768204c494e4b20746f2070617920666565000000000000600082015250565b6000611651601a836111e6565b915061165c8261161b565b602082019050919050565b6000602082019050818103600083015261168081611644565b9050919050565b7f416c726561647920726f6c6c6564000000000000000000000000000000000000600082015250565b60006116bd600e836111e6565b91506116c882611687565b602082019050919050565b600060208201905081810360008301526116ec816116b0565b9050919050565b7f4f6e6c792063616c6c61626c65206279206f776e657200000000000000000000600082015250565b60006117296016836111e6565b9150611734826116f3565b602082019050919050565b600060208201905081810360008301526117588161171c565b9050919050565b7f4e487b7100000000000000000000000000000000000000000000000000000000600052601260045260246000fd5b600061179982610e88565b91506117a483610e88565b9250826117b4576117b361175f565b5b828206905092915050565b7f4e487b7100000000000000000000000000000000000000000000000000000000600052601160045260246000fd5b60006117f982610e88565b915061180483610e88565b9250827fffffffffffffffffffffffffffffffffffffffffffffffffffffffffffffffff03821115611839576118386117bf565b5b828201905092915050565b7f4e487b7100000000000000000000000000000000000000000000000000000000600052602260045260246000fd5b6000600282049050600182168061188b57607f821691505b6020821081141561189f5761189e611844565b5b50919050565b60008190508160005260206000209050919050565b600081546118c781611873565b6118d181866114ae565b945060018216600081146118ec57600181146118fd57611930565b60ff19831686528186019350611930565b611906856118a5565b60005b8381101561192857815481890152600182019150602081019050611909565b838801955050505b50505092915050565b600061194582846118ba565b915081905092915050565b600061195b82610e88565b915061196683610e88565b925082821015611979576119786117bf565b5b828203905092915050565b7f4e487b7100000000000000000000000000000000000000000000000000000000600052603260045260246000fd5b60006040820190506119c86000830185610e4a565b6119d56020830184611285565b9392505050565b600081519050919050565b600082825260208201905092915050565b6000611a03826119dc565b611a0d81856119e7565b9350611a1d8185602086016111f7565b611a2681611056565b840191505092915050565b6000606082019050611a466000830186610f1d565b611a536020830185611285565b8181036040830152611a6581846119f8565b9050949350505050565b7f43616e6e6f74207472616e7366657220746f2073656c66000000000000000000600082015250565b6000611aa56017836111e6565b9150611ab082611a6f565b602082019050919050565b60006020820190508181036000830152611ad481611a98565b9050919050565b6000608082019050611af06000830187610e4a565b611afd6020830186611285565b611b0a6040830185610f1d565b611b176060830184611285565b95945050505050565b6000819050919050565b611b3b611b3682610e40565b611b20565b82525050565b6000819050919050565b611b5c611b5782610e88565b611b41565b82525050565b6000611b6e8285611b2a565b602082019150611b7e8284611b4b565b602082019150819050939250505056fea2646970667358221220c601b7a1be2cc637585b3eee986d8b2877d77b040a0d402fdc28e2483d6dd46464736f6c634300080b0033",
  "immutableReferences": {
    "255": [
      {
        "length": 32,
        "start": 1153
      },
      {
        "length": 32,
        "start": 1653
      },
      {
        "length": 32,
        "start": 2739
      }
    ],
    "257": [
      {
        "length": 32,
        "start": 989
      },
      {
        "length": 32,
        "start": 2799
      }
    ]
  },
  "source": "// SPDX-License-Identifier: MIT\npragma solidity ^0.8.0;\n\nimport \"@chainlink/contracts/src/v0.8/VRFConsumerBase.sol\";\nimport \"@chainlink/contracts/src/v0.8/ConfirmedOwner.sol\";\n\n/**\n * @notice A Chainlink VRF consumer which uses randomness to mimic the rolling\n * of a 20 sided die\n * @dev This is only an example implementation and not necessarily suitable for mainnet.\n */\n\n/**\n * Request testnet LINK and ETH here: https://faucets.chain.link/\n * Find information on LINK Token Contracts and get the latest ETH and LINK faucets here: https://docs.chain.link/docs/link-token-contracts/\n */\n\ncontract FindTreasureIsland is VRFConsumerBase, ConfirmedOwner(msg.sender) {\n    uint256 private constant ROLL_IN_PROGRESS = 42;\n\n    bytes32 private s_keyHash;\n    uint256 private s_fee;\n    mapping(bytes32 => string) private s_rollers;\n    mapping(string => uint256) private s_results;\n\n    event DiceRolled(bytes32 indexed requestId, string indexed roller);\n    event DiceLanded(bytes32 indexed requestId, uint256 indexed result);\n\n    /**\n     * @notice Constructor inherits VRFConsumerBase\n     *\n     * @dev NETWORK: KOVAN\n     * @dev   Chainlink VRF Coordinator address: 0xdD3782915140c8f3b190B5D67eAc6dc5760C46E9\n     * @dev   LINK token address:                0x84b9B910527Ad5C03A9Ca831909E21e236EA7b06\n     * @dev   Key Hash:   0x6c3699283bda56ad74f6b855546325b68d482e983852a7a82979cc4807b641f4\n     * @dev   Fee:        0.1 LINK (100000000000000000)\n     *\n     * @param vrfCoordinator address of the VRF Coordinator\n     * @param link address of the LINK token\n     * @param keyHash bytes32 representing the hash of the VRF job\n     * @param fee uint256 fee to pay the VRF oracle\n     */\n    constructor(address vrfCoordinator, address link, bytes32 keyHash, uint256 fee)\n    VRFConsumerBase(vrfCoordinator, link)\n    {\n        s_keyHash = keyHash;\n        s_fee = fee;\n\n    }\n\n    /**\n     * @notice Requests randomness\n     * @dev Warning: if the VRF response is delayed, avoid calling requestRandomness repeatedly\n     * as that would give miners/VRF operators latitude about which VRF response arrives first.\n     * @dev You must review your implementation details with extreme care.\n     *\n     * @param roller address of the roller\n     */\n    function rollDice(string memory roller) public onlyOwner returns (bytes32 requestId) {\n        require(LINK.balanceOf(address(this)) >= s_fee, \"Not enough LINK to pay fee\");\n        require(s_results[roller] == 0, \"Already rolled\");\n        requestId = requestRandomness(s_keyHash, s_fee);\n        s_rollers[requestId] = roller;\n        s_results[roller] = ROLL_IN_PROGRESS;\n        emit DiceRolled(requestId, roller);\n    }\n\n    /**\n     * @notice Callback function used by VRF Coordinator to return the random number\n     * to this contract.\n     * @dev Some action on the contract state should be taken here, like storing the result.\n     * @dev WARNING: take care to avoid having multiple VRF requests in flight if their order of arrival would result\n     * in contract states with different outcomes. Otherwise miners or the VRF operator would could take advantage\n     * by controlling the order.\n     * @dev The VRF Coordinator will only send this function verified responses, and the parent VRFConsumerBase\n     * contract ensures that this method only receives randomness from the designated VRFCoordinator.\n     *\n     * @param requestId bytes32\n     * @param randomness The random result returned by the oracle\n     */\n    function fulfillRandomness(bytes32 requestId, uint256 randomness) internal override {\n        uint256 d20Value = (randomness % 4) + 1;\n        s_results[s_rollers[requestId]] = d20Value;\n        emit DiceLanded(requestId, d20Value);\n    }\n\n    /**\n     * @notice Get the house assigned to the player once the address has rolled\n     * @param player address\n     * @return house as a string\n     */\n    function treasureIsland(string memory player) public view returns (string memory) {\n        require(s_results[player] != 0, \"Dice not rolled\");\n        require(s_results[player] != ROLL_IN_PROGRESS, \"Roll in progress\");\n        return getIslandName(s_results[player]);\n    }\n\n    /**\n     * @notice Withdraw LINK from this contract.\n     * @dev this is an example only, and in a real contract withdrawals should\n     * happen according to the established withdrawal pattern:\n     * https://docs.soliditylang.org/en/v0.4.24/common-patterns.html#withdrawal-from-contracts\n     * @param to the address to withdraw LINK to\n     * @param value the amount of LINK to withdraw\n     */\n    function withdrawLINK(address to, uint256 value) public onlyOwner {\n        require(LINK.transfer(to, value), \"Not enough LINK\");\n    }\n\n    /**\n     * @notice Set the key hash for the oracle\n     *\n     * @param keyHash bytes32\n     */\n    function setKeyHash(bytes32 keyHash) public onlyOwner {\n        s_keyHash = keyHash;\n    }\n\n    /**\n     * @notice Get the current key hash\n     *\n     * @return bytes32\n     */\n    function keyHash() public view returns (bytes32) {\n        return s_keyHash;\n    }\n\n    /**\n     * @notice Set the oracle fee for requesting randomness\n     *\n     * @param fee uint256\n     */\n    function setFee(uint256 fee) public onlyOwner {\n        s_fee = fee;\n    }\n\n    /**\n     * @notice Get the current fee\n     *\n     * @return uint256\n     */\n    function fee() public view returns (uint256) {\n        return s_fee;\n    }\n\n    /**\n     * @notice Get the house namne from the id\n     * @param id uint256\n     * @return house name string\n     */\n    function getIslandName(uint256 id) private pure returns (string memory) {\n        string[4] memory islandNames = [\n        \"LETHE_ISLAND\",\n        \"STYX_ISLAND\",\n        \"ACHERON_ISLAND\",\n        \"COCYTUS_ISLAND\"\n        ];\n        return islandNames[id - 1];\n    }\n}\n",
  "sourcePath": "/Users/macbook/Desktop/tacrypto/contracts/FindTreasureIsland.sol",
  "compiler": {
    "name": "solc",
    "version": "0.8.11+commit.d7f03943.Emscripten.clang"
  },
  "schemaVersion": "3.4.4",
  "updatedAt": "2022-01-17T16:06:41.336Z",
  "networkType": "ethereum",
  "devdoc": {
    "kind": "dev",
    "methods": {
      "constructor": {
        "details": "NETWORK: KOVANChainlink VRF Coordinator address: 0xdD3782915140c8f3b190B5D67eAc6dc5760C46E9LINK token address:                0x84b9B910527Ad5C03A9Ca831909E21e236EA7b06Key Hash:   0x6c3699283bda56ad74f6b855546325b68d482e983852a7a82979cc4807b641f4Fee:        0.1 LINK (100000000000000000)",
        "params": {
          "fee": "uint256 fee to pay the VRF oracle",
          "keyHash": "bytes32 representing the hash of the VRF job",
          "link": "address of the LINK token",
          "vrfCoordinator": "address of the VRF Coordinator"
        }
      },
      "fee()": {
        "returns": {
          "_0": "uint256"
        }
      },
      "keyHash()": {
        "returns": {
          "_0": "bytes32"
        }
      },
      "rollDice(string)": {
        "details": "Warning: if the VRF response is delayed, avoid calling requestRandomness repeatedly as that would give miners/VRF operators latitude about which VRF response arrives first.You must review your implementation details with extreme care.",
        "params": {
          "roller": "address of the roller"
        }
      },
      "setFee(uint256)": {
        "params": {
          "fee": "uint256"
        }
      },
      "setKeyHash(bytes32)": {
        "params": {
          "keyHash": "bytes32"
        }
      },
      "treasureIsland(string)": {
        "params": {
          "player": "address"
        },
        "returns": {
          "_0": "house as a string"
        }
      },
      "withdrawLINK(address,uint256)": {
        "details": "this is an example only, and in a real contract withdrawals should happen according to the established withdrawal pattern: https://docs.soliditylang.org/en/v0.4.24/common-patterns.html#withdrawal-from-contracts",
        "params": {
          "to": "the address to withdraw LINK to",
          "value": "the amount of LINK to withdraw"
        }
      }
    },
    "version": 1
  },
  "userdoc": {
    "kind": "user",
    "methods": {
      "acceptOwnership()": {
        "notice": "Allows an ownership transfer to be completed by the recipient."
      },
      "constructor": {
        "notice": "Constructor inherits VRFConsumerBase"
      },
      "fee()": {
        "notice": "Get the current fee"
      },
      "keyHash()": {
        "notice": "Get the current key hash"
      },
      "owner()": {
        "notice": "Get the current owner"
      },
      "rollDice(string)": {
        "notice": "Requests randomness"
      },
      "setFee(uint256)": {
        "notice": "Set the oracle fee for requesting randomness"
      },
      "setKeyHash(bytes32)": {
        "notice": "Set the key hash for the oracle"
      },
      "transferOwnership(address)": {
        "notice": "Allows an owner to begin transferring ownership to a new address, pending."
      },
      "treasureIsland(string)": {
        "notice": "Get the house assigned to the player once the address has rolled"
      },
      "withdrawLINK(address,uint256)": {
        "notice": "Withdraw LINK from this contract."
      }
    },
    "notice": "Request testnet LINK and ETH here: https://faucets.chain.link/ Find information on LINK Token Contracts and get the latest ETH and LINK faucets here: https://docs.chain.link/docs/link-token-contracts/",
    "version": 1
  }
}