{
  "contractName": "PiratesKingChest",
  "abi": [
    {
      "inputs": [
        {
          "internalType": "address",
          "name": "_pktContract",
          "type": "address"
        },
        {
          "internalType": "address",
          "name": "_poolRewardAddress",
          "type": "address"
        }
      ],
      "stateMutability": "nonpayable",
      "type": "constructor"
    },
    {
      "anonymous": false,
      "inputs": [
        {
          "indexed": true,
          "internalType": "address",
          "name": "owner",
          "type": "address"
        },
        {
          "indexed": true,
          "internalType": "address",
          "name": "approved",
          "type": "address"
        },
        {
          "indexed": true,
          "internalType": "uint256",
          "name": "tokenId",
          "type": "uint256"
        }
      ],
      "name": "Approval",
      "type": "event"
    },
    {
      "anonymous": false,
      "inputs": [
        {
          "indexed": true,
          "internalType": "address",
          "name": "owner",
          "type": "address"
        },
        {
          "indexed": true,
          "internalType": "address",
          "name": "operator",
          "type": "address"
        },
        {
          "indexed": false,
          "internalType": "bool",
          "name": "approved",
          "type": "bool"
        }
      ],
      "name": "ApprovalForAll",
      "type": "event"
    },
    {
      "anonymous": false,
      "inputs": [
        {
          "indexed": false,
          "internalType": "address",
          "name": "newAddress",
          "type": "address"
        },
        {
          "indexed": false,
          "internalType": "bytes32",
          "name": "contractName",
          "type": "bytes32"
        }
      ],
      "name": "LibContractAddressUpdate",
      "type": "event"
    },
    {
      "anonymous": false,
      "inputs": [
        {
          "indexed": true,
          "internalType": "address",
          "name": "previousOwner",
          "type": "address"
        },
        {
          "indexed": true,
          "internalType": "address",
          "name": "newOwner",
          "type": "address"
        }
      ],
      "name": "OwnershipTransferred",
      "type": "event"
    },
    {
      "anonymous": false,
      "inputs": [
        {
          "indexed": true,
          "internalType": "address",
          "name": "from",
          "type": "address"
        },
        {
          "indexed": true,
          "internalType": "address",
          "name": "to",
          "type": "address"
        },
        {
          "indexed": true,
          "internalType": "uint256",
          "name": "tokenId",
          "type": "uint256"
        }
      ],
      "name": "Transfer",
      "type": "event"
    },
    {
      "inputs": [
        {
          "internalType": "uint256",
          "name": "",
          "type": "uint256"
        }
      ],
      "name": "allChests",
      "outputs": [
        {
          "internalType": "uint256",
          "name": "tokenId",
          "type": "uint256"
        },
        {
          "internalType": "string",
          "name": "tokenURI",
          "type": "string"
        },
        {
          "internalType": "address payable",
          "name": "mintedBy",
          "type": "address"
        },
        {
          "internalType": "address payable",
          "name": "currentOwner",
          "type": "address"
        },
        {
          "internalType": "address payable",
          "name": "previousOwner",
          "type": "address"
        },
        {
          "internalType": "uint256",
          "name": "price",
          "type": "uint256"
        },
        {
          "internalType": "uint256",
          "name": "numberOfTransfers",
          "type": "uint256"
        },
        {
          "internalType": "bool",
          "name": "forSale",
          "type": "bool"
        },
        {
          "internalType": "bool",
          "name": "isOpened",
          "type": "bool"
        },
        {
          "internalType": "string",
          "name": "data",
          "type": "string"
        },
        {
          "internalType": "uint8",
          "name": "cType",
          "type": "uint8"
        }
      ],
      "stateMutability": "view",
      "type": "function"
    },
    {
      "inputs": [
        {
          "internalType": "address",
          "name": "to",
          "type": "address"
        },
        {
          "internalType": "uint256",
          "name": "tokenId",
          "type": "uint256"
        }
      ],
      "name": "approve",
      "outputs": [],
      "stateMutability": "nonpayable",
      "type": "function"
    },
    {
      "inputs": [
        {
          "internalType": "address",
          "name": "owner",
          "type": "address"
        }
      ],
      "name": "balanceOf",
      "outputs": [
        {
          "internalType": "uint256",
          "name": "",
          "type": "uint256"
        }
      ],
      "stateMutability": "view",
      "type": "function"
    },
    {
      "inputs": [],
      "name": "chestCounter",
      "outputs": [
        {
          "internalType": "uint256",
          "name": "",
          "type": "uint256"
        }
      ],
      "stateMutability": "view",
      "type": "function"
    },
    {
      "inputs": [
        {
          "internalType": "uint256",
          "name": "",
          "type": "uint256"
        }
      ],
      "name": "chestOpens",
      "outputs": [
        {
          "internalType": "bool",
          "name": "",
          "type": "bool"
        }
      ],
      "stateMutability": "view",
      "type": "function"
    },
    {
      "inputs": [],
      "name": "collectionName",
      "outputs": [
        {
          "internalType": "string",
          "name": "",
          "type": "string"
        }
      ],
      "stateMutability": "view",
      "type": "function"
    },
    {
      "inputs": [],
      "name": "collectionNameSymbol",
      "outputs": [
        {
          "internalType": "string",
          "name": "",
          "type": "string"
        }
      ],
      "stateMutability": "view",
      "type": "function"
    },
    {
      "inputs": [
        {
          "internalType": "uint256",
          "name": "tokenId",
          "type": "uint256"
        }
      ],
      "name": "getApproved",
      "outputs": [
        {
          "internalType": "address",
          "name": "",
          "type": "address"
        }
      ],
      "stateMutability": "view",
      "type": "function"
    },
    {
      "inputs": [
        {
          "internalType": "address",
          "name": "owner",
          "type": "address"
        },
        {
          "internalType": "address",
          "name": "operator",
          "type": "address"
        }
      ],
      "name": "isApprovedForAll",
      "outputs": [
        {
          "internalType": "bool",
          "name": "",
          "type": "bool"
        }
      ],
      "stateMutability": "view",
      "type": "function"
    },
    {
      "inputs": [],
      "name": "name",
      "outputs": [
        {
          "internalType": "string",
          "name": "",
          "type": "string"
        }
      ],
      "stateMutability": "view",
      "type": "function"
    },
    {
      "inputs": [],
      "name": "owner",
      "outputs": [
        {
          "internalType": "address",
          "name": "",
          "type": "address"
        }
      ],
      "stateMutability": "view",
      "type": "function"
    },
    {
      "inputs": [
        {
          "internalType": "uint256",
          "name": "tokenId",
          "type": "uint256"
        }
      ],
      "name": "ownerOf",
      "outputs": [
        {
          "internalType": "address",
          "name": "",
          "type": "address"
        }
      ],
      "stateMutability": "view",
      "type": "function"
    },
    {
      "inputs": [],
      "name": "pktContract",
      "outputs": [
        {
          "internalType": "address",
          "name": "",
          "type": "address"
        }
      ],
      "stateMutability": "view",
      "type": "function"
    },
    {
      "inputs": [],
      "name": "poolRewardAddress",
      "outputs": [
        {
          "internalType": "address",
          "name": "",
          "type": "address"
        }
      ],
      "stateMutability": "view",
      "type": "function"
    },
    {
      "inputs": [],
      "name": "renounceOwnership",
      "outputs": [],
      "stateMutability": "nonpayable",
      "type": "function"
    },
    {
      "inputs": [
        {
          "internalType": "address",
          "name": "from",
          "type": "address"
        },
        {
          "internalType": "address",
          "name": "to",
          "type": "address"
        },
        {
          "internalType": "uint256",
          "name": "tokenId",
          "type": "uint256"
        }
      ],
      "name": "safeTransferFrom",
      "outputs": [],
      "stateMutability": "nonpayable",
      "type": "function"
    },
    {
      "inputs": [
        {
          "internalType": "address",
          "name": "from",
          "type": "address"
        },
        {
          "internalType": "address",
          "name": "to",
          "type": "address"
        },
        {
          "internalType": "uint256",
          "name": "tokenId",
          "type": "uint256"
        },
        {
          "internalType": "bytes",
          "name": "_data",
          "type": "bytes"
        }
      ],
      "name": "safeTransferFrom",
      "outputs": [],
      "stateMutability": "nonpayable",
      "type": "function"
    },
    {
      "inputs": [
        {
          "internalType": "address",
          "name": "operator",
          "type": "address"
        },
        {
          "internalType": "bool",
          "name": "approved",
          "type": "bool"
        }
      ],
      "name": "setApprovalForAll",
      "outputs": [],
      "stateMutability": "nonpayable",
      "type": "function"
    },
    {
      "inputs": [],
      "name": "symbol",
      "outputs": [
        {
          "internalType": "string",
          "name": "",
          "type": "string"
        }
      ],
      "stateMutability": "view",
      "type": "function"
    },
    {
      "inputs": [
        {
          "internalType": "uint256",
          "name": "index",
          "type": "uint256"
        }
      ],
      "name": "tokenByIndex",
      "outputs": [
        {
          "internalType": "uint256",
          "name": "",
          "type": "uint256"
        }
      ],
      "stateMutability": "view",
      "type": "function"
    },
    {
      "inputs": [
        {
          "internalType": "address",
          "name": "owner",
          "type": "address"
        },
        {
          "internalType": "uint256",
          "name": "index",
          "type": "uint256"
        }
      ],
      "name": "tokenOfOwnerByIndex",
      "outputs": [
        {
          "internalType": "uint256",
          "name": "",
          "type": "uint256"
        }
      ],
      "stateMutability": "view",
      "type": "function"
    },
    {
      "inputs": [
        {
          "internalType": "string",
          "name": "",
          "type": "string"
        }
      ],
      "name": "tokenURIExists",
      "outputs": [
        {
          "internalType": "bool",
          "name": "",
          "type": "bool"
        }
      ],
      "stateMutability": "view",
      "type": "function"
    },
    {
      "inputs": [],
      "name": "totalSupply",
      "outputs": [
        {
          "internalType": "uint256",
          "name": "",
          "type": "uint256"
        }
      ],
      "stateMutability": "view",
      "type": "function"
    },
    {
      "inputs": [
        {
          "internalType": "address",
          "name": "from",
          "type": "address"
        },
        {
          "internalType": "address",
          "name": "to",
          "type": "address"
        },
        {
          "internalType": "uint256",
          "name": "tokenId",
          "type": "uint256"
        }
      ],
      "name": "transferFrom",
      "outputs": [],
      "stateMutability": "nonpayable",
      "type": "function"
    },
    {
      "inputs": [
        {
          "internalType": "address",
          "name": "newOwner",
          "type": "address"
        }
      ],
      "name": "transferOwnership",
      "outputs": [],
      "stateMutability": "nonpayable",
      "type": "function"
    },
    {
      "inputs": [
        {
          "internalType": "uint256",
          "name": "tokenId",
          "type": "uint256"
        }
      ],
      "name": "tokenURI",
      "outputs": [
        {
          "internalType": "string",
          "name": "",
          "type": "string"
        }
      ],
      "stateMutability": "view",
      "type": "function"
    },
    {
      "inputs": [
        {
          "internalType": "bytes4",
          "name": "interfaceId",
          "type": "bytes4"
        }
      ],
      "name": "supportsInterface",
      "outputs": [
        {
          "internalType": "bool",
          "name": "",
          "type": "bool"
        }
      ],
      "stateMutability": "view",
      "type": "function"
    },
    {
      "inputs": [
        {
          "internalType": "address",
          "name": "to",
          "type": "address"
        },
        {
          "internalType": "uint256",
          "name": "tokenId",
          "type": "uint256"
        }
      ],
      "name": "safeMint",
      "outputs": [],
      "stateMutability": "nonpayable",
      "type": "function"
    },
    {
      "inputs": [
        {
          "internalType": "string",
          "name": "_tokenURI",
          "type": "string"
        },
        {
          "internalType": "string",
          "name": "_data",
          "type": "string"
        },
        {
          "internalType": "uint8",
          "name": "_cType",
          "type": "uint8"
        }
      ],
      "name": "mintChest",
      "outputs": [
        {
          "internalType": "uint256",
          "name": "",
          "type": "uint256"
        }
      ],
      "stateMutability": "nonpayable",
      "type": "function"
    },
    {
      "inputs": [
        {
          "internalType": "uint256",
          "name": "_cost",
          "type": "uint256"
        }
      ],
      "name": "setBaseCost",
      "outputs": [],
      "stateMutability": "nonpayable",
      "type": "function"
    },
    {
      "inputs": [],
      "name": "getBaseCost",
      "outputs": [
        {
          "internalType": "uint256",
          "name": "",
          "type": "uint256"
        }
      ],
      "stateMutability": "view",
      "type": "function"
    },
    {
      "inputs": [
        {
          "internalType": "uint256",
          "name": "_tokenId",
          "type": "uint256"
        }
      ],
      "name": "getTokenOwner",
      "outputs": [
        {
          "internalType": "address",
          "name": "",
          "type": "address"
        }
      ],
      "stateMutability": "view",
      "type": "function"
    },
    {
      "inputs": [
        {
          "internalType": "uint256",
          "name": "_tokenId",
          "type": "uint256"
        }
      ],
      "name": "getTokenMetaData",
      "outputs": [
        {
          "internalType": "string",
          "name": "",
          "type": "string"
        }
      ],
      "stateMutability": "view",
      "type": "function"
    },
    {
      "inputs": [
        {
          "internalType": "uint256",
          "name": "_tokenId",
          "type": "uint256"
        }
      ],
      "name": "isChestOpen",
      "outputs": [
        {
          "internalType": "bool",
          "name": "",
          "type": "bool"
        }
      ],
      "stateMutability": "view",
      "type": "function"
    },
    {
      "inputs": [],
      "name": "getNumberOfTokensMinted",
      "outputs": [
        {
          "internalType": "uint256",
          "name": "",
          "type": "uint256"
        }
      ],
      "stateMutability": "view",
      "type": "function"
    },
    {
      "inputs": [
        {
          "internalType": "address",
          "name": "_owner",
          "type": "address"
        }
      ],
      "name": "getTotalNumberOfTokensOwnedByAnAddress",
      "outputs": [
        {
          "internalType": "uint256",
          "name": "",
          "type": "uint256"
        }
      ],
      "stateMutability": "view",
      "type": "function"
    },
    {
      "inputs": [
        {
          "internalType": "uint256",
          "name": "_tokenId",
          "type": "uint256"
        }
      ],
      "name": "getTokenExists",
      "outputs": [
        {
          "internalType": "bool",
          "name": "",
          "type": "bool"
        }
      ],
      "stateMutability": "view",
      "type": "function"
    },
    {
      "inputs": [
        {
          "internalType": "uint256",
          "name": "_tokenId",
          "type": "uint256"
        }
      ],
      "name": "buyToken",
      "outputs": [],
      "stateMutability": "payable",
      "type": "function"
    },
    {
      "inputs": [
        {
          "internalType": "uint256",
          "name": "_tokenId",
          "type": "uint256"
        },
        {
          "internalType": "uint256",
          "name": "_newPrice",
          "type": "uint256"
        }
      ],
      "name": "changeTokenPrice",
      "outputs": [],
      "stateMutability": "nonpayable",
      "type": "function"
    },
    {
      "inputs": [
        {
          "internalType": "uint256",
          "name": "_tokenId",
          "type": "uint256"
        }
      ],
      "name": "toggleForSale",
      "outputs": [],
      "stateMutability": "nonpayable",
      "type": "function"
    },
    {
      "inputs": [
        {
          "internalType": "address",
          "name": "_owner",
          "type": "address"
        },
        {
          "internalType": "uint256",
          "name": "_tokenId",
          "type": "uint256"
        }
      ],
      "name": "openChest",
      "outputs": [
        {
          "components": [
            {
              "internalType": "uint256",
              "name": "tokenId",
              "type": "uint256"
            },
            {
              "internalType": "string",
              "name": "tokenURI",
              "type": "string"
            },
            {
              "internalType": "address payable",
              "name": "mintedBy",
              "type": "address"
            },
            {
              "internalType": "address payable",
              "name": "currentOwner",
              "type": "address"
            },
            {
              "internalType": "address payable",
              "name": "previousOwner",
              "type": "address"
            },
            {
              "internalType": "uint256",
              "name": "price",
              "type": "uint256"
            },
            {
              "internalType": "uint256",
              "name": "numberOfTransfers",
              "type": "uint256"
            },
            {
              "internalType": "bool",
              "name": "forSale",
              "type": "bool"
            },
            {
              "internalType": "bool",
              "name": "isOpened",
              "type": "bool"
            },
            {
              "internalType": "string",
              "name": "data",
              "type": "string"
            },
            {
              "internalType": "uint8",
              "name": "cType",
              "type": "uint8"
            }
          ],
          "internalType": "struct IPiratesKingBase.PKChest",
          "name": "",
          "type": "tuple"
        }
      ],
      "stateMutability": "nonpayable",
      "type": "function"
    },
    {
      "inputs": [
        {
          "internalType": "string",
          "name": "_tokenURI",
          "type": "string"
        },
        {
          "internalType": "uint256",
          "name": "_price",
          "type": "uint256"
        },
        {
          "internalType": "string",
          "name": "_data",
          "type": "string"
        },
        {
          "internalType": "uint8",
          "name": "_cType",
          "type": "uint8"
        }
      ],
      "name": "buyChest",
      "outputs": [
        {
          "internalType": "uint256",
          "name": "",
          "type": "uint256"
        }
      ],
      "stateMutability": "payable",
      "type": "function"
    }
  ],
  "bytecode": "0x60806040523480156200001157600080fd5b506040516200702d3803806200702d833981810160405281019062000037919062000587565b6040518060400160405280601081526020017f436865737420436f6c6c656374696f6e000000000000000000000000000000008152506040518060400160405280600381526020017f504b4300000000000000000000000000000000000000000000000000000000008152508160009080519060200190620000bb9291906200046d565b508060019080519060200190620000d49291906200046d565b505050620000f7620000eb6200017160201b60201c565b6200017960201b60201c565b620001076200023f60201b60201c565b600c90805190602001906200011e9291906200046d565b506200012f620002d960201b60201c565b600d9080519060200190620001469291906200046d565b5062000158826200037360201b60201c565b6200016981620003f060201b60201c565b5050620006e6565b600033905090565b6000600b60009054906101000a900473ffffffffffffffffffffffffffffffffffffffff16905081600b60006101000a81548173ffffffffffffffffffffffffffffffffffffffff021916908373ffffffffffffffffffffffffffffffffffffffff1602179055508173ffffffffffffffffffffffffffffffffffffffff168173ffffffffffffffffffffffffffffffffffffffff167f8be0079c531659141344cd1fd0a4f28419497f9722a3daafe3b4186f6b6457e060405160405180910390a35050565b6060600080546200025090620005fd565b80601f01602080910402602001604051908101604052809291908181526020018280546200027e90620005fd565b8015620002cf5780601f10620002a357610100808354040283529160200191620002cf565b820191906000526020600020905b815481529060010190602001808311620002b157829003601f168201915b5050505050905090565b606060018054620002ea90620005fd565b80601f01602080910402602001604051908101604052809291908181526020018280546200031890620005fd565b8015620003695780601f106200033d5761010080835404028352916020019162000369565b820191906000526020600020905b8154815290600101906020018083116200034b57829003601f168201915b5050505050905090565b80601060006101000a81548173ffffffffffffffffffffffffffffffffffffffff021916908373ffffffffffffffffffffffffffffffffffffffff1602179055507fc02dd078a5d63c2645d0da4b3173f425d353dafebbb14064059edbd4244a31bf81604051620003e591906200066a565b60405180910390a150565b80601160006101000a81548173ffffffffffffffffffffffffffffffffffffffff021916908373ffffffffffffffffffffffffffffffffffffffff1602179055507fc02dd078a5d63c2645d0da4b3173f425d353dafebbb14064059edbd4244a31bf81604051620004629190620006bb565b60405180910390a150565b8280546200047b90620005fd565b90600052602060002090601f0160209004810192826200049f5760008555620004eb565b82601f10620004ba57805160ff1916838001178555620004eb565b82800160010185558215620004eb579182015b82811115620004ea578251825591602001919060010190620004cd565b5b509050620004fa9190620004fe565b5090565b5b8082111562000519576000816000905550600101620004ff565b5090565b600080fd5b600073ffffffffffffffffffffffffffffffffffffffff82169050919050565b60006200054f8262000522565b9050919050565b620005618162000542565b81146200056d57600080fd5b50565b600081519050620005818162000556565b92915050565b60008060408385031215620005a157620005a06200051d565b5b6000620005b18582860162000570565b9250506020620005c48582860162000570565b9150509250929050565b7f4e487b7100000000000000000000000000000000000000000000000000000000600052602260045260246000fd5b600060028204905060018216806200061657607f821691505b602082108114156200062d576200062c620005ce565b5b50919050565b6200063e8162000542565b82525050565b7f706b740000000000000000000000000000000000000000000000000000000000815250565b600060408201905062000681600083018462000633565b6200068f6020830162000644565b92915050565b7f706f6f6c00000000000000000000000000000000000000000000000000000000815250565b6000604082019050620006d2600083018462000633565b620006e06020830162000695565b92915050565b61693780620006f66000396000f3fe6080604052600436106102515760003560e01c806370a0823111610139578063b28275fd116100b6578063e17ba2131161007a578063e17ba2131461095c578063e5326ab114610987578063e985e9c5146109b2578063f2fde38b146109ef578063f7cc4c6014610a18578063fcc0b28d14610a4357610251565b8063b28275fd14610870578063b88d4fde146108a0578063c87b56dd146108c9578063cc151f3a14610906578063d59134ba1461093157610251565b80639ee07ad8116100fd5780639ee07ad81461077b578063a1448194146107b8578063a22cb465146107e1578063a32018b91461080a578063a5cd761f1461083357610251565b806370a0823114610694578063715018a6146106d15780638da5cb5b146106e857806395d89b41146107135780639948c9431461073e57610251565b80632d296bf1116101d25780634f6ccce7116101965780634f6ccce71461054257806358e54dd91461057f57806362e8e8ac146105c65780636352211e146105ef57806367c623cf1461062c5780636f9507f91461066957610251565b80632d296bf1146104465780632f745c591461046257806342842e0e1461049f57806343902850146104c857806343d32ae71461050557610251565b80631579912311610219578063157991231461036157806318160ddd1461039e57806323b872dd146103c9578063284f09e6146103f25780632b5dc91f1461041d57610251565b806301ffc9a71461025657806306fdde0314610293578063081812fc146102be578063095ea7b3146102fb578063142687f314610324575b600080fd5b34801561026257600080fd5b5061027d60048036038101906102789190614d5b565b610a80565b60405161028a9190614da3565b60405180910390f35b34801561029f57600080fd5b506102a8610a92565b6040516102b59190614e57565b60405180910390f35b3480156102ca57600080fd5b506102e560048036038101906102e09190614eaf565b610b24565b6040516102f29190614f1d565b60405180910390f35b34801561030757600080fd5b50610322600480360381019061031d9190614f64565b610ba9565b005b34801561033057600080fd5b5061034b60048036038101906103469190614eaf565b610cc1565b6040516103589190614da3565b60405180910390f35b34801561036d57600080fd5b5061038860048036038101906103839190614eaf565b610cd8565b6040516103959190614da3565b60405180910390f35b3480156103aa57600080fd5b506103b3610cf8565b6040516103c09190614fb3565b60405180910390f35b3480156103d557600080fd5b506103f060048036038101906103eb9190614fce565b610d05565b005b3480156103fe57600080fd5b50610407610d65565b6040516104149190614fb3565b60405180910390f35b34801561042957600080fd5b50610444600480360381019061043f9190614eaf565b610d6b565b005b610460600480360381019061045b9190614eaf565b610e34565b005b34801561046e57600080fd5b5061048960048036038101906104849190614f64565b61152a565b6040516104969190614fb3565b60405180910390f35b3480156104ab57600080fd5b506104c660048036038101906104c19190614fce565b6115cf565b005b3480156104d457600080fd5b506104ef60048036038101906104ea9190615021565b6115ef565b6040516104fc9190614fb3565b60405180910390f35b34801561051157600080fd5b5061052c60048036038101906105279190615183565b611606565b6040516105399190614da3565b60405180910390f35b34801561054e57600080fd5b5061056960048036038101906105649190614eaf565b61163c565b6040516105769190614fb3565b60405180910390f35b34801561058b57600080fd5b506105a660048036038101906105a19190614eaf565b6116ad565b6040516105bd9b9a99989796959493929190615209565b60405180910390f35b3480156105d257600080fd5b506105ed60048036038101906105e891906152c2565b61189e565b005b3480156105fb57600080fd5b5061061660048036038101906106119190614eaf565b611da8565b6040516106239190614f1d565b60405180910390f35b34801561063857600080fd5b50610653600480360381019061064e9190614eaf565b611e5a565b6040516106609190614e57565b60405180910390f35b34801561067557600080fd5b5061067e611e72565b60405161068b9190614e57565b60405180910390f35b3480156106a057600080fd5b506106bb60048036038101906106b69190615021565b611f00565b6040516106c89190614fb3565b60405180910390f35b3480156106dd57600080fd5b506106e6611fb8565b005b3480156106f457600080fd5b506106fd612040565b60405161070a9190614f1d565b60405180910390f35b34801561071f57600080fd5b5061072861206a565b6040516107359190614e57565b60405180910390f35b34801561074a57600080fd5b5061076560048036038101906107609190614f64565b6120fc565b604051610772919061547e565b60405180910390f35b34801561078757600080fd5b506107a2600480360381019061079d9190614eaf565b6124f9565b6040516107af9190614da3565b60405180910390f35b3480156107c457600080fd5b506107df60048036038101906107da9190614f64565b612523565b005b3480156107ed57600080fd5b50610808600480360381019061080391906154cc565b6125ad565b005b34801561081657600080fd5b50610831600480360381019061082c9190614eaf565b6125c3565b005b34801561083f57600080fd5b5061085a60048036038101906108559190614eaf565b612af4565b6040516108679190614f1d565b60405180910390f35b61088a60048036038101906108859190615538565b612b0b565b6040516108979190614fb3565b60405180910390f35b3480156108ac57600080fd5b506108c760048036038101906108c29190615678565b612fb4565b005b3480156108d557600080fd5b506108f060048036038101906108eb9190614eaf565b613016565b6040516108fd9190614e57565b60405180910390f35b34801561091257600080fd5b5061091b613028565b6040516109289190614fb3565b60405180910390f35b34801561093d57600080fd5b5061094661303c565b6040516109539190614f1d565b60405180910390f35b34801561096857600080fd5b50610971613062565b60405161097e9190614fb3565b60405180910390f35b34801561099357600080fd5b5061099c6130e8565b6040516109a99190614e57565b60405180910390f35b3480156109be57600080fd5b506109d960048036038101906109d491906156fb565b613176565b6040516109e69190614da3565b60405180910390f35b3480156109fb57600080fd5b50610a166004803603810190610a119190615021565b61320a565b005b348015610a2457600080fd5b50610a2d613302565b604051610a3a9190614f1d565b60405180910390f35b348015610a4f57600080fd5b50610a6a6004803603810190610a65919061573b565b613328565b604051610a779190614fb3565b60405180910390f35b6000610a8b826136f7565b9050919050565b606060008054610aa1906157f5565b80601f0160208091040260200160405190810160405280929190818152602001828054610acd906157f5565b8015610b1a5780601f10610aef57610100808354040283529160200191610b1a565b820191906000526020600020905b815481529060010190602001808311610afd57829003601f168201915b5050505050905090565b6000610b2f82613771565b610b6e576040517f08c379a0000000000000000000000000000000000000000000000000000000008152600401610b6590615899565b60405180910390fd5b6004600083815260200190815260200160002060009054906101000a900473ffffffffffffffffffffffffffffffffffffffff169050919050565b6000610bb482611da8565b90508073ffffffffffffffffffffffffffffffffffffffff168373ffffffffffffffffffffffffffffffffffffffff161415610c25576040517f08c379a0000000000000000000000000000000000000000000000000000000008152600401610c1c9061592b565b60405180910390fd5b8073ffffffffffffffffffffffffffffffffffffffff16610c446137dd565b73ffffffffffffffffffffffffffffffffffffffff161480610c735750610c7281610c6d6137dd565b613176565b5b610cb2576040517f08c379a0000000000000000000000000000000000000000000000000000000008152600401610ca9906159bd565b60405180910390fd5b610cbc83836137e5565b505050565b600080610ccd83613771565b905080915050919050565b60146020528060005260406000206000915054906101000a900460ff1681565b6000600980549050905090565b610d16610d106137dd565b8261389e565b610d55576040517f08c379a0000000000000000000000000000000000000000000000000000000008152600401610d4c90615a4f565b60405180910390fd5b610d6083838361397c565b505050565b600e5481565b610d736137dd565b73ffffffffffffffffffffffffffffffffffffffff16610d91612040565b73ffffffffffffffffffffffffffffffffffffffff1614610de7576040517f08c379a0000000000000000000000000000000000000000000000000000000008152600401610dde90615abb565b60405180910390fd5b60008111610e2a576040517f08c379a0000000000000000000000000000000000000000000000000000000008152600401610e2190615b27565b60405180910390fd5b80600f8190555050565b600073ffffffffffffffffffffffffffffffffffffffff163373ffffffffffffffffffffffffffffffffffffffff161415610e6e57600080fd5b610e7781613771565b610e8057600080fd5b6000610e8b82611da8565b9050600073ffffffffffffffffffffffffffffffffffffffff168173ffffffffffffffffffffffffffffffffffffffff161415610ec757600080fd5b610ecf6137dd565b73ffffffffffffffffffffffffffffffffffffffff168173ffffffffffffffffffffffffffffffffffffffff161415610f0757600080fd5b6000601260008481526020019081526020016000206040518061016001604052908160008201548152602001600182018054610f42906157f5565b80601f0160208091040260200160405190810160405280929190818152602001828054610f6e906157f5565b8015610fbb5780601f10610f9057610100808354040283529160200191610fbb565b820191906000526020600020905b815481529060010190602001808311610f9e57829003601f168201915b505050505081526020016002820160009054906101000a900473ffffffffffffffffffffffffffffffffffffffff1673ffffffffffffffffffffffffffffffffffffffff1673ffffffffffffffffffffffffffffffffffffffff1681526020016003820160009054906101000a900473ffffffffffffffffffffffffffffffffffffffff1673ffffffffffffffffffffffffffffffffffffffff1673ffffffffffffffffffffffffffffffffffffffff1681526020016004820160009054906101000a900473ffffffffffffffffffffffffffffffffffffffff1673ffffffffffffffffffffffffffffffffffffffff1673ffffffffffffffffffffffffffffffffffffffff16815260200160058201548152602001600682015481526020016007820160009054906101000a900460ff161515151581526020016007820160019054906101000a900460ff16151515158152602001600882018054611120906157f5565b80601f016020809104026020016040519081016040528092919081815260200182805461114c906157f5565b80156111995780601f1061116e57610100808354040283529160200191611199565b820191906000526020600020905b81548152906001019060200180831161117c57829003601f168201915b505050505081526020016009820160009054906101000a900460ff1660ff1660ff168152505090508060a001513410156111d257600080fd5b8060e001516111e057600080fd5b600081606001519050601060009054906101000a900473ffffffffffffffffffffffffffffffffffffffff1673ffffffffffffffffffffffffffffffffffffffff166323b872dd61122f6137dd565b838560a001516040518463ffffffff1660e01b815260040161125393929190615ba6565b6020604051808303816000875af1158015611272573d6000803e3d6000fd5b505050506040513d601f19601f820116820180604052508101906112969190615bf2565b6112d5576040517f08c379a00000000000000000000000000000000000000000000000000000000081526004016112cc90615c6b565b60405180910390fd5b6112e7836112e16137dd565b8661397c565b8160600151826080019073ffffffffffffffffffffffffffffffffffffffff16908173ffffffffffffffffffffffffffffffffffffffff168152505061132b6137dd565b826060019073ffffffffffffffffffffffffffffffffffffffff16908173ffffffffffffffffffffffffffffffffffffffff168152505060018260c0018181516113759190615cba565b9150818152505081601260008681526020019081526020016000206000820151816000015560208201518160010190805190602001906113b6929190614ba9565b5060408201518160020160006101000a81548173ffffffffffffffffffffffffffffffffffffffff021916908373ffffffffffffffffffffffffffffffffffffffff16021790555060608201518160030160006101000a81548173ffffffffffffffffffffffffffffffffffffffff021916908373ffffffffffffffffffffffffffffffffffffffff16021790555060808201518160040160006101000a81548173ffffffffffffffffffffffffffffffffffffffff021916908373ffffffffffffffffffffffffffffffffffffffff16021790555060a0820151816005015560c0820151816006015560e08201518160070160006101000a81548160ff0219169083151502179055506101008201518160070160016101000a81548160ff0219169083151502179055506101208201518160080190805190602001906114fe929190614ba9565b506101408201518160090160006101000a81548160ff021916908360ff16021790555090505050505050565b600061153583611f00565b8210611576576040517f08c379a000000000000000000000000000000000000000000000000000000000815260040161156d90615d82565b60405180910390fd5b600760008473ffffffffffffffffffffffffffffffffffffffff1673ffffffffffffffffffffffffffffffffffffffff168152602001908152602001600020600083815260200190815260200160002054905092915050565b6115ea83838360405180602001604052806000815250612fb4565b505050565b6000806115fb83611f00565b905080915050919050565b6013818051602081018201805184825260208301602085012081835280955050505050506000915054906101000a900460ff1681565b6000611646610cf8565b8210611687576040517f08c379a000000000000000000000000000000000000000000000000000000000815260040161167e90615e14565b60405180910390fd5b6009828154811061169b5761169a615e34565b5b90600052602060002001549050919050565b60126020528060005260406000206000915090508060000154908060010180546116d6906157f5565b80601f0160208091040260200160405190810160405280929190818152602001828054611702906157f5565b801561174f5780601f106117245761010080835404028352916020019161174f565b820191906000526020600020905b81548152906001019060200180831161173257829003601f168201915b5050505050908060020160009054906101000a900473ffffffffffffffffffffffffffffffffffffffff16908060030160009054906101000a900473ffffffffffffffffffffffffffffffffffffffff16908060040160009054906101000a900473ffffffffffffffffffffffffffffffffffffffff16908060050154908060060154908060070160009054906101000a900460ff16908060070160019054906101000a900460ff1690806008018054611808906157f5565b80601f0160208091040260200160405190810160405280929190818152602001828054611834906157f5565b80156118815780601f1061185657610100808354040283529160200191611881565b820191906000526020600020905b81548152906001019060200180831161186457829003601f168201915b5050505050908060090160009054906101000a900460ff1690508b565b600073ffffffffffffffffffffffffffffffffffffffff163373ffffffffffffffffffffffffffffffffffffffff1614156118d857600080fd5b6118e182613771565b6118ea57600080fd5b60006118f583611da8565b90506118ff6137dd565b73ffffffffffffffffffffffffffffffffffffffff168173ffffffffffffffffffffffffffffffffffffffff161461193657600080fd5b6000601260008581526020019081526020016000206040518061016001604052908160008201548152602001600182018054611971906157f5565b80601f016020809104026020016040519081016040528092919081815260200182805461199d906157f5565b80156119ea5780601f106119bf576101008083540402835291602001916119ea565b820191906000526020600020905b8154815290600101906020018083116119cd57829003601f168201915b505050505081526020016002820160009054906101000a900473ffffffffffffffffffffffffffffffffffffffff1673ffffffffffffffffffffffffffffffffffffffff1673ffffffffffffffffffffffffffffffffffffffff1681526020016003820160009054906101000a900473ffffffffffffffffffffffffffffffffffffffff1673ffffffffffffffffffffffffffffffffffffffff1673ffffffffffffffffffffffffffffffffffffffff1681526020016004820160009054906101000a900473ffffffffffffffffffffffffffffffffffffffff1673ffffffffffffffffffffffffffffffffffffffff1673ffffffffffffffffffffffffffffffffffffffff16815260200160058201548152602001600682015481526020016007820160009054906101000a900460ff161515151581526020016007820160019054906101000a900460ff16151515158152602001600882018054611b4f906157f5565b80601f0160208091040260200160405190810160405280929190818152602001828054611b7b906157f5565b8015611bc85780601f10611b9d57610100808354040283529160200191611bc8565b820191906000526020600020905b815481529060010190602001808311611bab57829003601f168201915b505050505081526020016009820160009054906101000a900460ff1660ff1660ff16815250509050828160a00181815250508060126000868152602001908152602001600020600082015181600001556020820151816001019080519060200190611c34929190614ba9565b5060408201518160020160006101000a81548173ffffffffffffffffffffffffffffffffffffffff021916908373ffffffffffffffffffffffffffffffffffffffff16021790555060608201518160030160006101000a81548173ffffffffffffffffffffffffffffffffffffffff021916908373ffffffffffffffffffffffffffffffffffffffff16021790555060808201518160040160006101000a81548173ffffffffffffffffffffffffffffffffffffffff021916908373ffffffffffffffffffffffffffffffffffffffff16021790555060a0820151816005015560c0820151816006015560e08201518160070160006101000a81548160ff0219169083151502179055506101008201518160070160016101000a81548160ff021916908315150217905550610120820151816008019080519060200190611d7c929190614ba9565b506101408201518160090160006101000a81548160ff021916908360ff16021790555090505050505050565b6000806002600084815260200190815260200160002060009054906101000a900473ffffffffffffffffffffffffffffffffffffffff169050600073ffffffffffffffffffffffffffffffffffffffff168173ffffffffffffffffffffffffffffffffffffffff161415611e51576040517f08c379a0000000000000000000000000000000000000000000000000000000008152600401611e4890615ed5565b60405180910390fd5b80915050919050565b60606000611e6783613016565b905080915050919050565b600d8054611e7f906157f5565b80601f0160208091040260200160405190810160405280929190818152602001828054611eab906157f5565b8015611ef85780601f10611ecd57610100808354040283529160200191611ef8565b820191906000526020600020905b815481529060010190602001808311611edb57829003601f168201915b505050505081565b60008073ffffffffffffffffffffffffffffffffffffffff168273ffffffffffffffffffffffffffffffffffffffff161415611f71576040517f08c379a0000000000000000000000000000000000000000000000000000000008152600401611f6890615f67565b60405180910390fd5b600360008373ffffffffffffffffffffffffffffffffffffffff1673ffffffffffffffffffffffffffffffffffffffff168152602001908152602001600020549050919050565b611fc06137dd565b73ffffffffffffffffffffffffffffffffffffffff16611fde612040565b73ffffffffffffffffffffffffffffffffffffffff1614612034576040517f08c379a000000000000000000000000000000000000000000000000000000000815260040161202b90615abb565b60405180910390fd5b61203e6000613bd8565b565b6000600b60009054906101000a900473ffffffffffffffffffffffffffffffffffffffff16905090565b606060018054612079906157f5565b80601f01602080910402602001604051908101604052809291908181526020018280546120a5906157f5565b80156120f25780601f106120c7576101008083540402835291602001916120f2565b820191906000526020600020905b8154815290600101906020018083116120d557829003601f168201915b5050505050905090565b612104614c2f565b600073ffffffffffffffffffffffffffffffffffffffff163373ffffffffffffffffffffffffffffffffffffffff16141561213e57600080fd5b61214782613771565b61215057600080fd5b600061215b83611da8565b90508373ffffffffffffffffffffffffffffffffffffffff168173ffffffffffffffffffffffffffffffffffffffff161461219557600080fd5b6014600084815260200190815260200160002060009054906101000a900460ff16156121f6576040517f08c379a00000000000000000000000000000000000000000000000000000000081526004016121ed90615fd3565b60405180910390fd5b6000601260008581526020019081526020016000206040518061016001604052908160008201548152602001600182018054612231906157f5565b80601f016020809104026020016040519081016040528092919081815260200182805461225d906157f5565b80156122aa5780601f1061227f576101008083540402835291602001916122aa565b820191906000526020600020905b81548152906001019060200180831161228d57829003601f168201915b505050505081526020016002820160009054906101000a900473ffffffffffffffffffffffffffffffffffffffff1673ffffffffffffffffffffffffffffffffffffffff1673ffffffffffffffffffffffffffffffffffffffff1681526020016003820160009054906101000a900473ffffffffffffffffffffffffffffffffffffffff1673ffffffffffffffffffffffffffffffffffffffff1673ffffffffffffffffffffffffffffffffffffffff1681526020016004820160009054906101000a900473ffffffffffffffffffffffffffffffffffffffff1673ffffffffffffffffffffffffffffffffffffffff1673ffffffffffffffffffffffffffffffffffffffff16815260200160058201548152602001600682015481526020016007820160009054906101000a900460ff161515151581526020016007820160019054906101000a900460ff1615151515815260200160088201805461240f906157f5565b80601f016020809104026020016040519081016040528092919081815260200182805461243b906157f5565b80156124885780601f1061245d57610100808354040283529160200191612488565b820191906000526020600020905b81548152906001019060200180831161246b57829003601f168201915b505050505081526020016009820160009054906101000a900460ff1660ff1660ff1681525050905060016014600086815260200190815260200160002060006101000a81548160ff021916908315150217905550600181610100019015159081151581525050809250505092915050565b60006014600083815260200190815260200160002060009054906101000a900460ff169050919050565b61252b6137dd565b73ffffffffffffffffffffffffffffffffffffffff16612549612040565b73ffffffffffffffffffffffffffffffffffffffff161461259f576040517f08c379a000000000000000000000000000000000000000000000000000000000815260040161259690615abb565b60405180910390fd5b6125a98282613c9e565b5050565b6125bf6125b86137dd565b8383613cbc565b5050565b600073ffffffffffffffffffffffffffffffffffffffff163373ffffffffffffffffffffffffffffffffffffffff1614156125fd57600080fd5b61260681613771565b61260f57600080fd5b600061261a82611da8565b90506126246137dd565b73ffffffffffffffffffffffffffffffffffffffff168173ffffffffffffffffffffffffffffffffffffffff161461265b57600080fd5b6000601260008481526020019081526020016000206040518061016001604052908160008201548152602001600182018054612696906157f5565b80601f01602080910402602001604051908101604052809291908181526020018280546126c2906157f5565b801561270f5780601f106126e45761010080835404028352916020019161270f565b820191906000526020600020905b8154815290600101906020018083116126f257829003601f168201915b505050505081526020016002820160009054906101000a900473ffffffffffffffffffffffffffffffffffffffff1673ffffffffffffffffffffffffffffffffffffffff1673ffffffffffffffffffffffffffffffffffffffff1681526020016003820160009054906101000a900473ffffffffffffffffffffffffffffffffffffffff1673ffffffffffffffffffffffffffffffffffffffff1673ffffffffffffffffffffffffffffffffffffffff1681526020016004820160009054906101000a900473ffffffffffffffffffffffffffffffffffffffff1673ffffffffffffffffffffffffffffffffffffffff1673ffffffffffffffffffffffffffffffffffffffff16815260200160058201548152602001600682015481526020016007820160009054906101000a900460ff161515151581526020016007820160019054906101000a900460ff16151515158152602001600882018054612874906157f5565b80601f01602080910402602001604051908101604052809291908181526020018280546128a0906157f5565b80156128ed5780601f106128c2576101008083540402835291602001916128ed565b820191906000526020600020905b8154815290600101906020018083116128d057829003601f168201915b505050505081526020016009820160009054906101000a900460ff1660ff1660ff168152505090508060e00151156129355760008160e0019015159081151581525050612947565b60018160e00190151590811515815250505b8060126000858152602001908152602001600020600082015181600001556020820151816001019080519060200190612981929190614ba9565b5060408201518160020160006101000a81548173ffffffffffffffffffffffffffffffffffffffff021916908373ffffffffffffffffffffffffffffffffffffffff16021790555060608201518160030160006101000a81548173ffffffffffffffffffffffffffffffffffffffff021916908373ffffffffffffffffffffffffffffffffffffffff16021790555060808201518160040160006101000a81548173ffffffffffffffffffffffffffffffffffffffff021916908373ffffffffffffffffffffffffffffffffffffffff16021790555060a0820151816005015560c0820151816006015560e08201518160070160006101000a81548160ff0219169083151502179055506101008201518160070160016101000a81548160ff021916908315150217905550610120820151816008019080519060200190612ac9929190614ba9565b506101408201518160090160006101000a81548160ff021916908360ff160217905550905050505050565b600080612b0083611da8565b905080915050919050565b6000600f54841015612b52576040517f08c379a0000000000000000000000000000000000000000000000000000000008152600401612b499061603f565b60405180910390fd5b601060009054906101000a900473ffffffffffffffffffffffffffffffffffffffff1673ffffffffffffffffffffffffffffffffffffffff166323b872dd612b986137dd565b601160009054906101000a900473ffffffffffffffffffffffffffffffffffffffff16876040518463ffffffff1660e01b8152600401612bda9392919061605f565b6020604051808303816000875af1158015612bf9573d6000803e3d6000fd5b505050506040513d601f19601f82011682018060405250810190612c1d9190615bf2565b15612f7157600073ffffffffffffffffffffffffffffffffffffffff163373ffffffffffffffffffffffffffffffffffffffff161415612c5c57600080fd5b600e6000815480929190612c6f90616096565b9190505550612c7f600e54613771565b15612c8957600080fd5b601385604051612c99919061611b565b908152602001604051809103902060009054906101000a900460ff1615612cbf57600080fd5b612ccb33600e54613e29565b612cd7600e5486613ff7565b6001601386604051612ce9919061611b565b908152602001604051809103902060006101000a81548160ff0219169083151502179055506000604051806101600160405280600e548152602001878152602001612d326137dd565b73ffffffffffffffffffffffffffffffffffffffff168152602001612d556137dd565b73ffffffffffffffffffffffffffffffffffffffff168152602001600073ffffffffffffffffffffffffffffffffffffffff16815260200160008152602001600081526020016000151581526020016000151581526020018581526020018460ff1681525090508060126000600e548152602001908152602001600020600082015181600001556020820151816001019080519060200190612df8929190614ba9565b5060408201518160020160006101000a81548173ffffffffffffffffffffffffffffffffffffffff021916908373ffffffffffffffffffffffffffffffffffffffff16021790555060608201518160030160006101000a81548173ffffffffffffffffffffffffffffffffffffffff021916908373ffffffffffffffffffffffffffffffffffffffff16021790555060808201518160040160006101000a81548173ffffffffffffffffffffffffffffffffffffffff021916908373ffffffffffffffffffffffffffffffffffffffff16021790555060a0820151816005015560c0820151816006015560e08201518160070160006101000a81548160ff0219169083151502179055506101008201518160070160016101000a81548160ff021916908315150217905550610120820151816008019080519060200190612f40929190614ba9565b506101408201518160090160006101000a81548160ff021916908360ff160217905550905050600e54915050612fac565b6040517f08c379a0000000000000000000000000000000000000000000000000000000008152600401612fa390615c6b565b60405180910390fd5b949350505050565b612fc5612fbf6137dd565b8361389e565b613004576040517f08c379a0000000000000000000000000000000000000000000000000000000008152600401612ffb90615a4f565b60405180910390fd5b6130108484848461406b565b50505050565b6060613021826140c7565b9050919050565b600080613033610cf8565b90508091505090565b601060009054906101000a900473ffffffffffffffffffffffffffffffffffffffff1681565b600061306c6137dd565b73ffffffffffffffffffffffffffffffffffffffff1661308a612040565b73ffffffffffffffffffffffffffffffffffffffff16146130e0576040517f08c379a00000000000000000000000000000000000000000000000000000000081526004016130d790615abb565b60405180910390fd5b600f54905090565b600c80546130f5906157f5565b80601f0160208091040260200160405190810160405280929190818152602001828054613121906157f5565b801561316e5780601f106131435761010080835404028352916020019161316e565b820191906000526020600020905b81548152906001019060200180831161315157829003601f168201915b505050505081565b6000600560008473ffffffffffffffffffffffffffffffffffffffff1673ffffffffffffffffffffffffffffffffffffffff16815260200190815260200160002060008373ffffffffffffffffffffffffffffffffffffffff1673ffffffffffffffffffffffffffffffffffffffff16815260200190815260200160002060009054906101000a900460ff16905092915050565b6132126137dd565b73ffffffffffffffffffffffffffffffffffffffff16613230612040565b73ffffffffffffffffffffffffffffffffffffffff1614613286576040517f08c379a000000000000000000000000000000000000000000000000000000000815260040161327d90615abb565b60405180910390fd5b600073ffffffffffffffffffffffffffffffffffffffff168173ffffffffffffffffffffffffffffffffffffffff1614156132f6576040517f08c379a00000000000000000000000000000000000000000000000000000000081526004016132ed906161a4565b60405180910390fd5b6132ff81613bd8565b50565b601160009054906101000a900473ffffffffffffffffffffffffffffffffffffffff1681565b60006133326137dd565b73ffffffffffffffffffffffffffffffffffffffff16613350612040565b73ffffffffffffffffffffffffffffffffffffffff16146133a6576040517f08c379a000000000000000000000000000000000000000000000000000000000815260040161339d90615abb565b60405180910390fd5b600073ffffffffffffffffffffffffffffffffffffffff163373ffffffffffffffffffffffffffffffffffffffff1614156133e057600080fd5b600e60008154809291906133f390616096565b9190505550613403600e54613771565b1561340d57600080fd5b60138460405161341d919061611b565b908152602001604051809103902060009054906101000a900460ff161561344357600080fd5b61344f33600e54613e29565b61345b600e5485613ff7565b600160138560405161346d919061611b565b908152602001604051809103902060006101000a81548160ff0219169083151502179055506000604051806101600160405280600e5481526020018681526020016134b66137dd565b73ffffffffffffffffffffffffffffffffffffffff1681526020016134d96137dd565b73ffffffffffffffffffffffffffffffffffffffff168152602001600073ffffffffffffffffffffffffffffffffffffffff16815260200160008152602001600081526020016000151581526020016000151581526020018581526020018460ff1681525090508060126000600e54815260200190815260200160002060008201518160000155602082015181600101908051906020019061357c929190614ba9565b5060408201518160020160006101000a81548173ffffffffffffffffffffffffffffffffffffffff021916908373ffffffffffffffffffffffffffffffffffffffff16021790555060608201518160030160006101000a81548173ffffffffffffffffffffffffffffffffffffffff021916908373ffffffffffffffffffffffffffffffffffffffff16021790555060808201518160040160006101000a81548173ffffffffffffffffffffffffffffffffffffffff021916908373ffffffffffffffffffffffffffffffffffffffff16021790555060a0820151816005015560c0820151816006015560e08201518160070160006101000a81548160ff0219169083151502179055506101008201518160070160016101000a81548160ff0219169083151502179055506101208201518160080190805190602001906136c4929190614ba9565b506101408201518160090160006101000a81548160ff021916908360ff160217905550905050600e549150509392505050565b60007f780e9d63000000000000000000000000000000000000000000000000000000007bffffffffffffffffffffffffffffffffffffffffffffffffffffffff1916827bffffffffffffffffffffffffffffffffffffffffffffffffffffffff1916148061376a575061376982614219565b5b9050919050565b60008073ffffffffffffffffffffffffffffffffffffffff166002600084815260200190815260200160002060009054906101000a900473ffffffffffffffffffffffffffffffffffffffff1673ffffffffffffffffffffffffffffffffffffffff1614159050919050565b600033905090565b816004600083815260200190815260200160002060006101000a81548173ffffffffffffffffffffffffffffffffffffffff021916908373ffffffffffffffffffffffffffffffffffffffff160217905550808273ffffffffffffffffffffffffffffffffffffffff1661385883611da8565b73ffffffffffffffffffffffffffffffffffffffff167f8c5be1e5ebec7d5bd14f71427d1e84f3dd0314c0f7b2291e5b200ac8c7c3b92560405160405180910390a45050565b60006138a982613771565b6138e8576040517f08c379a00000000000000000000000000000000000000000000000000000000081526004016138df90616236565b60405180910390fd5b60006138f383611da8565b90508073ffffffffffffffffffffffffffffffffffffffff168473ffffffffffffffffffffffffffffffffffffffff16148061396257508373ffffffffffffffffffffffffffffffffffffffff1661394a84610b24565b73ffffffffffffffffffffffffffffffffffffffff16145b8061397357506139728185613176565b5b91505092915050565b8273ffffffffffffffffffffffffffffffffffffffff1661399c82611da8565b73ffffffffffffffffffffffffffffffffffffffff16146139f2576040517f08c379a00000000000000000000000000000000000000000000000000000000081526004016139e9906162c8565b60405180910390fd5b600073ffffffffffffffffffffffffffffffffffffffff168273ffffffffffffffffffffffffffffffffffffffff161415613a62576040517f08c379a0000000000000000000000000000000000000000000000000000000008152600401613a599061635a565b60405180910390fd5b613a6d8383836142fb565b613a786000826137e5565b6001600360008573ffffffffffffffffffffffffffffffffffffffff1673ffffffffffffffffffffffffffffffffffffffff1681526020019081526020016000206000828254613ac8919061637a565b925050819055506001600360008473ffffffffffffffffffffffffffffffffffffffff1673ffffffffffffffffffffffffffffffffffffffff1681526020019081526020016000206000828254613b1f9190615cba565b92505081905550816002600083815260200190815260200160002060006101000a81548173ffffffffffffffffffffffffffffffffffffffff021916908373ffffffffffffffffffffffffffffffffffffffff160217905550808273ffffffffffffffffffffffffffffffffffffffff168473ffffffffffffffffffffffffffffffffffffffff167fddf252ad1be2c89b69c2b068fc378daa952ba7f163c4a11628f55a4df523b3ef60405160405180910390a4505050565b6000600b60009054906101000a900473ffffffffffffffffffffffffffffffffffffffff16905081600b60006101000a81548173ffffffffffffffffffffffffffffffffffffffff021916908373ffffffffffffffffffffffffffffffffffffffff1602179055508173ffffffffffffffffffffffffffffffffffffffff168173ffffffffffffffffffffffffffffffffffffffff167f8be0079c531659141344cd1fd0a4f28419497f9722a3daafe3b4186f6b6457e060405160405180910390a35050565b613cb882826040518060200160405280600081525061430b565b5050565b8173ffffffffffffffffffffffffffffffffffffffff168373ffffffffffffffffffffffffffffffffffffffff161415613d2b576040517f08c379a0000000000000000000000000000000000000000000000000000000008152600401613d22906163fa565b60405180910390fd5b80600560008573ffffffffffffffffffffffffffffffffffffffff1673ffffffffffffffffffffffffffffffffffffffff16815260200190815260200160002060008473ffffffffffffffffffffffffffffffffffffffff1673ffffffffffffffffffffffffffffffffffffffff16815260200190815260200160002060006101000a81548160ff0219169083151502179055508173ffffffffffffffffffffffffffffffffffffffff168373ffffffffffffffffffffffffffffffffffffffff167f17307eab39ab6107e8899845ad3d59bd9653f200f220920489ca2b5937696c3183604051613e1c9190614da3565b60405180910390a3505050565b600073ffffffffffffffffffffffffffffffffffffffff168273ffffffffffffffffffffffffffffffffffffffff161415613e99576040517f08c379a0000000000000000000000000000000000000000000000000000000008152600401613e9090616466565b60405180910390fd5b613ea281613771565b15613ee2576040517f08c379a0000000000000000000000000000000000000000000000000000000008152600401613ed9906164d2565b60405180910390fd5b613eee600083836142fb565b6001600360008473ffffffffffffffffffffffffffffffffffffffff1673ffffffffffffffffffffffffffffffffffffffff1681526020019081526020016000206000828254613f3e9190615cba565b92505081905550816002600083815260200190815260200160002060006101000a81548173ffffffffffffffffffffffffffffffffffffffff021916908373ffffffffffffffffffffffffffffffffffffffff160217905550808273ffffffffffffffffffffffffffffffffffffffff16600073ffffffffffffffffffffffffffffffffffffffff167fddf252ad1be2c89b69c2b068fc378daa952ba7f163c4a11628f55a4df523b3ef60405160405180910390a45050565b61400082613771565b61403f576040517f08c379a000000000000000000000000000000000000000000000000000000000815260040161403690616564565b60405180910390fd5b80600660008481526020019081526020016000209080519060200190614066929190614ba9565b505050565b61407684848461397c565b61408284848484614366565b6140c1576040517f08c379a00000000000000000000000000000000000000000000000000000000081526004016140b8906165f6565b60405180910390fd5b50505050565b60606140d282613771565b614111576040517f08c379a000000000000000000000000000000000000000000000000000000000815260040161410890616688565b60405180910390fd5b6000600660008481526020019081526020016000208054614131906157f5565b80601f016020809104026020016040519081016040528092919081815260200182805461415d906157f5565b80156141aa5780601f1061417f576101008083540402835291602001916141aa565b820191906000526020600020905b81548152906001019060200180831161418d57829003601f168201915b5050505050905060006141bb6144ee565b90506000815114156141d1578192505050614214565b6000825111156142065780826040516020016141ee9291906166a8565b60405160208183030381529060405292505050614214565b61420f84614505565b925050505b919050565b60007f80ac58cd000000000000000000000000000000000000000000000000000000007bffffffffffffffffffffffffffffffffffffffffffffffffffffffff1916827bffffffffffffffffffffffffffffffffffffffffffffffffffffffff191614806142e457507f5b5e139f000000000000000000000000000000000000000000000000000000007bffffffffffffffffffffffffffffffffffffffffffffffffffffffff1916827bffffffffffffffffffffffffffffffffffffffffffffffffffffffff1916145b806142f457506142f3826145ac565b5b9050919050565b614306838383614616565b505050565b6143158383613e29565b6143226000848484614366565b614361576040517f08c379a0000000000000000000000000000000000000000000000000000000008152600401614358906165f6565b60405180910390fd5b505050565b60006143878473ffffffffffffffffffffffffffffffffffffffff1661472a565b156144e1578373ffffffffffffffffffffffffffffffffffffffff1663150b7a026143b06137dd565b8786866040518563ffffffff1660e01b81526004016143d29493929190616721565b6020604051808303816000875af192505050801561440e57506040513d601f19601f8201168201806040525081019061440b9190616782565b60015b614491573d806000811461443e576040519150601f19603f3d011682016040523d82523d6000602084013e614443565b606091505b50600081511415614489576040517f08c379a0000000000000000000000000000000000000000000000000000000008152600401614480906165f6565b60405180910390fd5b805181602001fd5b63150b7a0260e01b7bffffffffffffffffffffffffffffffffffffffffffffffffffffffff1916817bffffffffffffffffffffffffffffffffffffffffffffffffffffffff1916149150506144e6565b600190505b949350505050565b606060405180602001604052806000815250905090565b606061451082613771565b61454f576040517f08c379a000000000000000000000000000000000000000000000000000000000815260040161454690616821565b60405180910390fd5b60006145596144ee565b9050600081511161457957604051806020016040528060008152506145a4565b806145838461473d565b6040516020016145949291906166a8565b6040516020818303038152906040525b915050919050565b60007f01ffc9a7000000000000000000000000000000000000000000000000000000007bffffffffffffffffffffffffffffffffffffffffffffffffffffffff1916827bffffffffffffffffffffffffffffffffffffffffffffffffffffffff1916149050919050565b61462183838361489e565b600073ffffffffffffffffffffffffffffffffffffffff168373ffffffffffffffffffffffffffffffffffffffff1614156146645761465f816148a3565b6146a3565b8173ffffffffffffffffffffffffffffffffffffffff168373ffffffffffffffffffffffffffffffffffffffff16146146a2576146a183826148ec565b5b5b600073ffffffffffffffffffffffffffffffffffffffff168273ffffffffffffffffffffffffffffffffffffffff1614156146e6576146e181614a59565b614725565b8273ffffffffffffffffffffffffffffffffffffffff168273ffffffffffffffffffffffffffffffffffffffff1614614724576147238282614b2a565b5b5b505050565b600080823b905060008111915050919050565b60606000821415614785576040518060400160405280600181526020017f30000000000000000000000000000000000000000000000000000000000000008152509050614899565b600082905060005b600082146147b75780806147a090616096565b915050600a826147b09190616870565b915061478d565b60008167ffffffffffffffff8111156147d3576147d2615058565b5b6040519080825280601f01601f1916602001820160405280156148055781602001600182028036833780820191505090505b5090505b600085146148925760018261481e919061637a565b9150600a8561482d91906168a1565b60306148399190615cba565b60f81b81838151811061484f5761484e615e34565b5b60200101907effffffffffffffffffffffffffffffffffffffffffffffffffffffffffffff1916908160001a905350600a8561488b9190616870565b9450614809565b8093505050505b919050565b505050565b600980549050600a600083815260200190815260200160002081905550600981908060018154018082558091505060019003906000526020600020016000909190919091505550565b600060016148f984611f00565b614903919061637a565b90506000600860008481526020019081526020016000205490508181146149e8576000600760008673ffffffffffffffffffffffffffffffffffffffff1673ffffffffffffffffffffffffffffffffffffffff168152602001908152602001600020600084815260200190815260200160002054905080600760008773ffffffffffffffffffffffffffffffffffffffff1673ffffffffffffffffffffffffffffffffffffffff168152602001908152602001600020600084815260200190815260200160002081905550816008600083815260200190815260200160002081905550505b6008600084815260200190815260200160002060009055600760008573ffffffffffffffffffffffffffffffffffffffff1673ffffffffffffffffffffffffffffffffffffffff16815260200190815260200160002060008381526020019081526020016000206000905550505050565b60006001600980549050614a6d919061637a565b90506000600a6000848152602001908152602001600020549050600060098381548110614a9d57614a9c615e34565b5b906000526020600020015490508060098381548110614abf57614abe615e34565b5b906000526020600020018190555081600a600083815260200190815260200160002081905550600a6000858152602001908152602001600020600090556009805480614b0e57614b0d6168d2565b5b6001900381819060005260206000200160009055905550505050565b6000614b3583611f00565b905081600760008573ffffffffffffffffffffffffffffffffffffffff1673ffffffffffffffffffffffffffffffffffffffff168152602001908152602001600020600083815260200190815260200160002081905550806008600084815260200190815260200160002081905550505050565b828054614bb5906157f5565b90600052602060002090601f016020900481019282614bd75760008555614c1e565b82601f10614bf057805160ff1916838001178555614c1e565b82800160010185558215614c1e579182015b82811115614c1d578251825591602001919060010190614c02565b5b509050614c2b9190614cd2565b5090565b6040518061016001604052806000815260200160608152602001600073ffffffffffffffffffffffffffffffffffffffff168152602001600073ffffffffffffffffffffffffffffffffffffffff168152602001600073ffffffffffffffffffffffffffffffffffffffff168152602001600081526020016000815260200160001515815260200160001515815260200160608152602001600060ff1681525090565b5b80821115614ceb576000816000905550600101614cd3565b5090565b6000604051905090565b600080fd5b600080fd5b60007fffffffff0000000000000000000000000000000000000000000000000000000082169050919050565b614d3881614d03565b8114614d4357600080fd5b50565b600081359050614d5581614d2f565b92915050565b600060208284031215614d7157614d70614cf9565b5b6000614d7f84828501614d46565b91505092915050565b60008115159050919050565b614d9d81614d88565b82525050565b6000602082019050614db86000830184614d94565b92915050565b600081519050919050565b600082825260208201905092915050565b60005b83811015614df8578082015181840152602081019050614ddd565b83811115614e07576000848401525b50505050565b6000601f19601f8301169050919050565b6000614e2982614dbe565b614e338185614dc9565b9350614e43818560208601614dda565b614e4c81614e0d565b840191505092915050565b60006020820190508181036000830152614e718184614e1e565b905092915050565b6000819050919050565b614e8c81614e79565b8114614e9757600080fd5b50565b600081359050614ea981614e83565b92915050565b600060208284031215614ec557614ec4614cf9565b5b6000614ed384828501614e9a565b91505092915050565b600073ffffffffffffffffffffffffffffffffffffffff82169050919050565b6000614f0782614edc565b9050919050565b614f1781614efc565b82525050565b6000602082019050614f326000830184614f0e565b92915050565b614f4181614efc565b8114614f4c57600080fd5b50565b600081359050614f5e81614f38565b92915050565b60008060408385031215614f7b57614f7a614cf9565b5b6000614f8985828601614f4f565b9250506020614f9a85828601614e9a565b9150509250929050565b614fad81614e79565b82525050565b6000602082019050614fc86000830184614fa4565b92915050565b600080600060608486031215614fe757614fe6614cf9565b5b6000614ff586828701614f4f565b935050602061500686828701614f4f565b925050604061501786828701614e9a565b9150509250925092565b60006020828403121561503757615036614cf9565b5b600061504584828501614f4f565b91505092915050565b600080fd5b600080fd5b7f4e487b7100000000000000000000000000000000000000000000000000000000600052604160045260246000fd5b61509082614e0d565b810181811067ffffffffffffffff821117156150af576150ae615058565b5b80604052505050565b60006150c2614cef565b90506150ce8282615087565b919050565b600067ffffffffffffffff8211156150ee576150ed615058565b5b6150f782614e0d565b9050602081019050919050565b82818337600083830152505050565b6000615126615121846150d3565b6150b8565b90508281526020810184848401111561514257615141615053565b5b61514d848285615104565b509392505050565b600082601f83011261516a5761516961504e565b5b813561517a848260208601615113565b91505092915050565b60006020828403121561519957615198614cf9565b5b600082013567ffffffffffffffff8111156151b7576151b6614cfe565b5b6151c384828501615155565b91505092915050565b60006151d782614edc565b9050919050565b6151e7816151cc565b82525050565b600060ff82169050919050565b615203816151ed565b82525050565b60006101608201905061521f600083018e614fa4565b8181036020830152615231818d614e1e565b9050615240604083018c6151de565b61524d606083018b6151de565b61525a608083018a6151de565b61526760a0830189614fa4565b61527460c0830188614fa4565b61528160e0830187614d94565b61528f610100830186614d94565b8181036101208301526152a28185614e1e565b90506152b26101408301846151fa565b9c9b505050505050505050505050565b600080604083850312156152d9576152d8614cf9565b5b60006152e785828601614e9a565b92505060206152f885828601614e9a565b9150509250929050565b61530b81614e79565b82525050565b600082825260208201905092915050565b600061532d82614dbe565b6153378185615311565b9350615347818560208601614dda565b61535081614e0d565b840191505092915050565b615364816151cc565b82525050565b61537381614d88565b82525050565b615382816151ed565b82525050565b6000610160830160008301516153a16000860182615302565b50602083015184820360208601526153b98282615322565b91505060408301516153ce604086018261535b565b5060608301516153e1606086018261535b565b5060808301516153f4608086018261535b565b5060a083015161540760a0860182615302565b5060c083015161541a60c0860182615302565b5060e083015161542d60e086018261536a565b5061010083015161544261010086018261536a565b5061012083015184820361012086015261545c8282615322565b915050610140830151615473610140860182615379565b508091505092915050565b600060208201905081810360008301526154988184615388565b905092915050565b6154a981614d88565b81146154b457600080fd5b50565b6000813590506154c6816154a0565b92915050565b600080604083850312156154e3576154e2614cf9565b5b60006154f185828601614f4f565b9250506020615502858286016154b7565b9150509250929050565b615515816151ed565b811461552057600080fd5b50565b6000813590506155328161550c565b92915050565b6000806000806080858703121561555257615551614cf9565b5b600085013567ffffffffffffffff8111156155705761556f614cfe565b5b61557c87828801615155565b945050602061558d87828801614e9a565b935050604085013567ffffffffffffffff8111156155ae576155ad614cfe565b5b6155ba87828801615155565b92505060606155cb87828801615523565b91505092959194509250565b600067ffffffffffffffff8211156155f2576155f1615058565b5b6155fb82614e0d565b9050602081019050919050565b600061561b615616846155d7565b6150b8565b90508281526020810184848401111561563757615636615053565b5b615642848285615104565b509392505050565b600082601f83011261565f5761565e61504e565b5b813561566f848260208601615608565b91505092915050565b6000806000806080858703121561569257615691614cf9565b5b60006156a087828801614f4f565b94505060206156b187828801614f4f565b93505060406156c287828801614e9a565b925050606085013567ffffffffffffffff8111156156e3576156e2614cfe565b5b6156ef8782880161564a565b91505092959194509250565b6000806040838503121561571257615711614cf9565b5b600061572085828601614f4f565b925050602061573185828601614f4f565b9150509250929050565b60008060006060848603121561575457615753614cf9565b5b600084013567ffffffffffffffff81111561577257615771614cfe565b5b61577e86828701615155565b935050602084013567ffffffffffffffff81111561579f5761579e614cfe565b5b6157ab86828701615155565b92505060406157bc86828701615523565b9150509250925092565b7f4e487b7100000000000000000000000000000000000000000000000000000000600052602260045260246000fd5b6000600282049050600182168061580d57607f821691505b60208210811415615821576158206157c6565b5b50919050565b7f4552433732313a20617070726f76656420717565727920666f72206e6f6e657860008201527f697374656e7420746f6b656e0000000000000000000000000000000000000000602082015250565b6000615883602c83614dc9565b915061588e82615827565b604082019050919050565b600060208201905081810360008301526158b281615876565b9050919050565b7f4552433732313a20617070726f76616c20746f2063757272656e74206f776e6560008201527f7200000000000000000000000000000000000000000000000000000000000000602082015250565b6000615915602183614dc9565b9150615920826158b9565b604082019050919050565b6000602082019050818103600083015261594481615908565b9050919050565b7f4552433732313a20617070726f76652063616c6c6572206973206e6f74206f7760008201527f6e6572206e6f7220617070726f76656420666f7220616c6c0000000000000000602082015250565b60006159a7603883614dc9565b91506159b28261594b565b604082019050919050565b600060208201905081810360008301526159d68161599a565b9050919050565b7f4552433732313a207472616e736665722063616c6c6572206973206e6f74206f60008201527f776e6572206e6f7220617070726f766564000000000000000000000000000000602082015250565b6000615a39603183614dc9565b9150615a44826159dd565b604082019050919050565b60006020820190508181036000830152615a6881615a2c565b9050919050565b7f4f776e61626c653a2063616c6c6572206973206e6f7420746865206f776e6572600082015250565b6000615aa5602083614dc9565b9150615ab082615a6f565b602082019050919050565b60006020820190508181036000830152615ad481615a98565b9050919050565b7f636f7374206d757374206265203e203000000000000000000000000000000000600082015250565b6000615b11601083614dc9565b9150615b1c82615adb565b602082019050919050565b60006020820190508181036000830152615b4081615b04565b9050919050565b6000819050919050565b6000615b6c615b67615b6284614edc565b615b47565b614edc565b9050919050565b6000615b7e82615b51565b9050919050565b6000615b9082615b73565b9050919050565b615ba081615b85565b82525050565b6000606082019050615bbb6000830186614f0e565b615bc86020830185615b97565b615bd56040830184614fa4565b949350505050565b600081519050615bec816154a0565b92915050565b600060208284031215615c0857615c07614cf9565b5b6000615c1684828501615bdd565b91505092915050565b7f4572726f72207472616e7366657272696e6720746f6b656e7300000000000000600082015250565b6000615c55601983614dc9565b9150615c6082615c1f565b602082019050919050565b60006020820190508181036000830152615c8481615c48565b9050919050565b7f4e487b7100000000000000000000000000000000000000000000000000000000600052601160045260246000fd5b6000615cc582614e79565b9150615cd083614e79565b9250827fffffffffffffffffffffffffffffffffffffffffffffffffffffffffffffffff03821115615d0557615d04615c8b565b5b828201905092915050565b7f455243373231456e756d657261626c653a206f776e657220696e646578206f7560008201527f74206f6620626f756e6473000000000000000000000000000000000000000000602082015250565b6000615d6c602b83614dc9565b9150615d7782615d10565b604082019050919050565b60006020820190508181036000830152615d9b81615d5f565b9050919050565b7f455243373231456e756d657261626c653a20676c6f62616c20696e646578206f60008201527f7574206f6620626f756e64730000000000000000000000000000000000000000602082015250565b6000615dfe602c83614dc9565b9150615e0982615da2565b604082019050919050565b60006020820190508181036000830152615e2d81615df1565b9050919050565b7f4e487b7100000000000000000000000000000000000000000000000000000000600052603260045260246000fd5b7f4552433732313a206f776e657220717565727920666f72206e6f6e657869737460008201527f656e7420746f6b656e0000000000000000000000000000000000000000000000602082015250565b6000615ebf602983614dc9565b9150615eca82615e63565b604082019050919050565b60006020820190508181036000830152615eee81615eb2565b9050919050565b7f4552433732313a2062616c616e636520717565727920666f7220746865207a6560008201527f726f206164647265737300000000000000000000000000000000000000000000602082015250565b6000615f51602a83614dc9565b9150615f5c82615ef5565b604082019050919050565b60006020820190508181036000830152615f8081615f44565b9050919050565b7f436865737420686173206265656e206f70656e65640000000000000000000000600082015250565b6000615fbd601583614dc9565b9150615fc882615f87565b602082019050919050565b60006020820190508181036000830152615fec81615fb0565b9050919050565b7f5f7072696365206d757374206265203e2062617365436f737400000000000000600082015250565b6000616029601983614dc9565b915061603482615ff3565b602082019050919050565b600060208201905081810360008301526160588161601c565b9050919050565b60006060820190506160746000830186614f0e565b6160816020830185614f0e565b61608e6040830184614fa4565b949350505050565b60006160a182614e79565b91507fffffffffffffffffffffffffffffffffffffffffffffffffffffffffffffffff8214156160d4576160d3615c8b565b5b600182019050919050565b600081905092915050565b60006160f582614dbe565b6160ff81856160df565b935061610f818560208601614dda565b80840191505092915050565b600061612782846160ea565b915081905092915050565b7f4f776e61626c653a206e6577206f776e657220697320746865207a65726f206160008201527f6464726573730000000000000000000000000000000000000000000000000000602082015250565b600061618e602683614dc9565b915061619982616132565b604082019050919050565b600060208201905081810360008301526161bd81616181565b9050919050565b7f4552433732313a206f70657261746f7220717565727920666f72206e6f6e657860008201527f697374656e7420746f6b656e0000000000000000000000000000000000000000602082015250565b6000616220602c83614dc9565b915061622b826161c4565b604082019050919050565b6000602082019050818103600083015261624f81616213565b9050919050565b7f4552433732313a207472616e73666572206f6620746f6b656e2074686174206960008201527f73206e6f74206f776e0000000000000000000000000000000000000000000000602082015250565b60006162b2602983614dc9565b91506162bd82616256565b604082019050919050565b600060208201905081810360008301526162e1816162a5565b9050919050565b7f4552433732313a207472616e7366657220746f20746865207a65726f2061646460008201527f7265737300000000000000000000000000000000000000000000000000000000602082015250565b6000616344602483614dc9565b915061634f826162e8565b604082019050919050565b6000602082019050818103600083015261637381616337565b9050919050565b600061638582614e79565b915061639083614e79565b9250828210156163a3576163a2615c8b565b5b828203905092915050565b7f4552433732313a20617070726f766520746f2063616c6c657200000000000000600082015250565b60006163e4601983614dc9565b91506163ef826163ae565b602082019050919050565b60006020820190508181036000830152616413816163d7565b9050919050565b7f4552433732313a206d696e7420746f20746865207a65726f2061646472657373600082015250565b6000616450602083614dc9565b915061645b8261641a565b602082019050919050565b6000602082019050818103600083015261647f81616443565b9050919050565b7f4552433732313a20746f6b656e20616c7265616479206d696e74656400000000600082015250565b60006164bc601c83614dc9565b91506164c782616486565b602082019050919050565b600060208201905081810360008301526164eb816164af565b9050919050565b7f45524337323155524953746f726167653a2055524920736574206f66206e6f6e60008201527f6578697374656e7420746f6b656e000000000000000000000000000000000000602082015250565b600061654e602e83614dc9565b9150616559826164f2565b604082019050919050565b6000602082019050818103600083015261657d81616541565b9050919050565b7f4552433732313a207472616e7366657220746f206e6f6e20455243373231526560008201527f63656976657220696d706c656d656e7465720000000000000000000000000000602082015250565b60006165e0603283614dc9565b91506165eb82616584565b604082019050919050565b6000602082019050818103600083015261660f816165d3565b9050919050565b7f45524337323155524953746f726167653a2055524920717565727920666f722060008201527f6e6f6e6578697374656e7420746f6b656e000000000000000000000000000000602082015250565b6000616672603183614dc9565b915061667d82616616565b604082019050919050565b600060208201905081810360008301526166a181616665565b9050919050565b60006166b482856160ea565b91506166c082846160ea565b91508190509392505050565b600081519050919050565b600082825260208201905092915050565b60006166f3826166cc565b6166fd81856166d7565b935061670d818560208601614dda565b61671681614e0d565b840191505092915050565b60006080820190506167366000830187614f0e565b6167436020830186614f0e565b6167506040830185614fa4565b818103606083015261676281846166e8565b905095945050505050565b60008151905061677c81614d2f565b92915050565b60006020828403121561679857616797614cf9565b5b60006167a68482850161676d565b91505092915050565b7f4552433732314d657461646174613a2055524920717565727920666f72206e6f60008201527f6e6578697374656e7420746f6b656e0000000000000000000000000000000000602082015250565b600061680b602f83614dc9565b9150616816826167af565b604082019050919050565b6000602082019050818103600083015261683a816167fe565b9050919050565b7f4e487b7100000000000000000000000000000000000000000000000000000000600052601260045260246000fd5b600061687b82614e79565b915061688683614e79565b92508261689657616895616841565b5b828204905092915050565b60006168ac82614e79565b91506168b783614e79565b9250826168c7576168c6616841565b5b828206905092915050565b7f4e487b7100000000000000000000000000000000000000000000000000000000600052603160045260246000fdfea264697066735822122098ff8ded7a6bde8900d2676a757120e47aeebac1235aafcf91bd8fb6d09b27d564736f6c634300080b0033",
  "immutableReferences": {},
  "source": "// SPDX-License-Identifier: MIT\npragma solidity ^0.8.0;\npragma abicoder v2;\n\n// import ERC721 iterface\nimport \"@openzeppelin/contracts/token/ERC721/extensions/ERC721URIStorage.sol\";\nimport \"@openzeppelin/contracts/token/ERC721/extensions/ERC721Enumerable.sol\";\nimport \"@openzeppelin/contracts/token/ERC721/ERC721.sol\";\nimport '@openzeppelin/contracts/utils/math/SafeMath.sol';\nimport '@openzeppelin/contracts/access/Ownable.sol';\nimport './IBEP20.sol';\nimport './IPiratesKingBase.sol';\n\n\n// PiratesKingChest smart contract inherits ERC721 interface\ncontract PiratesKingChest is ERC721, ERC721URIStorage, ERC721Enumerable, Ownable, IPiratesKingBase {\n\n    using SafeMath for uint256;\n    // this contract's token collection name\n    string public collectionName;\n    // this contract's token symbol\n    string public collectionNameSymbol;\n    uint256 public chestCounter;\n    uint256 private baseCost;\n    address public pktContract;\n    address public poolRewardAddress;\n\n\n\n\n    mapping(uint256 => PKChest) public allChests;\n    // check if token URI exists\n    mapping(string => bool) public tokenURIExists;\n    mapping(uint256 => bool) public chestOpens;\n\n    event LibContractAddressUpdate(address newAddress, bytes32 contractName);\n\n    // initialize contract while deployment with contract's collection name and token\n    constructor(address _pktContract, address _poolRewardAddress) ERC721(\"Chest Collection\", \"PKC\") {\n        collectionName = name();\n        collectionNameSymbol = symbol();\n        _setPKTContractAddress(_pktContract);\n        _setPoolContractAddress(_poolRewardAddress);\n    }\n\n\n    function _beforeTokenTransfer(address from, address to, uint256 tokenId)\n    internal\n    override(ERC721, ERC721Enumerable)\n    {\n        super._beforeTokenTransfer(from, to, tokenId);\n    }\n\n    function _burn(uint256 tokenId) internal override(ERC721, ERC721URIStorage) {\n        super._burn(tokenId);\n    }\n\n    function tokenURI(uint256 tokenId)\n    public\n    view\n    override(ERC721, ERC721URIStorage)\n    returns (string memory)\n    {\n        return super.tokenURI(tokenId);\n    }\n\n    function supportsInterface(bytes4 interfaceId)\n    public\n    view\n    override(ERC721, ERC721Enumerable)\n    returns (bool)\n    {\n        return super.supportsInterface(interfaceId);\n    }\n\n    function safeMint(address to, uint256 tokenId) public onlyOwner {\n        _safeMint(to, tokenId);\n    }\n\n    /*\n*  @Update pkt contract address\n  */\n    function _setPKTContractAddress(address _contract)\n    private\n    {\n        pktContract = _contract;\n        emit LibContractAddressUpdate(_contract, 'pkt');\n    }\n\n    /*\n*  @Update pool contract address\n  */\n    function _setPoolContractAddress(address _contract)\n    private\n    {\n        poolRewardAddress = _contract;\n        emit LibContractAddressUpdate(_contract, 'pool');\n    }\n\n    // mint a new crypto boy\n    function mintChest(string memory _tokenURI, string memory _data, uint8 _cType) external onlyOwner returns(uint256)\n    {\n        // check if this function caller is not an zero address account\n        require(msg.sender != address(0));\n        // increment counter\n        chestCounter ++;\n        // check if a token exists with the above token id => incremented counter\n        require(!_exists(chestCounter));\n\n        // check if the token URI already exists or not\n        require(!tokenURIExists[_tokenURI]);\n        // check if the token name already exists or not\n\n        // mint the token\n        _mint(msg.sender, chestCounter);\n        // set token URI (bind token id with the passed in token URI)\n        _setTokenURI(chestCounter, _tokenURI);\n\n        // make passed token URI as exists\n        tokenURIExists[_tokenURI] = true;\n\n        // creat a new crypto boy (struct) and pass in new values\n        PKChest memory newChest = PKChest(\n            chestCounter,\n            _tokenURI,\n            payable(_msgSender()),\n            payable(_msgSender()),\n            payable(address(0)),\n            0,\n            0,\n            false,\n            false,\n            _data,\n            _cType);\n        // add the token id and it's crypto boy to all crypto boys mapping\n        allChests[chestCounter] = newChest;\n        return chestCounter;\n    }\n\n    function setBaseCost(uint256 _cost) external onlyOwner\n    {\n        require (_cost > 0, \"cost must be > 0\");\n        baseCost = _cost;\n    }\n\n    // You can read from a state variable without sending a transaction.\n    function getBaseCost() public view onlyOwner returns (uint256)\n    {\n        return baseCost;\n    }\n\n\n    // get owner of the token\n    function getTokenOwner(uint256 _tokenId)\n    public\n    view\n    returns(address)\n    {\n        address _tokenOwner = ownerOf(_tokenId);\n        return _tokenOwner;\n    }\n\n    // get metadata of the token\n    function getTokenMetaData(uint _tokenId)\n    public\n    view\n    returns(string memory)\n    {\n        string memory tokenMetaData = tokenURI(_tokenId);\n        return tokenMetaData;\n    }\n\n    function isChestOpen(uint _tokenId)\n    public\n    view\n    returns(bool)\n    {\n        return chestOpens[_tokenId];\n    }\n\n    // get total number of tokens minted so far\n    function getNumberOfTokensMinted()\n    public\n    view\n    returns(uint256) {\n        uint256 totalNumberOfTokensMinted = totalSupply();\n        return totalNumberOfTokensMinted;\n    }\n\n    // get total number of tokens owned by an address\n    function getTotalNumberOfTokensOwnedByAnAddress(address _owner)\n    public\n    view\n    returns(uint256)\n    {\n        uint256 totalNumberOfTokensOwned = balanceOf(_owner);\n        return totalNumberOfTokensOwned;\n    }\n\n    // check if the token already exists\n    function getTokenExists(uint256 _tokenId)\n    public\n    view\n    returns(bool)\n    {\n        bool tokenExists = _exists(_tokenId);\n        return tokenExists;\n    }\n\n    // by a token by passing in the token's id\n    function buyToken(uint256 _tokenId)\n    public\n    payable\n    {\n        // check if the function caller is not an zero account address\n        require(msg.sender != address(0));\n        // check if the token id of the token being bought exists or not\n        require(_exists(_tokenId));\n        // get the token's owner\n        address tokenOwner = ownerOf(_tokenId);\n        // token's owner should not be an zero address account\n        require(tokenOwner != address(0));\n        // the one who wants to buy the token should not be the token's owner\n        require(tokenOwner !=_msgSender());\n        // get that token from all crypto boys mapping and create a memory of it defined as (struct => CryptoBoy)\n        PKChest memory chest = allChests[_tokenId];\n        // price sent in to buy should be equal to or more than the token's price\n        require(msg.value >= chest.price);\n        // token should be for sale\n        require(chest.forSale);\n        address payable sendTo = chest.currentOwner;\n        if (!IBEP20(pktContract).transferFrom(\n                _msgSender(),\n                sendTo,\n                chest.price\n        )) {\n            revert(\"Error transferring tokens\");\n        }\n        // transfer the token from owner to the caller of the function (buyer)\n        _transfer(tokenOwner,_msgSender(), _tokenId);\n\n        // sendTo.transfer(msg.value);\n        // update the token's previous owner\n        chest.previousOwner = payable(chest.currentOwner);\n        // update the token's current owner\n        chest.currentOwner = payable(_msgSender());\n        // update the how many times this token was transfered\n        chest.numberOfTransfers += 1;\n        // set and update that token in the mapping\n        allChests[_tokenId] = chest;\n    }\n\n    function changeTokenPrice(uint256 _tokenId, uint256 _newPrice)\n    public\n    {\n        // require caller of the function is not an empty address\n        require(msg.sender != address(0));\n        // require that token should exist\n        require(_exists(_tokenId));\n        // get the token's owner\n        address tokenOwner = ownerOf(_tokenId);\n        // check that token's owner should be equal to the caller of the function\n        require(tokenOwner ==_msgSender());\n        // get that token from all crypto boys mapping and create a memory of it defined as (struct => CryptoBoy)\n        PKChest memory chest = allChests[_tokenId];\n        // update token's price with new price\n        chest.price = _newPrice;\n        // set and update that token in the mapping\n        allChests[_tokenId] = chest;\n    }\n\n    // switch between set for sale and set not for sale\n    function toggleForSale(uint256 _tokenId)\n    public\n    {\n        // require caller of the function is not an empty address\n        require(msg.sender != address(0));\n        // require that token should exist\n        require(_exists(_tokenId));\n        // get the token's owner\n        address tokenOwner = ownerOf(_tokenId);\n        // check that token's owner should be equal to the caller of the function\n        require(tokenOwner ==_msgSender());\n        // get that token from all crypto boys mapping and create a memory of it defined as (struct => CryptoBoy)\n        PKChest memory chest = allChests[_tokenId];\n        // if token's forSale is false make it true and vice versa\n        if(chest.forSale) {\n            chest.forSale = false;\n        } else {\n            chest.forSale = true;\n        }\n        // set and update that token in the mapping\n        allChests[_tokenId] = chest;\n    }\n\n    function openChest(\n        address _owner,\n        uint256 _tokenId\n    )\n    external\n    returns (PKChest memory)\n    {\n        // require caller of the function is not an empty address\n        require(msg.sender != address(0));\n        // require that token should exist\n        require(_exists(_tokenId));\n        // get the token's owner\n        address tokenOwner = ownerOf(_tokenId);\n        // check that token's owner should be equal to the caller of the function\n        require(tokenOwner == _owner);\n        // get that token from all crypto boys mapping and create a memory of it defined as (struct => CryptoBoy)\n        require(!chestOpens[_tokenId], \"Chest has been opened\");\n        PKChest memory chest = allChests[_tokenId];\n        chestOpens[_tokenId] = true;\n        chest.isOpened = true;\n        return chest;\n    }\n\n    function buyChest(\n        string memory _tokenURI,\n        uint256 _price,\n        string memory _data,\n        uint8 _cType\n    )\n    external\n    payable\n    returns(uint256)\n    {\n\n        require(_price >= baseCost, \"_price must be > baseCost\");\n\n        if (IBEP20(pktContract).transferFrom(\n            _msgSender(),\n            poolRewardAddress,\n            _price\n        )) {\n            // check if this function caller is not an zero address account\n            require(msg.sender != address(0));\n            // increment counter\n            chestCounter ++;\n            // check if a token exists with the above token id => incremented counter\n            require(!_exists(chestCounter));\n\n            // check if the token URI already exists or not\n            require(!tokenURIExists[_tokenURI]);\n            // check if the token name already exists or not\n\n            // mint the token\n            _mint(msg.sender, chestCounter);\n            // set token URI (bind token id with the passed in token URI)\n            _setTokenURI(chestCounter, _tokenURI);\n\n            // make passed token URI as exists\n            tokenURIExists[_tokenURI] = true;\n\n            // creat a new crypto boy (struct) and pass in new values\n            PKChest memory newChest = PKChest(\n                chestCounter,\n                _tokenURI,\n                payable(_msgSender()),\n                payable(_msgSender()),\n                payable(address(0)),\n                0,\n                0,\n                false,\n                false,\n                _data,\n                _cType);\n            // add the token id and it's crypto boy to all crypto boys mapping\n            allChests[chestCounter] = newChest;\n            return chestCounter;\n        } else {\n            revert(\"Error transferring tokens\");\n        }\n\n    }\n\n}\n\n\n",
  "sourcePath": "/Users/macbook/Desktop/tacrypto/contracts/PiratesKingChest.sol",
  "compiler": {
    "name": "solc",
    "version": "0.8.11+commit.d7f03943.Emscripten.clang"
  },
  "schemaVersion": "3.4.4",
  "updatedAt": "2022-01-18T08:12:57.343Z",
  "devdoc": {
    "kind": "dev",
    "methods": {
      "approve(address,uint256)": {
        "details": "See {IERC721-approve}."
      },
      "balanceOf(address)": {
        "details": "See {IERC721-balanceOf}."
      },
      "getApproved(uint256)": {
        "details": "See {IERC721-getApproved}."
      },
      "isApprovedForAll(address,address)": {
        "details": "See {IERC721-isApprovedForAll}."
      },
      "name()": {
        "details": "See {IERC721Metadata-name}."
      },
      "owner()": {
        "details": "Returns the address of the current owner."
      },
      "ownerOf(uint256)": {
        "details": "See {IERC721-ownerOf}."
      },
      "renounceOwnership()": {
        "details": "Leaves the contract without owner. It will not be possible to call `onlyOwner` functions anymore. Can only be called by the current owner. NOTE: Renouncing ownership will leave the contract without an owner, thereby removing any functionality that is only available to the owner."
      },
      "safeTransferFrom(address,address,uint256)": {
        "details": "See {IERC721-safeTransferFrom}."
      },
      "safeTransferFrom(address,address,uint256,bytes)": {
        "details": "See {IERC721-safeTransferFrom}."
      },
      "setApprovalForAll(address,bool)": {
        "details": "See {IERC721-setApprovalForAll}."
      },
      "symbol()": {
        "details": "See {IERC721Metadata-symbol}."
      },
      "tokenByIndex(uint256)": {
        "details": "See {IERC721Enumerable-tokenByIndex}."
      },
      "tokenOfOwnerByIndex(address,uint256)": {
        "details": "See {IERC721Enumerable-tokenOfOwnerByIndex}."
      },
      "totalSupply()": {
        "details": "See {IERC721Enumerable-totalSupply}."
      },
      "transferFrom(address,address,uint256)": {
        "details": "See {IERC721-transferFrom}."
      },
      "transferOwnership(address)": {
        "details": "Transfers ownership of the contract to a new account (`newOwner`). Can only be called by the current owner."
      }
    },
    "version": 1
  },
  "userdoc": {
    "kind": "user",
    "methods": {},
    "version": 1
  }
}