{
  "contractName": "PiratesKingToken",
  "abi": [
    {
      "inputs": [],
      "stateMutability": "nonpayable",
      "type": "constructor"
    },
    {
      "anonymous": false,
      "inputs": [
        {
          "indexed": true,
          "internalType": "address",
          "name": "owner",
          "type": "address"
        },
        {
          "indexed": true,
          "internalType": "address",
          "name": "spender",
          "type": "address"
        },
        {
          "indexed": false,
          "internalType": "uint256",
          "name": "value",
          "type": "uint256"
        }
      ],
      "name": "Approval",
      "type": "event"
    },
    {
      "anonymous": false,
      "inputs": [
        {
          "indexed": false,
          "internalType": "address",
          "name": "account",
          "type": "address"
        }
      ],
      "name": "ExcludedFromFee",
      "type": "event"
    },
    {
      "anonymous": false,
      "inputs": [
        {
          "indexed": false,
          "internalType": "address",
          "name": "account",
          "type": "address"
        }
      ],
      "name": "IncludedToFee",
      "type": "event"
    },
    {
      "anonymous": false,
      "inputs": [
        {
          "indexed": true,
          "internalType": "address",
          "name": "previousOwner",
          "type": "address"
        },
        {
          "indexed": true,
          "internalType": "address",
          "name": "newOwner",
          "type": "address"
        }
      ],
      "name": "OwnershipTransferred",
      "type": "event"
    },
    {
      "anonymous": false,
      "inputs": [
        {
          "indexed": false,
          "internalType": "address",
          "name": "account",
          "type": "address"
        }
      ],
      "name": "Paused",
      "type": "event"
    },
    {
      "anonymous": false,
      "inputs": [
        {
          "indexed": false,
          "internalType": "uint256",
          "name": "token",
          "type": "uint256"
        },
        {
          "indexed": false,
          "internalType": "uint256",
          "name": "liquidAmount",
          "type": "uint256"
        },
        {
          "indexed": false,
          "internalType": "uint256",
          "name": "bnbPool",
          "type": "uint256"
        },
        {
          "indexed": false,
          "internalType": "uint256",
          "name": "prPool",
          "type": "uint256"
        },
        {
          "indexed": false,
          "internalType": "uint256",
          "name": "bnbLiquidity",
          "type": "uint256"
        }
      ],
      "name": "SwapAndCharged",
      "type": "event"
    },
    {
      "anonymous": false,
      "inputs": [
        {
          "indexed": false,
          "internalType": "uint256",
          "name": "tokensSwapped",
          "type": "uint256"
        },
        {
          "indexed": false,
          "internalType": "uint256",
          "name": "ethReceived",
          "type": "uint256"
        },
        {
          "indexed": false,
          "internalType": "uint256",
          "name": "tokensIntoLiquidity",
          "type": "uint256"
        }
      ],
      "name": "SwapAndLiquify",
      "type": "event"
    },
    {
      "anonymous": false,
      "inputs": [
        {
          "indexed": false,
          "internalType": "bool",
          "name": "enabled",
          "type": "bool"
        }
      ],
      "name": "SwapAndLiquifyEnabledUpdated",
      "type": "event"
    },
    {
      "anonymous": false,
      "inputs": [
        {
          "indexed": true,
          "internalType": "address",
          "name": "from",
          "type": "address"
        },
        {
          "indexed": true,
          "internalType": "address",
          "name": "to",
          "type": "address"
        },
        {
          "indexed": false,
          "internalType": "uint256",
          "name": "value",
          "type": "uint256"
        }
      ],
      "name": "Transfer",
      "type": "event"
    },
    {
      "anonymous": false,
      "inputs": [
        {
          "indexed": false,
          "internalType": "address",
          "name": "account",
          "type": "address"
        }
      ],
      "name": "Unpaused",
      "type": "event"
    },
    {
      "anonymous": false,
      "inputs": [
        {
          "indexed": false,
          "internalType": "address",
          "name": "account",
          "type": "address"
        }
      ],
      "name": "UpdateBNBPoolAddress",
      "type": "event"
    },
    {
      "anonymous": false,
      "inputs": [
        {
          "indexed": false,
          "internalType": "uint256",
          "name": "bnbFee",
          "type": "uint256"
        },
        {
          "indexed": false,
          "internalType": "uint256",
          "name": "liquidityFee",
          "type": "uint256"
        },
        {
          "indexed": false,
          "internalType": "uint256",
          "name": "prFee",
          "type": "uint256"
        },
        {
          "indexed": false,
          "internalType": "uint256",
          "name": "buyFee",
          "type": "uint256"
        }
      ],
      "name": "UpdateFees",
      "type": "event"
    },
    {
      "anonymous": false,
      "inputs": [
        {
          "indexed": false,
          "internalType": "uint256",
          "name": "amount",
          "type": "uint256"
        }
      ],
      "name": "UpdateNumTokensToSwap",
      "type": "event"
    },
    {
      "anonymous": false,
      "inputs": [
        {
          "indexed": false,
          "internalType": "address",
          "name": "account",
          "type": "address"
        }
      ],
      "name": "UpdatePRPoolAddress",
      "type": "event"
    },
    {
      "anonymous": false,
      "inputs": [
        {
          "indexed": false,
          "internalType": "uint256",
          "name": "timeForContract",
          "type": "uint256"
        }
      ],
      "name": "UpdatedCoolDowntime",
      "type": "event"
    },
    {
      "anonymous": false,
      "inputs": [
        {
          "indexed": false,
          "internalType": "uint256",
          "name": "maxTxAmount",
          "type": "uint256"
        }
      ],
      "name": "UpdatedMaxTxAmount",
      "type": "event"
    },
    {
      "inputs": [],
      "name": "_BNBFee",
      "outputs": [
        {
          "internalType": "uint256",
          "name": "",
          "type": "uint256"
        }
      ],
      "stateMutability": "view",
      "type": "function",
      "constant": true
    },
    {
      "inputs": [],
      "name": "_PRFee",
      "outputs": [
        {
          "internalType": "uint256",
          "name": "",
          "type": "uint256"
        }
      ],
      "stateMutability": "view",
      "type": "function",
      "constant": true
    },
    {
      "inputs": [],
      "name": "_buyFee",
      "outputs": [
        {
          "internalType": "uint256",
          "name": "",
          "type": "uint256"
        }
      ],
      "stateMutability": "view",
      "type": "function",
      "constant": true
    },
    {
      "inputs": [],
      "name": "_liquidityFee",
      "outputs": [
        {
          "internalType": "uint256",
          "name": "",
          "type": "uint256"
        }
      ],
      "stateMutability": "view",
      "type": "function",
      "constant": true
    },
    {
      "inputs": [],
      "name": "_maxTxAmount",
      "outputs": [
        {
          "internalType": "uint256",
          "name": "",
          "type": "uint256"
        }
      ],
      "stateMutability": "view",
      "type": "function",
      "constant": true
    },
    {
      "inputs": [],
      "name": "bnbPoolAddress",
      "outputs": [
        {
          "internalType": "address payable",
          "name": "",
          "type": "address"
        }
      ],
      "stateMutability": "view",
      "type": "function",
      "constant": true
    },
    {
      "inputs": [],
      "name": "owner",
      "outputs": [
        {
          "internalType": "address",
          "name": "",
          "type": "address"
        }
      ],
      "stateMutability": "view",
      "type": "function",
      "constant": true
    },
    {
      "inputs": [],
      "name": "pancakeswapV2Pair",
      "outputs": [
        {
          "internalType": "address",
          "name": "",
          "type": "address"
        }
      ],
      "stateMutability": "view",
      "type": "function",
      "constant": true
    },
    {
      "inputs": [],
      "name": "pancakeswapV2Router",
      "outputs": [
        {
          "internalType": "contract IPancakeswapV2Router02",
          "name": "",
          "type": "address"
        }
      ],
      "stateMutability": "view",
      "type": "function",
      "constant": true
    },
    {
      "inputs": [],
      "name": "paused",
      "outputs": [
        {
          "internalType": "bool",
          "name": "",
          "type": "bool"
        }
      ],
      "stateMutability": "view",
      "type": "function",
      "constant": true
    },
    {
      "inputs": [],
      "name": "prPoolAddress",
      "outputs": [
        {
          "internalType": "address payable",
          "name": "",
          "type": "address"
        }
      ],
      "stateMutability": "view",
      "type": "function",
      "constant": true
    },
    {
      "inputs": [],
      "name": "presaleEnded",
      "outputs": [
        {
          "internalType": "bool",
          "name": "",
          "type": "bool"
        }
      ],
      "stateMutability": "view",
      "type": "function",
      "constant": true
    },
    {
      "inputs": [],
      "name": "renounceOwnership",
      "outputs": [],
      "stateMutability": "nonpayable",
      "type": "function"
    },
    {
      "inputs": [],
      "name": "swapAndLiquifyEnabled",
      "outputs": [
        {
          "internalType": "bool",
          "name": "",
          "type": "bool"
        }
      ],
      "stateMutability": "view",
      "type": "function",
      "constant": true
    },
    {
      "inputs": [],
      "name": "swapCoolDownTime",
      "outputs": [
        {
          "internalType": "uint256",
          "name": "",
          "type": "uint256"
        }
      ],
      "stateMutability": "view",
      "type": "function",
      "constant": true
    },
    {
      "inputs": [
        {
          "internalType": "address",
          "name": "newOwner",
          "type": "address"
        }
      ],
      "name": "transferOwnership",
      "outputs": [],
      "stateMutability": "nonpayable",
      "type": "function"
    },
    {
      "stateMutability": "payable",
      "type": "receive",
      "payable": true
    },
    {
      "inputs": [],
      "name": "pause",
      "outputs": [],
      "stateMutability": "nonpayable",
      "type": "function"
    },
    {
      "inputs": [],
      "name": "unpause",
      "outputs": [],
      "stateMutability": "nonpayable",
      "type": "function"
    },
    {
      "inputs": [],
      "name": "symbol",
      "outputs": [
        {
          "internalType": "string",
          "name": "",
          "type": "string"
        }
      ],
      "stateMutability": "view",
      "type": "function",
      "constant": true
    },
    {
      "inputs": [],
      "name": "name",
      "outputs": [
        {
          "internalType": "string",
          "name": "",
          "type": "string"
        }
      ],
      "stateMutability": "view",
      "type": "function",
      "constant": true
    },
    {
      "inputs": [],
      "name": "decimals",
      "outputs": [
        {
          "internalType": "uint8",
          "name": "",
          "type": "uint8"
        }
      ],
      "stateMutability": "view",
      "type": "function",
      "constant": true
    },
    {
      "inputs": [],
      "name": "totalSupply",
      "outputs": [
        {
          "internalType": "uint256",
          "name": "",
          "type": "uint256"
        }
      ],
      "stateMutability": "view",
      "type": "function",
      "constant": true
    },
    {
      "inputs": [],
      "name": "getOwner",
      "outputs": [
        {
          "internalType": "address",
          "name": "",
          "type": "address"
        }
      ],
      "stateMutability": "view",
      "type": "function",
      "constant": true
    },
    {
      "inputs": [
        {
          "internalType": "address",
          "name": "account",
          "type": "address"
        }
      ],
      "name": "balanceOf",
      "outputs": [
        {
          "internalType": "uint256",
          "name": "",
          "type": "uint256"
        }
      ],
      "stateMutability": "view",
      "type": "function",
      "constant": true
    },
    {
      "inputs": [
        {
          "internalType": "address",
          "name": "recipient",
          "type": "address"
        },
        {
          "internalType": "uint256",
          "name": "amount",
          "type": "uint256"
        }
      ],
      "name": "transfer",
      "outputs": [
        {
          "internalType": "bool",
          "name": "",
          "type": "bool"
        }
      ],
      "stateMutability": "nonpayable",
      "type": "function"
    },
    {
      "inputs": [
        {
          "internalType": "address",
          "name": "owner",
          "type": "address"
        },
        {
          "internalType": "address",
          "name": "spender",
          "type": "address"
        }
      ],
      "name": "allowance",
      "outputs": [
        {
          "internalType": "uint256",
          "name": "",
          "type": "uint256"
        }
      ],
      "stateMutability": "view",
      "type": "function",
      "constant": true
    },
    {
      "inputs": [
        {
          "internalType": "address",
          "name": "spender",
          "type": "address"
        },
        {
          "internalType": "uint256",
          "name": "amount",
          "type": "uint256"
        }
      ],
      "name": "approve",
      "outputs": [
        {
          "internalType": "bool",
          "name": "",
          "type": "bool"
        }
      ],
      "stateMutability": "nonpayable",
      "type": "function"
    },
    {
      "inputs": [
        {
          "internalType": "address",
          "name": "sender",
          "type": "address"
        },
        {
          "internalType": "address",
          "name": "recipient",
          "type": "address"
        },
        {
          "internalType": "uint256",
          "name": "amount",
          "type": "uint256"
        }
      ],
      "name": "transferFrom",
      "outputs": [
        {
          "internalType": "bool",
          "name": "",
          "type": "bool"
        }
      ],
      "stateMutability": "nonpayable",
      "type": "function"
    },
    {
      "inputs": [
        {
          "internalType": "address",
          "name": "spender",
          "type": "address"
        },
        {
          "internalType": "uint256",
          "name": "addedValue",
          "type": "uint256"
        }
      ],
      "name": "increaseAllowance",
      "outputs": [
        {
          "internalType": "bool",
          "name": "",
          "type": "bool"
        }
      ],
      "stateMutability": "nonpayable",
      "type": "function"
    },
    {
      "inputs": [
        {
          "internalType": "address",
          "name": "spender",
          "type": "address"
        },
        {
          "internalType": "uint256",
          "name": "subtractedValue",
          "type": "uint256"
        }
      ],
      "name": "decreaseAllowance",
      "outputs": [
        {
          "internalType": "bool",
          "name": "",
          "type": "bool"
        }
      ],
      "stateMutability": "nonpayable",
      "type": "function"
    },
    {
      "inputs": [
        {
          "internalType": "address",
          "name": "account",
          "type": "address"
        }
      ],
      "name": "setBNBPoolAddress",
      "outputs": [],
      "stateMutability": "nonpayable",
      "type": "function"
    },
    {
      "inputs": [
        {
          "internalType": "address",
          "name": "account",
          "type": "address"
        }
      ],
      "name": "setPRPoolAddress",
      "outputs": [],
      "stateMutability": "nonpayable",
      "type": "function"
    },
    {
      "inputs": [
        {
          "internalType": "uint256",
          "name": "timeForContract",
          "type": "uint256"
        }
      ],
      "name": "setCoolDownTime",
      "outputs": [],
      "stateMutability": "nonpayable",
      "type": "function"
    },
    {
      "inputs": [
        {
          "internalType": "bool",
          "name": "status",
          "type": "bool"
        }
      ],
      "name": "updatePresaleStatus",
      "outputs": [],
      "stateMutability": "nonpayable",
      "type": "function"
    },
    {
      "inputs": [
        {
          "internalType": "address",
          "name": "account",
          "type": "address"
        }
      ],
      "name": "excludeFromFee",
      "outputs": [],
      "stateMutability": "nonpayable",
      "type": "function"
    },
    {
      "inputs": [
        {
          "internalType": "address",
          "name": "account",
          "type": "address"
        }
      ],
      "name": "includeInFee",
      "outputs": [],
      "stateMutability": "nonpayable",
      "type": "function"
    },
    {
      "inputs": [
        {
          "internalType": "uint256",
          "name": "bnbFee",
          "type": "uint256"
        },
        {
          "internalType": "uint256",
          "name": "liquidityFee",
          "type": "uint256"
        },
        {
          "internalType": "uint256",
          "name": "prFee",
          "type": "uint256"
        },
        {
          "internalType": "uint256",
          "name": "buyFee",
          "type": "uint256"
        }
      ],
      "name": "setFees",
      "outputs": [],
      "stateMutability": "nonpayable",
      "type": "function"
    },
    {
      "inputs": [
        {
          "internalType": "uint256",
          "name": "maxTxAmount",
          "type": "uint256"
        }
      ],
      "name": "setMaxTxAmount",
      "outputs": [],
      "stateMutability": "nonpayable",
      "type": "function"
    },
    {
      "inputs": [
        {
          "internalType": "uint256",
          "name": "amount",
          "type": "uint256"
        }
      ],
      "name": "setNumTokensToSwap",
      "outputs": [],
      "stateMutability": "nonpayable",
      "type": "function"
    },
    {
      "inputs": [
        {
          "internalType": "bool",
          "name": "_enabled",
          "type": "bool"
        }
      ],
      "name": "setSwapAndLiquifyEnabled",
      "outputs": [],
      "stateMutability": "nonpayable",
      "type": "function"
    },
    {
      "inputs": [
        {
          "internalType": "address",
          "name": "account",
          "type": "address"
        }
      ],
      "name": "isExcludedFromFee",
      "outputs": [
        {
          "internalType": "bool",
          "name": "",
          "type": "bool"
        }
      ],
      "stateMutability": "view",
      "type": "function",
      "constant": true
    }
  ],
  "bytecode": "0x60806040526a52b7d2dcc80cd2e40000006006556040518060400160405280600b81526020017f506972617465734b696e67000000000000000000000000000000000000000000815250600790805190602001906200006092919062000749565b506040518060400160405280600481526020017f414243330000000000000000000000000000000000000000000000000000000081525060089080519060200190620000ae92919062000749565b506012600960006101000a81548160ff021916908360ff1602179055506005600a55600a54600b556002600c55600c54600d556008600e55600e54600f5560016010556010546011556001601360156101000a81548160ff0219169083151502179055506001601360166101000a81548160ff0219169083151502179055506a05ca4ec2a79a7f67000000601455683635c9adc5dea0000060155560006016553480156200015b57600080fd5b506200018e6200017962000654640100000000026401000000009004565b6200065c640100000000026401000000009004565b60008060146101000a81548160ff0219169083151502179055506000739ac64cc6e4415144c455bd8e4837fea55603e5c390508073ffffffffffffffffffffffffffffffffffffffff1663c45a01556040518163ffffffff167c0100000000000000000000000000000000000000000000000000000000028152600401602060405180830381865afa15801562000229573d6000803e3d6000fd5b505050506040513d601f19601f820116820180604052508101906200024f919062000863565b73ffffffffffffffffffffffffffffffffffffffff1663c9c65396308373ffffffffffffffffffffffffffffffffffffffff1663ad5c46486040518163ffffffff167c0100000000000000000000000000000000000000000000000000000000028152600401602060405180830381865afa158015620002d3573d6000803e3d6000fd5b505050506040513d601f19601f82011682018060405250810190620002f9919062000863565b6040518363ffffffff167c010000000000000000000000000000000000000000000000000000000002815260040162000334929190620008a6565b6020604051808303816000875af115801562000354573d6000803e3d6000fd5b505050506040513d601f19601f820116820180604052508101906200037a919062000863565b601360006101000a81548173ffffffffffffffffffffffffffffffffffffffff021916908373ffffffffffffffffffffffffffffffffffffffff16021790555080601260006101000a81548173ffffffffffffffffffffffffffffffffffffffff021916908373ffffffffffffffffffffffffffffffffffffffff1602179055506001600360006200041a62000654640100000000026401000000009004565b73ffffffffffffffffffffffffffffffffffffffff1673ffffffffffffffffffffffffffffffffffffffff16815260200190815260200160002060006101000a81548160ff0219169083151502179055506001600360003073ffffffffffffffffffffffffffffffffffffffff1673ffffffffffffffffffffffffffffffffffffffff16815260200190815260200160002060006101000a81548160ff02191690831515021790555060065460016000620004e362000654640100000000026401000000009004565b73ffffffffffffffffffffffffffffffffffffffff1673ffffffffffffffffffffffffffffffffffffffff1681526020019081526020016000208190555073ba71532c52e78d719ef9233f9ba9e80cd3c81727600460006101000a81548173ffffffffffffffffffffffffffffffffffffffff021916908373ffffffffffffffffffffffffffffffffffffffff1602179055507318d6444d46d07283c6b9982ad75fd51d2a7cfec1600560006101000a81548173ffffffffffffffffffffffffffffffffffffffff021916908373ffffffffffffffffffffffffffffffffffffffff160217905550620005e462000720640100000000026401000000009004565b73ffffffffffffffffffffffffffffffffffffffff16600073ffffffffffffffffffffffffffffffffffffffff167fddf252ad1be2c89b69c2b068fc378daa952ba7f163c4a11628f55a4df523b3ef600654604051620006459190620008ee565b60405180910390a35062000970565b600033905090565b60008060009054906101000a900473ffffffffffffffffffffffffffffffffffffffff169050816000806101000a81548173ffffffffffffffffffffffffffffffffffffffff021916908373ffffffffffffffffffffffffffffffffffffffff1602179055508173ffffffffffffffffffffffffffffffffffffffff168173ffffffffffffffffffffffffffffffffffffffff167f8be0079c531659141344cd1fd0a4f28419497f9722a3daafe3b4186f6b6457e060405160405180910390a35050565b60008060009054906101000a900473ffffffffffffffffffffffffffffffffffffffff16905090565b82805462000757906200093a565b90600052602060002090601f0160209004810192826200077b5760008555620007c7565b82601f106200079657805160ff1916838001178555620007c7565b82800160010185558215620007c7579182015b82811115620007c6578251825591602001919060010190620007a9565b5b509050620007d69190620007da565b5090565b5b80821115620007f5576000816000905550600101620007db565b5090565b600080fd5b600073ffffffffffffffffffffffffffffffffffffffff82169050919050565b60006200082b82620007fe565b9050919050565b6200083d816200081e565b81146200084957600080fd5b50565b6000815190506200085d8162000832565b92915050565b6000602082840312156200087c576200087b620007f9565b5b60006200088c848285016200084c565b91505092915050565b620008a0816200081e565b82525050565b6000604082019050620008bd600083018562000895565b620008cc602083018462000895565b9392505050565b6000819050919050565b620008e881620008d3565b82525050565b6000602082019050620009056000830184620008dd565b92915050565b7f4e487b7100000000000000000000000000000000000000000000000000000000600052602260045260246000fd5b600060028204905060018216806200095357607f821691505b602082108114156200096a57620009696200090b565b5b50919050565b6145b880620009806000396000f3fe608060405260043610610267576000357c010000000000000000000000000000000000000000000000000000000090048063715018a611610156578063c49b9a80116100d3578063e5dffed311610097578063e5dffed314610898578063e6844b3a146108c3578063ea2f0b37146108ee578063ec28438a14610917578063f2fde38b14610940578063f9e16fca146109695761026e565b8063c49b9a80146107b3578063c72425ff146107dc578063db879c3d14610805578063dd62ed3e14610830578063e580b2b01461086d5761026e565b8063893d20e81161011a578063893d20e8146106b85780638da5cb5b146106e357806395d89b411461070e578063a457c2d714610739578063a9059cbb146107765761026e565b8063715018a61461060b5780637ccd9827146106225780637d1db4a51461064b5780638456cb59146106765780638812f3741461068d5761026e565b806340b9a54b116101e45780635c975abb116101a85780635c975abb146105265780636bc87c3a146105515780636e16de111461057c5780636fcba377146105a557806370a08231146105ce5761026e565b806340b9a54b1461043f578063437823ec1461046a5780634a74bb021461049357806352892884146104be5780635342acb4146104e95761026e565b806318160ddd1161022b57806318160ddd1461035857806323b872dd14610383578063313ce567146103c057806339509351146103eb5780633f4ba83a146104285761026e565b806306fdde03146102735780630888d6921461029e578063095ea7b3146102c75780630f569dad14610304578063103cbbf41461032d5761026e565b3661026e57005b600080fd5b34801561027f57600080fd5b50610288610994565b60405161029591906134fc565b60405180910390f35b3480156102aa57600080fd5b506102c560048036038101906102c0919061355b565b610a26565b005b3480156102d357600080fd5b506102ee60048036038101906102e9919061361c565b610abf565b6040516102fb919061366b565b60405180910390f35b34801561031057600080fd5b5061032b60048036038101906103269190613686565b610b25565b005b34801561033957600080fd5b50610342610bf1565b60405161034f91906136d4565b60405180910390f35b34801561036457600080fd5b5061036d610c17565b60405161037a91906136fe565b60405180910390f35b34801561038f57600080fd5b506103aa60048036038101906103a59190613719565b610c21565b6040516103b7919061366b565b60405180910390f35b3480156103cc57600080fd5b506103d5610d42565b6040516103e29190613788565b60405180910390f35b3480156103f757600080fd5b50610412600480360381019061040d919061361c565b610d59565b60405161041f919061366b565b60405180910390f35b34801561043457600080fd5b5061043d610e0c565b005b34801561044b57600080fd5b50610454610e92565b60405161046191906136fe565b60405180910390f35b34801561047657600080fd5b50610491600480360381019061048c91906137a3565b610e98565b005b34801561049f57600080fd5b506104a8610fa6565b6040516104b5919061366b565b60405180910390f35b3480156104ca57600080fd5b506104d3610fb9565b6040516104e091906137df565b60405180910390f35b3480156104f557600080fd5b50610510600480360381019061050b91906137a3565b610fdf565b60405161051d919061366b565b60405180910390f35b34801561053257600080fd5b5061053b611035565b604051610548919061366b565b60405180910390f35b34801561055d57600080fd5b5061056661104b565b60405161057391906136fe565b60405180910390f35b34801561058857600080fd5b506105a3600480360381019061059e9190613686565b611051565b005b3480156105b157600080fd5b506105cc60048036038101906105c791906137fa565b61111d565b005b3480156105da57600080fd5b506105f560048036038101906105f091906137a3565b61122e565b60405161060291906136fe565b60405180910390f35b34801561061757600080fd5b50610620611277565b005b34801561062e57600080fd5b50610649600480360381019061064491906137a3565b6112ff565b005b34801561065757600080fd5b50610660611487565b60405161066d91906136fe565b60405180910390f35b34801561068257600080fd5b5061068b61148d565b005b34801561069957600080fd5b506106a2611513565b6040516106af91906136d4565b60405180910390f35b3480156106c457600080fd5b506106cd611539565b6040516106da91906137df565b60405180910390f35b3480156106ef57600080fd5b506106f8611548565b60405161070591906137df565b60405180910390f35b34801561071a57600080fd5b50610723611571565b60405161073091906134fc565b60405180910390f35b34801561074557600080fd5b50610760600480360381019061075b919061361c565b611603565b60405161076d919061366b565b60405180910390f35b34801561078257600080fd5b5061079d6004803603810190610798919061361c565b6116d0565b6040516107aa919061366b565b60405180910390f35b3480156107bf57600080fd5b506107da60048036038101906107d5919061355b565b611736565b005b3480156107e857600080fd5b5061080360048036038101906107fe91906137a3565b611806565b005b34801561081157600080fd5b5061081a61198e565b60405161082791906136fe565b60405180910390f35b34801561083c57600080fd5b5061085760048036038101906108529190613861565b611994565b60405161086491906136fe565b60405180910390f35b34801561087957600080fd5b50610882611a63565b60405161088f919061366b565b60405180910390f35b3480156108a457600080fd5b506108ad611a76565b6040516108ba9190613900565b60405180910390f35b3480156108cf57600080fd5b506108d8611a9c565b6040516108e591906136fe565b60405180910390f35b3480156108fa57600080fd5b50610915600480360381019061091091906137a3565b611aa2565b005b34801561092357600080fd5b5061093e60048036038101906109399190613686565b611bb0565b005b34801561094c57600080fd5b50610967600480360381019061096291906137a3565b611c6d565b005b34801561097557600080fd5b5061097e611d65565b60405161098b91906136fe565b60405180910390f35b6060600780546109a39061394a565b80601f01602080910402602001604051908101604052809291908181526020018280546109cf9061394a565b8015610a1c5780601f106109f157610100808354040283529160200191610a1c565b820191906000526020600020905b8154815290600101906020018083116109ff57829003601f168201915b5050505050905090565b610a2e611d6b565b73ffffffffffffffffffffffffffffffffffffffff16610a4c611548565b73ffffffffffffffffffffffffffffffffffffffff1614610aa2576040517f08c379a0000000000000000000000000000000000000000000000000000000008152600401610a99906139c8565b60405180910390fd5b80601360166101000a81548160ff02191690831515021790555050565b6000610ac9611035565b15610b09576040517f08c379a0000000000000000000000000000000000000000000000000000000008152600401610b0090613a34565b60405180910390fd5b610b1b610b14611d6b565b8484611d73565b6001905092915050565b610b2d611d6b565b73ffffffffffffffffffffffffffffffffffffffff16610b4b611548565b73ffffffffffffffffffffffffffffffffffffffff1614610ba1576040517f08c379a0000000000000000000000000000000000000000000000000000000008152600401610b98906139c8565b60405180910390fd5b806015541415610bb057600080fd5b806015819055507fab90431d5e26b4033b9528ddbadc86e128e01949bb100ae3f2e966bb6e325b5181604051610be691906136fe565b60405180910390a150565b600560009054906101000a900473ffffffffffffffffffffffffffffffffffffffff1681565b6000600654905090565b6000610c2b611035565b15610c6b576040517f08c379a0000000000000000000000000000000000000000000000000000000008152600401610c6290613a34565b60405180910390fd5b610c76848484611f3e565b610d3784610c82611d6b565b610d328560405180606001604052806028815260200161453660289139600260008b73ffffffffffffffffffffffffffffffffffffffff1673ffffffffffffffffffffffffffffffffffffffff1681526020019081526020016000206000610ce8611d6b565b73ffffffffffffffffffffffffffffffffffffffff1673ffffffffffffffffffffffffffffffffffffffff1681526020019081526020016000205461261e9092919063ffffffff16565b611d73565b600190509392505050565b6000600960009054906101000a900460ff16905090565b6000610e02610d66611d6b565b84610dfd8560026000610d77611d6b565b73ffffffffffffffffffffffffffffffffffffffff1673ffffffffffffffffffffffffffffffffffffffff16815260200190815260200160002060008973ffffffffffffffffffffffffffffffffffffffff1673ffffffffffffffffffffffffffffffffffffffff1681526020019081526020016000205461267390919063ffffffff16565b611d73565b6001905092915050565b610e14611d6b565b73ffffffffffffffffffffffffffffffffffffffff16610e32611548565b73ffffffffffffffffffffffffffffffffffffffff1614610e88576040517f08c379a0000000000000000000000000000000000000000000000000000000008152600401610e7f906139c8565b60405180910390fd5b610e90612689565b565b600e5481565b610ea0611d6b565b73ffffffffffffffffffffffffffffffffffffffff16610ebe611548565b73ffffffffffffffffffffffffffffffffffffffff1614610f14576040517f08c379a0000000000000000000000000000000000000000000000000000000008152600401610f0b906139c8565b60405180910390fd5b6001600360008373ffffffffffffffffffffffffffffffffffffffff1673ffffffffffffffffffffffffffffffffffffffff16815260200190815260200160002060006101000a81548160ff0219169083151502179055507ff1d6512ec7550bf605a5a38910e48fb6a57938ed74a5afa01753fa023001005c81604051610f9b91906137df565b60405180910390a150565b601360159054906101000a900460ff1681565b601360009054906101000a900473ffffffffffffffffffffffffffffffffffffffff1681565b6000600360008373ffffffffffffffffffffffffffffffffffffffff1673ffffffffffffffffffffffffffffffffffffffff16815260200190815260200160002060009054906101000a900460ff169050919050565b60008060149054906101000a900460ff16905090565b60105481565b611059611d6b565b73ffffffffffffffffffffffffffffffffffffffff16611077611548565b73ffffffffffffffffffffffffffffffffffffffff16146110cd576040517f08c379a00000000000000000000000000000000000000000000000000000000081526004016110c4906139c8565b60405180910390fd5b8060165414156110dc57600080fd5b806016819055507fa1549e44f9e72c53c056ec73782f5bb2b8c2950b3f11929b746d641f91048d7f8160405161111291906136fe565b60405180910390a150565b611125611d6b565b73ffffffffffffffffffffffffffffffffffffffff16611143611548565b73ffffffffffffffffffffffffffffffffffffffff1614611199576040517f08c379a0000000000000000000000000000000000000000000000000000000008152600401611190906139c8565b60405180910390fd5b83600a541415806111ac57508260105414155b806111b9575081600c5414155b806111c6575080600e5414155b6111cf57600080fd5b83600a819055508260108190555081600c8190555080600e819055507f5c3aee3d65f7eb02cded951435d06b06ef307bc7f57b98975c4a41dc116e711c848484846040516112209493929190613a54565b60405180910390a150505050565b6000600160008373ffffffffffffffffffffffffffffffffffffffff1673ffffffffffffffffffffffffffffffffffffffff168152602001908152602001600020549050919050565b61127f611d6b565b73ffffffffffffffffffffffffffffffffffffffff1661129d611548565b73ffffffffffffffffffffffffffffffffffffffff16146112f3576040517f08c379a00000000000000000000000000000000000000000000000000000000081526004016112ea906139c8565b60405180910390fd5b6112fd600061272a565b565b611307611d6b565b73ffffffffffffffffffffffffffffffffffffffff16611325611548565b73ffffffffffffffffffffffffffffffffffffffff161461137b576040517f08c379a0000000000000000000000000000000000000000000000000000000008152600401611372906139c8565b60405180910390fd5b600560009054906101000a900473ffffffffffffffffffffffffffffffffffffffff1673ffffffffffffffffffffffffffffffffffffffff168173ffffffffffffffffffffffffffffffffffffffff16141561140c576040517f08c379a000000000000000000000000000000000000000000000000000000000815260040161140390613ae5565b60405180910390fd5b80600560006101000a81548173ffffffffffffffffffffffffffffffffffffffff021916908373ffffffffffffffffffffffffffffffffffffffff1602179055507ff71f0f08e9a32e5990e64b4ea8909708ccd642d774cb8aa446789194056a608a8160405161147c91906137df565b60405180910390a150565b60145481565b611495611d6b565b73ffffffffffffffffffffffffffffffffffffffff166114b3611548565b73ffffffffffffffffffffffffffffffffffffffff1614611509576040517f08c379a0000000000000000000000000000000000000000000000000000000008152600401611500906139c8565b60405180910390fd5b6115116127ee565b565b600460009054906101000a900473ffffffffffffffffffffffffffffffffffffffff1681565b6000611543611548565b905090565b60008060009054906101000a900473ffffffffffffffffffffffffffffffffffffffff16905090565b6060600880546115809061394a565b80601f01602080910402602001604051908101604052809291908181526020018280546115ac9061394a565b80156115f95780601f106115ce576101008083540402835291602001916115f9565b820191906000526020600020905b8154815290600101906020018083116115dc57829003601f168201915b5050505050905090565b60006116c6611610611d6b565b846116c18560405180606001604052806025815260200161455e602591396002600061163a611d6b565b73ffffffffffffffffffffffffffffffffffffffff1673ffffffffffffffffffffffffffffffffffffffff16815260200190815260200160002060008a73ffffffffffffffffffffffffffffffffffffffff1673ffffffffffffffffffffffffffffffffffffffff1681526020019081526020016000205461261e9092919063ffffffff16565b611d73565b6001905092915050565b60006116da611035565b1561171a576040517f08c379a000000000000000000000000000000000000000000000000000000000815260040161171190613a34565b60405180910390fd5b61172c611725611d6b565b8484611f3e565b6001905092915050565b61173e611d6b565b73ffffffffffffffffffffffffffffffffffffffff1661175c611548565b73ffffffffffffffffffffffffffffffffffffffff16146117b2576040517f08c379a00000000000000000000000000000000000000000000000000000000081526004016117a9906139c8565b60405180910390fd5b80601360156101000a81548160ff0219169083151502179055507f53726dfcaf90650aa7eb35524f4d3220f07413c8d6cb404cc8c18bf5591bc159816040516117fb919061366b565b60405180910390a150565b61180e611d6b565b73ffffffffffffffffffffffffffffffffffffffff1661182c611548565b73ffffffffffffffffffffffffffffffffffffffff1614611882576040517f08c379a0000000000000000000000000000000000000000000000000000000008152600401611879906139c8565b60405180910390fd5b600460009054906101000a900473ffffffffffffffffffffffffffffffffffffffff1673ffffffffffffffffffffffffffffffffffffffff168173ffffffffffffffffffffffffffffffffffffffff161415611913576040517f08c379a000000000000000000000000000000000000000000000000000000000815260040161190a90613ae5565b60405180910390fd5b80600460006101000a81548173ffffffffffffffffffffffffffffffffffffffff021916908373ffffffffffffffffffffffffffffffffffffffff1602179055507f382f7e63122d8478d132ef787957aef1547aa830de7aa05913ba1c28435ee2098160405161198391906137df565b60405180910390a150565b60165481565b600061199e611035565b156119de576040517f08c379a00000000000000000000000000000000000000000000000000000000081526004016119d590613a34565b60405180910390fd5b600260008473ffffffffffffffffffffffffffffffffffffffff1673ffffffffffffffffffffffffffffffffffffffff16815260200190815260200160002060008373ffffffffffffffffffffffffffffffffffffffff1673ffffffffffffffffffffffffffffffffffffffff16815260200190815260200160002054905092915050565b601360169054906101000a900460ff1681565b601260009054906101000a900473ffffffffffffffffffffffffffffffffffffffff1681565b600a5481565b611aaa611d6b565b73ffffffffffffffffffffffffffffffffffffffff16611ac8611548565b73ffffffffffffffffffffffffffffffffffffffff1614611b1e576040517f08c379a0000000000000000000000000000000000000000000000000000000008152600401611b15906139c8565b60405180910390fd5b6000600360008373ffffffffffffffffffffffffffffffffffffffff1673ffffffffffffffffffffffffffffffffffffffff16815260200190815260200160002060006101000a81548160ff0219169083151502179055507f976ff2b01cb494434f270c12da5e45ac90c699b50c2312e2bb2fead2466aa4fe81604051611ba591906137df565b60405180910390a150565b611bb8611d6b565b73ffffffffffffffffffffffffffffffffffffffff16611bd6611548565b73ffffffffffffffffffffffffffffffffffffffff1614611c2c576040517f08c379a0000000000000000000000000000000000000000000000000000000008152600401611c23906139c8565b60405180910390fd5b806014819055507f9f5e246af7c18550ffbb625af523d90c3be8c2f4c33faede31f8005c517200fa81604051611c6291906136fe565b60405180910390a150565b611c75611d6b565b73ffffffffffffffffffffffffffffffffffffffff16611c93611548565b73ffffffffffffffffffffffffffffffffffffffff1614611ce9576040517f08c379a0000000000000000000000000000000000000000000000000000000008152600401611ce0906139c8565b60405180910390fd5b600073ffffffffffffffffffffffffffffffffffffffff168173ffffffffffffffffffffffffffffffffffffffff161415611d59576040517f08c379a0000000000000000000000000000000000000000000000000000000008152600401611d5090613b77565b60405180910390fd5b611d628161272a565b50565b600c5481565b600033905090565b600073ffffffffffffffffffffffffffffffffffffffff168373ffffffffffffffffffffffffffffffffffffffff161415611de3576040517f08c379a0000000000000000000000000000000000000000000000000000000008152600401611dda90613c09565b60405180910390fd5b600073ffffffffffffffffffffffffffffffffffffffff168273ffffffffffffffffffffffffffffffffffffffff161415611e53576040517f08c379a0000000000000000000000000000000000000000000000000000000008152600401611e4a90613c9b565b60405180910390fd5b80600260008573ffffffffffffffffffffffffffffffffffffffff1673ffffffffffffffffffffffffffffffffffffffff16815260200190815260200160002060008473ffffffffffffffffffffffffffffffffffffffff1673ffffffffffffffffffffffffffffffffffffffff168152602001908152602001600020819055508173ffffffffffffffffffffffffffffffffffffffff168373ffffffffffffffffffffffffffffffffffffffff167f8c5be1e5ebec7d5bd14f71427d1e84f3dd0314c0f7b2291e5b200ac8c7c3b92583604051611f3191906136fe565b60405180910390a3505050565b600073ffffffffffffffffffffffffffffffffffffffff168373ffffffffffffffffffffffffffffffffffffffff161415611fae576040517f08c379a0000000000000000000000000000000000000000000000000000000008152600401611fa590613d2d565b60405180910390fd5b600073ffffffffffffffffffffffffffffffffffffffff168273ffffffffffffffffffffffffffffffffffffffff16141561201e576040517f08c379a000000000000000000000000000000000000000000000000000000000815260040161201590613dbf565b60405180910390fd5b60008111612061576040517f08c379a000000000000000000000000000000000000000000000000000000000815260040161205890613e51565b60405180910390fd5b601360009054906101000a900473ffffffffffffffffffffffffffffffffffffffff1673ffffffffffffffffffffffffffffffffffffffff168273ffffffffffffffffffffffffffffffffffffffff161480156120e8575060006120e6601360009054906101000a900473ffffffffffffffffffffffffffffffffffffffff1661122e565b145b156121445760011515601360169054906101000a900460ff16151514612143576040517f08c379a000000000000000000000000000000000000000000000000000000000815260040161213a90613ee3565b60405180910390fd5b5b600360008473ffffffffffffffffffffffffffffffffffffffff1673ffffffffffffffffffffffffffffffffffffffff16815260200190815260200160002060009054906101000a900460ff161580156121e85750600360008373ffffffffffffffffffffffffffffffffffffffff1673ffffffffffffffffffffffffffffffffffffffff16815260200190815260200160002060009054906101000a900460ff16155b801561221e5750600061221c601360009054906101000a900473ffffffffffffffffffffffffffffffffffffffff1661122e565b115b80156122375750601360149054906101000a900460ff16155b80156122915750601260009054906101000a900473ffffffffffffffffffffffffffffffffffffffff1673ffffffffffffffffffffffffffffffffffffffff168373ffffffffffffffffffffffffffffffffffffffff1614155b80156123425750601360009054906101000a900473ffffffffffffffffffffffffffffffffffffffff1673ffffffffffffffffffffffffffffffffffffffff168373ffffffffffffffffffffffffffffffffffffffff1614806123415750601360009054906101000a900473ffffffffffffffffffffffffffffffffffffffff1673ffffffffffffffffffffffffffffffffffffffff168273ffffffffffffffffffffffffffffffffffffffff16145b5b1561238d5760145481111561238c576040517f08c379a000000000000000000000000000000000000000000000000000000000815260040161238390613f75565b60405180910390fd5b5b60006123983061122e565b905060145481106123a95760145490505b600060155482101590508080156123cd5750601360149054906101000a900460ff16155b80156124275750601360009054906101000a900473ffffffffffffffffffffffffffffffffffffffff1673ffffffffffffffffffffffffffffffffffffffff168573ffffffffffffffffffffffffffffffffffffffff1614155b801561243f5750601360159054906101000a900460ff165b801561245a57506016546017546124569190613fc4565b4210155b1561247557601554915061246d82612891565b426017819055505b6000806124a3601360009054906101000a900473ffffffffffffffffffffffffffffffffffffffff1661122e565b1180156125555750601360009054906101000a900473ffffffffffffffffffffffffffffffffffffffff1673ffffffffffffffffffffffffffffffffffffffff168673ffffffffffffffffffffffffffffffffffffffff1614806125545750601360009054906101000a900473ffffffffffffffffffffffffffffffffffffffff1673ffffffffffffffffffffffffffffffffffffffff168573ffffffffffffffffffffffffffffffffffffffff16145b5b1561255f57600190505b600360008773ffffffffffffffffffffffffffffffffffffffff1673ffffffffffffffffffffffffffffffffffffffff16815260200190815260200160002060009054906101000a900460ff16806126005750600360008673ffffffffffffffffffffffffffffffffffffffff1673ffffffffffffffffffffffffffffffffffffffff16815260200190815260200160002060009054906101000a900460ff165b1561260a57600090505b61261686868684612c24565b505050505050565b6000838311158290612666576040517f08c379a000000000000000000000000000000000000000000000000000000000815260040161265d91906134fc565b60405180910390fd5b5082840390509392505050565b600081836126819190613fc4565b905092915050565b612691611035565b6126d0576040517f08c379a00000000000000000000000000000000000000000000000000000000081526004016126c790614066565b60405180910390fd5b60008060146101000a81548160ff0219169083151502179055507f5db9ee0a495bf2e6ff9c91a7834c1ba4fdd244a5e8aa4e537bd38aeae4b073aa612713611d6b565b60405161272091906137df565b60405180910390a1565b60008060009054906101000a900473ffffffffffffffffffffffffffffffffffffffff169050816000806101000a81548173ffffffffffffffffffffffffffffffffffffffff021916908373ffffffffffffffffffffffffffffffffffffffff1602179055508173ffffffffffffffffffffffffffffffffffffffff168173ffffffffffffffffffffffffffffffffffffffff167f8be0079c531659141344cd1fd0a4f28419497f9722a3daafe3b4186f6b6457e060405160405180910390a35050565b6127f6611035565b15612836576040517f08c379a000000000000000000000000000000000000000000000000000000000815260040161282d90613a34565b60405180910390fd5b6001600060146101000a81548160ff0219169083151502179055507f62e78cea01bee320cd4e420270b5ea74000d11b0c9f74754ebdbfc544b05a25861287a611d6b565b60405161288791906137df565b60405180910390a1565b6001601360146101000a81548160ff02191690831515021790555060003073ffffffffffffffffffffffffffffffffffffffff1631905060006129206002612912600c54600a546010546128e59190613fc4565b6128ef9190613fc4565b61290460105488612f4890919063ffffffff16565b612f5e90919063ffffffff16565b612f5e90919063ffffffff16565b90506129358184612f7490919063ffffffff16565b925061294083612f8a565b600061296c833073ffffffffffffffffffffffffffffffffffffffff1631612f7490919063ffffffff16565b90506000612995856129878585612f4890919063ffffffff16565b612f5e90919063ffffffff16565b90506129a18382613205565b60003073ffffffffffffffffffffffffffffffffffffffff163190506000612a02600c546129f4601054600c54600a546129db9190613fc4565b6129e59190613fc4565b85612f5e90919063ffffffff16565b612f4890919063ffffffff16565b905060008183612a129190614086565b90506000600460009054906101000a900473ffffffffffffffffffffffffffffffffffffffff1673ffffffffffffffffffffffffffffffffffffffff1682604051612a5c906140eb565b60006040518083038185875af1925050503d8060008114612a99576040519150601f19603f3d011682016040523d82523d6000602084013e612a9e565b606091505b505090506000600560009054906101000a900473ffffffffffffffffffffffffffffffffffffffff1673ffffffffffffffffffffffffffffffffffffffff1684604051612aea906140eb565b60006040518083038185875af1925050503d8060008114612b27576040519150601f19603f3d011682016040523d82523d6000602084013e612b2c565b606091505b505090506001151582151514612b77576040517f08c379a0000000000000000000000000000000000000000000000000000000008152600401612b6e9061414c565b60405180910390fd5b6001151581151514612bbe576040517f08c379a0000000000000000000000000000000000000000000000000000000008152600401612bb59061414c565b60405180910390fd5b7f726d46bec92dd750b28da864562ce1bfea3f40d05a2e0c63e2f8cf359fdc75a98a8985878a604051612bf595949392919061416c565b60405180910390a15050505050505050506000601360146101000a81548160ff02191690831515021790555050565b80612c3257612c31613306565b5b6000601360009054906101000a900473ffffffffffffffffffffffffffffffffffffffff1673ffffffffffffffffffffffffffffffffffffffff168473ffffffffffffffffffffffffffffffffffffffff161415612c9a57612c9383613387565b9050612cfd565b601360009054906101000a900473ffffffffffffffffffffffffffffffffffffffff1673ffffffffffffffffffffffffffffffffffffffff168573ffffffffffffffffffffffffffffffffffffffff161415612cfc57612cf9836133ef565b90505b5b612d4f83600160008873ffffffffffffffffffffffffffffffffffffffff1673ffffffffffffffffffffffffffffffffffffffff16815260200190815260200160002054612f7490919063ffffffff16565b600160008773ffffffffffffffffffffffffffffffffffffffff1673ffffffffffffffffffffffffffffffffffffffff16815260200190815260200160002081905550612de481600160008773ffffffffffffffffffffffffffffffffffffffff1673ffffffffffffffffffffffffffffffffffffffff1681526020019081526020016000205461267390919063ffffffff16565b600160008673ffffffffffffffffffffffffffffffffffffffff1673ffffffffffffffffffffffffffffffffffffffff16815260200190815260200160002081905550612e8b612e3d8285612f7490919063ffffffff16565b600160003073ffffffffffffffffffffffffffffffffffffffff1673ffffffffffffffffffffffffffffffffffffffff1681526020019081526020016000205461267390919063ffffffff16565b600160003073ffffffffffffffffffffffffffffffffffffffff1673ffffffffffffffffffffffffffffffffffffffff168152602001908152602001600020819055508373ffffffffffffffffffffffffffffffffffffffff168573ffffffffffffffffffffffffffffffffffffffff167fddf252ad1be2c89b69c2b068fc378daa952ba7f163c4a11628f55a4df523b3ef83604051612f2b91906136fe565b60405180910390a381612f4157612f4061343d565b5b5050505050565b60008183612f5691906141bf565b905092915050565b60008183612f6c9190614248565b905092915050565b60008183612f829190614086565b905092915050565b6000600267ffffffffffffffff811115612fa757612fa6614279565b5b604051908082528060200260200182016040528015612fd55781602001602082028036833780820191505090505b5090503081600081518110612fed57612fec6142a8565b5b602002602001019073ffffffffffffffffffffffffffffffffffffffff16908173ffffffffffffffffffffffffffffffffffffffff1681525050601260009054906101000a900473ffffffffffffffffffffffffffffffffffffffff1673ffffffffffffffffffffffffffffffffffffffff1663ad5c46486040518163ffffffff167c0100000000000000000000000000000000000000000000000000000000028152600401602060405180830381865afa1580156130b0573d6000803e3d6000fd5b505050506040513d601f19601f820116820180604052508101906130d491906142ec565b816001815181106130e8576130e76142a8565b5b602002602001019073ffffffffffffffffffffffffffffffffffffffff16908173ffffffffffffffffffffffffffffffffffffffff168152505061314f30601260009054906101000a900473ffffffffffffffffffffffffffffffffffffffff1684611d73565b601260009054906101000a900473ffffffffffffffffffffffffffffffffffffffff1673ffffffffffffffffffffffffffffffffffffffff1663791ac9478360008430426040518663ffffffff167c01000000000000000000000000000000000000000000000000000000000281526004016131cf959493929190614412565b600060405180830381600087803b1580156131e957600080fd5b505af11580156131fd573d6000803e3d6000fd5b505050505050565b61323230601260009054906101000a900473ffffffffffffffffffffffffffffffffffffffff1684611d73565b601260009054906101000a900473ffffffffffffffffffffffffffffffffffffffff1673ffffffffffffffffffffffffffffffffffffffff1663f305d71982308560008061327e611548565b426040518863ffffffff167c01000000000000000000000000000000000000000000000000000000000281526004016132bc9695949392919061446c565b60606040518083038185885af11580156132da573d6000803e3d6000fd5b50505050506040513d601f19601f820116820180604052508101906132ff91906144e2565b5050505050565b6000600a5414801561331a57506000601054145b801561332857506000600c54145b801561333657506000600e54145b1561334057613385565b600a54600b81905550601054601181905550600c54600d81905550600e54600f819055506000600a8190555060006010819055506000600c819055506000600e819055505b565b6000806133cc60646133be601054600c54600a546133a59190613fc4565b6133af9190613fc4565b86612f4890919063ffffffff16565b612f5e90919063ffffffff16565b905060006133e38285612f7490919063ffffffff16565b90508092505050919050565b60008061341a606461340c600e5486612f4890919063ffffffff16565b612f5e90919063ffffffff16565b905060006134318285612f7490919063ffffffff16565b90508092505050919050565b600b54600a81905550601154601081905550600d54600c81905550600f54600e81905550565b600081519050919050565b600082825260208201905092915050565b60005b8381101561349d578082015181840152602081019050613482565b838111156134ac576000848401525b50505050565b6000601f19601f8301169050919050565b60006134ce82613463565b6134d8818561346e565b93506134e881856020860161347f565b6134f1816134b2565b840191505092915050565b6000602082019050818103600083015261351681846134c3565b905092915050565b600080fd5b60008115159050919050565b61353881613523565b811461354357600080fd5b50565b6000813590506135558161352f565b92915050565b6000602082840312156135715761357061351e565b5b600061357f84828501613546565b91505092915050565b600073ffffffffffffffffffffffffffffffffffffffff82169050919050565b60006135b382613588565b9050919050565b6135c3816135a8565b81146135ce57600080fd5b50565b6000813590506135e0816135ba565b92915050565b6000819050919050565b6135f9816135e6565b811461360457600080fd5b50565b600081359050613616816135f0565b92915050565b600080604083850312156136335761363261351e565b5b6000613641858286016135d1565b925050602061365285828601613607565b9150509250929050565b61366581613523565b82525050565b6000602082019050613680600083018461365c565b92915050565b60006020828403121561369c5761369b61351e565b5b60006136aa84828501613607565b91505092915050565b60006136be82613588565b9050919050565b6136ce816136b3565b82525050565b60006020820190506136e960008301846136c5565b92915050565b6136f8816135e6565b82525050565b600060208201905061371360008301846136ef565b92915050565b6000806000606084860312156137325761373161351e565b5b6000613740868287016135d1565b9350506020613751868287016135d1565b925050604061376286828701613607565b9150509250925092565b600060ff82169050919050565b6137828161376c565b82525050565b600060208201905061379d6000830184613779565b92915050565b6000602082840312156137b9576137b861351e565b5b60006137c7848285016135d1565b91505092915050565b6137d9816135a8565b82525050565b60006020820190506137f460008301846137d0565b92915050565b600080600080608085870312156138145761381361351e565b5b600061382287828801613607565b945050602061383387828801613607565b935050604061384487828801613607565b925050606061385587828801613607565b91505092959194509250565b600080604083850312156138785761387761351e565b5b6000613886858286016135d1565b9250506020613897858286016135d1565b9150509250929050565b6000819050919050565b60006138c66138c16138bc84613588565b6138a1565b613588565b9050919050565b60006138d8826138ab565b9050919050565b60006138ea826138cd565b9050919050565b6138fa816138df565b82525050565b600060208201905061391560008301846138f1565b92915050565b7f4e487b7100000000000000000000000000000000000000000000000000000000600052602260045260246000fd5b6000600282049050600182168061396257607f821691505b602082108114156139765761397561391b565b5b50919050565b7f4f776e61626c653a2063616c6c6572206973206e6f7420746865206f776e6572600082015250565b60006139b260208361346e565b91506139bd8261397c565b602082019050919050565b600060208201905081810360008301526139e1816139a5565b9050919050565b7f5061757361626c653a2070617573656400000000000000000000000000000000600082015250565b6000613a1e60108361346e565b9150613a29826139e8565b602082019050919050565b60006020820190508181036000830152613a4d81613a11565b9050919050565b6000608082019050613a6960008301876136ef565b613a7660208301866136ef565b613a8360408301856136ef565b613a9060608301846136ef565b95945050505050565b7f5468697320616464726573732077617320616c72656164792075736564000000600082015250565b6000613acf601d8361346e565b9150613ada82613a99565b602082019050919050565b60006020820190508181036000830152613afe81613ac2565b9050919050565b7f4f776e61626c653a206e6577206f776e657220697320746865207a65726f206160008201527f6464726573730000000000000000000000000000000000000000000000000000602082015250565b6000613b6160268361346e565b9150613b6c82613b05565b604082019050919050565b60006020820190508181036000830152613b9081613b54565b9050919050565b7f42455032303a20617070726f76652066726f6d20746865207a65726f2061646460008201527f7265737300000000000000000000000000000000000000000000000000000000602082015250565b6000613bf360248361346e565b9150613bfe82613b97565b604082019050919050565b60006020820190508181036000830152613c2281613be6565b9050919050565b7f42455032303a20617070726f766520746f20746865207a65726f20616464726560008201527f7373000000000000000000000000000000000000000000000000000000000000602082015250565b6000613c8560228361346e565b9150613c9082613c29565b604082019050919050565b60006020820190508181036000830152613cb481613c78565b9050919050565b7f42455032303a207472616e736665722066726f6d20746865207a65726f20616460008201527f6472657373000000000000000000000000000000000000000000000000000000602082015250565b6000613d1760258361346e565b9150613d2282613cbb565b604082019050919050565b60006020820190508181036000830152613d4681613d0a565b9050919050565b7f42455032303a207472616e7366657220746f20746865207a65726f206164647260008201527f6573730000000000000000000000000000000000000000000000000000000000602082015250565b6000613da960238361346e565b9150613db482613d4d565b604082019050919050565b60006020820190508181036000830152613dd881613d9c565b9050919050565b7f5472616e7366657220616d6f756e74206d75737420626520677265617465722060008201527f7468616e207a65726f0000000000000000000000000000000000000000000000602082015250565b6000613e3b60298361346e565b9150613e4682613ddf565b604082019050919050565b60006020820190508181036000830152613e6a81613e2e565b9050919050565b7f596f7520617265206e6f7420616c6c6f77656420746f20616464206c6971756960008201527f64697479206265666f72652070726573616c6520697320656e64656400000000602082015250565b6000613ecd603c8361346e565b9150613ed882613e71565b604082019050919050565b60006020820190508181036000830152613efc81613ec0565b9050919050565b7f5472616e7366657220616d6f756e74206578636565647320746865206d61785460008201527f78416d6f756e742e000000000000000000000000000000000000000000000000602082015250565b6000613f5f60288361346e565b9150613f6a82613f03565b604082019050919050565b60006020820190508181036000830152613f8e81613f52565b9050919050565b7f4e487b7100000000000000000000000000000000000000000000000000000000600052601160045260246000fd5b6000613fcf826135e6565b9150613fda836135e6565b9250827fffffffffffffffffffffffffffffffffffffffffffffffffffffffffffffffff0382111561400f5761400e613f95565b5b828201905092915050565b7f5061757361626c653a206e6f7420706175736564000000000000000000000000600082015250565b600061405060148361346e565b915061405b8261401a565b602082019050919050565b6000602082019050818103600083015261407f81614043565b9050919050565b6000614091826135e6565b915061409c836135e6565b9250828210156140af576140ae613f95565b5b828203905092915050565b600081905092915050565b50565b60006140d56000836140ba565b91506140e0826140c5565b600082019050919050565b60006140f6826140c8565b9150819050919050565b7f5472616e73666572206661696c65642e00000000000000000000000000000000600082015250565b600061413660108361346e565b915061414182614100565b602082019050919050565b6000602082019050818103600083015261416581614129565b9050919050565b600060a08201905061418160008301886136ef565b61418e60208301876136ef565b61419b60408301866136ef565b6141a860608301856136ef565b6141b560808301846136ef565b9695505050505050565b60006141ca826135e6565b91506141d5836135e6565b9250817fffffffffffffffffffffffffffffffffffffffffffffffffffffffffffffffff048311821515161561420e5761420d613f95565b5b828202905092915050565b7f4e487b7100000000000000000000000000000000000000000000000000000000600052601260045260246000fd5b6000614253826135e6565b915061425e836135e6565b92508261426e5761426d614219565b5b828204905092915050565b7f4e487b7100000000000000000000000000000000000000000000000000000000600052604160045260246000fd5b7f4e487b7100000000000000000000000000000000000000000000000000000000600052603260045260246000fd5b6000815190506142e6816135ba565b92915050565b6000602082840312156143025761430161351e565b5b6000614310848285016142d7565b91505092915050565b6000819050919050565b600061433e61433961433484614319565b6138a1565b6135e6565b9050919050565b61434e81614323565b82525050565b600081519050919050565b600082825260208201905092915050565b6000819050602082019050919050565b614389816135a8565b82525050565b600061439b8383614380565b60208301905092915050565b6000602082019050919050565b60006143bf82614354565b6143c9818561435f565b93506143d483614370565b8060005b838110156144055781516143ec888261438f565b97506143f7836143a7565b9250506001810190506143d8565b5085935050505092915050565b600060a08201905061442760008301886136ef565b6144346020830187614345565b818103604083015261444681866143b4565b905061445560608301856137d0565b61446260808301846136ef565b9695505050505050565b600060c08201905061448160008301896137d0565b61448e60208301886136ef565b61449b6040830187614345565b6144a86060830186614345565b6144b560808301856137d0565b6144c260a08301846136ef565b979650505050505050565b6000815190506144dc816135f0565b92915050565b6000806000606084860312156144fb576144fa61351e565b5b6000614509868287016144cd565b935050602061451a868287016144cd565b925050604061452b868287016144cd565b915050925092509256fe42455032303a207472616e7366657220616d6f756e74206578636565647320616c6c6f77616e636542455032303a2064656372656173656420616c6c6f77616e63652062656c6f77207a65726fa26469706673582212206df2ae00d92b48270e9147de9752e57f9c702bc46f40b9e60387ae510b044e2964736f6c634300080b0033",
  "immutableReferences": {},
  "source": "// SPDX-License-Identifier: Unlicensed\n\npragma solidity ^0.8.0;\n\nimport \"./IBEP20.sol\";\nimport \"@openzeppelin/contracts/utils/math/SafeMath.sol\";\nimport \"@openzeppelin/contracts/access/Ownable.sol\";\nimport \"@openzeppelin/contracts/utils/Context.sol\";\nimport \"./IPancakeswapV2Factory.sol\";\nimport \"./IPancakeswapV2Router02.sol\";\nimport \"@openzeppelin/contracts/security/Pausable.sol\";\n\ncontract PiratesKingToken is Context, IBEP20, Ownable, Pausable {\n    using SafeMath for uint256;\n\n    mapping (address => uint256) private _balances;\n    mapping (address => mapping (address => uint256)) private _allowances;\n    mapping (address => bool) private _isExcludedFromFee;\n\n    address payable public bnbPoolAddress;\n    address payable public prPoolAddress;\n\n\n    uint256 private _tTotal = 100 * 10**6 * 10**18;\n    uint256 private constant MAX = ~uint256(0);\n    string private _name = \"PiratesKing\";\n    string private _symbol = \"ABC3\";\n    uint8 private _decimals = 18;\n\n    uint256 public _BNBFee = 5;\n    uint256 private _previousBNBFee = _BNBFee;\n    uint256 public  _PRFee = 2;\n    uint256 private _previousPRFee = _PRFee;\n    uint256 public _buyFee = 8;\n    uint256 private _previousBuyFee = _buyFee;\n    uint256 public _liquidityFee = 1;\n    uint256 private _previousLiquidityFee = _liquidityFee;\n\n\n    IPancakeswapV2Router02 public pancakeswapV2Router;\n    address public pancakeswapV2Pair;\n\n    bool inSwapAndLiquify;\n    bool public swapAndLiquifyEnabled = true;\n    bool public presaleEnded = true;\n    // 00\n    uint256 public _maxTxAmount =  7 * 10**6 * 10**18;\n    uint256 private numTokensToSwap =  1 * 10**3 * 10**18;\n    uint256 public swapCoolDownTime = 0;\n    uint256 private lastSwapTime;\n    mapping(address => uint256) private lastTxTimes;\n\n    event SwapAndLiquifyEnabledUpdated(bool enabled);\n    event SwapAndLiquify(\n        uint256 tokensSwapped,\n        uint256 ethReceived,\n        uint256 tokensIntoLiquidity\n    );\n    event ExcludedFromFee(address account);\n    event IncludedToFee(address account);\n    event UpdateFees(uint256 bnbFee, uint256 liquidityFee, uint256 prFee, uint256 buyFee);\n    event UpdatedMaxTxAmount(uint256 maxTxAmount);\n    event UpdateNumTokensToSwap(uint256 amount);\n    event UpdateBNBPoolAddress(address account);\n    event UpdatePRPoolAddress(address account);\n    event SwapAndCharged(uint256 token, uint256 liquidAmount, uint256 bnbPool, uint256 prPool, uint256 bnbLiquidity);\n    event UpdatedCoolDowntime(uint256 timeForContract);\n    modifier lockTheSwap {\n        inSwapAndLiquify = true;\n        _;\n        inSwapAndLiquify = false;\n    }\n\n    constructor () {\n        //Test Net\n        IPancakeswapV2Router02 _pancakeswapV2Router = IPancakeswapV2Router02(0x9Ac64Cc6e4415144C455BD8E4837Fea55603e5c3);\n        //Main Net\n//        IPancakeswapV2Router02 _pancakeswapV2Router = IPancakeswapV2Router02(0x10ED43C718714eb63d5aA57B78B54704E256024E);\n\n        pancakeswapV2Pair = IPancakeswapV2Factory(_pancakeswapV2Router.factory())\n        .createPair(address(this), _pancakeswapV2Router.WETH());\n\n        // set the rest of the contract variables\n        pancakeswapV2Router = _pancakeswapV2Router;\n\n        //exclude owner and this contract from fee\n        _isExcludedFromFee[_msgSender()] = true;\n        _isExcludedFromFee[address(this)] = true;\n        _balances[_msgSender()] = _tTotal;\n\n        bnbPoolAddress = payable(0xBa71532C52E78d719Ef9233f9bA9E80Cd3c81727);\n        prPoolAddress = payable(0x18d6444D46D07283c6b9982Ad75fd51d2A7cFeC1);\n\n        emit Transfer(address(0), owner(), _tTotal);\n    }\n\n    function pause() public onlyOwner {\n        _pause();\n    }\n\n    function unpause() public onlyOwner {\n        _unpause();\n    }\n\n    function symbol() external view override returns (string memory) {\n        return _symbol;\n    }\n\n    function name() external view override returns (string memory) {\n        return _name;\n    }\n\n    function decimals() external view override returns (uint8) {\n        return _decimals;\n    }\n\n    function totalSupply() external view override returns (uint256) {\n        return _tTotal;\n    }\n\n    function getOwner() external view override returns (address) {\n        return owner();\n    }\n\n    function balanceOf(address account) public view override returns (uint256) {\n        return _balances[account];\n    }\n\n    function transfer(address recipient, uint256 amount) public override whenNotPaused returns (bool) {\n        _transfer(_msgSender(), recipient, amount);\n        return true;\n    }\n\n    function allowance(address owner, address spender) public view override whenNotPaused returns (uint256) {\n        return _allowances[owner][spender];\n    }\n\n    function approve(address spender, uint256 amount) public override whenNotPaused returns (bool) {\n        _approve(_msgSender(), spender, amount);\n        return true;\n    }\n\n    function transferFrom(address sender, address recipient, uint256 amount) public override  whenNotPaused returns (bool) {\n        _transfer(sender, recipient, amount);\n        _approve(sender, _msgSender(), _allowances[sender][_msgSender()].sub(amount, \"BEP20: transfer amount exceeds allowance\"));\n        return true;\n    }\n\n    function increaseAllowance(address spender, uint256 addedValue) public virtual returns (bool) {\n        _approve(_msgSender(), spender, _allowances[_msgSender()][spender].add(addedValue));\n        return true;\n    }\n\n    function decreaseAllowance(address spender, uint256 subtractedValue) public virtual returns (bool) {\n        _approve(_msgSender(), spender, _allowances[_msgSender()][spender].sub(subtractedValue, \"BEP20: decreased allowance below zero\"));\n        return true;\n    }\n\n    function setBNBPoolAddress(address account) external onlyOwner {\n        require(account != bnbPoolAddress, 'This address was already used');\n        bnbPoolAddress = payable(account);\n        emit UpdateBNBPoolAddress(account);\n    }\n\n    function setPRPoolAddress(address account) external onlyOwner {\n        require(account != prPoolAddress, 'This address was already used');\n        prPoolAddress = payable(account);\n        emit UpdatePRPoolAddress(account);\n    }\n    function setCoolDownTime(uint256 timeForContract) external onlyOwner {\n        require(swapCoolDownTime != timeForContract);\n        swapCoolDownTime = timeForContract;\n        emit UpdatedCoolDowntime(timeForContract);\n    }\n    function updatePresaleStatus(bool status) external onlyOwner {\n        presaleEnded = status;\n    }\n\n    function excludeFromFee(address account) external onlyOwner {\n        _isExcludedFromFee[account] = true;\n        emit ExcludedFromFee(account);\n    }\n\n    function includeInFee(address account) external onlyOwner {\n        _isExcludedFromFee[account] = false;\n        emit IncludedToFee(account);\n    }\n\n    function setFees(uint256 bnbFee, uint256 liquidityFee, uint256 prFee, uint256 buyFee) external onlyOwner() {\n        require(_BNBFee != bnbFee || _liquidityFee != liquidityFee || _PRFee != prFee || _buyFee != buyFee);\n        _BNBFee = bnbFee;\n        _liquidityFee = liquidityFee;\n        _PRFee = prFee;\n        _buyFee = buyFee;\n        emit UpdateFees(bnbFee, liquidityFee, prFee, buyFee);\n    }\n\n    function setMaxTxAmount(uint256 maxTxAmount) external onlyOwner() {\n        _maxTxAmount = maxTxAmount;\n        emit UpdatedMaxTxAmount(maxTxAmount);\n    }\n\n    function setNumTokensToSwap(uint256 amount) external onlyOwner() {\n        require(numTokensToSwap != amount);\n        numTokensToSwap = amount;\n        emit UpdateNumTokensToSwap(amount);\n    }\n\n\n    function setSwapAndLiquifyEnabled(bool _enabled) external onlyOwner {\n        swapAndLiquifyEnabled = _enabled;\n        emit SwapAndLiquifyEnabledUpdated(_enabled);\n    }\n\n    //to receive ETH from pancakeswapV2Router when swapping\n    receive() external payable {}\n\n    function _getBuyFeeValues(uint256 tAmount) private view returns (uint256) {\n\n        uint256 fee = tAmount.mul(_buyFee).div(10**2);\n        uint256 tTransferAmount = tAmount.sub(fee);\n        return tTransferAmount;\n    }\n\n    function _getSellFeeValues(uint256 tAmount) private view returns (uint256) {\n\n        uint256 fee = tAmount.mul(_BNBFee + _PRFee + _liquidityFee).div(10**2);\n        uint256 tTransferAmount = tAmount.sub(fee);\n        return tTransferAmount;\n    }\n\n    function removeAllFee() private {\n        if(_BNBFee == 0 && _liquidityFee == 0 && _PRFee == 0 && _buyFee == 0) return;\n\n        _previousBNBFee = _BNBFee;\n        _previousLiquidityFee = _liquidityFee;\n        _previousPRFee = _PRFee;\n        _previousBuyFee = _buyFee;\n\n        _BNBFee = 0;\n        _liquidityFee = 0;\n        _PRFee = 0;\n        _buyFee = 0;\n    }\n\n    function restoreAllFee() private {\n        _BNBFee = _previousBNBFee;\n        _liquidityFee = _previousLiquidityFee;\n        _PRFee = _previousPRFee;\n        _buyFee = _previousBuyFee;\n    }\n\n    function isExcludedFromFee(address account) external view returns(bool) {\n        return _isExcludedFromFee[account];\n    }\n\n    function _approve(address owner, address spender, uint256 amount) private {\n        require(owner != address(0), \"BEP20: approve from the zero address\");\n        require(spender != address(0), \"BEP20: approve to the zero address\");\n\n        _allowances[owner][spender] = amount;\n        emit Approval(owner, spender, amount);\n    }\n\n    function _transfer(\n        address from,\n        address to,\n        uint256 amount\n    ) private {\n        require(from != address(0), \"BEP20: transfer from the zero address\");\n        require(to != address(0), \"BEP20: transfer to the zero address\");\n        require(amount > 0, \"Transfer amount must be greater than zero\");\n        if (to == pancakeswapV2Pair && balanceOf(pancakeswapV2Pair) == 0) {\n            require(presaleEnded == true, \"You are not allowed to add liquidity before presale is ended\");\n        }\n        if(\n            !_isExcludedFromFee[from] &&\n        !_isExcludedFromFee[to] &&\n        balanceOf(pancakeswapV2Pair) > 0 &&\n        !inSwapAndLiquify &&\n        from != address(pancakeswapV2Router) &&\n        (from == pancakeswapV2Pair || to == pancakeswapV2Pair)\n        ) {\n            require(amount <= _maxTxAmount, \"Transfer amount exceeds the maxTxAmount.\");\n        }\n\n        // is the token balance of this contract address over the min number of\n        // tokens that we need to initiate a swap + liquidity lock?\n        // also, don't get caught in a circular liquidity event.\n        // also, don't swap & liquify if sender is pancakeswap pair.\n        uint256 tokenBalance = balanceOf(address(this));\n        if(tokenBalance >= _maxTxAmount)\n        {\n            tokenBalance = _maxTxAmount;\n        }\n\n        bool overMinTokenBalance = tokenBalance >= numTokensToSwap;\n        if (\n            overMinTokenBalance &&\n            !inSwapAndLiquify &&\n            from != pancakeswapV2Pair &&\n            swapAndLiquifyEnabled &&\n            block.timestamp >= lastSwapTime + swapCoolDownTime\n        ) {\n            tokenBalance = numTokensToSwap;\n            swapAndCharge(tokenBalance);\n            lastSwapTime = block.timestamp;\n        }\n\n        //indicates if fee should be deducted from transfer\n        bool takeFee = false;\n        if (balanceOf(pancakeswapV2Pair) > 0 && (from == pancakeswapV2Pair || to == pancakeswapV2Pair)) {\n            takeFee = true;\n        }\n\n        //if any account belongs to _isExcludedFromFee account then remove the fee\n        if (_isExcludedFromFee[from] || _isExcludedFromFee[to]){\n            takeFee = false;\n        }\n\n        //transfer amount, it will take tax, burn, liquidity fee\n        _tokenTransfer(from,to,amount,takeFee);\n    }\n\n    function swapAndCharge(uint256 tokenBalance) private lockTheSwap {\n        uint256 initialBalance = address(this).balance;\n\n        uint256 liquidBalance = tokenBalance.mul(_liquidityFee).div(_liquidityFee + _BNBFee + _PRFee).div(2);\n        tokenBalance = tokenBalance.sub(liquidBalance);\n        swapTokensForEth(tokenBalance);\n\n        uint256 newBalance = address(this).balance.sub(initialBalance);\n        uint256 bnbForLiquid = newBalance.mul(liquidBalance).div(tokenBalance);\n        addLiquidity(liquidBalance, bnbForLiquid);\n\n        uint256 poolBalance = address(this).balance;\n        uint256 prBalance = poolBalance.div(_BNBFee + _PRFee + _liquidityFee).mul(_PRFee);\n        uint256 rewardBalance = poolBalance - prBalance;\n\n        (bool r_success, ) = payable(bnbPoolAddress).call{value: rewardBalance}(\"\");\n        (bool p_success, ) = payable(prPoolAddress).call{value: prBalance}(\"\");\n        require(r_success == true, \"Transfer failed.\");\n        require(p_success == true, \"Transfer failed.\");\n        emit SwapAndCharged(tokenBalance, liquidBalance, rewardBalance, prBalance, bnbForLiquid);\n    }\n\n\n    function swapTokensForEth(uint256 tokenAmount) private {\n        // generate the pancakeswap pair path of token -> weth\n        address[] memory path = new address[](2);\n        path[0] = address(this);\n        path[1] = pancakeswapV2Router.WETH();\n\n        _approve(address(this), address(pancakeswapV2Router), tokenAmount);\n\n        // make the swap\n        pancakeswapV2Router.swapExactTokensForETHSupportingFeeOnTransferTokens(\n            tokenAmount,\n            0, // accept any amount of ETH\n            path,\n            address(this),\n            block.timestamp\n        );\n    }\n\n    function addLiquidity(uint256 tokenAmount, uint256 ethAmount) private {\n        // approve token transfer to cover all possible scenarios\n        _approve(address(this), address(pancakeswapV2Router), tokenAmount);\n\n        // add the liquidity\n        pancakeswapV2Router.addLiquidityETH{value: ethAmount}(\n            address(this),\n            tokenAmount,\n            0, // slippage is unavoidable\n            0, // slippage is unavoidable\n            owner(),\n            block.timestamp\n        );\n    }\n\n    //this method is responsible for taking all fee, if takeFee is true\n    function _tokenTransfer(address sender, address recipient, uint256 amount, bool takeFee) private {\n        if(!takeFee)\n            removeAllFee();\n        uint256 tTransferAmount = 0;\n        if (recipient == pancakeswapV2Pair) {\n             tTransferAmount = _getSellFeeValues(amount);\n        } else if (sender == pancakeswapV2Pair) {\n            tTransferAmount = _getBuyFeeValues(amount);\n        }\n\n        _balances[sender] = _balances[sender].sub(amount);\n        _balances[recipient] = _balances[recipient].add(tTransferAmount);\n        _balances[address(this)] = _balances[address(this)].add(amount.sub(tTransferAmount));\n        emit Transfer(sender, recipient, tTransferAmount);\n\n        if(!takeFee)\n            restoreAllFee();\n    }\n}\n",
  "sourcePath": "/Users/macbook/Desktop/PiratesKingContract2022/PiratesKingContract2022/contracts/PiratesKingToken.sol",
  "compiler": {
    "name": "solc",
    "version": "0.8.11+commit.d7f03943.Emscripten.clang"
  },
  "schemaVersion": "3.4.4",
  "updatedAt": "2022-01-31T11:31:36.646Z",
  "networkType": "ethereum",
  "devdoc": {
    "kind": "dev",
    "methods": {
      "approve(address,uint256)": {
        "details": "Sets `amount` as the allowance of `spender` over the caller's tokens. Returns a boolean value indicating whether the operation succeeded. IMPORTANT: Beware that changing an allowance with this method brings the risk that someone may use both the old and the new allowance by unfortunate transaction ordering. One possible solution to mitigate this race condition is to first reduce the spender's allowance to 0 and set the desired value afterwards: https://github.com/ethereum/EIPs/issues/20#issuecomment-263524729 Emits an {Approval} event."
      },
      "balanceOf(address)": {
        "details": "Returns the amount of tokens owned by `account`."
      },
      "decimals()": {
        "details": "Returns the token decimals."
      },
      "getOwner()": {
        "details": "Returns the bep token owner."
      },
      "name()": {
        "details": "Returns the token name."
      },
      "owner()": {
        "details": "Returns the address of the current owner."
      },
      "paused()": {
        "details": "Returns true if the contract is paused, and false otherwise."
      },
      "renounceOwnership()": {
        "details": "Leaves the contract without owner. It will not be possible to call `onlyOwner` functions anymore. Can only be called by the current owner. NOTE: Renouncing ownership will leave the contract without an owner, thereby removing any functionality that is only available to the owner."
      },
      "symbol()": {
        "details": "Returns the token symbol."
      },
      "totalSupply()": {
        "details": "Returns the amount of tokens in existence."
      },
      "transfer(address,uint256)": {
        "details": "Moves `amount` tokens from the caller's account to `recipient`. Returns a boolean value indicating whether the operation succeeded. Emits a {Transfer} event."
      },
      "transferFrom(address,address,uint256)": {
        "details": "Moves `amount` tokens from `sender` to `recipient` using the allowance mechanism. `amount` is then deducted from the caller's allowance. Returns a boolean value indicating whether the operation succeeded. Emits a {Transfer} event."
      },
      "transferOwnership(address)": {
        "details": "Transfers ownership of the contract to a new account (`newOwner`). Can only be called by the current owner."
      }
    },
    "version": 1
  },
  "userdoc": {
    "kind": "user",
    "methods": {},
    "version": 1
  }
}