{
  "contractName": "PiratesKingCharacter",
  "abi": [
    {
      "inputs": [],
      "stateMutability": "nonpayable",
      "type": "constructor"
    },
    {
      "anonymous": false,
      "inputs": [
        {
          "indexed": true,
          "internalType": "address",
          "name": "owner",
          "type": "address"
        },
        {
          "indexed": true,
          "internalType": "address",
          "name": "approved",
          "type": "address"
        },
        {
          "indexed": true,
          "internalType": "uint256",
          "name": "tokenId",
          "type": "uint256"
        }
      ],
      "name": "Approval",
      "type": "event"
    },
    {
      "anonymous": false,
      "inputs": [
        {
          "indexed": true,
          "internalType": "address",
          "name": "owner",
          "type": "address"
        },
        {
          "indexed": true,
          "internalType": "address",
          "name": "operator",
          "type": "address"
        },
        {
          "indexed": false,
          "internalType": "bool",
          "name": "approved",
          "type": "bool"
        }
      ],
      "name": "ApprovalForAll",
      "type": "event"
    },
    {
      "anonymous": false,
      "inputs": [
        {
          "indexed": false,
          "internalType": "address",
          "name": "newAddress",
          "type": "address"
        },
        {
          "indexed": false,
          "internalType": "bytes32",
          "name": "contractName",
          "type": "bytes32"
        }
      ],
      "name": "LibContractAddressUpdate",
      "type": "event"
    },
    {
      "anonymous": false,
      "inputs": [
        {
          "indexed": true,
          "internalType": "address",
          "name": "previousOwner",
          "type": "address"
        },
        {
          "indexed": true,
          "internalType": "address",
          "name": "newOwner",
          "type": "address"
        }
      ],
      "name": "OwnershipTransferred",
      "type": "event"
    },
    {
      "anonymous": false,
      "inputs": [
        {
          "indexed": true,
          "internalType": "address",
          "name": "from",
          "type": "address"
        },
        {
          "indexed": true,
          "internalType": "address",
          "name": "to",
          "type": "address"
        },
        {
          "indexed": true,
          "internalType": "uint256",
          "name": "tokenId",
          "type": "uint256"
        }
      ],
      "name": "Transfer",
      "type": "event"
    },
    {
      "inputs": [
        {
          "internalType": "uint256",
          "name": "",
          "type": "uint256"
        }
      ],
      "name": "allCharacters",
      "outputs": [
        {
          "internalType": "uint256",
          "name": "tokenId",
          "type": "uint256"
        },
        {
          "internalType": "string",
          "name": "tokenURI",
          "type": "string"
        },
        {
          "internalType": "address payable",
          "name": "mintedBy",
          "type": "address"
        },
        {
          "internalType": "address payable",
          "name": "currentOwner",
          "type": "address"
        },
        {
          "internalType": "address payable",
          "name": "previousOwner",
          "type": "address"
        },
        {
          "internalType": "uint256",
          "name": "price",
          "type": "uint256"
        },
        {
          "internalType": "uint256",
          "name": "numberOfTransfers",
          "type": "uint256"
        },
        {
          "internalType": "bool",
          "name": "forSale",
          "type": "bool"
        }
      ],
      "stateMutability": "view",
      "type": "function",
      "constant": true
    },
    {
      "inputs": [
        {
          "internalType": "address",
          "name": "to",
          "type": "address"
        },
        {
          "internalType": "uint256",
          "name": "tokenId",
          "type": "uint256"
        }
      ],
      "name": "approve",
      "outputs": [],
      "stateMutability": "nonpayable",
      "type": "function"
    },
    {
      "inputs": [
        {
          "internalType": "address",
          "name": "owner",
          "type": "address"
        }
      ],
      "name": "balanceOf",
      "outputs": [
        {
          "internalType": "uint256",
          "name": "",
          "type": "uint256"
        }
      ],
      "stateMutability": "view",
      "type": "function",
      "constant": true
    },
    {
      "inputs": [],
      "name": "chestContract",
      "outputs": [
        {
          "internalType": "address",
          "name": "",
          "type": "address"
        }
      ],
      "stateMutability": "view",
      "type": "function",
      "constant": true
    },
    {
      "inputs": [],
      "name": "collectionName",
      "outputs": [
        {
          "internalType": "string",
          "name": "",
          "type": "string"
        }
      ],
      "stateMutability": "view",
      "type": "function",
      "constant": true
    },
    {
      "inputs": [],
      "name": "collectionNameSymbol",
      "outputs": [
        {
          "internalType": "string",
          "name": "",
          "type": "string"
        }
      ],
      "stateMutability": "view",
      "type": "function",
      "constant": true
    },
    {
      "inputs": [
        {
          "internalType": "uint256",
          "name": "tokenId",
          "type": "uint256"
        }
      ],
      "name": "getApproved",
      "outputs": [
        {
          "internalType": "address",
          "name": "",
          "type": "address"
        }
      ],
      "stateMutability": "view",
      "type": "function",
      "constant": true
    },
    {
      "inputs": [
        {
          "internalType": "address",
          "name": "owner",
          "type": "address"
        },
        {
          "internalType": "address",
          "name": "operator",
          "type": "address"
        }
      ],
      "name": "isApprovedForAll",
      "outputs": [
        {
          "internalType": "bool",
          "name": "",
          "type": "bool"
        }
      ],
      "stateMutability": "view",
      "type": "function",
      "constant": true
    },
    {
      "inputs": [],
      "name": "name",
      "outputs": [
        {
          "internalType": "string",
          "name": "",
          "type": "string"
        }
      ],
      "stateMutability": "view",
      "type": "function",
      "constant": true
    },
    {
      "inputs": [],
      "name": "owner",
      "outputs": [
        {
          "internalType": "address",
          "name": "",
          "type": "address"
        }
      ],
      "stateMutability": "view",
      "type": "function",
      "constant": true
    },
    {
      "inputs": [
        {
          "internalType": "uint256",
          "name": "tokenId",
          "type": "uint256"
        }
      ],
      "name": "ownerOf",
      "outputs": [
        {
          "internalType": "address",
          "name": "",
          "type": "address"
        }
      ],
      "stateMutability": "view",
      "type": "function",
      "constant": true
    },
    {
      "inputs": [],
      "name": "pktContract",
      "outputs": [
        {
          "internalType": "address",
          "name": "",
          "type": "address"
        }
      ],
      "stateMutability": "view",
      "type": "function",
      "constant": true
    },
    {
      "inputs": [],
      "name": "renounceOwnership",
      "outputs": [],
      "stateMutability": "nonpayable",
      "type": "function"
    },
    {
      "inputs": [
        {
          "internalType": "address",
          "name": "from",
          "type": "address"
        },
        {
          "internalType": "address",
          "name": "to",
          "type": "address"
        },
        {
          "internalType": "uint256",
          "name": "tokenId",
          "type": "uint256"
        }
      ],
      "name": "safeTransferFrom",
      "outputs": [],
      "stateMutability": "nonpayable",
      "type": "function"
    },
    {
      "inputs": [
        {
          "internalType": "address",
          "name": "from",
          "type": "address"
        },
        {
          "internalType": "address",
          "name": "to",
          "type": "address"
        },
        {
          "internalType": "uint256",
          "name": "tokenId",
          "type": "uint256"
        },
        {
          "internalType": "bytes",
          "name": "_data",
          "type": "bytes"
        }
      ],
      "name": "safeTransferFrom",
      "outputs": [],
      "stateMutability": "nonpayable",
      "type": "function"
    },
    {
      "inputs": [
        {
          "internalType": "address",
          "name": "operator",
          "type": "address"
        },
        {
          "internalType": "bool",
          "name": "approved",
          "type": "bool"
        }
      ],
      "name": "setApprovalForAll",
      "outputs": [],
      "stateMutability": "nonpayable",
      "type": "function"
    },
    {
      "inputs": [],
      "name": "symbol",
      "outputs": [
        {
          "internalType": "string",
          "name": "",
          "type": "string"
        }
      ],
      "stateMutability": "view",
      "type": "function",
      "constant": true
    },
    {
      "inputs": [
        {
          "internalType": "uint256",
          "name": "index",
          "type": "uint256"
        }
      ],
      "name": "tokenByIndex",
      "outputs": [
        {
          "internalType": "uint256",
          "name": "",
          "type": "uint256"
        }
      ],
      "stateMutability": "view",
      "type": "function",
      "constant": true
    },
    {
      "inputs": [
        {
          "internalType": "address",
          "name": "owner",
          "type": "address"
        },
        {
          "internalType": "uint256",
          "name": "index",
          "type": "uint256"
        }
      ],
      "name": "tokenOfOwnerByIndex",
      "outputs": [
        {
          "internalType": "uint256",
          "name": "",
          "type": "uint256"
        }
      ],
      "stateMutability": "view",
      "type": "function",
      "constant": true
    },
    {
      "inputs": [
        {
          "internalType": "string",
          "name": "",
          "type": "string"
        }
      ],
      "name": "tokenURIExists",
      "outputs": [
        {
          "internalType": "bool",
          "name": "",
          "type": "bool"
        }
      ],
      "stateMutability": "view",
      "type": "function",
      "constant": true
    },
    {
      "inputs": [],
      "name": "totalSupply",
      "outputs": [
        {
          "internalType": "uint256",
          "name": "",
          "type": "uint256"
        }
      ],
      "stateMutability": "view",
      "type": "function",
      "constant": true
    },
    {
      "inputs": [
        {
          "internalType": "address",
          "name": "from",
          "type": "address"
        },
        {
          "internalType": "address",
          "name": "to",
          "type": "address"
        },
        {
          "internalType": "uint256",
          "name": "tokenId",
          "type": "uint256"
        }
      ],
      "name": "transferFrom",
      "outputs": [],
      "stateMutability": "nonpayable",
      "type": "function"
    },
    {
      "inputs": [
        {
          "internalType": "address",
          "name": "newOwner",
          "type": "address"
        }
      ],
      "name": "transferOwnership",
      "outputs": [],
      "stateMutability": "nonpayable",
      "type": "function"
    },
    {
      "inputs": [
        {
          "internalType": "uint256",
          "name": "tokenId",
          "type": "uint256"
        }
      ],
      "name": "tokenURI",
      "outputs": [
        {
          "internalType": "string",
          "name": "",
          "type": "string"
        }
      ],
      "stateMutability": "view",
      "type": "function",
      "constant": true
    },
    {
      "inputs": [
        {
          "internalType": "bytes4",
          "name": "interfaceId",
          "type": "bytes4"
        }
      ],
      "name": "supportsInterface",
      "outputs": [
        {
          "internalType": "bool",
          "name": "",
          "type": "bool"
        }
      ],
      "stateMutability": "view",
      "type": "function",
      "constant": true
    },
    {
      "inputs": [
        {
          "internalType": "address",
          "name": "to",
          "type": "address"
        },
        {
          "internalType": "uint256",
          "name": "tokenId",
          "type": "uint256"
        }
      ],
      "name": "safeMint",
      "outputs": [],
      "stateMutability": "nonpayable",
      "type": "function"
    },
    {
      "inputs": [
        {
          "internalType": "address",
          "name": "_contract",
          "type": "address"
        }
      ],
      "name": "setPKTContractAddress",
      "outputs": [],
      "stateMutability": "nonpayable",
      "type": "function"
    },
    {
      "inputs": [
        {
          "internalType": "address",
          "name": "_contract",
          "type": "address"
        }
      ],
      "name": "setChestContractAddress",
      "outputs": [],
      "stateMutability": "nonpayable",
      "type": "function"
    },
    {
      "inputs": [
        {
          "internalType": "uint256",
          "name": "_tokenId",
          "type": "uint256"
        }
      ],
      "name": "openChest",
      "outputs": [],
      "stateMutability": "nonpayable",
      "type": "function"
    },
    {
      "inputs": [
        {
          "internalType": "uint256",
          "name": "_tokenId",
          "type": "uint256"
        }
      ],
      "name": "getTokenOwner",
      "outputs": [
        {
          "internalType": "address",
          "name": "",
          "type": "address"
        }
      ],
      "stateMutability": "view",
      "type": "function",
      "constant": true
    },
    {
      "inputs": [
        {
          "internalType": "uint256",
          "name": "_tokenId",
          "type": "uint256"
        }
      ],
      "name": "getTokenMetaData",
      "outputs": [
        {
          "internalType": "string",
          "name": "",
          "type": "string"
        }
      ],
      "stateMutability": "view",
      "type": "function",
      "constant": true
    },
    {
      "inputs": [],
      "name": "getNumberOfTokensMinted",
      "outputs": [
        {
          "internalType": "uint256",
          "name": "",
          "type": "uint256"
        }
      ],
      "stateMutability": "view",
      "type": "function",
      "constant": true
    },
    {
      "inputs": [
        {
          "internalType": "address",
          "name": "_owner",
          "type": "address"
        }
      ],
      "name": "getTotalNumberOfTokensOwnedByAnAddress",
      "outputs": [
        {
          "internalType": "uint256",
          "name": "",
          "type": "uint256"
        }
      ],
      "stateMutability": "view",
      "type": "function",
      "constant": true
    },
    {
      "inputs": [
        {
          "internalType": "uint256",
          "name": "_tokenId",
          "type": "uint256"
        }
      ],
      "name": "getTokenExists",
      "outputs": [
        {
          "internalType": "bool",
          "name": "",
          "type": "bool"
        }
      ],
      "stateMutability": "view",
      "type": "function",
      "constant": true
    },
    {
      "inputs": [
        {
          "internalType": "uint256",
          "name": "_tokenId",
          "type": "uint256"
        }
      ],
      "name": "buyToken",
      "outputs": [],
      "stateMutability": "payable",
      "type": "function",
      "payable": true
    },
    {
      "inputs": [
        {
          "internalType": "uint256",
          "name": "_tokenId",
          "type": "uint256"
        },
        {
          "internalType": "uint256",
          "name": "_newPrice",
          "type": "uint256"
        }
      ],
      "name": "changeTokenPrice",
      "outputs": [],
      "stateMutability": "nonpayable",
      "type": "function"
    },
    {
      "inputs": [
        {
          "internalType": "uint256",
          "name": "_tokenId",
          "type": "uint256"
        }
      ],
      "name": "toggleForSale",
      "outputs": [],
      "stateMutability": "nonpayable",
      "type": "function"
    }
  ],
  "bytecode": "0x60806040523480156200001157600080fd5b5060405180606001604052806021815260200162006035602191396040518060400160405280600481526020017f504b43480000000000000000000000000000000000000000000000000000000081525081600090805190602001906200007a929190620003dc565b50806001908051906020019062000093929190620003dc565b505050620000c8620000b3620001da640100000000026401000000009004565b620001e2640100000000026401000000009004565b620000e1620002a8640100000000026401000000009004565b600c9080519060200190620000f8929190620003dc565b506200011262000342640100000000026401000000009004565b600d908051906020019062000129929190620003dc565b50734b9e79936be974ca4beeffe160cceda11f5c4400600f60006101000a81548173ffffffffffffffffffffffffffffffffffffffff021916908373ffffffffffffffffffffffffffffffffffffffff1602179055507329bc99648ba29461a2b00ab860280b4309578827601060006101000a81548173ffffffffffffffffffffffffffffffffffffffff021916908373ffffffffffffffffffffffffffffffffffffffff160217905550620004f1565b600033905090565b6000600b60009054906101000a900473ffffffffffffffffffffffffffffffffffffffff16905081600b60006101000a81548173ffffffffffffffffffffffffffffffffffffffff021916908373ffffffffffffffffffffffffffffffffffffffff1602179055508173ffffffffffffffffffffffffffffffffffffffff168173ffffffffffffffffffffffffffffffffffffffff167f8be0079c531659141344cd1fd0a4f28419497f9722a3daafe3b4186f6b6457e060405160405180910390a35050565b606060008054620002b990620004bb565b80601f0160208091040260200160405190810160405280929190818152602001828054620002e790620004bb565b8015620003385780601f106200030c5761010080835404028352916020019162000338565b820191906000526020600020905b8154815290600101906020018083116200031a57829003601f168201915b5050505050905090565b6060600180546200035390620004bb565b80601f01602080910402602001604051908101604052809291908181526020018280546200038190620004bb565b8015620003d25780601f10620003a657610100808354040283529160200191620003d2565b820191906000526020600020905b815481529060010190602001808311620003b457829003601f168201915b5050505050905090565b828054620003ea90620004bb565b90600052602060002090601f0160209004810192826200040e57600085556200045a565b82601f106200042957805160ff19168380011785556200045a565b828001600101855582156200045a579182015b82811115620004595782518255916020019190600101906200043c565b5b5090506200046991906200046d565b5090565b5b80821115620004885760008160009055506001016200046e565b5090565b7f4e487b7100000000000000000000000000000000000000000000000000000000600052602260045260246000fd5b60006002820490506001821680620004d457607f821691505b60208210811415620004eb57620004ea6200048c565b5b50919050565b615b3480620005016000396000f3fe608060405260043610610237576000357c01000000000000000000000000000000000000000000000000000000009004806367c623cf11610140578063a5cd761f116100c8578063d59134ba1161008c578063d59134ba14610854578063e5326ab11461087f578063e985e9c5146108aa578063f2fde38b146108e7578063fa91ab4a1461091057610237565b8063a5cd761f1461075d578063b13a1a0a1461079a578063b88d4fde146107c3578063c87b56dd146107ec578063cc151f3a1461082957610237565b80638da5cb5b1161010f5780638da5cb5b1461068c57806395d89b41146106b7578063a1448194146106e2578063a22cb4651461070b578063a32018b91461073457610237565b806367c623cf146105d05780636f9507f91461060d57806370a0823114610638578063715018a61461067557610237565b80632f745c59116101c357806346cf65a11161019257806346cf65a1146104db5780634f6ccce7146105045780636075eb7d1461054157806362e8e8ac1461056a5780636352211e1461059357610237565b80632f745c59146103fb57806342842e0e14610438578063439028501461046157806343d32ae71461049e57610237565b8063142687f31161020a578063142687f31461030a57806317b7b61b1461034757806318160ddd1461038b57806323b872dd146103b65780632d296bf1146103df57610237565b806301ffc9a71461023c57806306fdde0314610279578063081812fc146102a4578063095ea7b3146102e1575b600080fd5b34801561024857600080fd5b50610263600480360381019061025e9190614067565b61093b565b60405161027091906140af565b60405180910390f35b34801561028557600080fd5b5061028e61094d565b60405161029b9190614163565b60405180910390f35b3480156102b057600080fd5b506102cb60048036038101906102c691906141bb565b6109df565b6040516102d89190614229565b60405180910390f35b3480156102ed57600080fd5b5061030860048036038101906103039190614270565b610a64565b005b34801561031657600080fd5b50610331600480360381019061032c91906141bb565b610b7c565b60405161033e91906140af565b60405180910390f35b34801561035357600080fd5b5061036e600480360381019061036991906141bb565b610b93565b6040516103829897969594939291906142e0565b60405180910390f35b34801561039757600080fd5b506103a0610cd0565b6040516103ad9190614365565b60405180910390f35b3480156103c257600080fd5b506103dd60048036038101906103d89190614380565b610cdd565b005b6103f960048036038101906103f491906141bb565b610d3d565b005b34801561040757600080fd5b50610422600480360381019061041d9190614270565b61130f565b60405161042f9190614365565b60405180910390f35b34801561044457600080fd5b5061045f600480360381019061045a9190614380565b6113b4565b005b34801561046d57600080fd5b50610488600480360381019061048391906143d3565b6113d4565b6040516104959190614365565b60405180910390f35b3480156104aa57600080fd5b506104c560048036038101906104c09190614535565b6113eb565b6040516104d291906140af565b60405180910390f35b3480156104e757600080fd5b5061050260048036038101906104fd91906143d3565b611421565b005b34801561051057600080fd5b5061052b600480360381019061052691906141bb565b6115a9565b6040516105389190614365565b60405180910390f35b34801561054d57600080fd5b50610568600480360381019061056391906141bb565b61161a565b005b34801561057657600080fd5b50610591600480360381019061058c919061457e565b6119d3565b005b34801561059f57600080fd5b506105ba60048036038101906105b591906141bb565b611dab565b6040516105c79190614229565b60405180910390f35b3480156105dc57600080fd5b506105f760048036038101906105f291906141bb565b611e5d565b6040516106049190614163565b60405180910390f35b34801561061957600080fd5b50610622611e75565b60405161062f9190614163565b60405180910390f35b34801561064457600080fd5b5061065f600480360381019061065a91906143d3565b611f03565b60405161066c9190614365565b60405180910390f35b34801561068157600080fd5b5061068a611fbb565b005b34801561069857600080fd5b506106a1612043565b6040516106ae9190614229565b60405180910390f35b3480156106c357600080fd5b506106cc61206d565b6040516106d99190614163565b60405180910390f35b3480156106ee57600080fd5b5061070960048036038101906107049190614270565b6120ff565b005b34801561071757600080fd5b50610732600480360381019061072d91906145ea565b612189565b005b34801561074057600080fd5b5061075b600480360381019061075691906141bb565b61219f565b005b34801561076957600080fd5b50610784600480360381019061077f91906141bb565b61259e565b6040516107919190614229565b60405180910390f35b3480156107a657600080fd5b506107c160048036038101906107bc91906143d3565b6125b5565b005b3480156107cf57600080fd5b506107ea60048036038101906107e591906146cb565b61273d565b005b3480156107f857600080fd5b50610813600480360381019061080e91906141bb565b61279f565b6040516108209190614163565b60405180910390f35b34801561083557600080fd5b5061083e6127b1565b60405161084b9190614365565b60405180910390f35b34801561086057600080fd5b506108696127c5565b6040516108769190614229565b60405180910390f35b34801561088b57600080fd5b506108946127eb565b6040516108a19190614163565b60405180910390f35b3480156108b657600080fd5b506108d160048036038101906108cc919061474e565b612879565b6040516108de91906140af565b60405180910390f35b3480156108f357600080fd5b5061090e600480360381019061090991906143d3565b61290d565b005b34801561091c57600080fd5b50610925612a05565b6040516109329190614229565b60405180910390f35b600061094682612a2b565b9050919050565b60606000805461095c906147bd565b80601f0160208091040260200160405190810160405280929190818152602001828054610988906147bd565b80156109d55780601f106109aa576101008083540402835291602001916109d5565b820191906000526020600020905b8154815290600101906020018083116109b857829003601f168201915b5050505050905090565b60006109ea82612aa5565b610a29576040517f08c379a0000000000000000000000000000000000000000000000000000000008152600401610a2090614861565b60405180910390fd5b6004600083815260200190815260200160002060009054906101000a900473ffffffffffffffffffffffffffffffffffffffff169050919050565b6000610a6f82611dab565b90508073ffffffffffffffffffffffffffffffffffffffff168373ffffffffffffffffffffffffffffffffffffffff161415610ae0576040517f08c379a0000000000000000000000000000000000000000000000000000000008152600401610ad7906148f3565b60405180910390fd5b8073ffffffffffffffffffffffffffffffffffffffff16610aff612b11565b73ffffffffffffffffffffffffffffffffffffffff161480610b2e5750610b2d81610b28612b11565b612879565b5b610b6d576040517f08c379a0000000000000000000000000000000000000000000000000000000008152600401610b6490614985565b60405180910390fd5b610b778383612b19565b505050565b600080610b8883612aa5565b905080915050919050565b6011602052806000526040600020600091509050806000015490806001018054610bbc906147bd565b80601f0160208091040260200160405190810160405280929190818152602001828054610be8906147bd565b8015610c355780601f10610c0a57610100808354040283529160200191610c35565b820191906000526020600020905b815481529060010190602001808311610c1857829003601f168201915b5050505050908060020160009054906101000a900473ffffffffffffffffffffffffffffffffffffffff16908060030160009054906101000a900473ffffffffffffffffffffffffffffffffffffffff16908060040160009054906101000a900473ffffffffffffffffffffffffffffffffffffffff16908060050154908060060154908060070160009054906101000a900460ff16905088565b6000600880549050905090565b610cee610ce8612b11565b82612bd2565b610d2d576040517f08c379a0000000000000000000000000000000000000000000000000000000008152600401610d2490614a17565b60405180910390fd5b610d38838383612cb0565b505050565b600073ffffffffffffffffffffffffffffffffffffffff163373ffffffffffffffffffffffffffffffffffffffff161415610d7757600080fd5b610d8081612aa5565b610d8957600080fd5b6000610d9482611dab565b9050600073ffffffffffffffffffffffffffffffffffffffff168173ffffffffffffffffffffffffffffffffffffffff161415610dd057600080fd5b3373ffffffffffffffffffffffffffffffffffffffff168173ffffffffffffffffffffffffffffffffffffffff161415610e0957600080fd5b6000601160008481526020019081526020016000206040518061010001604052908160008201548152602001600182018054610e44906147bd565b80601f0160208091040260200160405190810160405280929190818152602001828054610e70906147bd565b8015610ebd5780601f10610e9257610100808354040283529160200191610ebd565b820191906000526020600020905b815481529060010190602001808311610ea057829003601f168201915b505050505081526020016002820160009054906101000a900473ffffffffffffffffffffffffffffffffffffffff1673ffffffffffffffffffffffffffffffffffffffff1673ffffffffffffffffffffffffffffffffffffffff1681526020016003820160009054906101000a900473ffffffffffffffffffffffffffffffffffffffff1673ffffffffffffffffffffffffffffffffffffffff1673ffffffffffffffffffffffffffffffffffffffff1681526020016004820160009054906101000a900473ffffffffffffffffffffffffffffffffffffffff1673ffffffffffffffffffffffffffffffffffffffff1673ffffffffffffffffffffffffffffffffffffffff16815260200160058201548152602001600682015481526020016007820160009054906101000a900460ff16151515158152505090508060a0015134101561100a57600080fd5b8060e0015161101857600080fd5b600081606001519050601060009054906101000a900473ffffffffffffffffffffffffffffffffffffffff1673ffffffffffffffffffffffffffffffffffffffff166323b872dd611067612b11565b838560a001516040518463ffffffff167c01000000000000000000000000000000000000000000000000000000000281526004016110a793929190614a96565b6020604051808303816000875af11580156110c6573d6000803e3d6000fd5b505050506040513d601f19601f820116820180604052508101906110ea9190614ae2565b611129576040517f08c379a000000000000000000000000000000000000000000000000000000000815260040161112090614b5b565b60405180910390fd5b611134833386612cb0565b8160600151826080019073ffffffffffffffffffffffffffffffffffffffff16908173ffffffffffffffffffffffffffffffffffffffff168152505033826060019073ffffffffffffffffffffffffffffffffffffffff16908173ffffffffffffffffffffffffffffffffffffffff168152505060018260c0018181516111bb9190614baa565b9150818152505081601160008681526020019081526020016000206000820151816000015560208201518160010190805190602001906111fc929190613f58565b5060408201518160020160006101000a81548173ffffffffffffffffffffffffffffffffffffffff021916908373ffffffffffffffffffffffffffffffffffffffff16021790555060608201518160030160006101000a81548173ffffffffffffffffffffffffffffffffffffffff021916908373ffffffffffffffffffffffffffffffffffffffff16021790555060808201518160040160006101000a81548173ffffffffffffffffffffffffffffffffffffffff021916908373ffffffffffffffffffffffffffffffffffffffff16021790555060a0820151816005015560c0820151816006015560e08201518160070160006101000a81548160ff02191690831515021790555090505050505050565b600061131a83611f03565b821061135b576040517f08c379a000000000000000000000000000000000000000000000000000000000815260040161135290614c72565b60405180910390fd5b600660008473ffffffffffffffffffffffffffffffffffffffff1673ffffffffffffffffffffffffffffffffffffffff168152602001908152602001600020600083815260200190815260200160002054905092915050565b6113cf8383836040518060200160405280600081525061273d565b505050565b6000806113e083611f03565b905080915050919050565b6012818051602081018201805184825260208301602085012081835280955050505050506000915054906101000a900460ff1681565b611429612b11565b73ffffffffffffffffffffffffffffffffffffffff16611447612043565b73ffffffffffffffffffffffffffffffffffffffff161461149d576040517f08c379a000000000000000000000000000000000000000000000000000000000815260040161149490614cde565b60405180910390fd5b8073ffffffffffffffffffffffffffffffffffffffff16600f60009054906101000a900473ffffffffffffffffffffffffffffffffffffffff1673ffffffffffffffffffffffffffffffffffffffff16141561152e576040517f08c379a000000000000000000000000000000000000000000000000000000000815260040161152590614d4a565b60405180910390fd5b80600f60006101000a81548173ffffffffffffffffffffffffffffffffffffffff021916908373ffffffffffffffffffffffffffffffffffffffff1602179055507fc02dd078a5d63c2645d0da4b3173f425d353dafebbb14064059edbd4244a31bf8160405161159e9190614d90565b60405180910390a150565b60006115b3610cd0565b82106115f4576040517f08c379a00000000000000000000000000000000000000000000000000000000081526004016115eb90614e29565b60405180910390fd5b6008828154811061160857611607614e49565b5b90600052602060002001549050919050565b6000600f60009054906101000a900473ffffffffffffffffffffffffffffffffffffffff16905060008173ffffffffffffffffffffffffffffffffffffffff16639948c943611667612b11565b856040518363ffffffff167c01000000000000000000000000000000000000000000000000000000000281526004016116a1929190614e78565b6000604051808303816000875af11580156116c0573d6000803e3d6000fd5b505050506040513d6000823e3d601f19601f820116820180604052508101906116e991906150d9565b9050600073ffffffffffffffffffffffffffffffffffffffff163373ffffffffffffffffffffffffffffffffffffffff16141561172557600080fd5b61172f600e612f0c565b61174161173c600e612f22565b612aa5565b1561174b57600080fd5b60008161012001519050601281604051611765919061515e565b908152602001604051809103902060009054906101000a900460ff161561178b57600080fd5b61179e33611799600e612f22565b612f30565b6117b16117ab600e612f22565b826130fe565b60016012826040516117c3919061515e565b908152602001604051809103902060006101000a81548160ff0219169083151502179055506000604051806101000160405280611800600e612f22565b815260200184610120015181526020013373ffffffffffffffffffffffffffffffffffffffff1681526020013373ffffffffffffffffffffffffffffffffffffffff168152602001600073ffffffffffffffffffffffffffffffffffffffff1681526020016000815260200160008152602001600015158152509050806011600061188b600e612f22565b81526020019081526020016000206000820151816000015560208201518160010190805190602001906118bf929190613f58565b5060408201518160020160006101000a81548173ffffffffffffffffffffffffffffffffffffffff021916908373ffffffffffffffffffffffffffffffffffffffff16021790555060608201518160030160006101000a81548173ffffffffffffffffffffffffffffffffffffffff021916908373ffffffffffffffffffffffffffffffffffffffff16021790555060808201518160040160006101000a81548173ffffffffffffffffffffffffffffffffffffffff021916908373ffffffffffffffffffffffffffffffffffffffff16021790555060a0820151816005015560c0820151816006015560e08201518160070160006101000a81548160ff0219169083151502179055509050505050505050565b600073ffffffffffffffffffffffffffffffffffffffff163373ffffffffffffffffffffffffffffffffffffffff161415611a0d57600080fd5b611a1682612aa5565b611a1f57600080fd5b6000611a2a83611dab565b90503373ffffffffffffffffffffffffffffffffffffffff168173ffffffffffffffffffffffffffffffffffffffff1614611a6457600080fd5b6000601160008581526020019081526020016000206040518061010001604052908160008201548152602001600182018054611a9f906147bd565b80601f0160208091040260200160405190810160405280929190818152602001828054611acb906147bd565b8015611b185780601f10611aed57610100808354040283529160200191611b18565b820191906000526020600020905b815481529060010190602001808311611afb57829003601f168201915b505050505081526020016002820160009054906101000a900473ffffffffffffffffffffffffffffffffffffffff1673ffffffffffffffffffffffffffffffffffffffff1673ffffffffffffffffffffffffffffffffffffffff1681526020016003820160009054906101000a900473ffffffffffffffffffffffffffffffffffffffff1673ffffffffffffffffffffffffffffffffffffffff1673ffffffffffffffffffffffffffffffffffffffff1681526020016004820160009054906101000a900473ffffffffffffffffffffffffffffffffffffffff1673ffffffffffffffffffffffffffffffffffffffff1673ffffffffffffffffffffffffffffffffffffffff16815260200160058201548152602001600682015481526020016007820160009054906101000a900460ff1615151515815250509050828160a00181815250508060116000868152602001908152602001600020600082015181600001556020820151816001019080519060200190611c98929190613f58565b5060408201518160020160006101000a81548173ffffffffffffffffffffffffffffffffffffffff021916908373ffffffffffffffffffffffffffffffffffffffff16021790555060608201518160030160006101000a81548173ffffffffffffffffffffffffffffffffffffffff021916908373ffffffffffffffffffffffffffffffffffffffff16021790555060808201518160040160006101000a81548173ffffffffffffffffffffffffffffffffffffffff021916908373ffffffffffffffffffffffffffffffffffffffff16021790555060a0820151816005015560c0820151816006015560e08201518160070160006101000a81548160ff02191690831515021790555090505050505050565b6000806002600084815260200190815260200160002060009054906101000a900473ffffffffffffffffffffffffffffffffffffffff169050600073ffffffffffffffffffffffffffffffffffffffff168173ffffffffffffffffffffffffffffffffffffffff161415611e54576040517f08c379a0000000000000000000000000000000000000000000000000000000008152600401611e4b906151e7565b60405180910390fd5b80915050919050565b60606000611e6a8361279f565b905080915050919050565b600d8054611e82906147bd565b80601f0160208091040260200160405190810160405280929190818152602001828054611eae906147bd565b8015611efb5780601f10611ed057610100808354040283529160200191611efb565b820191906000526020600020905b815481529060010190602001808311611ede57829003601f168201915b505050505081565b60008073ffffffffffffffffffffffffffffffffffffffff168273ffffffffffffffffffffffffffffffffffffffff161415611f74576040517f08c379a0000000000000000000000000000000000000000000000000000000008152600401611f6b90615279565b60405180910390fd5b600360008373ffffffffffffffffffffffffffffffffffffffff1673ffffffffffffffffffffffffffffffffffffffff168152602001908152602001600020549050919050565b611fc3612b11565b73ffffffffffffffffffffffffffffffffffffffff16611fe1612043565b73ffffffffffffffffffffffffffffffffffffffff1614612037576040517f08c379a000000000000000000000000000000000000000000000000000000000815260040161202e90614cde565b60405180910390fd5b6120416000613172565b565b6000600b60009054906101000a900473ffffffffffffffffffffffffffffffffffffffff16905090565b60606001805461207c906147bd565b80601f01602080910402602001604051908101604052809291908181526020018280546120a8906147bd565b80156120f55780601f106120ca576101008083540402835291602001916120f5565b820191906000526020600020905b8154815290600101906020018083116120d857829003601f168201915b5050505050905090565b612107612b11565b73ffffffffffffffffffffffffffffffffffffffff16612125612043565b73ffffffffffffffffffffffffffffffffffffffff161461217b576040517f08c379a000000000000000000000000000000000000000000000000000000000815260040161217290614cde565b60405180910390fd5b6121858282613238565b5050565b61219b612194612b11565b8383613256565b5050565b600073ffffffffffffffffffffffffffffffffffffffff163373ffffffffffffffffffffffffffffffffffffffff1614156121d957600080fd5b6121e281612aa5565b6121eb57600080fd5b60006121f682611dab565b90503373ffffffffffffffffffffffffffffffffffffffff168173ffffffffffffffffffffffffffffffffffffffff161461223057600080fd5b600060116000848152602001908152602001600020604051806101000160405290816000820154815260200160018201805461226b906147bd565b80601f0160208091040260200160405190810160405280929190818152602001828054612297906147bd565b80156122e45780601f106122b9576101008083540402835291602001916122e4565b820191906000526020600020905b8154815290600101906020018083116122c757829003601f168201915b505050505081526020016002820160009054906101000a900473ffffffffffffffffffffffffffffffffffffffff1673ffffffffffffffffffffffffffffffffffffffff1673ffffffffffffffffffffffffffffffffffffffff1681526020016003820160009054906101000a900473ffffffffffffffffffffffffffffffffffffffff1673ffffffffffffffffffffffffffffffffffffffff1673ffffffffffffffffffffffffffffffffffffffff1681526020016004820160009054906101000a900473ffffffffffffffffffffffffffffffffffffffff1673ffffffffffffffffffffffffffffffffffffffff1673ffffffffffffffffffffffffffffffffffffffff16815260200160058201548152602001600682015481526020016007820160009054906101000a900460ff16151515158152505090508060e00151156124405760008160e0019015159081151581525050612452565b60018160e00190151590811515815250505b806011600085815260200190815260200160002060008201518160000155602082015181600101908051906020019061248c929190613f58565b5060408201518160020160006101000a81548173ffffffffffffffffffffffffffffffffffffffff021916908373ffffffffffffffffffffffffffffffffffffffff16021790555060608201518160030160006101000a81548173ffffffffffffffffffffffffffffffffffffffff021916908373ffffffffffffffffffffffffffffffffffffffff16021790555060808201518160040160006101000a81548173ffffffffffffffffffffffffffffffffffffffff021916908373ffffffffffffffffffffffffffffffffffffffff16021790555060a0820151816005015560c0820151816006015560e08201518160070160006101000a81548160ff021916908315150217905550905050505050565b6000806125aa83611dab565b905080915050919050565b6125bd612b11565b73ffffffffffffffffffffffffffffffffffffffff166125db612043565b73ffffffffffffffffffffffffffffffffffffffff1614612631576040517f08c379a000000000000000000000000000000000000000000000000000000000815260040161262890614cde565b60405180910390fd5b8073ffffffffffffffffffffffffffffffffffffffff16601060009054906101000a900473ffffffffffffffffffffffffffffffffffffffff1673ffffffffffffffffffffffffffffffffffffffff1614156126c2576040517f08c379a00000000000000000000000000000000000000000000000000000000081526004016126b990614d4a565b60405180910390fd5b80601060006101000a81548173ffffffffffffffffffffffffffffffffffffffff021916908373ffffffffffffffffffffffffffffffffffffffff1602179055507fc02dd078a5d63c2645d0da4b3173f425d353dafebbb14064059edbd4244a31bf8160405161273291906152bf565b60405180910390a150565b61274e612748612b11565b83612bd2565b61278d576040517f08c379a000000000000000000000000000000000000000000000000000000000815260040161278490614a17565b60405180910390fd5b612799848484846133c3565b50505050565b60606127aa8261341f565b9050919050565b6000806127bc610cd0565b90508091505090565b601060009054906101000a900473ffffffffffffffffffffffffffffffffffffffff1681565b600c80546127f8906147bd565b80601f0160208091040260200160405190810160405280929190818152602001828054612824906147bd565b80156128715780601f1061284657610100808354040283529160200191612871565b820191906000526020600020905b81548152906001019060200180831161285457829003601f168201915b505050505081565b6000600560008473ffffffffffffffffffffffffffffffffffffffff1673ffffffffffffffffffffffffffffffffffffffff16815260200190815260200160002060008373ffffffffffffffffffffffffffffffffffffffff1673ffffffffffffffffffffffffffffffffffffffff16815260200190815260200160002060009054906101000a900460ff16905092915050565b612915612b11565b73ffffffffffffffffffffffffffffffffffffffff16612933612043565b73ffffffffffffffffffffffffffffffffffffffff1614612989576040517f08c379a000000000000000000000000000000000000000000000000000000000815260040161298090614cde565b60405180910390fd5b600073ffffffffffffffffffffffffffffffffffffffff168173ffffffffffffffffffffffffffffffffffffffff1614156129f9576040517f08c379a00000000000000000000000000000000000000000000000000000000081526004016129f090615358565b60405180910390fd5b612a0281613172565b50565b600f60009054906101000a900473ffffffffffffffffffffffffffffffffffffffff1681565b60007f780e9d63000000000000000000000000000000000000000000000000000000007bffffffffffffffffffffffffffffffffffffffffffffffffffffffff1916827bffffffffffffffffffffffffffffffffffffffffffffffffffffffff19161480612a9e5750612a9d82613571565b5b9050919050565b60008073ffffffffffffffffffffffffffffffffffffffff166002600084815260200190815260200160002060009054906101000a900473ffffffffffffffffffffffffffffffffffffffff1673ffffffffffffffffffffffffffffffffffffffff1614159050919050565b600033905090565b816004600083815260200190815260200160002060006101000a81548173ffffffffffffffffffffffffffffffffffffffff021916908373ffffffffffffffffffffffffffffffffffffffff160217905550808273ffffffffffffffffffffffffffffffffffffffff16612b8c83611dab565b73ffffffffffffffffffffffffffffffffffffffff167f8c5be1e5ebec7d5bd14f71427d1e84f3dd0314c0f7b2291e5b200ac8c7c3b92560405160405180910390a45050565b6000612bdd82612aa5565b612c1c576040517f08c379a0000000000000000000000000000000000000000000000000000000008152600401612c13906153ea565b60405180910390fd5b6000612c2783611dab565b90508073ffffffffffffffffffffffffffffffffffffffff168473ffffffffffffffffffffffffffffffffffffffff161480612c9657508373ffffffffffffffffffffffffffffffffffffffff16612c7e846109df565b73ffffffffffffffffffffffffffffffffffffffff16145b80612ca75750612ca68185612879565b5b91505092915050565b8273ffffffffffffffffffffffffffffffffffffffff16612cd082611dab565b73ffffffffffffffffffffffffffffffffffffffff1614612d26576040517f08c379a0000000000000000000000000000000000000000000000000000000008152600401612d1d9061547c565b60405180910390fd5b600073ffffffffffffffffffffffffffffffffffffffff168273ffffffffffffffffffffffffffffffffffffffff161415612d96576040517f08c379a0000000000000000000000000000000000000000000000000000000008152600401612d8d9061550e565b60405180910390fd5b612da1838383613653565b612dac600082612b19565b6001600360008573ffffffffffffffffffffffffffffffffffffffff1673ffffffffffffffffffffffffffffffffffffffff1681526020019081526020016000206000828254612dfc919061552e565b925050819055506001600360008473ffffffffffffffffffffffffffffffffffffffff1673ffffffffffffffffffffffffffffffffffffffff1681526020019081526020016000206000828254612e539190614baa565b92505081905550816002600083815260200190815260200160002060006101000a81548173ffffffffffffffffffffffffffffffffffffffff021916908373ffffffffffffffffffffffffffffffffffffffff160217905550808273ffffffffffffffffffffffffffffffffffffffff168473ffffffffffffffffffffffffffffffffffffffff167fddf252ad1be2c89b69c2b068fc378daa952ba7f163c4a11628f55a4df523b3ef60405160405180910390a4505050565b6001816000016000828254019250508190555050565b600081600001549050919050565b600073ffffffffffffffffffffffffffffffffffffffff168273ffffffffffffffffffffffffffffffffffffffff161415612fa0576040517f08c379a0000000000000000000000000000000000000000000000000000000008152600401612f97906155ae565b60405180910390fd5b612fa981612aa5565b15612fe9576040517f08c379a0000000000000000000000000000000000000000000000000000000008152600401612fe09061561a565b60405180910390fd5b612ff560008383613653565b6001600360008473ffffffffffffffffffffffffffffffffffffffff1673ffffffffffffffffffffffffffffffffffffffff16815260200190815260200160002060008282546130459190614baa565b92505081905550816002600083815260200190815260200160002060006101000a81548173ffffffffffffffffffffffffffffffffffffffff021916908373ffffffffffffffffffffffffffffffffffffffff160217905550808273ffffffffffffffffffffffffffffffffffffffff16600073ffffffffffffffffffffffffffffffffffffffff167fddf252ad1be2c89b69c2b068fc378daa952ba7f163c4a11628f55a4df523b3ef60405160405180910390a45050565b61310782612aa5565b613146576040517f08c379a000000000000000000000000000000000000000000000000000000000815260040161313d906156ac565b60405180910390fd5b80600a6000848152602001908152602001600020908051906020019061316d929190613f58565b505050565b6000600b60009054906101000a900473ffffffffffffffffffffffffffffffffffffffff16905081600b60006101000a81548173ffffffffffffffffffffffffffffffffffffffff021916908373ffffffffffffffffffffffffffffffffffffffff1602179055508173ffffffffffffffffffffffffffffffffffffffff168173ffffffffffffffffffffffffffffffffffffffff167f8be0079c531659141344cd1fd0a4f28419497f9722a3daafe3b4186f6b6457e060405160405180910390a35050565b613252828260405180602001604052806000815250613663565b5050565b8173ffffffffffffffffffffffffffffffffffffffff168373ffffffffffffffffffffffffffffffffffffffff1614156132c5576040517f08c379a00000000000000000000000000000000000000000000000000000000081526004016132bc90615718565b60405180910390fd5b80600560008573ffffffffffffffffffffffffffffffffffffffff1673ffffffffffffffffffffffffffffffffffffffff16815260200190815260200160002060008473ffffffffffffffffffffffffffffffffffffffff1673ffffffffffffffffffffffffffffffffffffffff16815260200190815260200160002060006101000a81548160ff0219169083151502179055508173ffffffffffffffffffffffffffffffffffffffff168373ffffffffffffffffffffffffffffffffffffffff167f17307eab39ab6107e8899845ad3d59bd9653f200f220920489ca2b5937696c31836040516133b691906140af565b60405180910390a3505050565b6133ce848484612cb0565b6133da848484846136be565b613419576040517f08c379a0000000000000000000000000000000000000000000000000000000008152600401613410906157aa565b60405180910390fd5b50505050565b606061342a82612aa5565b613469576040517f08c379a00000000000000000000000000000000000000000000000000000000081526004016134609061583c565b60405180910390fd5b6000600a60008481526020019081526020016000208054613489906147bd565b80601f01602080910402602001604051908101604052809291908181526020018280546134b5906147bd565b80156135025780601f106134d757610100808354040283529160200191613502565b820191906000526020600020905b8154815290600101906020018083116134e557829003601f168201915b50505050509050600061351361387e565b905060008151141561352957819250505061356c565b60008251111561355e57808260405160200161354692919061585c565b6040516020818303038152906040529250505061356c565b61356784613895565b925050505b919050565b60007f80ac58cd000000000000000000000000000000000000000000000000000000007bffffffffffffffffffffffffffffffffffffffffffffffffffffffff1916827bffffffffffffffffffffffffffffffffffffffffffffffffffffffff1916148061363c57507f5b5e139f000000000000000000000000000000000000000000000000000000007bffffffffffffffffffffffffffffffffffffffffffffffffffffffff1916827bffffffffffffffffffffffffffffffffffffffffffffffffffffffff1916145b8061364c575061364b8261393c565b5b9050919050565b61365e8383836139a6565b505050565b61366d8383612f30565b61367a60008484846136be565b6136b9576040517f08c379a00000000000000000000000000000000000000000000000000000000081526004016136b0906157aa565b60405180910390fd5b505050565b60006136df8473ffffffffffffffffffffffffffffffffffffffff16613aba565b15613871578373ffffffffffffffffffffffffffffffffffffffff1663150b7a02613708612b11565b8786866040518563ffffffff167c010000000000000000000000000000000000000000000000000000000002815260040161374694939291906158d5565b6020604051808303816000875af192505050801561378257506040513d601f19601f8201168201806040525081019061377f9190615936565b60015b613805573d80600081146137b2576040519150601f19603f3d011682016040523d82523d6000602084013e6137b7565b606091505b506000815114156137fd576040517f08c379a00000000000000000000000000000000000000000000000000000000081526004016137f4906157aa565b60405180910390fd5b805181602001fd5b63150b7a027c0100000000000000000000000000000000000000000000000000000000027bffffffffffffffffffffffffffffffffffffffffffffffffffffffff1916817bffffffffffffffffffffffffffffffffffffffffffffffffffffffff191614915050613876565b600190505b949350505050565b606060405180602001604052806000815250905090565b60606138a082612aa5565b6138df576040517f08c379a00000000000000000000000000000000000000000000000000000000081526004016138d6906159d5565b60405180910390fd5b60006138e961387e565b905060008151116139095760405180602001604052806000815250613934565b8061391384613acd565b60405160200161392492919061585c565b6040516020818303038152906040525b915050919050565b60007f01ffc9a7000000000000000000000000000000000000000000000000000000007bffffffffffffffffffffffffffffffffffffffffffffffffffffffff1916827bffffffffffffffffffffffffffffffffffffffffffffffffffffffff1916149050919050565b6139b1838383613c4d565b600073ffffffffffffffffffffffffffffffffffffffff168373ffffffffffffffffffffffffffffffffffffffff1614156139f4576139ef81613c52565b613a33565b8173ffffffffffffffffffffffffffffffffffffffff168373ffffffffffffffffffffffffffffffffffffffff1614613a3257613a318382613c9b565b5b5b600073ffffffffffffffffffffffffffffffffffffffff168273ffffffffffffffffffffffffffffffffffffffff161415613a7657613a7181613e08565b613ab5565b8273ffffffffffffffffffffffffffffffffffffffff168273ffffffffffffffffffffffffffffffffffffffff1614613ab457613ab38282613ed9565b5b5b505050565b600080823b905060008111915050919050565b60606000821415613b15576040518060400160405280600181526020017f30000000000000000000000000000000000000000000000000000000000000008152509050613c48565b600082905060005b60008214613b47578080613b30906159f5565b915050600a82613b409190615a6d565b9150613b1d565b60008167ffffffffffffffff811115613b6357613b6261440a565b5b6040519080825280601f01601f191660200182016040528015613b955781602001600182028036833780820191505090505b5090505b60008514613c4157600182613bae919061552e565b9150600a85613bbd9190615a9e565b6030613bc99190614baa565b7f010000000000000000000000000000000000000000000000000000000000000002818381518110613bfe57613bfd614e49565b5b60200101907effffffffffffffffffffffffffffffffffffffffffffffffffffffffffffff1916908160001a905350600a85613c3a9190615a6d565b9450613b99565b8093505050505b919050565b505050565b6008805490506009600083815260200190815260200160002081905550600881908060018154018082558091505060019003906000526020600020016000909190919091505550565b60006001613ca884611f03565b613cb2919061552e565b9050600060076000848152602001908152602001600020549050818114613d97576000600660008673ffffffffffffffffffffffffffffffffffffffff1673ffffffffffffffffffffffffffffffffffffffff168152602001908152602001600020600084815260200190815260200160002054905080600660008773ffffffffffffffffffffffffffffffffffffffff1673ffffffffffffffffffffffffffffffffffffffff168152602001908152602001600020600084815260200190815260200160002081905550816007600083815260200190815260200160002081905550505b6007600084815260200190815260200160002060009055600660008573ffffffffffffffffffffffffffffffffffffffff1673ffffffffffffffffffffffffffffffffffffffff16815260200190815260200160002060008381526020019081526020016000206000905550505050565b60006001600880549050613e1c919061552e565b9050600060096000848152602001908152602001600020549050600060088381548110613e4c57613e4b614e49565b5b906000526020600020015490508060088381548110613e6e57613e6d614e49565b5b906000526020600020018190555081600960008381526020019081526020016000208190555060096000858152602001908152602001600020600090556008805480613ebd57613ebc615acf565b5b6001900381819060005260206000200160009055905550505050565b6000613ee483611f03565b905081600660008573ffffffffffffffffffffffffffffffffffffffff1673ffffffffffffffffffffffffffffffffffffffff168152602001908152602001600020600083815260200190815260200160002081905550806007600084815260200190815260200160002081905550505050565b828054613f64906147bd565b90600052602060002090601f016020900481019282613f865760008555613fcd565b82601f10613f9f57805160ff1916838001178555613fcd565b82800160010185558215613fcd579182015b82811115613fcc578251825591602001919060010190613fb1565b5b509050613fda9190613fde565b5090565b5b80821115613ff7576000816000905550600101613fdf565b5090565b6000604051905090565b600080fd5b600080fd5b60007fffffffff0000000000000000000000000000000000000000000000000000000082169050919050565b6140448161400f565b811461404f57600080fd5b50565b6000813590506140618161403b565b92915050565b60006020828403121561407d5761407c614005565b5b600061408b84828501614052565b91505092915050565b60008115159050919050565b6140a981614094565b82525050565b60006020820190506140c460008301846140a0565b92915050565b600081519050919050565b600082825260208201905092915050565b60005b838110156141045780820151818401526020810190506140e9565b83811115614113576000848401525b50505050565b6000601f19601f8301169050919050565b6000614135826140ca565b61413f81856140d5565b935061414f8185602086016140e6565b61415881614119565b840191505092915050565b6000602082019050818103600083015261417d818461412a565b905092915050565b6000819050919050565b61419881614185565b81146141a357600080fd5b50565b6000813590506141b58161418f565b92915050565b6000602082840312156141d1576141d0614005565b5b60006141df848285016141a6565b91505092915050565b600073ffffffffffffffffffffffffffffffffffffffff82169050919050565b6000614213826141e8565b9050919050565b61422381614208565b82525050565b600060208201905061423e600083018461421a565b92915050565b61424d81614208565b811461425857600080fd5b50565b60008135905061426a81614244565b92915050565b6000806040838503121561428757614286614005565b5b60006142958582860161425b565b92505060206142a6858286016141a6565b9150509250929050565b6142b981614185565b82525050565b60006142ca826141e8565b9050919050565b6142da816142bf565b82525050565b6000610100820190506142f6600083018b6142b0565b8181036020830152614308818a61412a565b905061431760408301896142d1565b61432460608301886142d1565b61433160808301876142d1565b61433e60a08301866142b0565b61434b60c08301856142b0565b61435860e08301846140a0565b9998505050505050505050565b600060208201905061437a60008301846142b0565b92915050565b60008060006060848603121561439957614398614005565b5b60006143a78682870161425b565b93505060206143b88682870161425b565b92505060406143c9868287016141a6565b9150509250925092565b6000602082840312156143e9576143e8614005565b5b60006143f78482850161425b565b91505092915050565b600080fd5b600080fd5b7f4e487b7100000000000000000000000000000000000000000000000000000000600052604160045260246000fd5b61444282614119565b810181811067ffffffffffffffff821117156144615761446061440a565b5b80604052505050565b6000614474613ffb565b90506144808282614439565b919050565b600067ffffffffffffffff8211156144a05761449f61440a565b5b6144a982614119565b9050602081019050919050565b82818337600083830152505050565b60006144d86144d384614485565b61446a565b9050828152602081018484840111156144f4576144f3614405565b5b6144ff8482856144b6565b509392505050565b600082601f83011261451c5761451b614400565b5b813561452c8482602086016144c5565b91505092915050565b60006020828403121561454b5761454a614005565b5b600082013567ffffffffffffffff8111156145695761456861400a565b5b61457584828501614507565b91505092915050565b6000806040838503121561459557614594614005565b5b60006145a3858286016141a6565b92505060206145b4858286016141a6565b9150509250929050565b6145c781614094565b81146145d257600080fd5b50565b6000813590506145e4816145be565b92915050565b6000806040838503121561460157614600614005565b5b600061460f8582860161425b565b9250506020614620858286016145d5565b9150509250929050565b600067ffffffffffffffff8211156146455761464461440a565b5b61464e82614119565b9050602081019050919050565b600061466e6146698461462a565b61446a565b90508281526020810184848401111561468a57614689614405565b5b6146958482856144b6565b509392505050565b600082601f8301126146b2576146b1614400565b5b81356146c284826020860161465b565b91505092915050565b600080600080608085870312156146e5576146e4614005565b5b60006146f38782880161425b565b94505060206147048782880161425b565b9350506040614715878288016141a6565b925050606085013567ffffffffffffffff8111156147365761473561400a565b5b6147428782880161469d565b91505092959194509250565b6000806040838503121561476557614764614005565b5b60006147738582860161425b565b92505060206147848582860161425b565b9150509250929050565b7f4e487b7100000000000000000000000000000000000000000000000000000000600052602260045260246000fd5b600060028204905060018216806147d557607f821691505b602082108114156147e9576147e861478e565b5b50919050565b7f4552433732313a20617070726f76656420717565727920666f72206e6f6e657860008201527f697374656e7420746f6b656e0000000000000000000000000000000000000000602082015250565b600061484b602c836140d5565b9150614856826147ef565b604082019050919050565b6000602082019050818103600083015261487a8161483e565b9050919050565b7f4552433732313a20617070726f76616c20746f2063757272656e74206f776e6560008201527f7200000000000000000000000000000000000000000000000000000000000000602082015250565b60006148dd6021836140d5565b91506148e882614881565b604082019050919050565b6000602082019050818103600083015261490c816148d0565b9050919050565b7f4552433732313a20617070726f76652063616c6c6572206973206e6f74206f7760008201527f6e6572206e6f7220617070726f76656420666f7220616c6c0000000000000000602082015250565b600061496f6038836140d5565b915061497a82614913565b604082019050919050565b6000602082019050818103600083015261499e81614962565b9050919050565b7f4552433732313a207472616e736665722063616c6c6572206973206e6f74206f60008201527f776e6572206e6f7220617070726f766564000000000000000000000000000000602082015250565b6000614a016031836140d5565b9150614a0c826149a5565b604082019050919050565b60006020820190508181036000830152614a30816149f4565b9050919050565b6000819050919050565b6000614a5c614a57614a52846141e8565b614a37565b6141e8565b9050919050565b6000614a6e82614a41565b9050919050565b6000614a8082614a63565b9050919050565b614a9081614a75565b82525050565b6000606082019050614aab600083018661421a565b614ab86020830185614a87565b614ac560408301846142b0565b949350505050565b600081519050614adc816145be565b92915050565b600060208284031215614af857614af7614005565b5b6000614b0684828501614acd565b91505092915050565b7f4572726f72207472616e7366657272696e6720746f6b656e7300000000000000600082015250565b6000614b456019836140d5565b9150614b5082614b0f565b602082019050919050565b60006020820190508181036000830152614b7481614b38565b9050919050565b7f4e487b7100000000000000000000000000000000000000000000000000000000600052601160045260246000fd5b6000614bb582614185565b9150614bc083614185565b9250827fffffffffffffffffffffffffffffffffffffffffffffffffffffffffffffffff03821115614bf557614bf4614b7b565b5b828201905092915050565b7f455243373231456e756d657261626c653a206f776e657220696e646578206f7560008201527f74206f6620626f756e6473000000000000000000000000000000000000000000602082015250565b6000614c5c602b836140d5565b9150614c6782614c00565b604082019050919050565b60006020820190508181036000830152614c8b81614c4f565b9050919050565b7f4f776e61626c653a2063616c6c6572206973206e6f7420746865206f776e6572600082015250565b6000614cc86020836140d5565b9150614cd382614c92565b602082019050919050565b60006020820190508181036000830152614cf781614cbb565b9050919050565b7f5468697320616464726573732077617320616c72656164792075736564000000600082015250565b6000614d34601d836140d5565b9150614d3f82614cfe565b602082019050919050565b60006020820190508181036000830152614d6381614d27565b9050919050565b7f6368657374000000000000000000000000000000000000000000000000000000815250565b6000604082019050614da5600083018461421a565b614db160208301614d6a565b92915050565b7f455243373231456e756d657261626c653a20676c6f62616c20696e646578206f60008201527f7574206f6620626f756e64730000000000000000000000000000000000000000602082015250565b6000614e13602c836140d5565b9150614e1e82614db7565b604082019050919050565b60006020820190508181036000830152614e4281614e06565b9050919050565b7f4e487b7100000000000000000000000000000000000000000000000000000000600052603260045260246000fd5b6000604082019050614e8d600083018561421a565b614e9a60208301846142b0565b9392505050565b600080fd5b600080fd5b600081519050614eba8161418f565b92915050565b6000614ed3614ece84614485565b61446a565b905082815260208101848484011115614eef57614eee614405565b5b614efa8482856140e6565b509392505050565b600082601f830112614f1757614f16614400565b5b8151614f27848260208601614ec0565b91505092915050565b614f39816142bf565b8114614f4457600080fd5b50565b600081519050614f5681614f30565b92915050565b600060ff82169050919050565b614f7281614f5c565b8114614f7d57600080fd5b50565b600081519050614f8f81614f69565b92915050565b60006101608284031215614fac57614fab614ea1565b5b614fb761016061446a565b90506000614fc784828501614eab565b600083015250602082015167ffffffffffffffff811115614feb57614fea614ea6565b5b614ff784828501614f02565b602083015250604061500b84828501614f47565b604083015250606061501f84828501614f47565b606083015250608061503384828501614f47565b60808301525060a061504784828501614eab565b60a08301525060c061505b84828501614eab565b60c08301525060e061506f84828501614acd565b60e08301525061010061508484828501614acd565b6101008301525061012082015167ffffffffffffffff8111156150aa576150a9614ea6565b5b6150b684828501614f02565b610120830152506101406150cc84828501614f80565b6101408301525092915050565b6000602082840312156150ef576150ee614005565b5b600082015167ffffffffffffffff81111561510d5761510c61400a565b5b61511984828501614f95565b91505092915050565b600081905092915050565b6000615138826140ca565b6151428185615122565b93506151528185602086016140e6565b80840191505092915050565b600061516a828461512d565b915081905092915050565b7f4552433732313a206f776e657220717565727920666f72206e6f6e657869737460008201527f656e7420746f6b656e0000000000000000000000000000000000000000000000602082015250565b60006151d16029836140d5565b91506151dc82615175565b604082019050919050565b60006020820190508181036000830152615200816151c4565b9050919050565b7f4552433732313a2062616c616e636520717565727920666f7220746865207a6560008201527f726f206164647265737300000000000000000000000000000000000000000000602082015250565b6000615263602a836140d5565b915061526e82615207565b604082019050919050565b6000602082019050818103600083015261529281615256565b9050919050565b7f706b740000000000000000000000000000000000000000000000000000000000815250565b60006040820190506152d4600083018461421a565b6152e060208301615299565b92915050565b7f4f776e61626c653a206e6577206f776e657220697320746865207a65726f206160008201527f6464726573730000000000000000000000000000000000000000000000000000602082015250565b60006153426026836140d5565b915061534d826152e6565b604082019050919050565b6000602082019050818103600083015261537181615335565b9050919050565b7f4552433732313a206f70657261746f7220717565727920666f72206e6f6e657860008201527f697374656e7420746f6b656e0000000000000000000000000000000000000000602082015250565b60006153d4602c836140d5565b91506153df82615378565b604082019050919050565b60006020820190508181036000830152615403816153c7565b9050919050565b7f4552433732313a207472616e73666572206f6620746f6b656e2074686174206960008201527f73206e6f74206f776e0000000000000000000000000000000000000000000000602082015250565b60006154666029836140d5565b91506154718261540a565b604082019050919050565b6000602082019050818103600083015261549581615459565b9050919050565b7f4552433732313a207472616e7366657220746f20746865207a65726f2061646460008201527f7265737300000000000000000000000000000000000000000000000000000000602082015250565b60006154f86024836140d5565b91506155038261549c565b604082019050919050565b60006020820190508181036000830152615527816154eb565b9050919050565b600061553982614185565b915061554483614185565b92508282101561555757615556614b7b565b5b828203905092915050565b7f4552433732313a206d696e7420746f20746865207a65726f2061646472657373600082015250565b60006155986020836140d5565b91506155a382615562565b602082019050919050565b600060208201905081810360008301526155c78161558b565b9050919050565b7f4552433732313a20746f6b656e20616c7265616479206d696e74656400000000600082015250565b6000615604601c836140d5565b915061560f826155ce565b602082019050919050565b60006020820190508181036000830152615633816155f7565b9050919050565b7f45524337323155524953746f726167653a2055524920736574206f66206e6f6e60008201527f6578697374656e7420746f6b656e000000000000000000000000000000000000602082015250565b6000615696602e836140d5565b91506156a18261563a565b604082019050919050565b600060208201905081810360008301526156c581615689565b9050919050565b7f4552433732313a20617070726f766520746f2063616c6c657200000000000000600082015250565b60006157026019836140d5565b915061570d826156cc565b602082019050919050565b60006020820190508181036000830152615731816156f5565b9050919050565b7f4552433732313a207472616e7366657220746f206e6f6e20455243373231526560008201527f63656976657220696d706c656d656e7465720000000000000000000000000000602082015250565b60006157946032836140d5565b915061579f82615738565b604082019050919050565b600060208201905081810360008301526157c381615787565b9050919050565b7f45524337323155524953746f726167653a2055524920717565727920666f722060008201527f6e6f6e6578697374656e7420746f6b656e000000000000000000000000000000602082015250565b60006158266031836140d5565b9150615831826157ca565b604082019050919050565b6000602082019050818103600083015261585581615819565b9050919050565b6000615868828561512d565b9150615874828461512d565b91508190509392505050565b600081519050919050565b600082825260208201905092915050565b60006158a782615880565b6158b1818561588b565b93506158c18185602086016140e6565b6158ca81614119565b840191505092915050565b60006080820190506158ea600083018761421a565b6158f7602083018661421a565b61590460408301856142b0565b8181036060830152615916818461589c565b905095945050505050565b6000815190506159308161403b565b92915050565b60006020828403121561594c5761594b614005565b5b600061595a84828501615921565b91505092915050565b7f4552433732314d657461646174613a2055524920717565727920666f72206e6f60008201527f6e6578697374656e7420746f6b656e0000000000000000000000000000000000602082015250565b60006159bf602f836140d5565b91506159ca82615963565b604082019050919050565b600060208201905081810360008301526159ee816159b2565b9050919050565b6000615a0082614185565b91507fffffffffffffffffffffffffffffffffffffffffffffffffffffffffffffffff821415615a3357615a32614b7b565b5b600182019050919050565b7f4e487b7100000000000000000000000000000000000000000000000000000000600052601260045260246000fd5b6000615a7882614185565b9150615a8383614185565b925082615a9357615a92615a3e565b5b828204905092915050565b6000615aa982614185565b9150615ab483614185565b925082615ac457615ac3615a3e565b5b828206905092915050565b7f4e487b7100000000000000000000000000000000000000000000000000000000600052603160045260246000fdfea2646970667358221220dea0a176a375315cc0388cf814610541f7b516b3fc166391639e7459a2814f2864736f6c634300080b003350697261746573204b696e672043686172616374657220436f6c6c656374696f6e",
  "immutableReferences": {},
  "source": "// SPDX-License-Identifier: MIT\npragma solidity ^0.8.0;\npragma abicoder v2;\nimport \"@openzeppelin/contracts/access/Ownable.sol\";\nimport \"@openzeppelin/contracts/token/ERC721/ERC721.sol\";\nimport \"@openzeppelin/contracts/token/ERC721/extensions/ERC721URIStorage.sol\";\nimport \"@openzeppelin/contracts/token/ERC721/extensions/ERC721Enumerable.sol\";\nimport \"@openzeppelin/contracts/utils/Counters.sol\";\nimport \"@openzeppelin/contracts/utils/math/SafeMath.sol\";\nimport \"./IPiratesKingBase.sol\";\nimport \"./IPiratesKingChest.sol\";\nimport \"./IBEP20.sol\";\n\n// PiratesKing Characters smart contract inherits ERC721 interface\ncontract PiratesKingCharacter is\n    ERC721,\n    ERC721Enumerable,\n    ERC721URIStorage,\n    Ownable,\n    IPiratesKingBase\n{\n    using SafeMath for uint256;\n    using Counters for Counters.Counter;\n    // this contract's token collection name\n    string public collectionName;\n    // this contract's token symbol\n    string public collectionNameSymbol;\n    // total number of pirates king characters minted\n    Counters.Counter private characterCounter;\n    address public chestContract;\n    address public pktContract;\n\n    event LibContractAddressUpdate(address newAddress, bytes32 contractName);\n\n    // define pirates king character struct\n    struct PKCharacter {\n        uint256 tokenId;\n        string tokenURI;\n        address payable mintedBy;\n        address payable currentOwner;\n        address payable previousOwner;\n        uint256 price;\n        uint256 numberOfTransfers;\n        bool forSale;\n    }\n\n    mapping(uint256 => PKCharacter) public allCharacters;\n    mapping(string => bool) public tokenURIExists;\n\n    // initialize contract while deployment with contract's collection name and token\n    constructor()\n        ERC721(\"Pirates King Character Collection\", \"PKCH\")\n    {\n        collectionName = name();\n        collectionNameSymbol = symbol();\n        chestContract = payable(0x4b9E79936be974Ca4bEeffe160cceDa11f5c4400);\n        pktContract = payable(0x29bc99648bA29461A2B00aB860280B4309578827);\n    }\n\n    function _beforeTokenTransfer(\n        address from,\n        address to,\n        uint256 tokenId\n    ) internal override(ERC721, ERC721Enumerable) {\n        super._beforeTokenTransfer(from, to, tokenId);\n    }\n\n    function _burn(uint256 tokenId)\n        internal\n        override(ERC721, ERC721URIStorage)\n    {\n        super._burn(tokenId);\n    }\n\n    function tokenURI(uint256 tokenId)\n        public\n        view\n        override(ERC721, ERC721URIStorage)\n        returns (string memory)\n    {\n        return super.tokenURI(tokenId);\n    }\n\n    function supportsInterface(bytes4 interfaceId)\n        public\n        view\n        override(ERC721, ERC721Enumerable)\n        returns (bool)\n    {\n        return super.supportsInterface(interfaceId);\n    }\n\n    function safeMint(address to, uint256 tokenId) public onlyOwner {\n        _safeMint(to, tokenId);\n    }\n\n\n\n    function setPKTContractAddress(address _contract) external onlyOwner {\n        require(pktContract != _contract, 'This address was already used');\n        pktContract = _contract;\n        emit LibContractAddressUpdate(_contract, \"pkt\");\n    }\n\n    function setChestContractAddress(address _contract) external onlyOwner {\n        require(chestContract != _contract, 'This address was already used');\n        chestContract = _contract;\n        emit LibContractAddressUpdate(_contract, \"chest\");\n    }\n\n    function openChest(uint256 _tokenId) external {\n        IPiratesKingChest ChestContract = IPiratesKingChest(chestContract);\n        PKChest memory chest = ChestContract.openChest(_msgSender(), _tokenId);\n        require(msg.sender != address(0));\n        // increment counter\n        characterCounter.increment();\n        // check if a token exists with the above token id => incremented counter\n        require(!_exists(characterCounter.current()));\n\n        string memory _tokenURI = chest.data;\n        // check if the token URI already exists or not\n        require(!tokenURIExists[_tokenURI]);\n        // check if the token name already exists or not\n\n        // mint the token\n        _mint(msg.sender, characterCounter.current());\n        // set token URI (bind token id with the passed in token URI)\n        _setTokenURI(characterCounter.current(), _tokenURI);\n        // make passed token URI as exists\n        tokenURIExists[_tokenURI] = true;\n        // make token name passed as exists\n\n        // creat a new pirates king character (struct) and pass in new values\n        PKCharacter memory newCharacter = PKCharacter(\n            characterCounter.current(),\n            chest.data,\n            payable(msg.sender),\n            payable(msg.sender),\n            payable(address(0)),\n            0,\n            0,\n            false\n        );\n        // add the token id and it's pirates king character to all pirates king characters mapping\n        allCharacters[characterCounter.current()] = newCharacter;\n    }\n\n    // get owner of the token\n    function getTokenOwner(uint256 _tokenId) public view returns (address) {\n        address _tokenOwner = ownerOf(_tokenId);\n        return _tokenOwner;\n    }\n\n    // get metadata of the token\n    function getTokenMetaData(uint256 _tokenId)\n        public\n        view\n        returns (string memory)\n    {\n        string memory tokenMetaData = tokenURI(_tokenId);\n        return tokenMetaData;\n    }\n\n    // get total number of tokens minted so far\n    function getNumberOfTokensMinted() public view returns (uint256) {\n        uint256 totalNumberOfTokensMinted = totalSupply();\n        return totalNumberOfTokensMinted;\n    }\n\n    // get total number of tokens owned by an address\n    function getTotalNumberOfTokensOwnedByAnAddress(address _owner)\n        public\n        view\n        returns (uint256)\n    {\n        uint256 totalNumberOfTokensOwned = balanceOf(_owner);\n        return totalNumberOfTokensOwned;\n    }\n\n    // check if the token already exists\n    function getTokenExists(uint256 _tokenId) public view returns (bool) {\n        bool tokenExists = _exists(_tokenId);\n        return tokenExists;\n    }\n\n    // by a token by passing in the token's id\n    function buyToken(uint256 _tokenId) public payable {\n        // check if the function caller is not an zero account address\n        require(msg.sender != address(0));\n        // check if the token id of the token being bought exists or not\n        require(_exists(_tokenId));\n        // get the token's owner\n        address tokenOwner = ownerOf(_tokenId);\n        // token's owner should not be an zero address account\n        require(tokenOwner != address(0));\n        // the one who wants to buy the token should not be the token's owner\n        require(tokenOwner != msg.sender);\n        // get that token from all pirates king characters mapping and create a memory of it defined as (struct => PKCharacter)\n        PKCharacter memory character = allCharacters[_tokenId];\n        // price sent in to buy should be equal to or more than the token's price\n        require(msg.value >= character.price);\n        // token should be for sale\n        require(character.forSale);\n        // get owner of the token\n        address payable sendTo = character.currentOwner;\n        // send token's worth of ethers to the owner\n        if (\n            !IBEP20(pktContract).transferFrom(\n                _msgSender(),\n                sendTo,\n                character.price\n            )\n        ) {\n            revert(\"Error transferring tokens\");\n        }\n        // transfer the token from owner to the caller of the function (buyer)\n        _transfer(tokenOwner, msg.sender, _tokenId);\n        // update the token's previous owner\n        character.previousOwner = character.currentOwner;\n        // update the token's current owner\n        character.currentOwner = payable(msg.sender);\n        // update the how many times this token was transfered\n        character.numberOfTransfers += 1;\n        // set and update that token in the mapping\n        allCharacters[_tokenId] = character;\n    }\n\n    function changeTokenPrice(uint256 _tokenId, uint256 _newPrice) public {\n        // require caller of the function is not an empty address\n        require(msg.sender != address(0));\n        // require that token should exist\n        require(_exists(_tokenId));\n        // get the token's owner\n        address tokenOwner = ownerOf(_tokenId);\n        // check that token's owner should be equal to the caller of the function\n        require(tokenOwner == msg.sender);\n        // get that token from all pirates king characters mapping and create a memory of it defined as (struct => PKCharacter)\n        PKCharacter memory character = allCharacters[_tokenId];\n        // update token's price with new price\n        character.price = _newPrice;\n        // set and update that token in the mapping\n        allCharacters[_tokenId] = character;\n    }\n\n    // switch between set for sale and set not for sale\n    function toggleForSale(uint256 _tokenId) public {\n        // require caller of the function is not an empty address\n        require(msg.sender != address(0));\n        // require that token should exist\n        require(_exists(_tokenId));\n        // get the token's owner\n        address tokenOwner = ownerOf(_tokenId);\n        // check that token's owner should be equal to the caller of the function\n        require(tokenOwner == msg.sender);\n        // get that token from all pirates king characters mapping and create a memory of it defined as (struct => PKCharacter)\n        PKCharacter memory character = allCharacters[_tokenId];\n        // if token's forSale is false make it true and vice versa\n        if (character.forSale) {\n            character.forSale = false;\n        } else {\n            character.forSale = true;\n        }\n        // set and update that token in the mapping\n        allCharacters[_tokenId] = character;\n    }\n}\n",
  "sourcePath": "/Users/macbook/Desktop/PiratesKingContract2022/PiratesKingContract2022/contracts/PiratesKingCharacter.sol",
  "compiler": {
    "name": "solc",
    "version": "0.8.11+commit.d7f03943.Emscripten.clang"
  },
  "schemaVersion": "3.4.4",
  "updatedAt": "2022-02-10T08:25:47.034Z",
  "networkType": "ethereum",
  "devdoc": {
    "kind": "dev",
    "methods": {
      "approve(address,uint256)": {
        "details": "See {IERC721-approve}."
      },
      "balanceOf(address)": {
        "details": "See {IERC721-balanceOf}."
      },
      "getApproved(uint256)": {
        "details": "See {IERC721-getApproved}."
      },
      "isApprovedForAll(address,address)": {
        "details": "See {IERC721-isApprovedForAll}."
      },
      "name()": {
        "details": "See {IERC721Metadata-name}."
      },
      "owner()": {
        "details": "Returns the address of the current owner."
      },
      "ownerOf(uint256)": {
        "details": "See {IERC721-ownerOf}."
      },
      "renounceOwnership()": {
        "details": "Leaves the contract without owner. It will not be possible to call `onlyOwner` functions anymore. Can only be called by the current owner. NOTE: Renouncing ownership will leave the contract without an owner, thereby removing any functionality that is only available to the owner."
      },
      "safeTransferFrom(address,address,uint256)": {
        "details": "See {IERC721-safeTransferFrom}."
      },
      "safeTransferFrom(address,address,uint256,bytes)": {
        "details": "See {IERC721-safeTransferFrom}."
      },
      "setApprovalForAll(address,bool)": {
        "details": "See {IERC721-setApprovalForAll}."
      },
      "symbol()": {
        "details": "See {IERC721Metadata-symbol}."
      },
      "tokenByIndex(uint256)": {
        "details": "See {IERC721Enumerable-tokenByIndex}."
      },
      "tokenOfOwnerByIndex(address,uint256)": {
        "details": "See {IERC721Enumerable-tokenOfOwnerByIndex}."
      },
      "totalSupply()": {
        "details": "See {IERC721Enumerable-totalSupply}."
      },
      "transferFrom(address,address,uint256)": {
        "details": "See {IERC721-transferFrom}."
      },
      "transferOwnership(address)": {
        "details": "Transfers ownership of the contract to a new account (`newOwner`). Can only be called by the current owner."
      }
    },
    "version": 1
  },
  "userdoc": {
    "kind": "user",
    "methods": {},
    "version": 1
  }
}