{
  "contractName": "PiratesKingGame",
  "abi": [
    {
      "inputs": [],
      "stateMutability": "nonpayable",
      "type": "constructor"
    },
    {
      "anonymous": false,
      "inputs": [
        {
          "indexed": false,
          "internalType": "bool",
          "name": "newStatus",
          "type": "bool"
        }
      ],
      "name": "ContractStatusUpdate",
      "type": "event"
    },
    {
      "anonymous": false,
      "inputs": [
        {
          "indexed": true,
          "internalType": "address",
          "name": "player",
          "type": "address"
        },
        {
          "indexed": false,
          "internalType": "uint256",
          "name": "chest_id",
          "type": "uint256"
        }
      ],
      "name": "GiveChestToContestWinner",
      "type": "event"
    },
    {
      "anonymous": false,
      "inputs": [
        {
          "indexed": false,
          "internalType": "address",
          "name": "newAddress",
          "type": "address"
        },
        {
          "indexed": false,
          "internalType": "bytes32",
          "name": "contractName",
          "type": "bytes32"
        }
      ],
      "name": "LibContractAddressUpdate",
      "type": "event"
    },
    {
      "anonymous": false,
      "inputs": [
        {
          "indexed": true,
          "internalType": "address",
          "name": "player",
          "type": "address"
        },
        {
          "indexed": false,
          "internalType": "uint256",
          "name": "chest_id",
          "type": "uint256"
        },
        {
          "indexed": false,
          "internalType": "uint256",
          "name": "amount",
          "type": "uint256"
        }
      ],
      "name": "NewChestPurchased",
      "type": "event"
    },
    {
      "anonymous": false,
      "inputs": [
        {
          "indexed": true,
          "internalType": "address",
          "name": "player",
          "type": "address"
        },
        {
          "indexed": false,
          "internalType": "string",
          "name": "name",
          "type": "string"
        },
        {
          "indexed": false,
          "internalType": "uint256",
          "name": "amount",
          "type": "uint256"
        },
        {
          "indexed": false,
          "internalType": "string",
          "name": "date",
          "type": "string"
        }
      ],
      "name": "NewIsLandChose",
      "type": "event"
    },
    {
      "anonymous": false,
      "inputs": [
        {
          "indexed": true,
          "internalType": "address",
          "name": "player",
          "type": "address"
        },
        {
          "indexed": false,
          "internalType": "string",
          "name": "id_level",
          "type": "string"
        },
        {
          "indexed": false,
          "internalType": "uint256",
          "name": "amount",
          "type": "uint256"
        },
        {
          "indexed": false,
          "internalType": "string",
          "name": "id_pirate",
          "type": "string"
        }
      ],
      "name": "NewLevelUpgrade",
      "type": "event"
    },
    {
      "anonymous": false,
      "inputs": [
        {
          "indexed": true,
          "internalType": "address",
          "name": "previousOwner",
          "type": "address"
        },
        {
          "indexed": true,
          "internalType": "address",
          "name": "newOwner",
          "type": "address"
        }
      ],
      "name": "OwnershipTransferred",
      "type": "event"
    },
    {
      "inputs": [],
      "name": "active",
      "outputs": [
        {
          "internalType": "bool",
          "name": "",
          "type": "bool"
        }
      ],
      "stateMutability": "view",
      "type": "function"
    },
    {
      "inputs": [],
      "name": "buyChestRewardPercent",
      "outputs": [
        {
          "internalType": "uint256",
          "name": "",
          "type": "uint256"
        }
      ],
      "stateMutability": "view",
      "type": "function"
    },
    {
      "inputs": [],
      "name": "chestContract",
      "outputs": [
        {
          "internalType": "address",
          "name": "",
          "type": "address"
        }
      ],
      "stateMutability": "view",
      "type": "function"
    },
    {
      "inputs": [],
      "name": "devPool",
      "outputs": [
        {
          "internalType": "address payable",
          "name": "",
          "type": "address"
        }
      ],
      "stateMutability": "view",
      "type": "function"
    },
    {
      "inputs": [],
      "name": "findTreasureIslandPool",
      "outputs": [
        {
          "internalType": "address payable",
          "name": "",
          "type": "address"
        }
      ],
      "stateMutability": "view",
      "type": "function"
    },
    {
      "inputs": [
        {
          "internalType": "address",
          "name": "",
          "type": "address"
        },
        {
          "internalType": "uint256",
          "name": "",
          "type": "uint256"
        }
      ],
      "name": "islandsChose",
      "outputs": [
        {
          "internalType": "string",
          "name": "date",
          "type": "string"
        },
        {
          "internalType": "string",
          "name": "isLandName",
          "type": "string"
        },
        {
          "internalType": "uint256",
          "name": "amount",
          "type": "uint256"
        }
      ],
      "stateMutability": "view",
      "type": "function"
    },
    {
      "inputs": [],
      "name": "owner",
      "outputs": [
        {
          "internalType": "address",
          "name": "",
          "type": "address"
        }
      ],
      "stateMutability": "view",
      "type": "function"
    },
    {
      "inputs": [],
      "name": "pktContract",
      "outputs": [
        {
          "internalType": "address",
          "name": "",
          "type": "address"
        }
      ],
      "stateMutability": "view",
      "type": "function"
    },
    {
      "inputs": [],
      "name": "renounceOwnership",
      "outputs": [],
      "stateMutability": "nonpayable",
      "type": "function"
    },
    {
      "inputs": [],
      "name": "rewardPool",
      "outputs": [
        {
          "internalType": "address payable",
          "name": "",
          "type": "address"
        }
      ],
      "stateMutability": "view",
      "type": "function"
    },
    {
      "inputs": [
        {
          "internalType": "address",
          "name": "newOwner",
          "type": "address"
        }
      ],
      "name": "transferOwnership",
      "outputs": [],
      "stateMutability": "nonpayable",
      "type": "function"
    },
    {
      "inputs": [],
      "name": "treasureIslandDevPercent",
      "outputs": [
        {
          "internalType": "uint256",
          "name": "",
          "type": "uint256"
        }
      ],
      "stateMutability": "view",
      "type": "function"
    },
    {
      "inputs": [],
      "name": "treasureIslandRewardPercent",
      "outputs": [
        {
          "internalType": "uint256",
          "name": "",
          "type": "uint256"
        }
      ],
      "stateMutability": "view",
      "type": "function"
    },
    {
      "inputs": [
        {
          "internalType": "address",
          "name": "_address",
          "type": "address"
        }
      ],
      "name": "setFindTreasureIslandPoolAddress",
      "outputs": [],
      "stateMutability": "nonpayable",
      "type": "function"
    },
    {
      "inputs": [
        {
          "internalType": "address",
          "name": "_address",
          "type": "address"
        }
      ],
      "name": "setRewardPoolAddress",
      "outputs": [],
      "stateMutability": "nonpayable",
      "type": "function"
    },
    {
      "inputs": [
        {
          "internalType": "address",
          "name": "_address",
          "type": "address"
        }
      ],
      "name": "setDevPoolAddress",
      "outputs": [],
      "stateMutability": "nonpayable",
      "type": "function"
    },
    {
      "inputs": [
        {
          "internalType": "address",
          "name": "_contract",
          "type": "address"
        }
      ],
      "name": "setPKTContractAddress",
      "outputs": [],
      "stateMutability": "nonpayable",
      "type": "function"
    },
    {
      "inputs": [
        {
          "internalType": "address",
          "name": "_contract",
          "type": "address"
        }
      ],
      "name": "setChestContractAddress",
      "outputs": [],
      "stateMutability": "nonpayable",
      "type": "function"
    },
    {
      "inputs": [
        {
          "internalType": "uint256",
          "name": "percent",
          "type": "uint256"
        }
      ],
      "name": "setBuyChestRewardPercent",
      "outputs": [],
      "stateMutability": "nonpayable",
      "type": "function"
    },
    {
      "inputs": [
        {
          "internalType": "uint256",
          "name": "percent",
          "type": "uint256"
        }
      ],
      "name": "setTreasureIslandRewardPercent",
      "outputs": [],
      "stateMutability": "nonpayable",
      "type": "function"
    },
    {
      "inputs": [
        {
          "internalType": "uint256",
          "name": "percent",
          "type": "uint256"
        }
      ],
      "name": "setTreasureIslandDevPercent",
      "outputs": [],
      "stateMutability": "nonpayable",
      "type": "function"
    },
    {
      "inputs": [
        {
          "internalType": "uint256",
          "name": "_cost",
          "type": "uint256"
        }
      ],
      "name": "setBaseCost",
      "outputs": [],
      "stateMutability": "nonpayable",
      "type": "function"
    },
    {
      "inputs": [],
      "name": "getBaseCost",
      "outputs": [
        {
          "internalType": "uint256",
          "name": "",
          "type": "uint256"
        }
      ],
      "stateMutability": "view",
      "type": "function"
    },
    {
      "inputs": [
        {
          "internalType": "uint256",
          "name": "_cost",
          "type": "uint256"
        }
      ],
      "name": "setBaseCostChestVip",
      "outputs": [],
      "stateMutability": "nonpayable",
      "type": "function"
    },
    {
      "inputs": [],
      "name": "getBaseCostChestVip",
      "outputs": [
        {
          "internalType": "uint256",
          "name": "",
          "type": "uint256"
        }
      ],
      "stateMutability": "view",
      "type": "function"
    },
    {
      "inputs": [
        {
          "internalType": "uint256",
          "name": "_cost",
          "type": "uint256"
        }
      ],
      "name": "setBaseCostItemChest",
      "outputs": [],
      "stateMutability": "nonpayable",
      "type": "function"
    },
    {
      "inputs": [],
      "name": "getBaseCostItemChest",
      "outputs": [
        {
          "internalType": "uint256",
          "name": "",
          "type": "uint256"
        }
      ],
      "stateMutability": "view",
      "type": "function"
    },
    {
      "inputs": [
        {
          "internalType": "bool",
          "name": "_active",
          "type": "bool"
        }
      ],
      "name": "activateDeactivateContract",
      "outputs": [],
      "stateMutability": "nonpayable",
      "type": "function"
    },
    {
      "inputs": [
        {
          "internalType": "string",
          "name": "_islandName",
          "type": "string"
        },
        {
          "internalType": "uint256",
          "name": "_amount",
          "type": "uint256"
        },
        {
          "internalType": "string",
          "name": "_date",
          "type": "string"
        },
        {
          "internalType": "string",
          "name": "trans_id",
          "type": "string"
        }
      ],
      "name": "playerChooseIsland",
      "outputs": [],
      "stateMutability": "payable",
      "type": "function"
    },
    {
      "inputs": [
        {
          "internalType": "string",
          "name": "_idPirate",
          "type": "string"
        },
        {
          "internalType": "uint256",
          "name": "_amount",
          "type": "uint256"
        },
        {
          "internalType": "string",
          "name": "_idLevel",
          "type": "string"
        },
        {
          "internalType": "string",
          "name": "trans_id",
          "type": "string"
        }
      ],
      "name": "playerUpgradeLevel",
      "outputs": [],
      "stateMutability": "payable",
      "type": "function"
    },
    {
      "inputs": [
        {
          "internalType": "string",
          "name": "_idPirate",
          "type": "string"
        },
        {
          "internalType": "uint256",
          "name": "_amount",
          "type": "uint256"
        },
        {
          "internalType": "string",
          "name": "_idLevel",
          "type": "string"
        },
        {
          "internalType": "string",
          "name": "trans_id",
          "type": "string"
        }
      ],
      "name": "playerRefillEnergy",
      "outputs": [],
      "stateMutability": "payable",
      "type": "function"
    },
    {
      "inputs": [
        {
          "internalType": "string",
          "name": "_tokenURI",
          "type": "string"
        },
        {
          "internalType": "uint256",
          "name": "_price",
          "type": "uint256"
        },
        {
          "internalType": "string",
          "name": "_data",
          "type": "string"
        },
        {
          "internalType": "uint8",
          "name": "_cType",
          "type": "uint8"
        },
        {
          "internalType": "string",
          "name": "trans_id",
          "type": "string"
        }
      ],
      "name": "buyChest",
      "outputs": [
        {
          "internalType": "uint256",
          "name": "",
          "type": "uint256"
        }
      ],
      "stateMutability": "payable",
      "type": "function"
    },
    {
      "inputs": [
        {
          "internalType": "address",
          "name": "winner",
          "type": "address"
        },
        {
          "internalType": "string",
          "name": "_tokenURI",
          "type": "string"
        },
        {
          "internalType": "string",
          "name": "_data",
          "type": "string"
        },
        {
          "internalType": "uint8",
          "name": "_cType",
          "type": "uint8"
        }
      ],
      "name": "giveChestToContestWinner",
      "outputs": [
        {
          "internalType": "uint256",
          "name": "",
          "type": "uint256"
        }
      ],
      "stateMutability": "nonpayable",
      "type": "function"
    },
    {
      "inputs": [
        {
          "internalType": "string",
          "name": "trans_id",
          "type": "string"
        }
      ],
      "name": "transactionInfoOf",
      "outputs": [
        {
          "components": [
            {
              "internalType": "uint256",
              "name": "amount",
              "type": "uint256"
            },
            {
              "internalType": "uint256",
              "name": "timestamp",
              "type": "uint256"
            },
            {
              "internalType": "string",
              "name": "t_type",
              "type": "string"
            },
            {
              "internalType": "address",
              "name": "wallet",
              "type": "address"
            }
          ],
          "internalType": "struct PiratesKingGame.TransactionInfo",
          "name": "",
          "type": "tuple"
        }
      ],
      "stateMutability": "view",
      "type": "function"
    }
  ],
  "bytecode": "0x60806040526046600c556002600d556008600e553480156200002057600080fd5b50620000536200003e6200024d640100000000026401000000009004565b62000255640100000000026401000000009004565b736d5527d0c4494dd9d8a2fad80ff7872558ed9fdc600260006101000a81548173ffffffffffffffffffffffffffffffffffffffff021916908373ffffffffffffffffffffffffffffffffffffffff160217905550736d5527d0c4494dd9d8a2fad80ff7872558ed9fdc600360006101000a81548173ffffffffffffffffffffffffffffffffffffffff021916908373ffffffffffffffffffffffffffffffffffffffff160217905550739b5b98d20042c29293289fea8324ef1584e9c78e600460006101000a81548173ffffffffffffffffffffffffffffffffffffffff021916908373ffffffffffffffffffffffffffffffffffffffff160217905550734cbd8adcd7eca7d1b71adbbf484f1e8014681a9d600160006101000a81548173ffffffffffffffffffffffffffffffffffffffff021916908373ffffffffffffffffffffffffffffffffffffffff160217905550739b2f05e4c4ce1798450db0db99cec46e130d6c90600560006101000a81548173ffffffffffffffffffffffffffffffffffffffff021916908373ffffffffffffffffffffffffffffffffffffffff160217905550685150ae84a8cdf00000600681905550686c6b935b8bbd400000600781905550683635c9adc5dea000006008819055506001600960006101000a81548160ff02191690831515021790555062000319565b600033905090565b60008060009054906101000a900473ffffffffffffffffffffffffffffffffffffffff169050816000806101000a81548173ffffffffffffffffffffffffffffffffffffffff021916908373ffffffffffffffffffffffffffffffffffffffff1602179055508173ffffffffffffffffffffffffffffffffffffffff168173ffffffffffffffffffffffffffffffffffffffff167f8be0079c531659141344cd1fd0a4f28419497f9722a3daafe3b4186f6b6457e060405160405180910390a35050565b6140e680620003296000396000f3fe608060405260043610610216576000357c0100000000000000000000000000000000000000000000000000000000900480639b13a0aa1161012a578063e42d5956116100bd578063f2fde38b1161008c578063f2fde38b146106ef578063f564fb8114610718578063fa91ab4a14610734578063fc374a471461075f578063fd4cbcbb1461078a57610216565b8063e42d595614610630578063eabaa45d14610659578063eaed241514610696578063ef970cc5146106c657610216565b8063b5838a27116100f9578063b5838a2714610584578063ca1c9405146105af578063d59134ba146105da578063e17ba2131461060557610216565b80639b13a0aa146104c8578063aa2ecd7c14610507578063b13a1a0a14610532578063b24cf5d71461055b57610216565b8063345c8c9b116101ad578063715018a61161017c578063715018a6146104165780637841ee1e1461042d57806379ba5e381461045857806388935f53146104815780638da5cb5b1461049d57610216565b8063345c8c9b1461037057806340cc30381461039957806346cf65a1146103c257806366666aa9146103eb57610216565b80632b5dc91f116101e95780632b5dc91f146102c5578063306cd1e4146102ee5780633371989214610317578063339134291461035457610216565b806302fb0c5e1461021b57806315e04ca61461024657806321bbf14c1461027157806329dfed491461029a575b600080fd5b34801561022757600080fd5b506102306107b3565b60405161023d9190612ffe565b60405180910390f35b34801561025257600080fd5b5061025b6107c6565b6040516102689190613032565b60405180910390f35b34801561027d57600080fd5b506102986004803603810190610293919061308d565b6107cc565b005b3480156102a657600080fd5b506102af61089c565b6040516102bc91906130fb565b60405180910390f35b3480156102d157600080fd5b506102ec60048036038101906102e79190613142565b6108c2565b005b3480156102fa57600080fd5b50610315600480360381019061031091906131ad565b61098b565b005b34801561032357600080fd5b5061033e60048036038101906103399190613320565b610b12565b60405161034b9190613472565b60405180910390f35b61036e60048036038101906103699190613494565b610c46565b005b34801561037c57600080fd5b5061039760048036038101906103929190613142565b6111cf565b005b3480156103a557600080fd5b506103c060048036038101906103bb9190613142565b611298565b005b3480156103ce57600080fd5b506103e960048036038101906103e491906131ad565b611361565b005b3480156103f757600080fd5b506104006114e8565b60405161040d91906130fb565b60405180910390f35b34801561042257600080fd5b5061042b61150e565b005b34801561043957600080fd5b50610442611596565b60405161044f9190613032565b60405180910390f35b34801561046457600080fd5b5061047f600480360381019061047a9190613142565b61159c565b005b61049b60048036038101906104969190613494565b611630565b005b3480156104a957600080fd5b506104b26118e9565b6040516104bf919061355e565b60405180910390f35b3480156104d457600080fd5b506104ef60048036038101906104ea9190613579565b611912565b6040516104fe93929190613603565b60405180910390f35b34801561051357600080fd5b5061051c611a69565b6040516105299190613032565b60405180910390f35b34801561053e57600080fd5b50610559600480360381019061055491906131ad565b611aef565b005b34801561056757600080fd5b50610582600480360381019061057d91906131ad565b611c76565b005b34801561059057600080fd5b50610599611dfd565b6040516105a691906130fb565b60405180910390f35b3480156105bb57600080fd5b506105c4611e23565b6040516105d19190613032565b60405180910390f35b3480156105e657600080fd5b506105ef611ea9565b6040516105fc919061355e565b60405180910390f35b34801561061157600080fd5b5061061a611ecf565b6040516106279190613032565b60405180910390f35b34801561063c57600080fd5b50610657600480360381019061065291906131ad565b611f55565b005b34801561066557600080fd5b50610680600480360381019061067b9190613681565b6120dc565b60405161068d9190613032565b60405180910390f35b6106b060048036038101906106ab9190613720565b61227e565b6040516106bd9190613032565b60405180910390f35b3480156106d257600080fd5b506106ed60048036038101906106e89190613142565b6128f0565b005b3480156106fb57600080fd5b50610716600480360381019061071191906131ad565b612984565b005b610732600480360381019061072d9190613494565b612a7b565b005b34801561074057600080fd5b50610749612d34565b604051610756919061355e565b60405180910390f35b34801561076b57600080fd5b50610774612d5a565b6040516107819190613032565b60405180910390f35b34801561079657600080fd5b506107b160048036038101906107ac9190613142565b612d60565b005b600960009054906101000a900460ff1681565b600e5481565b6107d4612df4565b73ffffffffffffffffffffffffffffffffffffffff166107f26118e9565b73ffffffffffffffffffffffffffffffffffffffff1614610848576040517f08c379a000000000000000000000000000000000000000000000000000000000815260040161083f9061383b565b60405180910390fd5b80600960006101000a81548160ff0219169083151502179055507f09712b3452a5348a0328397d58ce3c6cdc382ad233b3c04924a1f5683fa92574816040516108919190612ffe565b60405180910390a150565b600260009054906101000a900473ffffffffffffffffffffffffffffffffffffffff1681565b6108ca612df4565b73ffffffffffffffffffffffffffffffffffffffff166108e86118e9565b73ffffffffffffffffffffffffffffffffffffffff161461093e576040517f08c379a00000000000000000000000000000000000000000000000000000000081526004016109359061383b565b60405180910390fd5b60008111610981576040517f08c379a0000000000000000000000000000000000000000000000000000000008152600401610978906138a7565b60405180910390fd5b8060068190555050565b610993612df4565b73ffffffffffffffffffffffffffffffffffffffff166109b16118e9565b73ffffffffffffffffffffffffffffffffffffffff1614610a07576040517f08c379a00000000000000000000000000000000000000000000000000000000081526004016109fe9061383b565b60405180910390fd5b8073ffffffffffffffffffffffffffffffffffffffff16600460009054906101000a900473ffffffffffffffffffffffffffffffffffffffff1673ffffffffffffffffffffffffffffffffffffffff1603610a97576040517f08c379a0000000000000000000000000000000000000000000000000000000008152600401610a8e90613913565b60405180910390fd5b80600460006101000a81548173ffffffffffffffffffffffffffffffffffffffff021916908373ffffffffffffffffffffffffffffffffffffffff1602179055507fc02dd078a5d63c2645d0da4b3173f425d353dafebbb14064059edbd4244a31bf81604051610b079190613959565b60405180910390a150565b610b1a612f02565b600b82604051610b2a91906139bc565b90815260200160405180910390206040518060800160405290816000820154815260200160018201548152602001600282018054610b6790613a02565b80601f0160208091040260200160405190810160405280929190818152602001828054610b9390613a02565b8015610be05780601f10610bb557610100808354040283529160200191610be0565b820191906000526020600020905b815481529060010190602001808311610bc357829003601f168201915b505050505081526020016003820160009054906101000a900473ffffffffffffffffffffffffffffffffffffffff1673ffffffffffffffffffffffffffffffffffffffff1673ffffffffffffffffffffffffffffffffffffffff16815250509050919050565b6000610c706064610c6286600e54612dfc90919063ffffffff16565b612e1290919063ffffffff16565b90506000610c9c6064610c8e87600d54612dfc90919063ffffffff16565b612e1290919063ffffffff16565b90506000610cc582610cb78589612e2890919063ffffffff16565b612e2890919063ffffffff16565b9050600160009054906101000a900473ffffffffffffffffffffffffffffffffffffffff1673ffffffffffffffffffffffffffffffffffffffff166323b872dd610d0d612df4565b600360009054906101000a900473ffffffffffffffffffffffffffffffffffffffff16856040518463ffffffff167c0100000000000000000000000000000000000000000000000000000000028152600401610d6b93929190613a92565b6020604051808303816000875af1158015610d8a573d6000803e3d6000fd5b505050506040513d601f19601f82011682018060405250810190610dae9190613ade565b610ded576040517f08c379a0000000000000000000000000000000000000000000000000000000008152600401610de490613b57565b60405180910390fd5b600160009054906101000a900473ffffffffffffffffffffffffffffffffffffffff1673ffffffffffffffffffffffffffffffffffffffff166323b872dd610e33612df4565b600460009054906101000a900473ffffffffffffffffffffffffffffffffffffffff16866040518463ffffffff167c0100000000000000000000000000000000000000000000000000000000028152600401610e9193929190613a92565b6020604051808303816000875af1158015610eb0573d6000803e3d6000fd5b505050506040513d601f19601f82011682018060405250810190610ed49190613ade565b610f13576040517f08c379a0000000000000000000000000000000000000000000000000000000008152600401610f0a90613b57565b60405180910390fd5b600160009054906101000a900473ffffffffffffffffffffffffffffffffffffffff1673ffffffffffffffffffffffffffffffffffffffff166323b872dd610f59612df4565b600260009054906101000a900473ffffffffffffffffffffffffffffffffffffffff16846040518463ffffffff167c0100000000000000000000000000000000000000000000000000000000028152600401610fb793929190613a92565b6020604051808303816000875af1158015610fd6573d6000803e3d6000fd5b505050506040513d601f19601f82011682018060405250810190610ffa9190613ade565b611039576040517f08c379a000000000000000000000000000000000000000000000000000000000815260040161103090613b57565b60405180910390fd5b611041612f02565b86816000018181525050428160200181815250506040518060400160405280600f81526020017f54726561737572655f49736c616e640000000000000000000000000000000000815250816040018190525061109b612df4565b816060019073ffffffffffffffffffffffffffffffffffffffff16908173ffffffffffffffffffffffffffffffffffffffff168152505080600b866040516110e391906139bc565b908152602001604051809103902060008201518160000155602082015181600101556040820151816002019080519060200190611121929190612f40565b5060608201518160030160006101000a81548173ffffffffffffffffffffffffffffffffffffffff021916908373ffffffffffffffffffffffffffffffffffffffff160217905550905050611174612df4565b73ffffffffffffffffffffffffffffffffffffffff167f767e67814a1c7640a36e59e1c0d4c049b6332c9141a4e2aeb32372247c56fcfd8989896040516111bd93929190613b77565b60405180910390a25050505050505050565b6111d7612df4565b73ffffffffffffffffffffffffffffffffffffffff166111f56118e9565b73ffffffffffffffffffffffffffffffffffffffff161461124b576040517f08c379a00000000000000000000000000000000000000000000000000000000081526004016112429061383b565b60405180910390fd5b6000811161128e576040517f08c379a0000000000000000000000000000000000000000000000000000000008152600401611285906138a7565b60405180910390fd5b8060088190555050565b6112a0612df4565b73ffffffffffffffffffffffffffffffffffffffff166112be6118e9565b73ffffffffffffffffffffffffffffffffffffffff1614611314576040517f08c379a000000000000000000000000000000000000000000000000000000000815260040161130b9061383b565b60405180910390fd5b60008111611357576040517f08c379a000000000000000000000000000000000000000000000000000000000815260040161134e906138a7565b60405180910390fd5b8060078190555050565b611369612df4565b73ffffffffffffffffffffffffffffffffffffffff166113876118e9565b73ffffffffffffffffffffffffffffffffffffffff16146113dd576040517f08c379a00000000000000000000000000000000000000000000000000000000081526004016113d49061383b565b60405180910390fd5b8073ffffffffffffffffffffffffffffffffffffffff16600560009054906101000a900473ffffffffffffffffffffffffffffffffffffffff1673ffffffffffffffffffffffffffffffffffffffff160361146d576040517f08c379a000000000000000000000000000000000000000000000000000000000815260040161146490613c08565b60405180910390fd5b80600560006101000a81548173ffffffffffffffffffffffffffffffffffffffff021916908373ffffffffffffffffffffffffffffffffffffffff1602179055507fc02dd078a5d63c2645d0da4b3173f425d353dafebbb14064059edbd4244a31bf816040516114dd9190613c4e565b60405180910390a150565b600360009054906101000a900473ffffffffffffffffffffffffffffffffffffffff1681565b611516612df4565b73ffffffffffffffffffffffffffffffffffffffff166115346118e9565b73ffffffffffffffffffffffffffffffffffffffff161461158a576040517f08c379a00000000000000000000000000000000000000000000000000000000081526004016115819061383b565b60405180910390fd5b6115946000612e3e565b565b600d5481565b6115a4612df4565b73ffffffffffffffffffffffffffffffffffffffff166115c26118e9565b73ffffffffffffffffffffffffffffffffffffffff1614611618576040517f08c379a000000000000000000000000000000000000000000000000000000000815260040161160f9061383b565b60405180910390fd5b80600d540361162657600080fd5b80600d8190555050565b600160009054906101000a900473ffffffffffffffffffffffffffffffffffffffff1673ffffffffffffffffffffffffffffffffffffffff166323b872dd611676612df4565b600460009054906101000a900473ffffffffffffffffffffffffffffffffffffffff16866040518463ffffffff167c01000000000000000000000000000000000000000000000000000000000281526004016116d493929190613a92565b6020604051808303816000875af11580156116f3573d6000803e3d6000fd5b505050506040513d601f19601f820116820180604052508101906117179190613ade565b611756576040517f08c379a000000000000000000000000000000000000000000000000000000000815260040161174d90613b57565b60405180910390fd5b61175e612f02565b83816000018181525050428160200181815250506040518060400160405280600d81526020017f557067726164655f4c6576656c0000000000000000000000000000000000000081525081604001819052506117b8612df4565b816060019073ffffffffffffffffffffffffffffffffffffffff16908173ffffffffffffffffffffffffffffffffffffffff168152505080600b8360405161180091906139bc565b90815260200160405180910390206000820151816000015560208201518160010155604082015181600201908051906020019061183e929190612f40565b5060608201518160030160006101000a81548173ffffffffffffffffffffffffffffffffffffffff021916908373ffffffffffffffffffffffffffffffffffffffff160217905550905050611891612df4565b73ffffffffffffffffffffffffffffffffffffffff167fb6aae7d237831a0dbd1ca5c639a1df94f7c741cdeb54f6f91d2841a995f1552f8486886040516118da93929190613b77565b60405180910390a25050505050565b60008060009054906101000a900473ffffffffffffffffffffffffffffffffffffffff16905090565b600a602052816000526040600020818154811061192e57600080fd5b90600052602060002090600302016000915091505080600001805461195290613a02565b80601f016020809104026020016040519081016040528092919081815260200182805461197e90613a02565b80156119cb5780601f106119a0576101008083540402835291602001916119cb565b820191906000526020600020905b8154815290600101906020018083116119ae57829003601f168201915b5050505050908060010180546119e090613a02565b80601f0160208091040260200160405190810160405280929190818152602001828054611a0c90613a02565b8015611a595780601f10611a2e57610100808354040283529160200191611a59565b820191906000526020600020905b815481529060010190602001808311611a3c57829003601f168201915b5050505050908060020154905083565b6000611a73612df4565b73ffffffffffffffffffffffffffffffffffffffff16611a916118e9565b73ffffffffffffffffffffffffffffffffffffffff1614611ae7576040517f08c379a0000000000000000000000000000000000000000000000000000000008152600401611ade9061383b565b60405180910390fd5b600754905090565b611af7612df4565b73ffffffffffffffffffffffffffffffffffffffff16611b156118e9565b73ffffffffffffffffffffffffffffffffffffffff1614611b6b576040517f08c379a0000000000000000000000000000000000000000000000000000000008152600401611b629061383b565b60405180910390fd5b8073ffffffffffffffffffffffffffffffffffffffff16600160009054906101000a900473ffffffffffffffffffffffffffffffffffffffff1673ffffffffffffffffffffffffffffffffffffffff1603611bfb576040517f08c379a0000000000000000000000000000000000000000000000000000000008152600401611bf290613c08565b60405180910390fd5b80600160006101000a81548173ffffffffffffffffffffffffffffffffffffffff021916908373ffffffffffffffffffffffffffffffffffffffff1602179055507fc02dd078a5d63c2645d0da4b3173f425d353dafebbb14064059edbd4244a31bf81604051611c6b9190613c9b565b60405180910390a150565b611c7e612df4565b73ffffffffffffffffffffffffffffffffffffffff16611c9c6118e9565b73ffffffffffffffffffffffffffffffffffffffff1614611cf2576040517f08c379a0000000000000000000000000000000000000000000000000000000008152600401611ce99061383b565b60405180910390fd5b8073ffffffffffffffffffffffffffffffffffffffff16600360009054906101000a900473ffffffffffffffffffffffffffffffffffffffff1673ffffffffffffffffffffffffffffffffffffffff1603611d82576040517f08c379a0000000000000000000000000000000000000000000000000000000008152600401611d7990613913565b60405180910390fd5b80600360006101000a81548173ffffffffffffffffffffffffffffffffffffffff021916908373ffffffffffffffffffffffffffffffffffffffff1602179055507fc02dd078a5d63c2645d0da4b3173f425d353dafebbb14064059edbd4244a31bf81604051611df29190613ce8565b60405180910390a150565b600460009054906101000a900473ffffffffffffffffffffffffffffffffffffffff1681565b6000611e2d612df4565b73ffffffffffffffffffffffffffffffffffffffff16611e4b6118e9565b73ffffffffffffffffffffffffffffffffffffffff1614611ea1576040517f08c379a0000000000000000000000000000000000000000000000000000000008152600401611e989061383b565b60405180910390fd5b600854905090565b600160009054906101000a900473ffffffffffffffffffffffffffffffffffffffff1681565b6000611ed9612df4565b73ffffffffffffffffffffffffffffffffffffffff16611ef76118e9565b73ffffffffffffffffffffffffffffffffffffffff1614611f4d576040517f08c379a0000000000000000000000000000000000000000000000000000000008152600401611f449061383b565b60405180910390fd5b600654905090565b611f5d612df4565b73ffffffffffffffffffffffffffffffffffffffff16611f7b6118e9565b73ffffffffffffffffffffffffffffffffffffffff1614611fd1576040517f08c379a0000000000000000000000000000000000000000000000000000000008152600401611fc89061383b565b60405180910390fd5b8073ffffffffffffffffffffffffffffffffffffffff16600260009054906101000a900473ffffffffffffffffffffffffffffffffffffffff1673ffffffffffffffffffffffffffffffffffffffff1603612061576040517f08c379a000000000000000000000000000000000000000000000000000000000815260040161205890613913565b60405180910390fd5b80600260006101000a81548173ffffffffffffffffffffffffffffffffffffffff021916908373ffffffffffffffffffffffffffffffffffffffff1602179055507fc02dd078a5d63c2645d0da4b3173f425d353dafebbb14064059edbd4244a31bf816040516120d19190613d35565b60405180910390a150565b60006120e6612df4565b73ffffffffffffffffffffffffffffffffffffffff166121046118e9565b73ffffffffffffffffffffffffffffffffffffffff161461215a576040517f08c379a00000000000000000000000000000000000000000000000000000000081526004016121519061383b565b60405180910390fd5b6000600560009054906101000a900473ffffffffffffffffffffffffffffffffffffffff16905060008173ffffffffffffffffffffffffffffffffffffffff166362451958888888886040518563ffffffff167c01000000000000000000000000000000000000000000000000000000000281526004016121de9493929190613d6b565b6020604051808303816000875af11580156121fd573d6000803e3d6000fd5b505050506040513d601f19601f820116820180604052508101906122219190613dd3565b90508673ffffffffffffffffffffffffffffffffffffffff167f46238052cfa7c5df910b62a49d8a17f3961cb3458a74bcda9b34f727f5c83654826040516122699190613032565b60405180910390a28092505050949350505050565b600060018360ff16036122d5576006548510156122d0576040517f08c379a00000000000000000000000000000000000000000000000000000000081526004016122c790613e4c565b60405180910390fd5b61237d565b60028360ff160361232a57600754851015612325576040517f08c379a000000000000000000000000000000000000000000000000000000000815260040161231c90613e4c565b60405180910390fd5b61237c565b60038360ff160361237b5760085485101561237a576040517f08c379a000000000000000000000000000000000000000000000000000000000815260040161237190613e4c565b60405180910390fd5b5b5b5b60006123a7606461239988600c54612dfc90919063ffffffff16565b612e1290919063ffffffff16565b905060006123be8288612e2890919063ffffffff16565b9050600160009054906101000a900473ffffffffffffffffffffffffffffffffffffffff1673ffffffffffffffffffffffffffffffffffffffff166323b872dd612406612df4565b600360009054906101000a900473ffffffffffffffffffffffffffffffffffffffff16856040518463ffffffff167c010000000000000000000000000000000000000000000000000000000002815260040161246493929190613a92565b6020604051808303816000875af1158015612483573d6000803e3d6000fd5b505050506040513d601f19601f820116820180604052508101906124a79190613ade565b80156125965750600160009054906101000a900473ffffffffffffffffffffffffffffffffffffffff1673ffffffffffffffffffffffffffffffffffffffff166323b872dd6124f4612df4565b600460009054906101000a900473ffffffffffffffffffffffffffffffffffffffff16846040518463ffffffff167c010000000000000000000000000000000000000000000000000000000002815260040161255293929190613a92565b6020604051808303816000875af1158015612571573d6000803e3d6000fd5b505050506040513d601f19601f820116820180604052508101906125959190613ade565b5b156128ac576000600560009054906101000a900473ffffffffffffffffffffffffffffffffffffffff16905060008173ffffffffffffffffffffffffffffffffffffffff1663624519586125e8612df4565b8c8b8b6040518563ffffffff167c01000000000000000000000000000000000000000000000000000000000281526004016126269493929190613d6b565b6020604051808303816000875af1158015612645573d6000803e3d6000fd5b505050506040513d601f19601f820116820180604052508101906126699190613dd3565b9050612673612f02565b898160000181815250504281602001818152505060018860ff16036126d5576040518060400160405280600981526020017f4275795f43686573740000000000000000000000000000000000000000000000815250816040018190525061276f565b60028860ff1603612723576040518060400160405280600d81526020017f4275795f43686573745f56697000000000000000000000000000000000000000815250816040018190525061276e565b60038860ff160361276d576040518060400160405280600e81526020017f4275795f43686573745f4974656d00000000000000000000000000000000000081525081604001819052505b5b5b612777612df4565b816060019073ffffffffffffffffffffffffffffffffffffffff16908173ffffffffffffffffffffffffffffffffffffffff168152505080600b886040516127bf91906139bc565b9081526020016040518091039020600082015181600001556020820151816001015560408201518160020190805190602001906127fd929190612f40565b5060608201518160030160006101000a81548173ffffffffffffffffffffffffffffffffffffffff021916908373ffffffffffffffffffffffffffffffffffffffff160217905550905050612850612df4565b73ffffffffffffffffffffffffffffffffffffffff167f0b7aedbaa76a97b080a284478fb554a90303ca2cc9b4497817eeb28f6d1e4538838c604051612897929190613e6c565b60405180910390a281955050505050506128e7565b6040517f08c379a00000000000000000000000000000000000000000000000000000000081526004016128de90613ee1565b60405180910390fd5b95945050505050565b6128f8612df4565b73ffffffffffffffffffffffffffffffffffffffff166129166118e9565b73ffffffffffffffffffffffffffffffffffffffff161461296c576040517f08c379a00000000000000000000000000000000000000000000000000000000081526004016129639061383b565b60405180910390fd5b80600c540361297a57600080fd5b80600c8190555050565b61298c612df4565b73ffffffffffffffffffffffffffffffffffffffff166129aa6118e9565b73ffffffffffffffffffffffffffffffffffffffff1614612a00576040517f08c379a00000000000000000000000000000000000000000000000000000000081526004016129f79061383b565b60405180910390fd5b600073ffffffffffffffffffffffffffffffffffffffff168173ffffffffffffffffffffffffffffffffffffffff1603612a6f576040517f08c379a0000000000000000000000000000000000000000000000000000000008152600401612a6690613f73565b60405180910390fd5b612a7881612e3e565b50565b600160009054906101000a900473ffffffffffffffffffffffffffffffffffffffff1673ffffffffffffffffffffffffffffffffffffffff166323b872dd612ac1612df4565b600460009054906101000a900473ffffffffffffffffffffffffffffffffffffffff16866040518463ffffffff167c0100000000000000000000000000000000000000000000000000000000028152600401612b1f93929190613a92565b6020604051808303816000875af1158015612b3e573d6000803e3d6000fd5b505050506040513d601f19601f82011682018060405250810190612b629190613ade565b612ba1576040517f08c379a0000000000000000000000000000000000000000000000000000000008152600401612b9890613b57565b60405180910390fd5b612ba9612f02565b83816000018181525050428160200181815250506040518060400160405280600d81526020017f526566696c6c5f456e65726779000000000000000000000000000000000000008152508160400181905250612c03612df4565b816060019073ffffffffffffffffffffffffffffffffffffffff16908173ffffffffffffffffffffffffffffffffffffffff168152505080600b83604051612c4b91906139bc565b908152602001604051809103902060008201518160000155602082015181600101556040820151816002019080519060200190612c89929190612f40565b5060608201518160030160006101000a81548173ffffffffffffffffffffffffffffffffffffffff021916908373ffffffffffffffffffffffffffffffffffffffff160217905550905050612cdc612df4565b73ffffffffffffffffffffffffffffffffffffffff167fb6aae7d237831a0dbd1ca5c639a1df94f7c741cdeb54f6f91d2841a995f1552f848688604051612d2593929190613b77565b60405180910390a25050505050565b600560009054906101000a900473ffffffffffffffffffffffffffffffffffffffff1681565b600c5481565b612d68612df4565b73ffffffffffffffffffffffffffffffffffffffff16612d866118e9565b73ffffffffffffffffffffffffffffffffffffffff1614612ddc576040517f08c379a0000000000000000000000000000000000000000000000000000000008152600401612dd39061383b565b60405180910390fd5b80600e5403612dea57600080fd5b80600e8190555050565b600033905090565b60008183612e0a9190613fc2565b905092915050565b60008183612e20919061404b565b905092915050565b60008183612e36919061407c565b905092915050565b60008060009054906101000a900473ffffffffffffffffffffffffffffffffffffffff169050816000806101000a81548173ffffffffffffffffffffffffffffffffffffffff021916908373ffffffffffffffffffffffffffffffffffffffff1602179055508173ffffffffffffffffffffffffffffffffffffffff168173ffffffffffffffffffffffffffffffffffffffff167f8be0079c531659141344cd1fd0a4f28419497f9722a3daafe3b4186f6b6457e060405160405180910390a35050565b6040518060800160405280600081526020016000815260200160608152602001600073ffffffffffffffffffffffffffffffffffffffff1681525090565b828054612f4c90613a02565b90600052602060002090601f016020900481019282612f6e5760008555612fb5565b82601f10612f8757805160ff1916838001178555612fb5565b82800160010185558215612fb5579182015b82811115612fb4578251825591602001919060010190612f99565b5b509050612fc29190612fc6565b5090565b5b80821115612fdf576000816000905550600101612fc7565b5090565b60008115159050919050565b612ff881612fe3565b82525050565b60006020820190506130136000830184612fef565b92915050565b6000819050919050565b61302c81613019565b82525050565b60006020820190506130476000830184613023565b92915050565b6000604051905090565b600080fd5b600080fd5b61306a81612fe3565b811461307557600080fd5b50565b60008135905061308781613061565b92915050565b6000602082840312156130a3576130a2613057565b5b60006130b184828501613078565b91505092915050565b600073ffffffffffffffffffffffffffffffffffffffff82169050919050565b60006130e5826130ba565b9050919050565b6130f5816130da565b82525050565b600060208201905061311060008301846130ec565b92915050565b61311f81613019565b811461312a57600080fd5b50565b60008135905061313c81613116565b92915050565b60006020828403121561315857613157613057565b5b60006131668482850161312d565b91505092915050565b600061317a826130ba565b9050919050565b61318a8161316f565b811461319557600080fd5b50565b6000813590506131a781613181565b92915050565b6000602082840312156131c3576131c2613057565b5b60006131d184828501613198565b91505092915050565b600080fd5b600080fd5b6000601f19601f8301169050919050565b7f4e487b7100000000000000000000000000000000000000000000000000000000600052604160045260246000fd5b61322d826131e4565b810181811067ffffffffffffffff8211171561324c5761324b6131f5565b5b80604052505050565b600061325f61304d565b905061326b8282613224565b919050565b600067ffffffffffffffff82111561328b5761328a6131f5565b5b613294826131e4565b9050602081019050919050565b82818337600083830152505050565b60006132c36132be84613270565b613255565b9050828152602081018484840111156132df576132de6131df565b5b6132ea8482856132a1565b509392505050565b600082601f830112613307576133066131da565b5b81356133178482602086016132b0565b91505092915050565b60006020828403121561333657613335613057565b5b600082013567ffffffffffffffff8111156133545761335361305c565b5b613360848285016132f2565b91505092915050565b61337281613019565b82525050565b600081519050919050565b600082825260208201905092915050565b60005b838110156133b2578082015181840152602081019050613397565b838111156133c1576000848401525b50505050565b60006133d282613378565b6133dc8185613383565b93506133ec818560208601613394565b6133f5816131e4565b840191505092915050565b6134098161316f565b82525050565b60006080830160008301516134276000860182613369565b50602083015161343a6020860182613369565b506040830151848203604086015261345282826133c7565b91505060608301516134676060860182613400565b508091505092915050565b6000602082019050818103600083015261348c818461340f565b905092915050565b600080600080608085870312156134ae576134ad613057565b5b600085013567ffffffffffffffff8111156134cc576134cb61305c565b5b6134d8878288016132f2565b94505060206134e98782880161312d565b935050604085013567ffffffffffffffff81111561350a5761350961305c565b5b613516878288016132f2565b925050606085013567ffffffffffffffff8111156135375761353661305c565b5b613543878288016132f2565b91505092959194509250565b6135588161316f565b82525050565b6000602082019050613573600083018461354f565b92915050565b600080604083850312156135905761358f613057565b5b600061359e85828601613198565b92505060206135af8582860161312d565b9150509250929050565b600082825260208201905092915050565b60006135d582613378565b6135df81856135b9565b93506135ef818560208601613394565b6135f8816131e4565b840191505092915050565b6000606082019050818103600083015261361d81866135ca565b9050818103602083015261363181856135ca565b90506136406040830184613023565b949350505050565b600060ff82169050919050565b61365e81613648565b811461366957600080fd5b50565b60008135905061367b81613655565b92915050565b6000806000806080858703121561369b5761369a613057565b5b60006136a987828801613198565b945050602085013567ffffffffffffffff8111156136ca576136c961305c565b5b6136d6878288016132f2565b935050604085013567ffffffffffffffff8111156136f7576136f661305c565b5b613703878288016132f2565b92505060606137148782880161366c565b91505092959194509250565b600080600080600060a0868803121561373c5761373b613057565b5b600086013567ffffffffffffffff81111561375a5761375961305c565b5b613766888289016132f2565b95505060206137778882890161312d565b945050604086013567ffffffffffffffff8111156137985761379761305c565b5b6137a4888289016132f2565b93505060606137b58882890161366c565b925050608086013567ffffffffffffffff8111156137d6576137d561305c565b5b6137e2888289016132f2565b9150509295509295909350565b7f4f776e61626c653a2063616c6c6572206973206e6f7420746865206f776e6572600082015250565b60006138256020836135b9565b9150613830826137ef565b602082019050919050565b6000602082019050818103600083015261385481613818565b9050919050565b7f636f7374206d757374206265203e203000000000000000000000000000000000600082015250565b60006138916010836135b9565b915061389c8261385b565b602082019050919050565b600060208201905081810360008301526138c081613884565b9050919050565b7f5468697320616464726573732077617320616c72656164792075736564000000600082015250565b60006138fd601d836135b9565b9150613908826138c7565b602082019050919050565b6000602082019050818103600083015261392c816138f0565b9050919050565b7f646576506f6f6c00000000000000000000000000000000000000000000000000815250565b600060408201905061396e600083018461354f565b61397a60208301613933565b92915050565b600081905092915050565b600061399682613378565b6139a08185613980565b93506139b0818560208601613394565b80840191505092915050565b60006139c8828461398b565b915081905092915050565b7f4e487b7100000000000000000000000000000000000000000000000000000000600052602260045260246000fd5b60006002820490506001821680613a1a57607f821691505b602082108103613a2d57613a2c6139d3565b5b50919050565b6000819050919050565b6000613a58613a53613a4e846130ba565b613a33565b6130ba565b9050919050565b6000613a6a82613a3d565b9050919050565b6000613a7c82613a5f565b9050919050565b613a8c81613a71565b82525050565b6000606082019050613aa7600083018661354f565b613ab46020830185613a83565b613ac16040830184613023565b949350505050565b600081519050613ad881613061565b92915050565b600060208284031215613af457613af3613057565b5b6000613b0284828501613ac9565b91505092915050565b7f4465706f736974206661696c6564000000000000000000000000000000000000600082015250565b6000613b41600e836135b9565b9150613b4c82613b0b565b602082019050919050565b60006020820190508181036000830152613b7081613b34565b9050919050565b60006060820190508181036000830152613b9181866135ca565b9050613ba06020830185613023565b8181036040830152613bb281846135ca565b9050949350505050565b7f5468697320636f6e74726163742077617320616c726561647920757365640000600082015250565b6000613bf2601e836135b9565b9150613bfd82613bbc565b602082019050919050565b60006020820190508181036000830152613c2181613be5565b9050919050565b7f6368657374000000000000000000000000000000000000000000000000000000815250565b6000604082019050613c63600083018461354f565b613c6f60208301613c28565b92915050565b7f706b740000000000000000000000000000000000000000000000000000000000815250565b6000604082019050613cb0600083018461354f565b613cbc60208301613c75565b92915050565b7f726577617264506f6f6c00000000000000000000000000000000000000000000815250565b6000604082019050613cfd600083018461354f565b613d0960208301613cc2565b92915050565b7f66696e64547265617375726549736c616e640000000000000000000000000000815250565b6000604082019050613d4a600083018461354f565b613d5660208301613d0f565b92915050565b613d6581613648565b82525050565b6000608082019050613d80600083018761354f565b8181036020830152613d9281866135ca565b90508181036040830152613da681856135ca565b9050613db56060830184613d5c565b95945050505050565b600081519050613dcd81613116565b92915050565b600060208284031215613de957613de8613057565b5b6000613df784828501613dbe565b91505092915050565b7f5f7072696365206d757374206265203e2062617365436f737400000000000000600082015250565b6000613e366019836135b9565b9150613e4182613e00565b602082019050919050565b60006020820190508181036000830152613e6581613e29565b9050919050565b6000604082019050613e816000830185613023565b613e8e6020830184613023565b9392505050565b7f4572726f72207472616e7366657272696e6720746f6b656e7300000000000000600082015250565b6000613ecb6019836135b9565b9150613ed682613e95565b602082019050919050565b60006020820190508181036000830152613efa81613ebe565b9050919050565b7f4f776e61626c653a206e6577206f776e657220697320746865207a65726f206160008201527f6464726573730000000000000000000000000000000000000000000000000000602082015250565b6000613f5d6026836135b9565b9150613f6882613f01565b604082019050919050565b60006020820190508181036000830152613f8c81613f50565b9050919050565b7f4e487b7100000000000000000000000000000000000000000000000000000000600052601160045260246000fd5b6000613fcd82613019565b9150613fd883613019565b9250817fffffffffffffffffffffffffffffffffffffffffffffffffffffffffffffffff048311821515161561401157614010613f93565b5b828202905092915050565b7f4e487b7100000000000000000000000000000000000000000000000000000000600052601260045260246000fd5b600061405682613019565b915061406183613019565b9250826140715761407061401c565b5b828204905092915050565b600061408782613019565b915061409283613019565b9250828210156140a5576140a4613f93565b5b82820390509291505056fea2646970667358221220292439d02d4e4abaea0525352a30b1e17623968f6637b858c766d315730d367764736f6c634300080d0033",
  "immutableReferences": {},
  "source": "// SPDX-License-Identifier: MIT\npragma solidity ^0.8.0;\npragma abicoder v2;\n\nimport \"@openzeppelin/contracts/utils/Context.sol\";\nimport '@openzeppelin/contracts/utils/math/SafeMath.sol';\nimport \"@openzeppelin/contracts/access/Ownable.sol\";\nimport './IBEP20.sol';\nimport \"./IPiratesKingChest.sol\";\n\n\ncontract PiratesKingGame is Context, Ownable, IPiratesKingBase\n{\n\n    struct IsLandChoseStruct {\n        string  date;\n        string  isLandName;\n        uint256 amount;\n    }\n\n\n    struct TransactionInfo {\n        uint256 amount;\n        uint256 timestamp;\n        string t_type;\n        address wallet;\n    }\n\n    using SafeMath for uint256;\n    address public pktContract;\n    address payable public findTreasureIslandPool;\n    address payable public rewardPool;\n    address payable public devPool;\n    address public chestContract;\n    uint256 private baseCost;\n    uint256 private baseCostChestVip;\n    uint256 private baseCostItemChest;\n\n    // Contract status\n    bool public active;\n    mapping (address => IsLandChoseStruct[]) public islandsChose;\n    mapping (string => TransactionInfo) private _transInfo;\n\n    uint256 public buyChestRewardPercent = 70;\n    uint256 public treasureIslandRewardPercent = 2;\n    uint256 public treasureIslandDevPercent = 8;\n\n    /*\n    *\t@dev Check if contract is active\n\t*/\n    modifier isContractActive {\n        require( active, \"Contract is inactive\" );\n        _;\n    }\n\n\n    /*\n    * @dev Log contract status update\n  */\n    event ContractStatusUpdate(bool newStatus);\n    event LibContractAddressUpdate(address newAddress, bytes32 contractName);\n    event NewIsLandChose(address indexed player, string name, uint256 amount, string date);\n    event NewLevelUpgrade(address indexed player, string id_level, uint256 amount, string id_pirate);\n    event NewChestPurchased(address indexed player, uint256 chest_id, uint256 amount);\n    event GiveChestToContestWinner(address indexed player, uint256 chest_id);\n\n    /*\n    * @dev Set default admin role to owner\n  */\n\n    constructor(\n    ) {\n        findTreasureIslandPool = payable(0x6D5527D0c4494Dd9D8a2Fad80FF7872558eD9FdC);\n        rewardPool = payable(0x6D5527D0c4494Dd9D8a2Fad80FF7872558eD9FdC);\n        devPool = payable(0x9B5b98D20042c29293289Fea8324ef1584e9c78E);\n        pktContract = payable(0x4cbd8ADCD7eCa7D1B71ADbBF484F1e8014681a9D);\n        chestContract = payable(0x9B2f05e4c4cE1798450DB0Db99cec46E130d6c90);\n        baseCost = 1500*10**18;\n        baseCostChestVip = 2000*10**18;\n        baseCostItemChest = 1000*10**18;\n        active = true;\n    }\n\n    /*\n    *  @Update weapon contract address\n  */\n    function setFindTreasureIslandPoolAddress(address _address)\n    external\n    onlyOwner\n    {\n        require(findTreasureIslandPool != _address, 'This address was already used');\n        findTreasureIslandPool = payable(_address);\n        emit LibContractAddressUpdate(_address, 'findTreasureIsland');\n    }\n\n    function setRewardPoolAddress(address _address)\n    external\n    onlyOwner\n    {\n        require(rewardPool != _address, 'This address was already used');\n        rewardPool = payable(_address);\n        emit LibContractAddressUpdate(_address, 'rewardPool');\n    }\n\n    function setDevPoolAddress(address _address)\n    external\n    onlyOwner\n    {\n        require(devPool != _address, 'This address was already used');\n        devPool = payable(_address);\n        emit LibContractAddressUpdate(_address, 'devPool');\n    }\n\n    /*\n    *  @Update token contract address\n  */\n    function setPKTContractAddress(address _contract)\n    external\n    onlyOwner\n    {\n        require(pktContract != _contract, 'This contract was already used');\n        pktContract = _contract;\n        emit LibContractAddressUpdate(_contract, 'pkt');\n    }\n\n    function setChestContractAddress(address _contract)\n    external\n    onlyOwner\n    {\n        require(chestContract != _contract, 'This contract was already used');\n        chestContract = _contract;\n        emit LibContractAddressUpdate(_contract, 'chest');\n    }\n\n    function setBuyChestRewardPercent(uint256 percent) external onlyOwner {\n        require(buyChestRewardPercent != percent);\n        buyChestRewardPercent = percent;\n    }\n\n    function setTreasureIslandRewardPercent(uint256 percent) external onlyOwner {\n        require(treasureIslandRewardPercent != percent);\n        treasureIslandRewardPercent = percent;\n    }\n\n    function setTreasureIslandDevPercent(uint256 percent) external onlyOwner {\n        require(treasureIslandDevPercent != percent);\n        treasureIslandDevPercent = percent;\n    }\n\n\n    function setBaseCost(uint256 _cost) external onlyOwner {\n        require(_cost > 0, \"cost must be > 0\");\n        baseCost = _cost;\n    }\n\n    function getBaseCost() public view onlyOwner returns (uint256) {\n        return baseCost;\n    }\n\n    function setBaseCostChestVip(uint256 _cost) external onlyOwner {\n        require(_cost > 0, \"cost must be > 0\");\n        baseCostChestVip = _cost;\n    }\n\n    function getBaseCostChestVip() public view onlyOwner returns (uint256) {\n        return baseCostChestVip;\n    }\n\n    function setBaseCostItemChest(uint256 _cost) external onlyOwner {\n        require(_cost > 0, \"cost must be > 0\");\n        baseCostItemChest = _cost;\n    }\n\n    function getBaseCostItemChest() public view onlyOwner returns (uint256) {\n        return baseCostItemChest;\n    }\n\n\n    function activateDeactivateContract(bool _active)\n    external\n    onlyOwner\n    {\n        active = _active;\n        emit ContractStatusUpdate(_active);\n    }\n\n    function playerChooseIsland(string memory  _islandName, uint256 _amount, string memory _date, string memory trans_id)\n    external\n    payable\n    {\n        uint256 devAmount = treasureIslandDevPercent.mul(_amount).div(100);\n        uint256 rwAmount = treasureIslandRewardPercent.mul(_amount).div(100);\n        uint256 treasureIslandAmount = _amount.sub(devAmount).sub(rwAmount);\n        require(IBEP20(pktContract).transferFrom(\n                _msgSender(),\n                rewardPool, rwAmount\n            ), \"Deposit failed\");\n\n        require(IBEP20(pktContract).transferFrom(\n                _msgSender(),\n                devPool, devAmount\n            ), \"Deposit failed\");\n\n        require(IBEP20(pktContract).transferFrom(\n            _msgSender(),\n            findTreasureIslandPool, treasureIslandAmount\n        ), \"Deposit failed\");\n\n\n        TransactionInfo memory trans ;\n        trans.amount = _amount;\n        trans.timestamp = block.timestamp;\n        trans.t_type = \"Treasure_Island\";\n        trans.wallet = _msgSender();\n        _transInfo[trans_id] = trans;\n\n\n        emit NewIsLandChose(_msgSender(), _islandName, _amount, _date);\n    }\n\n    function playerUpgradeLevel(string memory  _idPirate, uint256 _amount, string memory _idLevel, string memory trans_id)\n    external\n    payable\n    {\n        require(IBEP20(pktContract).transferFrom(\n                _msgSender(),\n                devPool,\n                _amount\n            ), \"Deposit failed\");\n\n        TransactionInfo memory trans ;\n        trans.amount = _amount;\n        trans.timestamp = block.timestamp;\n        trans.t_type = \"Upgrade_Level\";\n        trans.wallet = _msgSender();\n        _transInfo[trans_id] = trans;\n\n        emit NewLevelUpgrade(_msgSender(), _idLevel, _amount, _idPirate);\n    }\n\n    function playerRefillEnergy(string memory  _idPirate, uint256 _amount, string memory _idLevel, string memory trans_id)\n    external\n    payable\n    {\n        require(IBEP20(pktContract).transferFrom(\n                _msgSender(),\n                devPool,\n                _amount\n            ), \"Deposit failed\");\n\n        TransactionInfo memory trans ;\n        trans.amount = _amount;\n        trans.timestamp = block.timestamp;\n        trans.t_type = \"Refill_Energy\";\n        trans.wallet = _msgSender();\n        _transInfo[trans_id] = trans;\n\n        emit NewLevelUpgrade(_msgSender(), _idLevel, _amount, _idPirate);\n    }\n\n    function buyChest(\n        string memory _tokenURI,\n        uint256 _price,\n        string memory _data,\n        uint8 _cType,\n        string memory trans_id\n    ) external payable returns (uint256) {\n        if (_cType == 1) {\n            require(_price >= baseCost, \"_price must be > baseCost\");\n        } else if (_cType == 2) {\n            require(_price >= baseCostChestVip, \"_price must be > baseCost\");\n        } else if (_cType == 3) {\n            require(_price >= baseCostItemChest, \"_price must be > baseCost\");\n        }\n        uint256 rwAmount = buyChestRewardPercent.mul(_price).div(100);\n        uint256 devAmount = _price.sub(rwAmount);\n        if (IBEP20(pktContract).transferFrom(_msgSender(), rewardPool, rwAmount) && IBEP20(pktContract).transferFrom(_msgSender(), devPool, devAmount))\n        {\n            IPiratesKingChest ChestContract = IPiratesKingChest(chestContract);\n            uint256 chest_id = ChestContract.buyChest(_msgSender(),_tokenURI, _data, _cType);\n            TransactionInfo memory trans ;\n            trans.amount = _price;\n            trans.timestamp = block.timestamp;\n\n            if (_cType == 1) {\n                trans.t_type = \"Buy_Chest\";\n            } else if (_cType == 2) {\n                trans.t_type = \"Buy_Chest_Vip\";\n            }else if (_cType == 3) {\n                trans.t_type = \"Buy_Chest_Item\";\n            }\n            trans.wallet = _msgSender();\n            _transInfo[trans_id] = trans;\n            emit NewChestPurchased(_msgSender(), chest_id, _price);\n            return chest_id;\n        } else {\n            revert(\"Error transferring tokens\");\n        }\n\n    }\n\n    function giveChestToContestWinner(\n        address winner,\n        string memory _tokenURI,\n        string memory _data,\n        uint8 _cType\n    ) external onlyOwner returns (uint256)\n    {\n        IPiratesKingChest ChestContract = IPiratesKingChest(chestContract);\n        uint256 chest_id = ChestContract.buyChest(winner,_tokenURI, _data, _cType);\n        emit GiveChestToContestWinner(winner, chest_id);\n        return chest_id;\n    }\n\n    function transactionInfoOf(string memory trans_id) public view  returns (TransactionInfo memory) {\n        return _transInfo[trans_id];\n    }\n\n}\n",
  "sourcePath": "/Users/macbook/Desktop/PiratesKingContract2022/PiratesKingContract2022/contracts/PiratesKingGame.sol",
  "compiler": {
    "name": "solc",
    "version": "0.8.13+commit.abaa5c0e.Emscripten.clang"
  },
  "schemaVersion": "3.4.4",
  "updatedAt": "2022-03-24T08:26:37.896Z",
  "devdoc": {
    "kind": "dev",
    "methods": {
      "owner()": {
        "details": "Returns the address of the current owner."
      },
      "renounceOwnership()": {
        "details": "Leaves the contract without owner. It will not be possible to call `onlyOwner` functions anymore. Can only be called by the current owner. NOTE: Renouncing ownership will leave the contract without an owner, thereby removing any functionality that is only available to the owner."
      },
      "transferOwnership(address)": {
        "details": "Transfers ownership of the contract to a new account (`newOwner`). Can only be called by the current owner."
      }
    },
    "version": 1
  },
  "userdoc": {
    "kind": "user",
    "methods": {},
    "version": 1
  }
}