{
  "contractName": "PiratesKingChest",
  "abi": [
    {
      "inputs": [],
      "stateMutability": "nonpayable",
      "type": "constructor"
    },
    {
      "anonymous": false,
      "inputs": [
        {
          "indexed": true,
          "internalType": "address",
          "name": "owner",
          "type": "address"
        },
        {
          "indexed": true,
          "internalType": "address",
          "name": "approved",
          "type": "address"
        },
        {
          "indexed": true,
          "internalType": "uint256",
          "name": "tokenId",
          "type": "uint256"
        }
      ],
      "name": "Approval",
      "type": "event"
    },
    {
      "anonymous": false,
      "inputs": [
        {
          "indexed": true,
          "internalType": "address",
          "name": "owner",
          "type": "address"
        },
        {
          "indexed": true,
          "internalType": "address",
          "name": "operator",
          "type": "address"
        },
        {
          "indexed": false,
          "internalType": "bool",
          "name": "approved",
          "type": "bool"
        }
      ],
      "name": "ApprovalForAll",
      "type": "event"
    },
    {
      "anonymous": false,
      "inputs": [
        {
          "indexed": false,
          "internalType": "address",
          "name": "newAddress",
          "type": "address"
        },
        {
          "indexed": false,
          "internalType": "bytes32",
          "name": "contractName",
          "type": "bytes32"
        }
      ],
      "name": "LibContractAddressUpdate",
      "type": "event"
    },
    {
      "anonymous": false,
      "inputs": [
        {
          "indexed": true,
          "internalType": "address",
          "name": "previousOwner",
          "type": "address"
        },
        {
          "indexed": true,
          "internalType": "address",
          "name": "newOwner",
          "type": "address"
        }
      ],
      "name": "OwnershipTransferred",
      "type": "event"
    },
    {
      "anonymous": false,
      "inputs": [
        {
          "indexed": true,
          "internalType": "address",
          "name": "from",
          "type": "address"
        },
        {
          "indexed": true,
          "internalType": "address",
          "name": "to",
          "type": "address"
        },
        {
          "indexed": true,
          "internalType": "uint256",
          "name": "tokenId",
          "type": "uint256"
        }
      ],
      "name": "Transfer",
      "type": "event"
    },
    {
      "inputs": [
        {
          "internalType": "uint256",
          "name": "",
          "type": "uint256"
        }
      ],
      "name": "allChests",
      "outputs": [
        {
          "internalType": "uint256",
          "name": "tokenId",
          "type": "uint256"
        },
        {
          "internalType": "string",
          "name": "tokenURI",
          "type": "string"
        },
        {
          "internalType": "address payable",
          "name": "mintedBy",
          "type": "address"
        },
        {
          "internalType": "address payable",
          "name": "currentOwner",
          "type": "address"
        },
        {
          "internalType": "address payable",
          "name": "previousOwner",
          "type": "address"
        },
        {
          "internalType": "uint256",
          "name": "price",
          "type": "uint256"
        },
        {
          "internalType": "uint256",
          "name": "numberOfTransfers",
          "type": "uint256"
        },
        {
          "internalType": "bool",
          "name": "forSale",
          "type": "bool"
        },
        {
          "internalType": "bool",
          "name": "isOpened",
          "type": "bool"
        },
        {
          "internalType": "string",
          "name": "data",
          "type": "string"
        },
        {
          "internalType": "uint8",
          "name": "cType",
          "type": "uint8"
        }
      ],
      "stateMutability": "view",
      "type": "function"
    },
    {
      "inputs": [
        {
          "internalType": "address",
          "name": "to",
          "type": "address"
        },
        {
          "internalType": "uint256",
          "name": "tokenId",
          "type": "uint256"
        }
      ],
      "name": "approve",
      "outputs": [],
      "stateMutability": "nonpayable",
      "type": "function"
    },
    {
      "inputs": [
        {
          "internalType": "address",
          "name": "owner",
          "type": "address"
        }
      ],
      "name": "balanceOf",
      "outputs": [
        {
          "internalType": "uint256",
          "name": "",
          "type": "uint256"
        }
      ],
      "stateMutability": "view",
      "type": "function"
    },
    {
      "inputs": [],
      "name": "chestCounter",
      "outputs": [
        {
          "internalType": "uint256",
          "name": "",
          "type": "uint256"
        }
      ],
      "stateMutability": "view",
      "type": "function"
    },
    {
      "inputs": [
        {
          "internalType": "uint256",
          "name": "",
          "type": "uint256"
        }
      ],
      "name": "chestOpens",
      "outputs": [
        {
          "internalType": "bool",
          "name": "",
          "type": "bool"
        }
      ],
      "stateMutability": "view",
      "type": "function"
    },
    {
      "inputs": [],
      "name": "collectionName",
      "outputs": [
        {
          "internalType": "string",
          "name": "",
          "type": "string"
        }
      ],
      "stateMutability": "view",
      "type": "function"
    },
    {
      "inputs": [],
      "name": "collectionNameSymbol",
      "outputs": [
        {
          "internalType": "string",
          "name": "",
          "type": "string"
        }
      ],
      "stateMutability": "view",
      "type": "function"
    },
    {
      "inputs": [
        {
          "internalType": "uint256",
          "name": "tokenId",
          "type": "uint256"
        }
      ],
      "name": "getApproved",
      "outputs": [
        {
          "internalType": "address",
          "name": "",
          "type": "address"
        }
      ],
      "stateMutability": "view",
      "type": "function"
    },
    {
      "inputs": [
        {
          "internalType": "address",
          "name": "owner",
          "type": "address"
        },
        {
          "internalType": "address",
          "name": "operator",
          "type": "address"
        }
      ],
      "name": "isApprovedForAll",
      "outputs": [
        {
          "internalType": "bool",
          "name": "",
          "type": "bool"
        }
      ],
      "stateMutability": "view",
      "type": "function"
    },
    {
      "inputs": [],
      "name": "name",
      "outputs": [
        {
          "internalType": "string",
          "name": "",
          "type": "string"
        }
      ],
      "stateMutability": "view",
      "type": "function"
    },
    {
      "inputs": [],
      "name": "owner",
      "outputs": [
        {
          "internalType": "address",
          "name": "",
          "type": "address"
        }
      ],
      "stateMutability": "view",
      "type": "function"
    },
    {
      "inputs": [
        {
          "internalType": "uint256",
          "name": "tokenId",
          "type": "uint256"
        }
      ],
      "name": "ownerOf",
      "outputs": [
        {
          "internalType": "address",
          "name": "",
          "type": "address"
        }
      ],
      "stateMutability": "view",
      "type": "function"
    },
    {
      "inputs": [],
      "name": "pktContract",
      "outputs": [
        {
          "internalType": "address",
          "name": "",
          "type": "address"
        }
      ],
      "stateMutability": "view",
      "type": "function"
    },
    {
      "inputs": [],
      "name": "pktGameContract",
      "outputs": [
        {
          "internalType": "address",
          "name": "",
          "type": "address"
        }
      ],
      "stateMutability": "view",
      "type": "function"
    },
    {
      "inputs": [],
      "name": "renounceOwnership",
      "outputs": [],
      "stateMutability": "nonpayable",
      "type": "function"
    },
    {
      "inputs": [
        {
          "internalType": "address",
          "name": "from",
          "type": "address"
        },
        {
          "internalType": "address",
          "name": "to",
          "type": "address"
        },
        {
          "internalType": "uint256",
          "name": "tokenId",
          "type": "uint256"
        }
      ],
      "name": "safeTransferFrom",
      "outputs": [],
      "stateMutability": "nonpayable",
      "type": "function"
    },
    {
      "inputs": [
        {
          "internalType": "address",
          "name": "from",
          "type": "address"
        },
        {
          "internalType": "address",
          "name": "to",
          "type": "address"
        },
        {
          "internalType": "uint256",
          "name": "tokenId",
          "type": "uint256"
        },
        {
          "internalType": "bytes",
          "name": "_data",
          "type": "bytes"
        }
      ],
      "name": "safeTransferFrom",
      "outputs": [],
      "stateMutability": "nonpayable",
      "type": "function"
    },
    {
      "inputs": [
        {
          "internalType": "address",
          "name": "operator",
          "type": "address"
        },
        {
          "internalType": "bool",
          "name": "approved",
          "type": "bool"
        }
      ],
      "name": "setApprovalForAll",
      "outputs": [],
      "stateMutability": "nonpayable",
      "type": "function"
    },
    {
      "inputs": [],
      "name": "symbol",
      "outputs": [
        {
          "internalType": "string",
          "name": "",
          "type": "string"
        }
      ],
      "stateMutability": "view",
      "type": "function"
    },
    {
      "inputs": [
        {
          "internalType": "uint256",
          "name": "index",
          "type": "uint256"
        }
      ],
      "name": "tokenByIndex",
      "outputs": [
        {
          "internalType": "uint256",
          "name": "",
          "type": "uint256"
        }
      ],
      "stateMutability": "view",
      "type": "function"
    },
    {
      "inputs": [
        {
          "internalType": "address",
          "name": "owner",
          "type": "address"
        },
        {
          "internalType": "uint256",
          "name": "index",
          "type": "uint256"
        }
      ],
      "name": "tokenOfOwnerByIndex",
      "outputs": [
        {
          "internalType": "uint256",
          "name": "",
          "type": "uint256"
        }
      ],
      "stateMutability": "view",
      "type": "function"
    },
    {
      "inputs": [
        {
          "internalType": "string",
          "name": "",
          "type": "string"
        }
      ],
      "name": "tokenURIExists",
      "outputs": [
        {
          "internalType": "bool",
          "name": "",
          "type": "bool"
        }
      ],
      "stateMutability": "view",
      "type": "function"
    },
    {
      "inputs": [],
      "name": "totalSupply",
      "outputs": [
        {
          "internalType": "uint256",
          "name": "",
          "type": "uint256"
        }
      ],
      "stateMutability": "view",
      "type": "function"
    },
    {
      "inputs": [
        {
          "internalType": "address",
          "name": "from",
          "type": "address"
        },
        {
          "internalType": "address",
          "name": "to",
          "type": "address"
        },
        {
          "internalType": "uint256",
          "name": "tokenId",
          "type": "uint256"
        }
      ],
      "name": "transferFrom",
      "outputs": [],
      "stateMutability": "nonpayable",
      "type": "function"
    },
    {
      "inputs": [
        {
          "internalType": "address",
          "name": "newOwner",
          "type": "address"
        }
      ],
      "name": "transferOwnership",
      "outputs": [],
      "stateMutability": "nonpayable",
      "type": "function"
    },
    {
      "inputs": [
        {
          "internalType": "uint256",
          "name": "tokenId",
          "type": "uint256"
        }
      ],
      "name": "tokenURI",
      "outputs": [
        {
          "internalType": "string",
          "name": "",
          "type": "string"
        }
      ],
      "stateMutability": "view",
      "type": "function"
    },
    {
      "inputs": [
        {
          "internalType": "bytes4",
          "name": "interfaceId",
          "type": "bytes4"
        }
      ],
      "name": "supportsInterface",
      "outputs": [
        {
          "internalType": "bool",
          "name": "",
          "type": "bool"
        }
      ],
      "stateMutability": "view",
      "type": "function"
    },
    {
      "inputs": [
        {
          "internalType": "address",
          "name": "to",
          "type": "address"
        },
        {
          "internalType": "uint256",
          "name": "tokenId",
          "type": "uint256"
        }
      ],
      "name": "safeMint",
      "outputs": [],
      "stateMutability": "nonpayable",
      "type": "function"
    },
    {
      "inputs": [
        {
          "internalType": "address",
          "name": "_contract",
          "type": "address"
        }
      ],
      "name": "setPKTContractAddress",
      "outputs": [],
      "stateMutability": "nonpayable",
      "type": "function"
    },
    {
      "inputs": [
        {
          "internalType": "address",
          "name": "_contract",
          "type": "address"
        }
      ],
      "name": "setPKTGameContractAddress",
      "outputs": [],
      "stateMutability": "nonpayable",
      "type": "function"
    },
    {
      "inputs": [
        {
          "internalType": "uint256",
          "name": "_tokenId",
          "type": "uint256"
        }
      ],
      "name": "getTokenOwner",
      "outputs": [
        {
          "internalType": "address",
          "name": "",
          "type": "address"
        }
      ],
      "stateMutability": "view",
      "type": "function"
    },
    {
      "inputs": [
        {
          "internalType": "uint256",
          "name": "_tokenId",
          "type": "uint256"
        }
      ],
      "name": "getTokenMetaData",
      "outputs": [
        {
          "internalType": "string",
          "name": "",
          "type": "string"
        }
      ],
      "stateMutability": "view",
      "type": "function"
    },
    {
      "inputs": [
        {
          "internalType": "uint256",
          "name": "_tokenId",
          "type": "uint256"
        }
      ],
      "name": "isChestOpen",
      "outputs": [
        {
          "internalType": "bool",
          "name": "",
          "type": "bool"
        }
      ],
      "stateMutability": "view",
      "type": "function"
    },
    {
      "inputs": [],
      "name": "getNumberOfTokensMinted",
      "outputs": [
        {
          "internalType": "uint256",
          "name": "",
          "type": "uint256"
        }
      ],
      "stateMutability": "view",
      "type": "function"
    },
    {
      "inputs": [
        {
          "internalType": "address",
          "name": "_owner",
          "type": "address"
        }
      ],
      "name": "getTotalNumberOfTokensOwnedByAnAddress",
      "outputs": [
        {
          "internalType": "uint256",
          "name": "",
          "type": "uint256"
        }
      ],
      "stateMutability": "view",
      "type": "function"
    },
    {
      "inputs": [
        {
          "internalType": "uint256",
          "name": "_tokenId",
          "type": "uint256"
        }
      ],
      "name": "getTokenExists",
      "outputs": [
        {
          "internalType": "bool",
          "name": "",
          "type": "bool"
        }
      ],
      "stateMutability": "view",
      "type": "function"
    },
    {
      "inputs": [
        {
          "internalType": "address",
          "name": "_owner",
          "type": "address"
        },
        {
          "internalType": "uint256",
          "name": "_tokenId",
          "type": "uint256"
        }
      ],
      "name": "openChest",
      "outputs": [
        {
          "components": [
            {
              "internalType": "uint256",
              "name": "tokenId",
              "type": "uint256"
            },
            {
              "internalType": "string",
              "name": "tokenURI",
              "type": "string"
            },
            {
              "internalType": "address payable",
              "name": "mintedBy",
              "type": "address"
            },
            {
              "internalType": "address payable",
              "name": "currentOwner",
              "type": "address"
            },
            {
              "internalType": "address payable",
              "name": "previousOwner",
              "type": "address"
            },
            {
              "internalType": "uint256",
              "name": "price",
              "type": "uint256"
            },
            {
              "internalType": "uint256",
              "name": "numberOfTransfers",
              "type": "uint256"
            },
            {
              "internalType": "bool",
              "name": "forSale",
              "type": "bool"
            },
            {
              "internalType": "bool",
              "name": "isOpened",
              "type": "bool"
            },
            {
              "internalType": "string",
              "name": "data",
              "type": "string"
            },
            {
              "internalType": "uint8",
              "name": "cType",
              "type": "uint8"
            }
          ],
          "internalType": "struct IPiratesKingBase.PKChest",
          "name": "",
          "type": "tuple"
        }
      ],
      "stateMutability": "nonpayable",
      "type": "function"
    },
    {
      "inputs": [
        {
          "internalType": "address",
          "name": "buyer",
          "type": "address"
        },
        {
          "internalType": "string",
          "name": "_tokenURI",
          "type": "string"
        },
        {
          "internalType": "string",
          "name": "_data",
          "type": "string"
        },
        {
          "internalType": "uint8",
          "name": "_cType",
          "type": "uint8"
        }
      ],
      "name": "buyChest",
      "outputs": [
        {
          "internalType": "uint256",
          "name": "",
          "type": "uint256"
        }
      ],
      "stateMutability": "nonpayable",
      "type": "function"
    }
  ],
  "bytecode": "0x60806040523480156200001157600080fd5b506040518060400160405280601081526020017f436865737420436f6c6c656374696f6e000000000000000000000000000000008152506040518060400160405280600381526020017f504b430000000000000000000000000000000000000000000000000000000000815250816000908051906020019062000096929190620003a3565b508060019080519060200190620000af929190620003a3565b505050620000e4620000cf620001a1640100000000026401000000009004565b620001a9640100000000026401000000009004565b620000fd6200026f640100000000026401000000009004565b600c908051906020019062000114929190620003a3565b506200012e62000309640100000000026401000000009004565b600d908051906020019062000145929190620003a3565b507329bc99648ba29461a2b00ab860280b4309578827600f60006101000a81548173ffffffffffffffffffffffffffffffffffffffff021916908373ffffffffffffffffffffffffffffffffffffffff160217905550620004b8565b600033905090565b6000600b60009054906101000a900473ffffffffffffffffffffffffffffffffffffffff16905081600b60006101000a81548173ffffffffffffffffffffffffffffffffffffffff021916908373ffffffffffffffffffffffffffffffffffffffff1602179055508173ffffffffffffffffffffffffffffffffffffffff168173ffffffffffffffffffffffffffffffffffffffff167f8be0079c531659141344cd1fd0a4f28419497f9722a3daafe3b4186f6b6457e060405160405180910390a35050565b606060008054620002809062000482565b80601f0160208091040260200160405190810160405280929190818152602001828054620002ae9062000482565b8015620002ff5780601f10620002d357610100808354040283529160200191620002ff565b820191906000526020600020905b815481529060010190602001808311620002e157829003601f168201915b5050505050905090565b6060600180546200031a9062000482565b80601f0160208091040260200160405190810160405280929190818152602001828054620003489062000482565b8015620003995780601f106200036d5761010080835404028352916020019162000399565b820191906000526020600020905b8154815290600101906020018083116200037b57829003601f168201915b5050505050905090565b828054620003b19062000482565b90600052602060002090601f016020900481019282620003d5576000855562000421565b82601f10620003f057805160ff191683800117855562000421565b8280016001018555821562000421579182015b828111156200042057825182559160200191906001019062000403565b5b50905062000430919062000434565b5090565b5b808211156200044f57600081600090555060010162000435565b5090565b7f4e487b7100000000000000000000000000000000000000000000000000000000600052602260045260246000fd5b600060028204905060018216806200049b57607f821691505b60208210811415620004b257620004b162000453565b5b50919050565b61506480620004c86000396000f3fe608060405234801561001057600080fd5b506004361061024f576000357c0100000000000000000000000000000000000000000000000000000000900480636f9507f91161014d578063a22cb465116100d5578063cc151f3a11610099578063cc151f3a1461074a578063d59134ba14610768578063e5326ab114610786578063e985e9c5146107a4578063f2fde38b146107d45761024f565b8063a22cb46514610696578063a5cd761f146106b2578063b13a1a0a146106e2578063b88d4fde146106fe578063c87b56dd1461071a5761024f565b806395d89b411161011c57806395d89b41146105de5780639766f5e9146105fc5780639948c9431461061a5780639ee07ad81461064a578063a14481941461067a5761024f565b80636f9507f91461056857806370a0823114610586578063715018a6146105b65780638da5cb5b146105c05761024f565b80632f745c59116101db5780635827796c1161019f5780635827796c1461048257806358e54dd91461049e57806362451958146104d85780636352211e1461050857806367c623cf146105385761024f565b80632f745c59146103a657806342842e0e146103d657806343902850146103f257806343d32ae7146104225780634f6ccce7146104525761024f565b8063142687f311610222578063142687f3146102ee578063157991231461031e57806318160ddd1461034e57806323b872dd1461036c578063284f09e6146103885761024f565b806301ffc9a71461025457806306fdde0314610284578063081812fc146102a2578063095ea7b3146102d2575b600080fd5b61026e600480360381019061026991906136a0565b6107f0565b60405161027b91906136e8565b60405180910390f35b61028c610802565b604051610299919061379c565b60405180910390f35b6102bc60048036038101906102b791906137f4565b610894565b6040516102c99190613862565b60405180910390f35b6102ec60048036038101906102e791906138a9565b610919565b005b610308600480360381019061030391906137f4565b610a31565b60405161031591906136e8565b60405180910390f35b610338600480360381019061033391906137f4565b610a48565b60405161034591906136e8565b60405180910390f35b610356610a68565b60405161036391906138f8565b60405180910390f35b61038660048036038101906103819190613913565b610a75565b005b610390610ad5565b60405161039d91906138f8565b60405180910390f35b6103c060048036038101906103bb91906138a9565b610adb565b6040516103cd91906138f8565b60405180910390f35b6103f060048036038101906103eb9190613913565b610b80565b005b61040c60048036038101906104079190613966565b610ba0565b60405161041991906138f8565b60405180910390f35b61043c60048036038101906104379190613ac8565b610bb7565b60405161044991906136e8565b60405180910390f35b61046c600480360381019061046791906137f4565b610bed565b60405161047991906138f8565b60405180910390f35b61049c60048036038101906104979190613966565b610c5e565b005b6104b860048036038101906104b391906137f4565b610de6565b6040516104cf9b9a99989796959493929190613b4e565b60405180910390f35b6104f260048036038101906104ed9190613c33565b610fd7565b6040516104ff91906138f8565b60405180910390f35b610522600480360381019061051d91906137f4565b61133d565b60405161052f9190613862565b60405180910390f35b610552600480360381019061054d91906137f4565b6113ef565b60405161055f919061379c565b60405180910390f35b610570611407565b60405161057d919061379c565b60405180910390f35b6105a0600480360381019061059b9190613966565b611495565b6040516105ad91906138f8565b60405180910390f35b6105be61154d565b005b6105c86115d5565b6040516105d59190613862565b60405180910390f35b6105e66115ff565b6040516105f3919061379c565b60405180910390f35b610604611691565b6040516106119190613862565b60405180910390f35b610634600480360381019061062f91906138a9565b6116b7565b6040516106419190613e4e565b60405180910390f35b610664600480360381019061065f91906137f4565b611ab4565b60405161067191906136e8565b60405180910390f35b610694600480360381019061068f91906138a9565b611ade565b005b6106b060048036038101906106ab9190613e9c565b611b68565b005b6106cc60048036038101906106c791906137f4565b611b7e565b6040516106d99190613862565b60405180910390f35b6106fc60048036038101906106f79190613966565b611b95565b005b61071860048036038101906107139190613f7d565b611d1d565b005b610734600480360381019061072f91906137f4565b611d7f565b604051610741919061379c565b60405180910390f35b610752611d91565b60405161075f91906138f8565b60405180910390f35b610770611da5565b60405161077d9190613862565b60405180910390f35b61078e611dcb565b60405161079b919061379c565b60405180910390f35b6107be60048036038101906107b99190614000565b611e59565b6040516107cb91906136e8565b60405180910390f35b6107ee60048036038101906107e99190613966565b611eed565b005b60006107fb82611fe5565b9050919050565b6060600080546108119061406f565b80601f016020809104026020016040519081016040528092919081815260200182805461083d9061406f565b801561088a5780601f1061085f5761010080835404028352916020019161088a565b820191906000526020600020905b81548152906001019060200180831161086d57829003601f168201915b5050505050905090565b600061089f8261205f565b6108de576040517f08c379a00000000000000000000000000000000000000000000000000000000081526004016108d590614113565b60405180910390fd5b6004600083815260200190815260200160002060009054906101000a900473ffffffffffffffffffffffffffffffffffffffff169050919050565b60006109248261133d565b90508073ffffffffffffffffffffffffffffffffffffffff168373ffffffffffffffffffffffffffffffffffffffff161415610995576040517f08c379a000000000000000000000000000000000000000000000000000000000815260040161098c906141a5565b60405180910390fd5b8073ffffffffffffffffffffffffffffffffffffffff166109b46120cb565b73ffffffffffffffffffffffffffffffffffffffff1614806109e357506109e2816109dd6120cb565b611e59565b5b610a22576040517f08c379a0000000000000000000000000000000000000000000000000000000008152600401610a1990614237565b60405180910390fd5b610a2c83836120d3565b505050565b600080610a3d8361205f565b905080915050919050565b60136020528060005260406000206000915054906101000a900460ff1681565b6000600980549050905090565b610a86610a806120cb565b8261218c565b610ac5576040517f08c379a0000000000000000000000000000000000000000000000000000000008152600401610abc906142c9565b60405180910390fd5b610ad083838361226a565b505050565b600e5481565b6000610ae683611495565b8210610b27576040517f08c379a0000000000000000000000000000000000000000000000000000000008152600401610b1e9061435b565b60405180910390fd5b600760008473ffffffffffffffffffffffffffffffffffffffff1673ffffffffffffffffffffffffffffffffffffffff168152602001908152602001600020600083815260200190815260200160002054905092915050565b610b9b83838360405180602001604052806000815250611d1d565b505050565b600080610bac83611495565b905080915050919050565b6012818051602081018201805184825260208301602085012081835280955050505050506000915054906101000a900460ff1681565b6000610bf7610a68565b8210610c38576040517f08c379a0000000000000000000000000000000000000000000000000000000008152600401610c2f906143ed565b60405180910390fd5b60098281548110610c4c57610c4b61440d565b5b90600052602060002001549050919050565b610c666120cb565b73ffffffffffffffffffffffffffffffffffffffff16610c846115d5565b73ffffffffffffffffffffffffffffffffffffffff1614610cda576040517f08c379a0000000000000000000000000000000000000000000000000000000008152600401610cd190614488565b60405180910390fd5b8073ffffffffffffffffffffffffffffffffffffffff16601060009054906101000a900473ffffffffffffffffffffffffffffffffffffffff1673ffffffffffffffffffffffffffffffffffffffff161415610d6b576040517f08c379a0000000000000000000000000000000000000000000000000000000008152600401610d62906144f4565b60405180910390fd5b80601060006101000a81548173ffffffffffffffffffffffffffffffffffffffff021916908373ffffffffffffffffffffffffffffffffffffffff1602179055507fc02dd078a5d63c2645d0da4b3173f425d353dafebbb14064059edbd4244a31bf81604051610ddb919061453a565b60405180910390a150565b6011602052806000526040600020600091509050806000015490806001018054610e0f9061406f565b80601f0160208091040260200160405190810160405280929190818152602001828054610e3b9061406f565b8015610e885780601f10610e5d57610100808354040283529160200191610e88565b820191906000526020600020905b815481529060010190602001808311610e6b57829003601f168201915b5050505050908060020160009054906101000a900473ffffffffffffffffffffffffffffffffffffffff16908060030160009054906101000a900473ffffffffffffffffffffffffffffffffffffffff16908060040160009054906101000a900473ffffffffffffffffffffffffffffffffffffffff16908060050154908060060154908060070160009054906101000a900460ff16908060070160019054906101000a900460ff1690806008018054610f419061406f565b80601f0160208091040260200160405190810160405280929190818152602001828054610f6d9061406f565b8015610fba5780601f10610f8f57610100808354040283529160200191610fba565b820191906000526020600020905b815481529060010190602001808311610f9d57829003601f168201915b5050505050908060090160009054906101000a900460ff1690508b565b6000601060009054906101000a900473ffffffffffffffffffffffffffffffffffffffff1673ffffffffffffffffffffffffffffffffffffffff163373ffffffffffffffffffffffffffffffffffffffff161461103357600080fd5b600e600081548092919061104690614590565b9190505550611056600e5461205f565b1561106057600080fd5b6012846040516110709190614615565b908152602001604051809103902060009054906101000a900460ff161561109657600080fd5b6110a285600e546124c6565b6110ae600e5485612694565b60016012856040516110c09190614615565b908152602001604051809103902060006101000a81548160ff0219169083151502179055506000604051806101600160405280600e5481526020018681526020018773ffffffffffffffffffffffffffffffffffffffff1681526020018773ffffffffffffffffffffffffffffffffffffffff168152602001600073ffffffffffffffffffffffffffffffffffffffff16815260200160008152602001600081526020016000151581526020016000151581526020018581526020018460ff1681525090508060116000600e5481526020019081526020016000206000820151816000015560208201518160010190805190602001906111c19291906134ee565b5060408201518160020160006101000a81548173ffffffffffffffffffffffffffffffffffffffff021916908373ffffffffffffffffffffffffffffffffffffffff16021790555060608201518160030160006101000a81548173ffffffffffffffffffffffffffffffffffffffff021916908373ffffffffffffffffffffffffffffffffffffffff16021790555060808201518160040160006101000a81548173ffffffffffffffffffffffffffffffffffffffff021916908373ffffffffffffffffffffffffffffffffffffffff16021790555060a0820151816005015560c0820151816006015560e08201518160070160006101000a81548160ff0219169083151502179055506101008201518160070160016101000a81548160ff0219169083151502179055506101208201518160080190805190602001906113099291906134ee565b506101408201518160090160006101000a81548160ff021916908360ff160217905550905050600e54915050949350505050565b6000806002600084815260200190815260200160002060009054906101000a900473ffffffffffffffffffffffffffffffffffffffff169050600073ffffffffffffffffffffffffffffffffffffffff168173ffffffffffffffffffffffffffffffffffffffff1614156113e6576040517f08c379a00000000000000000000000000000000000000000000000000000000081526004016113dd9061469e565b60405180910390fd5b80915050919050565b606060006113fc83611d7f565b905080915050919050565b600d80546114149061406f565b80601f01602080910402602001604051908101604052809291908181526020018280546114409061406f565b801561148d5780601f106114625761010080835404028352916020019161148d565b820191906000526020600020905b81548152906001019060200180831161147057829003601f168201915b505050505081565b60008073ffffffffffffffffffffffffffffffffffffffff168273ffffffffffffffffffffffffffffffffffffffff161415611506576040517f08c379a00000000000000000000000000000000000000000000000000000000081526004016114fd90614730565b60405180910390fd5b600360008373ffffffffffffffffffffffffffffffffffffffff1673ffffffffffffffffffffffffffffffffffffffff168152602001908152602001600020549050919050565b6115556120cb565b73ffffffffffffffffffffffffffffffffffffffff166115736115d5565b73ffffffffffffffffffffffffffffffffffffffff16146115c9576040517f08c379a00000000000000000000000000000000000000000000000000000000081526004016115c090614488565b60405180910390fd5b6115d36000612708565b565b6000600b60009054906101000a900473ffffffffffffffffffffffffffffffffffffffff16905090565b60606001805461160e9061406f565b80601f016020809104026020016040519081016040528092919081815260200182805461163a9061406f565b80156116875780601f1061165c57610100808354040283529160200191611687565b820191906000526020600020905b81548152906001019060200180831161166a57829003601f168201915b5050505050905090565b601060009054906101000a900473ffffffffffffffffffffffffffffffffffffffff1681565b6116bf613574565b600073ffffffffffffffffffffffffffffffffffffffff163373ffffffffffffffffffffffffffffffffffffffff1614156116f957600080fd5b6117028261205f565b61170b57600080fd5b60006117168361133d565b90508373ffffffffffffffffffffffffffffffffffffffff168173ffffffffffffffffffffffffffffffffffffffff161461175057600080fd5b6013600084815260200190815260200160002060009054906101000a900460ff16156117b1576040517f08c379a00000000000000000000000000000000000000000000000000000000081526004016117a89061479c565b60405180910390fd5b60006011600085815260200190815260200160002060405180610160016040529081600082015481526020016001820180546117ec9061406f565b80601f01602080910402602001604051908101604052809291908181526020018280546118189061406f565b80156118655780601f1061183a57610100808354040283529160200191611865565b820191906000526020600020905b81548152906001019060200180831161184857829003601f168201915b505050505081526020016002820160009054906101000a900473ffffffffffffffffffffffffffffffffffffffff1673ffffffffffffffffffffffffffffffffffffffff1673ffffffffffffffffffffffffffffffffffffffff1681526020016003820160009054906101000a900473ffffffffffffffffffffffffffffffffffffffff1673ffffffffffffffffffffffffffffffffffffffff1673ffffffffffffffffffffffffffffffffffffffff1681526020016004820160009054906101000a900473ffffffffffffffffffffffffffffffffffffffff1673ffffffffffffffffffffffffffffffffffffffff1673ffffffffffffffffffffffffffffffffffffffff16815260200160058201548152602001600682015481526020016007820160009054906101000a900460ff161515151581526020016007820160019054906101000a900460ff161515151581526020016008820180546119ca9061406f565b80601f01602080910402602001604051908101604052809291908181526020018280546119f69061406f565b8015611a435780601f10611a1857610100808354040283529160200191611a43565b820191906000526020600020905b815481529060010190602001808311611a2657829003601f168201915b505050505081526020016009820160009054906101000a900460ff1660ff1660ff1681525050905060016013600086815260200190815260200160002060006101000a81548160ff021916908315150217905550600181610100019015159081151581525050809250505092915050565b60006013600083815260200190815260200160002060009054906101000a900460ff169050919050565b611ae66120cb565b73ffffffffffffffffffffffffffffffffffffffff16611b046115d5565b73ffffffffffffffffffffffffffffffffffffffff1614611b5a576040517f08c379a0000000000000000000000000000000000000000000000000000000008152600401611b5190614488565b60405180910390fd5b611b6482826127ce565b5050565b611b7a611b736120cb565b83836127ec565b5050565b600080611b8a8361133d565b905080915050919050565b611b9d6120cb565b73ffffffffffffffffffffffffffffffffffffffff16611bbb6115d5565b73ffffffffffffffffffffffffffffffffffffffff1614611c11576040517f08c379a0000000000000000000000000000000000000000000000000000000008152600401611c0890614488565b60405180910390fd5b8073ffffffffffffffffffffffffffffffffffffffff16600f60009054906101000a900473ffffffffffffffffffffffffffffffffffffffff1673ffffffffffffffffffffffffffffffffffffffff161415611ca2576040517f08c379a0000000000000000000000000000000000000000000000000000000008152600401611c99906144f4565b60405180910390fd5b80600f60006101000a81548173ffffffffffffffffffffffffffffffffffffffff021916908373ffffffffffffffffffffffffffffffffffffffff1602179055507fc02dd078a5d63c2645d0da4b3173f425d353dafebbb14064059edbd4244a31bf81604051611d1291906147e2565b60405180910390a150565b611d2e611d286120cb565b8361218c565b611d6d576040517f08c379a0000000000000000000000000000000000000000000000000000000008152600401611d64906142c9565b60405180910390fd5b611d7984848484612959565b50505050565b6060611d8a826129b5565b9050919050565b600080611d9c610a68565b90508091505090565b600f60009054906101000a900473ffffffffffffffffffffffffffffffffffffffff1681565b600c8054611dd89061406f565b80601f0160208091040260200160405190810160405280929190818152602001828054611e049061406f565b8015611e515780601f10611e2657610100808354040283529160200191611e51565b820191906000526020600020905b815481529060010190602001808311611e3457829003601f168201915b505050505081565b6000600560008473ffffffffffffffffffffffffffffffffffffffff1673ffffffffffffffffffffffffffffffffffffffff16815260200190815260200160002060008373ffffffffffffffffffffffffffffffffffffffff1673ffffffffffffffffffffffffffffffffffffffff16815260200190815260200160002060009054906101000a900460ff16905092915050565b611ef56120cb565b73ffffffffffffffffffffffffffffffffffffffff16611f136115d5565b73ffffffffffffffffffffffffffffffffffffffff1614611f69576040517f08c379a0000000000000000000000000000000000000000000000000000000008152600401611f6090614488565b60405180910390fd5b600073ffffffffffffffffffffffffffffffffffffffff168173ffffffffffffffffffffffffffffffffffffffff161415611fd9576040517f08c379a0000000000000000000000000000000000000000000000000000000008152600401611fd09061487b565b60405180910390fd5b611fe281612708565b50565b60007f780e9d63000000000000000000000000000000000000000000000000000000007bffffffffffffffffffffffffffffffffffffffffffffffffffffffff1916827bffffffffffffffffffffffffffffffffffffffffffffffffffffffff19161480612058575061205782612b07565b5b9050919050565b60008073ffffffffffffffffffffffffffffffffffffffff166002600084815260200190815260200160002060009054906101000a900473ffffffffffffffffffffffffffffffffffffffff1673ffffffffffffffffffffffffffffffffffffffff1614159050919050565b600033905090565b816004600083815260200190815260200160002060006101000a81548173ffffffffffffffffffffffffffffffffffffffff021916908373ffffffffffffffffffffffffffffffffffffffff160217905550808273ffffffffffffffffffffffffffffffffffffffff166121468361133d565b73ffffffffffffffffffffffffffffffffffffffff167f8c5be1e5ebec7d5bd14f71427d1e84f3dd0314c0f7b2291e5b200ac8c7c3b92560405160405180910390a45050565b60006121978261205f565b6121d6576040517f08c379a00000000000000000000000000000000000000000000000000000000081526004016121cd9061490d565b60405180910390fd5b60006121e18361133d565b90508073ffffffffffffffffffffffffffffffffffffffff168473ffffffffffffffffffffffffffffffffffffffff16148061225057508373ffffffffffffffffffffffffffffffffffffffff1661223884610894565b73ffffffffffffffffffffffffffffffffffffffff16145b8061226157506122608185611e59565b5b91505092915050565b8273ffffffffffffffffffffffffffffffffffffffff1661228a8261133d565b73ffffffffffffffffffffffffffffffffffffffff16146122e0576040517f08c379a00000000000000000000000000000000000000000000000000000000081526004016122d79061499f565b60405180910390fd5b600073ffffffffffffffffffffffffffffffffffffffff168273ffffffffffffffffffffffffffffffffffffffff161415612350576040517f08c379a000000000000000000000000000000000000000000000000000000000815260040161234790614a31565b60405180910390fd5b61235b838383612be9565b6123666000826120d3565b6001600360008573ffffffffffffffffffffffffffffffffffffffff1673ffffffffffffffffffffffffffffffffffffffff16815260200190815260200160002060008282546123b69190614a51565b925050819055506001600360008473ffffffffffffffffffffffffffffffffffffffff1673ffffffffffffffffffffffffffffffffffffffff168152602001908152602001600020600082825461240d9190614a85565b92505081905550816002600083815260200190815260200160002060006101000a81548173ffffffffffffffffffffffffffffffffffffffff021916908373ffffffffffffffffffffffffffffffffffffffff160217905550808273ffffffffffffffffffffffffffffffffffffffff168473ffffffffffffffffffffffffffffffffffffffff167fddf252ad1be2c89b69c2b068fc378daa952ba7f163c4a11628f55a4df523b3ef60405160405180910390a4505050565b600073ffffffffffffffffffffffffffffffffffffffff168273ffffffffffffffffffffffffffffffffffffffff161415612536576040517f08c379a000000000000000000000000000000000000000000000000000000000815260040161252d90614b27565b60405180910390fd5b61253f8161205f565b1561257f576040517f08c379a000000000000000000000000000000000000000000000000000000000815260040161257690614b93565b60405180910390fd5b61258b60008383612be9565b6001600360008473ffffffffffffffffffffffffffffffffffffffff1673ffffffffffffffffffffffffffffffffffffffff16815260200190815260200160002060008282546125db9190614a85565b92505081905550816002600083815260200190815260200160002060006101000a81548173ffffffffffffffffffffffffffffffffffffffff021916908373ffffffffffffffffffffffffffffffffffffffff160217905550808273ffffffffffffffffffffffffffffffffffffffff16600073ffffffffffffffffffffffffffffffffffffffff167fddf252ad1be2c89b69c2b068fc378daa952ba7f163c4a11628f55a4df523b3ef60405160405180910390a45050565b61269d8261205f565b6126dc576040517f08c379a00000000000000000000000000000000000000000000000000000000081526004016126d390614c25565b60405180910390fd5b806006600084815260200190815260200160002090805190602001906127039291906134ee565b505050565b6000600b60009054906101000a900473ffffffffffffffffffffffffffffffffffffffff16905081600b60006101000a81548173ffffffffffffffffffffffffffffffffffffffff021916908373ffffffffffffffffffffffffffffffffffffffff1602179055508173ffffffffffffffffffffffffffffffffffffffff168173ffffffffffffffffffffffffffffffffffffffff167f8be0079c531659141344cd1fd0a4f28419497f9722a3daafe3b4186f6b6457e060405160405180910390a35050565b6127e8828260405180602001604052806000815250612bf9565b5050565b8173ffffffffffffffffffffffffffffffffffffffff168373ffffffffffffffffffffffffffffffffffffffff16141561285b576040517f08c379a000000000000000000000000000000000000000000000000000000000815260040161285290614c91565b60405180910390fd5b80600560008573ffffffffffffffffffffffffffffffffffffffff1673ffffffffffffffffffffffffffffffffffffffff16815260200190815260200160002060008473ffffffffffffffffffffffffffffffffffffffff1673ffffffffffffffffffffffffffffffffffffffff16815260200190815260200160002060006101000a81548160ff0219169083151502179055508173ffffffffffffffffffffffffffffffffffffffff168373ffffffffffffffffffffffffffffffffffffffff167f17307eab39ab6107e8899845ad3d59bd9653f200f220920489ca2b5937696c318360405161294c91906136e8565b60405180910390a3505050565b61296484848461226a565b61297084848484612c54565b6129af576040517f08c379a00000000000000000000000000000000000000000000000000000000081526004016129a690614d23565b60405180910390fd5b50505050565b60606129c08261205f565b6129ff576040517f08c379a00000000000000000000000000000000000000000000000000000000081526004016129f690614db5565b60405180910390fd5b6000600660008481526020019081526020016000208054612a1f9061406f565b80601f0160208091040260200160405190810160405280929190818152602001828054612a4b9061406f565b8015612a985780601f10612a6d57610100808354040283529160200191612a98565b820191906000526020600020905b815481529060010190602001808311612a7b57829003601f168201915b505050505090506000612aa9612e14565b9050600081511415612abf578192505050612b02565b600082511115612af4578082604051602001612adc929190614dd5565b60405160208183030381529060405292505050612b02565b612afd84612e2b565b925050505b919050565b60007f80ac58cd000000000000000000000000000000000000000000000000000000007bffffffffffffffffffffffffffffffffffffffffffffffffffffffff1916827bffffffffffffffffffffffffffffffffffffffffffffffffffffffff19161480612bd257507f5b5e139f000000000000000000000000000000000000000000000000000000007bffffffffffffffffffffffffffffffffffffffffffffffffffffffff1916827bffffffffffffffffffffffffffffffffffffffffffffffffffffffff1916145b80612be25750612be182612ed2565b5b9050919050565b612bf4838383612f3c565b505050565b612c0383836124c6565b612c106000848484612c54565b612c4f576040517f08c379a0000000000000000000000000000000000000000000000000000000008152600401612c4690614d23565b60405180910390fd5b505050565b6000612c758473ffffffffffffffffffffffffffffffffffffffff16613050565b15612e07578373ffffffffffffffffffffffffffffffffffffffff1663150b7a02612c9e6120cb565b8786866040518563ffffffff167c0100000000000000000000000000000000000000000000000000000000028152600401612cdc9493929190614e4e565b6020604051808303816000875af1925050508015612d1857506040513d601f19601f82011682018060405250810190612d159190614eaf565b60015b612d9b573d8060008114612d48576040519150601f19603f3d011682016040523d82523d6000602084013e612d4d565b606091505b50600081511415612d93576040517f08c379a0000000000000000000000000000000000000000000000000000000008152600401612d8a90614d23565b60405180910390fd5b805181602001fd5b63150b7a027c0100000000000000000000000000000000000000000000000000000000027bffffffffffffffffffffffffffffffffffffffffffffffffffffffff1916817bffffffffffffffffffffffffffffffffffffffffffffffffffffffff191614915050612e0c565b600190505b949350505050565b606060405180602001604052806000815250905090565b6060612e368261205f565b612e75576040517f08c379a0000000000000000000000000000000000000000000000000000000008152600401612e6c90614f4e565b60405180910390fd5b6000612e7f612e14565b90506000815111612e9f5760405180602001604052806000815250612eca565b80612ea984613063565b604051602001612eba929190614dd5565b6040516020818303038152906040525b915050919050565b60007f01ffc9a7000000000000000000000000000000000000000000000000000000007bffffffffffffffffffffffffffffffffffffffffffffffffffffffff1916827bffffffffffffffffffffffffffffffffffffffffffffffffffffffff1916149050919050565b612f478383836131e3565b600073ffffffffffffffffffffffffffffffffffffffff168373ffffffffffffffffffffffffffffffffffffffff161415612f8a57612f85816131e8565b612fc9565b8173ffffffffffffffffffffffffffffffffffffffff168373ffffffffffffffffffffffffffffffffffffffff1614612fc857612fc78382613231565b5b5b600073ffffffffffffffffffffffffffffffffffffffff168273ffffffffffffffffffffffffffffffffffffffff16141561300c576130078161339e565b61304b565b8273ffffffffffffffffffffffffffffffffffffffff168273ffffffffffffffffffffffffffffffffffffffff161461304a57613049828261346f565b5b5b505050565b600080823b905060008111915050919050565b606060008214156130ab576040518060400160405280600181526020017f300000000000000000000000000000000000000000000000000000000000000081525090506131de565b600082905060005b600082146130dd5780806130c690614590565b915050600a826130d69190614f9d565b91506130b3565b60008167ffffffffffffffff8111156130f9576130f861399d565b5b6040519080825280601f01601f19166020018201604052801561312b5781602001600182028036833780820191505090505b5090505b600085146131d7576001826131449190614a51565b9150600a856131539190614fce565b603061315f9190614a85565b7f0100000000000000000000000000000000000000000000000000000000000000028183815181106131945761319361440d565b5b60200101907effffffffffffffffffffffffffffffffffffffffffffffffffffffffffffff1916908160001a905350600a856131d09190614f9d565b945061312f565b8093505050505b919050565b505050565b600980549050600a600083815260200190815260200160002081905550600981908060018154018082558091505060019003906000526020600020016000909190919091505550565b6000600161323e84611495565b6132489190614a51565b905060006008600084815260200190815260200160002054905081811461332d576000600760008673ffffffffffffffffffffffffffffffffffffffff1673ffffffffffffffffffffffffffffffffffffffff168152602001908152602001600020600084815260200190815260200160002054905080600760008773ffffffffffffffffffffffffffffffffffffffff1673ffffffffffffffffffffffffffffffffffffffff168152602001908152602001600020600084815260200190815260200160002081905550816008600083815260200190815260200160002081905550505b6008600084815260200190815260200160002060009055600760008573ffffffffffffffffffffffffffffffffffffffff1673ffffffffffffffffffffffffffffffffffffffff16815260200190815260200160002060008381526020019081526020016000206000905550505050565b600060016009805490506133b29190614a51565b90506000600a60008481526020019081526020016000205490506000600983815481106133e2576133e161440d565b5b9060005260206000200154905080600983815481106134045761340361440d565b5b906000526020600020018190555081600a600083815260200190815260200160002081905550600a600085815260200190815260200160002060009055600980548061345357613452614fff565b5b6001900381819060005260206000200160009055905550505050565b600061347a83611495565b905081600760008573ffffffffffffffffffffffffffffffffffffffff1673ffffffffffffffffffffffffffffffffffffffff168152602001908152602001600020600083815260200190815260200160002081905550806008600084815260200190815260200160002081905550505050565b8280546134fa9061406f565b90600052602060002090601f01602090048101928261351c5760008555613563565b82601f1061353557805160ff1916838001178555613563565b82800160010185558215613563579182015b82811115613562578251825591602001919060010190613547565b5b5090506135709190613617565b5090565b6040518061016001604052806000815260200160608152602001600073ffffffffffffffffffffffffffffffffffffffff168152602001600073ffffffffffffffffffffffffffffffffffffffff168152602001600073ffffffffffffffffffffffffffffffffffffffff168152602001600081526020016000815260200160001515815260200160001515815260200160608152602001600060ff1681525090565b5b80821115613630576000816000905550600101613618565b5090565b6000604051905090565b600080fd5b600080fd5b60007fffffffff0000000000000000000000000000000000000000000000000000000082169050919050565b61367d81613648565b811461368857600080fd5b50565b60008135905061369a81613674565b92915050565b6000602082840312156136b6576136b561363e565b5b60006136c48482850161368b565b91505092915050565b60008115159050919050565b6136e2816136cd565b82525050565b60006020820190506136fd60008301846136d9565b92915050565b600081519050919050565b600082825260208201905092915050565b60005b8381101561373d578082015181840152602081019050613722565b8381111561374c576000848401525b50505050565b6000601f19601f8301169050919050565b600061376e82613703565b613778818561370e565b935061378881856020860161371f565b61379181613752565b840191505092915050565b600060208201905081810360008301526137b68184613763565b905092915050565b6000819050919050565b6137d1816137be565b81146137dc57600080fd5b50565b6000813590506137ee816137c8565b92915050565b60006020828403121561380a5761380961363e565b5b6000613818848285016137df565b91505092915050565b600073ffffffffffffffffffffffffffffffffffffffff82169050919050565b600061384c82613821565b9050919050565b61385c81613841565b82525050565b60006020820190506138776000830184613853565b92915050565b61388681613841565b811461389157600080fd5b50565b6000813590506138a38161387d565b92915050565b600080604083850312156138c0576138bf61363e565b5b60006138ce85828601613894565b92505060206138df858286016137df565b9150509250929050565b6138f2816137be565b82525050565b600060208201905061390d60008301846138e9565b92915050565b60008060006060848603121561392c5761392b61363e565b5b600061393a86828701613894565b935050602061394b86828701613894565b925050604061395c868287016137df565b9150509250925092565b60006020828403121561397c5761397b61363e565b5b600061398a84828501613894565b91505092915050565b600080fd5b600080fd5b7f4e487b7100000000000000000000000000000000000000000000000000000000600052604160045260246000fd5b6139d582613752565b810181811067ffffffffffffffff821117156139f4576139f361399d565b5b80604052505050565b6000613a07613634565b9050613a1382826139cc565b919050565b600067ffffffffffffffff821115613a3357613a3261399d565b5b613a3c82613752565b9050602081019050919050565b82818337600083830152505050565b6000613a6b613a6684613a18565b6139fd565b905082815260208101848484011115613a8757613a86613998565b5b613a92848285613a49565b509392505050565b600082601f830112613aaf57613aae613993565b5b8135613abf848260208601613a58565b91505092915050565b600060208284031215613ade57613add61363e565b5b600082013567ffffffffffffffff811115613afc57613afb613643565b5b613b0884828501613a9a565b91505092915050565b6000613b1c82613821565b9050919050565b613b2c81613b11565b82525050565b600060ff82169050919050565b613b4881613b32565b82525050565b600061016082019050613b64600083018e6138e9565b8181036020830152613b76818d613763565b9050613b85604083018c613b23565b613b92606083018b613b23565b613b9f608083018a613b23565b613bac60a08301896138e9565b613bb960c08301886138e9565b613bc660e08301876136d9565b613bd46101008301866136d9565b818103610120830152613be78185613763565b9050613bf7610140830184613b3f565b9c9b505050505050505050505050565b613c1081613b32565b8114613c1b57600080fd5b50565b600081359050613c2d81613c07565b92915050565b60008060008060808587031215613c4d57613c4c61363e565b5b6000613c5b87828801613894565b945050602085013567ffffffffffffffff811115613c7c57613c7b613643565b5b613c8887828801613a9a565b935050604085013567ffffffffffffffff811115613ca957613ca8613643565b5b613cb587828801613a9a565b9250506060613cc687828801613c1e565b91505092959194509250565b613cdb816137be565b82525050565b600082825260208201905092915050565b6000613cfd82613703565b613d078185613ce1565b9350613d1781856020860161371f565b613d2081613752565b840191505092915050565b613d3481613b11565b82525050565b613d43816136cd565b82525050565b613d5281613b32565b82525050565b600061016083016000830151613d716000860182613cd2565b5060208301518482036020860152613d898282613cf2565b9150506040830151613d9e6040860182613d2b565b506060830151613db16060860182613d2b565b506080830151613dc46080860182613d2b565b5060a0830151613dd760a0860182613cd2565b5060c0830151613dea60c0860182613cd2565b5060e0830151613dfd60e0860182613d3a565b50610100830151613e12610100860182613d3a565b50610120830151848203610120860152613e2c8282613cf2565b915050610140830151613e43610140860182613d49565b508091505092915050565b60006020820190508181036000830152613e688184613d58565b905092915050565b613e79816136cd565b8114613e8457600080fd5b50565b600081359050613e9681613e70565b92915050565b60008060408385031215613eb357613eb261363e565b5b6000613ec185828601613894565b9250506020613ed285828601613e87565b9150509250929050565b600067ffffffffffffffff821115613ef757613ef661399d565b5b613f0082613752565b9050602081019050919050565b6000613f20613f1b84613edc565b6139fd565b905082815260208101848484011115613f3c57613f3b613998565b5b613f47848285613a49565b509392505050565b600082601f830112613f6457613f63613993565b5b8135613f74848260208601613f0d565b91505092915050565b60008060008060808587031215613f9757613f9661363e565b5b6000613fa587828801613894565b9450506020613fb687828801613894565b9350506040613fc7878288016137df565b925050606085013567ffffffffffffffff811115613fe857613fe7613643565b5b613ff487828801613f4f565b91505092959194509250565b600080604083850312156140175761401661363e565b5b600061402585828601613894565b925050602061403685828601613894565b9150509250929050565b7f4e487b7100000000000000000000000000000000000000000000000000000000600052602260045260246000fd5b6000600282049050600182168061408757607f821691505b6020821081141561409b5761409a614040565b5b50919050565b7f4552433732313a20617070726f76656420717565727920666f72206e6f6e657860008201527f697374656e7420746f6b656e0000000000000000000000000000000000000000602082015250565b60006140fd602c8361370e565b9150614108826140a1565b604082019050919050565b6000602082019050818103600083015261412c816140f0565b9050919050565b7f4552433732313a20617070726f76616c20746f2063757272656e74206f776e6560008201527f7200000000000000000000000000000000000000000000000000000000000000602082015250565b600061418f60218361370e565b915061419a82614133565b604082019050919050565b600060208201905081810360008301526141be81614182565b9050919050565b7f4552433732313a20617070726f76652063616c6c6572206973206e6f74206f7760008201527f6e6572206e6f7220617070726f76656420666f7220616c6c0000000000000000602082015250565b600061422160388361370e565b915061422c826141c5565b604082019050919050565b6000602082019050818103600083015261425081614214565b9050919050565b7f4552433732313a207472616e736665722063616c6c6572206973206e6f74206f60008201527f776e6572206e6f7220617070726f766564000000000000000000000000000000602082015250565b60006142b360318361370e565b91506142be82614257565b604082019050919050565b600060208201905081810360008301526142e2816142a6565b9050919050565b7f455243373231456e756d657261626c653a206f776e657220696e646578206f7560008201527f74206f6620626f756e6473000000000000000000000000000000000000000000602082015250565b6000614345602b8361370e565b9150614350826142e9565b604082019050919050565b6000602082019050818103600083015261437481614338565b9050919050565b7f455243373231456e756d657261626c653a20676c6f62616c20696e646578206f60008201527f7574206f6620626f756e64730000000000000000000000000000000000000000602082015250565b60006143d7602c8361370e565b91506143e28261437b565b604082019050919050565b60006020820190508181036000830152614406816143ca565b9050919050565b7f4e487b7100000000000000000000000000000000000000000000000000000000600052603260045260246000fd5b7f4f776e61626c653a2063616c6c6572206973206e6f7420746865206f776e6572600082015250565b600061447260208361370e565b915061447d8261443c565b602082019050919050565b600060208201905081810360008301526144a181614465565b9050919050565b7f5468697320616464726573732077617320616c72656164792075736564000000600082015250565b60006144de601d8361370e565b91506144e9826144a8565b602082019050919050565b6000602082019050818103600083015261450d816144d1565b9050919050565b7f67616d6500000000000000000000000000000000000000000000000000000000815250565b600060408201905061454f6000830184613853565b61455b60208301614514565b92915050565b7f4e487b7100000000000000000000000000000000000000000000000000000000600052601160045260246000fd5b600061459b826137be565b91507fffffffffffffffffffffffffffffffffffffffffffffffffffffffffffffffff8214156145ce576145cd614561565b5b600182019050919050565b600081905092915050565b60006145ef82613703565b6145f981856145d9565b935061460981856020860161371f565b80840191505092915050565b600061462182846145e4565b915081905092915050565b7f4552433732313a206f776e657220717565727920666f72206e6f6e657869737460008201527f656e7420746f6b656e0000000000000000000000000000000000000000000000602082015250565b600061468860298361370e565b91506146938261462c565b604082019050919050565b600060208201905081810360008301526146b78161467b565b9050919050565b7f4552433732313a2062616c616e636520717565727920666f7220746865207a6560008201527f726f206164647265737300000000000000000000000000000000000000000000602082015250565b600061471a602a8361370e565b9150614725826146be565b604082019050919050565b600060208201905081810360008301526147498161470d565b9050919050565b7f436865737420686173206265656e206f70656e65640000000000000000000000600082015250565b600061478660158361370e565b915061479182614750565b602082019050919050565b600060208201905081810360008301526147b581614779565b9050919050565b7f706b740000000000000000000000000000000000000000000000000000000000815250565b60006040820190506147f76000830184613853565b614803602083016147bc565b92915050565b7f4f776e61626c653a206e6577206f776e657220697320746865207a65726f206160008201527f6464726573730000000000000000000000000000000000000000000000000000602082015250565b600061486560268361370e565b915061487082614809565b604082019050919050565b6000602082019050818103600083015261489481614858565b9050919050565b7f4552433732313a206f70657261746f7220717565727920666f72206e6f6e657860008201527f697374656e7420746f6b656e0000000000000000000000000000000000000000602082015250565b60006148f7602c8361370e565b91506149028261489b565b604082019050919050565b60006020820190508181036000830152614926816148ea565b9050919050565b7f4552433732313a207472616e73666572206f6620746f6b656e2074686174206960008201527f73206e6f74206f776e0000000000000000000000000000000000000000000000602082015250565b600061498960298361370e565b91506149948261492d565b604082019050919050565b600060208201905081810360008301526149b88161497c565b9050919050565b7f4552433732313a207472616e7366657220746f20746865207a65726f2061646460008201527f7265737300000000000000000000000000000000000000000000000000000000602082015250565b6000614a1b60248361370e565b9150614a26826149bf565b604082019050919050565b60006020820190508181036000830152614a4a81614a0e565b9050919050565b6000614a5c826137be565b9150614a67836137be565b925082821015614a7a57614a79614561565b5b828203905092915050565b6000614a90826137be565b9150614a9b836137be565b9250827fffffffffffffffffffffffffffffffffffffffffffffffffffffffffffffffff03821115614ad057614acf614561565b5b828201905092915050565b7f4552433732313a206d696e7420746f20746865207a65726f2061646472657373600082015250565b6000614b1160208361370e565b9150614b1c82614adb565b602082019050919050565b60006020820190508181036000830152614b4081614b04565b9050919050565b7f4552433732313a20746f6b656e20616c7265616479206d696e74656400000000600082015250565b6000614b7d601c8361370e565b9150614b8882614b47565b602082019050919050565b60006020820190508181036000830152614bac81614b70565b9050919050565b7f45524337323155524953746f726167653a2055524920736574206f66206e6f6e60008201527f6578697374656e7420746f6b656e000000000000000000000000000000000000602082015250565b6000614c0f602e8361370e565b9150614c1a82614bb3565b604082019050919050565b60006020820190508181036000830152614c3e81614c02565b9050919050565b7f4552433732313a20617070726f766520746f2063616c6c657200000000000000600082015250565b6000614c7b60198361370e565b9150614c8682614c45565b602082019050919050565b60006020820190508181036000830152614caa81614c6e565b9050919050565b7f4552433732313a207472616e7366657220746f206e6f6e20455243373231526560008201527f63656976657220696d706c656d656e7465720000000000000000000000000000602082015250565b6000614d0d60328361370e565b9150614d1882614cb1565b604082019050919050565b60006020820190508181036000830152614d3c81614d00565b9050919050565b7f45524337323155524953746f726167653a2055524920717565727920666f722060008201527f6e6f6e6578697374656e7420746f6b656e000000000000000000000000000000602082015250565b6000614d9f60318361370e565b9150614daa82614d43565b604082019050919050565b60006020820190508181036000830152614dce81614d92565b9050919050565b6000614de182856145e4565b9150614ded82846145e4565b91508190509392505050565b600081519050919050565b600082825260208201905092915050565b6000614e2082614df9565b614e2a8185614e04565b9350614e3a81856020860161371f565b614e4381613752565b840191505092915050565b6000608082019050614e636000830187613853565b614e706020830186613853565b614e7d60408301856138e9565b8181036060830152614e8f8184614e15565b905095945050505050565b600081519050614ea981613674565b92915050565b600060208284031215614ec557614ec461363e565b5b6000614ed384828501614e9a565b91505092915050565b7f4552433732314d657461646174613a2055524920717565727920666f72206e6f60008201527f6e6578697374656e7420746f6b656e0000000000000000000000000000000000602082015250565b6000614f38602f8361370e565b9150614f4382614edc565b604082019050919050565b60006020820190508181036000830152614f6781614f2b565b9050919050565b7f4e487b7100000000000000000000000000000000000000000000000000000000600052601260045260246000fd5b6000614fa8826137be565b9150614fb3836137be565b925082614fc357614fc2614f6e565b5b828204905092915050565b6000614fd9826137be565b9150614fe4836137be565b925082614ff457614ff3614f6e565b5b828206905092915050565b7f4e487b7100000000000000000000000000000000000000000000000000000000600052603160045260246000fdfea2646970667358221220a450ff09edacaf03705e297cea584ea19a6c8e2a88a93b6d61379a5fd4eb410a64736f6c634300080c0033",
  "immutableReferences": {},
  "source": "// SPDX-License-Identifier: MIT\npragma solidity ^0.8.0;\npragma abicoder v2;\nimport \"@openzeppelin/contracts/token/ERC721/extensions/ERC721URIStorage.sol\";\nimport \"@openzeppelin/contracts/token/ERC721/extensions/ERC721Enumerable.sol\";\nimport \"@openzeppelin/contracts/token/ERC721/ERC721.sol\";\nimport \"@openzeppelin/contracts/utils/math/SafeMath.sol\";\nimport \"@openzeppelin/contracts/access/Ownable.sol\";\nimport \"./IBEP20.sol\";\nimport \"./IPiratesKingBase.sol\";\n\ncontract PiratesKingChest is\n    ERC721,\n    ERC721URIStorage,\n    ERC721Enumerable,\n    Ownable,\n    IPiratesKingBase\n{\n    using SafeMath for uint256;\n    string public collectionName;\n    string public collectionNameSymbol;\n    uint256 public chestCounter;\n    address public pktContract;\n    address public pktGameContract;\n    mapping(uint256 => PKChest) public allChests;\n    mapping(string => bool) public tokenURIExists;\n    mapping(uint256 => bool) public chestOpens;\n    event LibContractAddressUpdate(address newAddress, bytes32 contractName);\n\n    constructor()\n        ERC721(\"Chest Collection\", \"PKC\")\n    {\n        collectionName = name();\n        collectionNameSymbol = symbol();\n        pktContract = payable(0x29bc99648bA29461A2B00aB860280B4309578827);\n    }\n\n    function _beforeTokenTransfer(\n        address from,\n        address to,\n        uint256 tokenId\n    ) internal override(ERC721, ERC721Enumerable) {\n        super._beforeTokenTransfer(from, to, tokenId);\n    }\n\n    function _burn(uint256 tokenId)\n        internal\n        override(ERC721, ERC721URIStorage)\n    {\n        super._burn(tokenId);\n    }\n\n    function tokenURI(uint256 tokenId)\n        public\n        view\n        override(ERC721, ERC721URIStorage)\n        returns (string memory)\n    {\n        return super.tokenURI(tokenId);\n    }\n\n    function supportsInterface(bytes4 interfaceId)\n        public\n        view\n        override(ERC721, ERC721Enumerable)\n        returns (bool)\n    {\n        return super.supportsInterface(interfaceId);\n    }\n\n    function safeMint(address to, uint256 tokenId) public onlyOwner {\n        _safeMint(to, tokenId);\n    }\n\n    function setPKTContractAddress(address _contract) external onlyOwner {\n        require(pktContract != _contract, 'This address was already used');\n        pktContract = _contract;\n        emit LibContractAddressUpdate(_contract, \"pkt\");\n    }\n\n    function setPKTGameContractAddress(address _contract) external onlyOwner {\n        require(pktGameContract != _contract, 'This address was already used');\n        pktGameContract = _contract;\n        emit LibContractAddressUpdate(_contract, \"game\");\n    }\n\n    function getTokenOwner(uint256 _tokenId) public view returns (address) {\n        address _tokenOwner = ownerOf(_tokenId);\n        return _tokenOwner;\n    }\n\n    function getTokenMetaData(uint256 _tokenId)\n        public\n        view\n        returns (string memory)\n    {\n        string memory tokenMetaData = tokenURI(_tokenId);\n        return tokenMetaData;\n    }\n\n    function isChestOpen(uint256 _tokenId) public view returns (bool) {\n        return chestOpens[_tokenId];\n    }\n\n    function getNumberOfTokensMinted() public view returns (uint256) {\n        uint256 totalNumberOfTokensMinted = totalSupply();\n        return totalNumberOfTokensMinted;\n    }\n\n    function getTotalNumberOfTokensOwnedByAnAddress(address _owner)\n        public\n        view\n        returns (uint256)\n    {\n        uint256 totalNumberOfTokensOwned = balanceOf(_owner);\n        return totalNumberOfTokensOwned;\n    }\n\n    function getTokenExists(uint256 _tokenId) public view returns (bool) {\n        bool tokenExists = _exists(_tokenId);\n        return tokenExists;\n    }\n\n\n    function openChest(address _owner, uint256 _tokenId)\n        external\n        returns (PKChest memory)\n    {\n        require(msg.sender != address(0));\n        require(_exists(_tokenId));\n        address tokenOwner = ownerOf(_tokenId);\n        require(tokenOwner == _owner);\n        require(!chestOpens[_tokenId], \"Chest has been opened\");\n        PKChest memory chest = allChests[_tokenId];\n        chestOpens[_tokenId] = true;\n        chest.isOpened = true;\n        return chest;\n    }\n\n    function buyChest(\n        address buyer,\n        string memory _tokenURI,\n        string memory _data,\n        uint8 _cType\n    ) external returns (uint256) {\n\n        require(msg.sender == pktGameContract);\n        chestCounter++;\n        require(!_exists(chestCounter));\n        require(!tokenURIExists[_tokenURI]);\n        _mint(buyer, chestCounter);\n        _setTokenURI(chestCounter, _tokenURI);\n        tokenURIExists[_tokenURI] = true;\n        PKChest memory newChest = PKChest(\n                chestCounter,\n                _tokenURI,\n                payable(buyer),\n                payable(buyer),\n                payable(address(0)),\n                0,\n                0,\n                false,\n                false,\n                _data,\n                _cType\n            );\n            allChests[chestCounter] = newChest;\n            return chestCounter;\n    }\n}\n",
  "sourcePath": "/Users/macbook/Desktop/PiratesKingContract2022/PiratesKingContract2022/contracts/PiratesKingChest.sol",
  "compiler": {
    "name": "solc",
    "version": "0.8.12+commit.f00d7308.Emscripten.clang"
  },
  "schemaVersion": "3.4.4",
  "updatedAt": "2022-02-25T14:27:16.522Z",
  "devdoc": {
    "kind": "dev",
    "methods": {
      "approve(address,uint256)": {
        "details": "See {IERC721-approve}."
      },
      "balanceOf(address)": {
        "details": "See {IERC721-balanceOf}."
      },
      "getApproved(uint256)": {
        "details": "See {IERC721-getApproved}."
      },
      "isApprovedForAll(address,address)": {
        "details": "See {IERC721-isApprovedForAll}."
      },
      "name()": {
        "details": "See {IERC721Metadata-name}."
      },
      "owner()": {
        "details": "Returns the address of the current owner."
      },
      "ownerOf(uint256)": {
        "details": "See {IERC721-ownerOf}."
      },
      "renounceOwnership()": {
        "details": "Leaves the contract without owner. It will not be possible to call `onlyOwner` functions anymore. Can only be called by the current owner. NOTE: Renouncing ownership will leave the contract without an owner, thereby removing any functionality that is only available to the owner."
      },
      "safeTransferFrom(address,address,uint256)": {
        "details": "See {IERC721-safeTransferFrom}."
      },
      "safeTransferFrom(address,address,uint256,bytes)": {
        "details": "See {IERC721-safeTransferFrom}."
      },
      "setApprovalForAll(address,bool)": {
        "details": "See {IERC721-setApprovalForAll}."
      },
      "symbol()": {
        "details": "See {IERC721Metadata-symbol}."
      },
      "tokenByIndex(uint256)": {
        "details": "See {IERC721Enumerable-tokenByIndex}."
      },
      "tokenOfOwnerByIndex(address,uint256)": {
        "details": "See {IERC721Enumerable-tokenOfOwnerByIndex}."
      },
      "totalSupply()": {
        "details": "See {IERC721Enumerable-totalSupply}."
      },
      "transferFrom(address,address,uint256)": {
        "details": "See {IERC721-transferFrom}."
      },
      "transferOwnership(address)": {
        "details": "Transfers ownership of the contract to a new account (`newOwner`). Can only be called by the current owner."
      }
    },
    "version": 1
  },
  "userdoc": {
    "kind": "user",
    "methods": {},
    "version": 1
  }
}