{
  "contractName": "PiratesKingGame",
  "abi": [
    {
      "inputs": [],
      "stateMutability": "nonpayable",
      "type": "constructor"
    },
    {
      "anonymous": false,
      "inputs": [
        {
          "indexed": false,
          "internalType": "bool",
          "name": "newStatus",
          "type": "bool"
        }
      ],
      "name": "ContractStatusUpdate",
      "type": "event"
    },
    {
      "anonymous": false,
      "inputs": [
        {
          "indexed": true,
          "internalType": "address",
          "name": "player",
          "type": "address"
        },
        {
          "indexed": false,
          "internalType": "uint256",
          "name": "chest_id",
          "type": "uint256"
        }
      ],
      "name": "GiveChestToContestWinner",
      "type": "event"
    },
    {
      "anonymous": false,
      "inputs": [
        {
          "indexed": false,
          "internalType": "address",
          "name": "newAddress",
          "type": "address"
        },
        {
          "indexed": false,
          "internalType": "bytes32",
          "name": "contractName",
          "type": "bytes32"
        }
      ],
      "name": "LibContractAddressUpdate",
      "type": "event"
    },
    {
      "anonymous": false,
      "inputs": [
        {
          "indexed": true,
          "internalType": "address",
          "name": "player",
          "type": "address"
        },
        {
          "indexed": false,
          "internalType": "uint256",
          "name": "chest_id",
          "type": "uint256"
        },
        {
          "indexed": false,
          "internalType": "uint256",
          "name": "amount",
          "type": "uint256"
        }
      ],
      "name": "NewChestPurchased",
      "type": "event"
    },
    {
      "anonymous": false,
      "inputs": [
        {
          "indexed": true,
          "internalType": "address",
          "name": "player",
          "type": "address"
        },
        {
          "indexed": false,
          "internalType": "string",
          "name": "name",
          "type": "string"
        },
        {
          "indexed": false,
          "internalType": "uint256",
          "name": "amount",
          "type": "uint256"
        },
        {
          "indexed": false,
          "internalType": "string",
          "name": "date",
          "type": "string"
        }
      ],
      "name": "NewIsLandChose",
      "type": "event"
    },
    {
      "anonymous": false,
      "inputs": [
        {
          "indexed": true,
          "internalType": "address",
          "name": "player",
          "type": "address"
        },
        {
          "indexed": false,
          "internalType": "string",
          "name": "id_level",
          "type": "string"
        },
        {
          "indexed": false,
          "internalType": "uint256",
          "name": "amount",
          "type": "uint256"
        },
        {
          "indexed": false,
          "internalType": "string",
          "name": "id_pirate",
          "type": "string"
        }
      ],
      "name": "NewLevelUpgrade",
      "type": "event"
    },
    {
      "anonymous": false,
      "inputs": [
        {
          "indexed": true,
          "internalType": "address",
          "name": "previousOwner",
          "type": "address"
        },
        {
          "indexed": true,
          "internalType": "address",
          "name": "newOwner",
          "type": "address"
        }
      ],
      "name": "OwnershipTransferred",
      "type": "event"
    },
    {
      "inputs": [],
      "name": "active",
      "outputs": [
        {
          "internalType": "bool",
          "name": "",
          "type": "bool"
        }
      ],
      "stateMutability": "view",
      "type": "function"
    },
    {
      "inputs": [],
      "name": "buyChestRewardPercent",
      "outputs": [
        {
          "internalType": "uint256",
          "name": "",
          "type": "uint256"
        }
      ],
      "stateMutability": "view",
      "type": "function"
    },
    {
      "inputs": [],
      "name": "chestContract",
      "outputs": [
        {
          "internalType": "address",
          "name": "",
          "type": "address"
        }
      ],
      "stateMutability": "view",
      "type": "function"
    },
    {
      "inputs": [],
      "name": "devPool",
      "outputs": [
        {
          "internalType": "address payable",
          "name": "",
          "type": "address"
        }
      ],
      "stateMutability": "view",
      "type": "function"
    },
    {
      "inputs": [],
      "name": "findTreasureIslandPool",
      "outputs": [
        {
          "internalType": "address payable",
          "name": "",
          "type": "address"
        }
      ],
      "stateMutability": "view",
      "type": "function"
    },
    {
      "inputs": [
        {
          "internalType": "address",
          "name": "",
          "type": "address"
        },
        {
          "internalType": "uint256",
          "name": "",
          "type": "uint256"
        }
      ],
      "name": "islandsChose",
      "outputs": [
        {
          "internalType": "string",
          "name": "date",
          "type": "string"
        },
        {
          "internalType": "string",
          "name": "isLandName",
          "type": "string"
        },
        {
          "internalType": "uint256",
          "name": "amount",
          "type": "uint256"
        }
      ],
      "stateMutability": "view",
      "type": "function"
    },
    {
      "inputs": [],
      "name": "owner",
      "outputs": [
        {
          "internalType": "address",
          "name": "",
          "type": "address"
        }
      ],
      "stateMutability": "view",
      "type": "function"
    },
    {
      "inputs": [],
      "name": "pktContract",
      "outputs": [
        {
          "internalType": "address",
          "name": "",
          "type": "address"
        }
      ],
      "stateMutability": "view",
      "type": "function"
    },
    {
      "inputs": [],
      "name": "renounceOwnership",
      "outputs": [],
      "stateMutability": "nonpayable",
      "type": "function"
    },
    {
      "inputs": [],
      "name": "rewardPool",
      "outputs": [
        {
          "internalType": "address payable",
          "name": "",
          "type": "address"
        }
      ],
      "stateMutability": "view",
      "type": "function"
    },
    {
      "inputs": [
        {
          "internalType": "address",
          "name": "newOwner",
          "type": "address"
        }
      ],
      "name": "transferOwnership",
      "outputs": [],
      "stateMutability": "nonpayable",
      "type": "function"
    },
    {
      "inputs": [],
      "name": "treasureIslandDevPercent",
      "outputs": [
        {
          "internalType": "uint256",
          "name": "",
          "type": "uint256"
        }
      ],
      "stateMutability": "view",
      "type": "function"
    },
    {
      "inputs": [],
      "name": "treasureIslandRewardPercent",
      "outputs": [
        {
          "internalType": "uint256",
          "name": "",
          "type": "uint256"
        }
      ],
      "stateMutability": "view",
      "type": "function"
    },
    {
      "inputs": [
        {
          "internalType": "address",
          "name": "_address",
          "type": "address"
        }
      ],
      "name": "setFindTreasureIslandPoolAddress",
      "outputs": [],
      "stateMutability": "nonpayable",
      "type": "function"
    },
    {
      "inputs": [
        {
          "internalType": "address",
          "name": "_address",
          "type": "address"
        }
      ],
      "name": "setRewardPoolAddress",
      "outputs": [],
      "stateMutability": "nonpayable",
      "type": "function"
    },
    {
      "inputs": [
        {
          "internalType": "address",
          "name": "_address",
          "type": "address"
        }
      ],
      "name": "setDevPoolAddress",
      "outputs": [],
      "stateMutability": "nonpayable",
      "type": "function"
    },
    {
      "inputs": [
        {
          "internalType": "address",
          "name": "_contract",
          "type": "address"
        }
      ],
      "name": "setPKTContractAddress",
      "outputs": [],
      "stateMutability": "nonpayable",
      "type": "function"
    },
    {
      "inputs": [
        {
          "internalType": "address",
          "name": "_contract",
          "type": "address"
        }
      ],
      "name": "setChestContractAddress",
      "outputs": [],
      "stateMutability": "nonpayable",
      "type": "function"
    },
    {
      "inputs": [
        {
          "internalType": "uint256",
          "name": "percent",
          "type": "uint256"
        }
      ],
      "name": "setBuyChestRewardPercent",
      "outputs": [],
      "stateMutability": "nonpayable",
      "type": "function"
    },
    {
      "inputs": [
        {
          "internalType": "uint256",
          "name": "percent",
          "type": "uint256"
        }
      ],
      "name": "setTreasureIslandRewardPercent",
      "outputs": [],
      "stateMutability": "nonpayable",
      "type": "function"
    },
    {
      "inputs": [
        {
          "internalType": "uint256",
          "name": "percent",
          "type": "uint256"
        }
      ],
      "name": "setTreasureIslandDevPercent",
      "outputs": [],
      "stateMutability": "nonpayable",
      "type": "function"
    },
    {
      "inputs": [
        {
          "internalType": "uint256",
          "name": "_cost",
          "type": "uint256"
        }
      ],
      "name": "setBaseCost",
      "outputs": [],
      "stateMutability": "nonpayable",
      "type": "function"
    },
    {
      "inputs": [],
      "name": "getBaseCost",
      "outputs": [
        {
          "internalType": "uint256",
          "name": "",
          "type": "uint256"
        }
      ],
      "stateMutability": "view",
      "type": "function"
    },
    {
      "inputs": [
        {
          "internalType": "uint256",
          "name": "_cost",
          "type": "uint256"
        }
      ],
      "name": "setBaseCostChestVip",
      "outputs": [],
      "stateMutability": "nonpayable",
      "type": "function"
    },
    {
      "inputs": [],
      "name": "getBaseCostChestVip",
      "outputs": [
        {
          "internalType": "uint256",
          "name": "",
          "type": "uint256"
        }
      ],
      "stateMutability": "view",
      "type": "function"
    },
    {
      "inputs": [
        {
          "internalType": "uint256",
          "name": "_cost",
          "type": "uint256"
        }
      ],
      "name": "setBaseCostItemChest",
      "outputs": [],
      "stateMutability": "nonpayable",
      "type": "function"
    },
    {
      "inputs": [],
      "name": "getBaseCostItemChest",
      "outputs": [
        {
          "internalType": "uint256",
          "name": "",
          "type": "uint256"
        }
      ],
      "stateMutability": "view",
      "type": "function"
    },
    {
      "inputs": [
        {
          "internalType": "bool",
          "name": "_active",
          "type": "bool"
        }
      ],
      "name": "activateDeactivateContract",
      "outputs": [],
      "stateMutability": "nonpayable",
      "type": "function"
    },
    {
      "inputs": [
        {
          "internalType": "string",
          "name": "_islandName",
          "type": "string"
        },
        {
          "internalType": "uint256",
          "name": "_amount",
          "type": "uint256"
        },
        {
          "internalType": "string",
          "name": "_date",
          "type": "string"
        },
        {
          "internalType": "string",
          "name": "trans_id",
          "type": "string"
        }
      ],
      "name": "playerChooseIsland",
      "outputs": [],
      "stateMutability": "payable",
      "type": "function"
    },
    {
      "inputs": [
        {
          "internalType": "string",
          "name": "_idPirate",
          "type": "string"
        },
        {
          "internalType": "uint256",
          "name": "_amount",
          "type": "uint256"
        },
        {
          "internalType": "string",
          "name": "_idLevel",
          "type": "string"
        },
        {
          "internalType": "string",
          "name": "trans_id",
          "type": "string"
        }
      ],
      "name": "playerUpgradeLevel",
      "outputs": [],
      "stateMutability": "payable",
      "type": "function"
    },
    {
      "inputs": [
        {
          "internalType": "string",
          "name": "_tokenURI",
          "type": "string"
        },
        {
          "internalType": "uint256",
          "name": "_price",
          "type": "uint256"
        },
        {
          "internalType": "string",
          "name": "_data",
          "type": "string"
        },
        {
          "internalType": "uint8",
          "name": "_cType",
          "type": "uint8"
        },
        {
          "internalType": "string",
          "name": "trans_id",
          "type": "string"
        }
      ],
      "name": "buyChest",
      "outputs": [
        {
          "internalType": "uint256",
          "name": "",
          "type": "uint256"
        }
      ],
      "stateMutability": "payable",
      "type": "function"
    },
    {
      "inputs": [
        {
          "internalType": "address",
          "name": "winner",
          "type": "address"
        },
        {
          "internalType": "string",
          "name": "_tokenURI",
          "type": "string"
        },
        {
          "internalType": "string",
          "name": "_data",
          "type": "string"
        },
        {
          "internalType": "uint8",
          "name": "_cType",
          "type": "uint8"
        }
      ],
      "name": "giveChestToContestWinner",
      "outputs": [
        {
          "internalType": "uint256",
          "name": "",
          "type": "uint256"
        }
      ],
      "stateMutability": "nonpayable",
      "type": "function"
    },
    {
      "inputs": [
        {
          "internalType": "string",
          "name": "trans_id",
          "type": "string"
        }
      ],
      "name": "transactionInfoOf",
      "outputs": [
        {
          "components": [
            {
              "internalType": "uint256",
              "name": "amount",
              "type": "uint256"
            },
            {
              "internalType": "uint256",
              "name": "timestamp",
              "type": "uint256"
            },
            {
              "internalType": "string",
              "name": "t_type",
              "type": "string"
            },
            {
              "internalType": "address",
              "name": "wallet",
              "type": "address"
            }
          ],
          "internalType": "struct PiratesKingGame.TransactionInfo",
          "name": "",
          "type": "tuple"
        }
      ],
      "stateMutability": "view",
      "type": "function"
    }
  ],
  "bytecode": "0x60806040526046600c556002600d556008600e553480156200002057600080fd5b50620000536200003e6200024d640100000000026401000000009004565b62000255640100000000026401000000009004565b736d5527d0c4494dd9d8a2fad80ff7872558ed9fdc600260006101000a81548173ffffffffffffffffffffffffffffffffffffffff021916908373ffffffffffffffffffffffffffffffffffffffff160217905550736d5527d0c4494dd9d8a2fad80ff7872558ed9fdc600360006101000a81548173ffffffffffffffffffffffffffffffffffffffff021916908373ffffffffffffffffffffffffffffffffffffffff160217905550739b5b98d20042c29293289fea8324ef1584e9c78e600460006101000a81548173ffffffffffffffffffffffffffffffffffffffff021916908373ffffffffffffffffffffffffffffffffffffffff160217905550734cbd8adcd7eca7d1b71adbbf484f1e8014681a9d600160006101000a81548173ffffffffffffffffffffffffffffffffffffffff021916908373ffffffffffffffffffffffffffffffffffffffff160217905550734b9e79936be974ca4beeffe160cceda11f5c4400600560006101000a81548173ffffffffffffffffffffffffffffffffffffffff021916908373ffffffffffffffffffffffffffffffffffffffff160217905550685150ae84a8cdf00000600681905550686c6b935b8bbd400000600781905550683635c9adc5dea000006008819055506001600960006101000a81548160ff02191690831515021790555062000319565b600033905090565b60008060009054906101000a900473ffffffffffffffffffffffffffffffffffffffff169050816000806101000a81548173ffffffffffffffffffffffffffffffffffffffff021916908373ffffffffffffffffffffffffffffffffffffffff1602179055508173ffffffffffffffffffffffffffffffffffffffff168173ffffffffffffffffffffffffffffffffffffffff167f8be0079c531659141344cd1fd0a4f28419497f9722a3daafe3b4186f6b6457e060405160405180910390a35050565b613e1680620003296000396000f3fe60806040526004361061020b576000357c0100000000000000000000000000000000000000000000000000000000900480638da5cb5b1161012a578063e17ba213116100bd578063ef970cc51161008c578063ef970cc5146106bb578063f2fde38b146106e4578063fa91ab4a1461070d578063fc374a4714610738578063fd4cbcbb146107635761020b565b8063e17ba213146105fa578063e42d595614610625578063eabaa45d1461064e578063eaed24151461068b5761020b565b8063b24cf5d7116100f9578063b24cf5d714610550578063b5838a2714610579578063ca1c9405146105a4578063d59134ba146105cf5761020b565b80638da5cb5b146104925780639b13a0aa146104bd578063aa2ecd7c146104fc578063b13a1a0a146105275761020b565b8063345c8c9b116101a2578063715018a611610171578063715018a61461040b5780637841ee1e1461042257806379ba5e381461044d57806388935f53146104765761020b565b8063345c8c9b1461036557806340cc30381461038e57806346cf65a1146103b757806366666aa9146103e05761020b565b80632b5dc91f116101de5780632b5dc91f146102ba578063306cd1e4146102e3578063337198921461030c57806333913429146103495761020b565b806302fb0c5e1461021057806315e04ca61461023b57806321bbf14c1461026657806329dfed491461028f575b600080fd5b34801561021c57600080fd5b5061022561078c565b6040516102329190612d2d565b60405180910390f35b34801561024757600080fd5b5061025061079f565b60405161025d9190612d61565b60405180910390f35b34801561027257600080fd5b5061028d60048036038101906102889190612dbc565b6107a5565b005b34801561029b57600080fd5b506102a4610875565b6040516102b19190612e2a565b60405180910390f35b3480156102c657600080fd5b506102e160048036038101906102dc9190612e71565b61089b565b005b3480156102ef57600080fd5b5061030a60048036038101906103059190612edc565b610964565b005b34801561031857600080fd5b50610333600480360381019061032e919061304f565b610aec565b60405161034091906131a1565b60405180910390f35b610363600480360381019061035e91906131c3565b610c20565b005b34801561037157600080fd5b5061038c60048036038101906103879190612e71565b6111a9565b005b34801561039a57600080fd5b506103b560048036038101906103b09190612e71565b611272565b005b3480156103c357600080fd5b506103de60048036038101906103d99190612edc565b61133b565b005b3480156103ec57600080fd5b506103f56114c3565b6040516104029190612e2a565b60405180910390f35b34801561041757600080fd5b506104206114e9565b005b34801561042e57600080fd5b50610437611571565b6040516104449190612d61565b60405180910390f35b34801561045957600080fd5b50610474600480360381019061046f9190612e71565b611577565b005b610490600480360381019061048b91906131c3565b61160c565b005b34801561049e57600080fd5b506104a76118c5565b6040516104b4919061328d565b60405180910390f35b3480156104c957600080fd5b506104e460048036038101906104df91906132a8565b6118ee565b6040516104f393929190613332565b60405180910390f35b34801561050857600080fd5b50610511611a45565b60405161051e9190612d61565b60405180910390f35b34801561053357600080fd5b5061054e60048036038101906105499190612edc565b611acb565b005b34801561055c57600080fd5b5061057760048036038101906105729190612edc565b611c53565b005b34801561058557600080fd5b5061058e611ddb565b60405161059b9190612e2a565b60405180910390f35b3480156105b057600080fd5b506105b9611e01565b6040516105c69190612d61565b60405180910390f35b3480156105db57600080fd5b506105e4611e87565b6040516105f1919061328d565b60405180910390f35b34801561060657600080fd5b5061060f611ead565b60405161061c9190612d61565b60405180910390f35b34801561063157600080fd5b5061064c60048036038101906106479190612edc565b611f33565b005b34801561065a57600080fd5b50610675600480360381019061067091906133b0565b6120bb565b6040516106829190612d61565b60405180910390f35b6106a560048036038101906106a0919061344f565b61225d565b6040516106b29190612d61565b60405180910390f35b3480156106c757600080fd5b506106e260048036038101906106dd9190612e71565b6128d5565b005b3480156106f057600080fd5b5061070b60048036038101906107069190612edc565b61296a565b005b34801561071957600080fd5b50610722612a62565b60405161072f919061328d565b60405180910390f35b34801561074457600080fd5b5061074d612a88565b60405161075a9190612d61565b60405180910390f35b34801561076f57600080fd5b5061078a60048036038101906107859190612e71565b612a8e565b005b600960009054906101000a900460ff1681565b600e5481565b6107ad612b23565b73ffffffffffffffffffffffffffffffffffffffff166107cb6118c5565b73ffffffffffffffffffffffffffffffffffffffff1614610821576040517f08c379a00000000000000000000000000000000000000000000000000000000081526004016108189061356a565b60405180910390fd5b80600960006101000a81548160ff0219169083151502179055507f09712b3452a5348a0328397d58ce3c6cdc382ad233b3c04924a1f5683fa925748160405161086a9190612d2d565b60405180910390a150565b600260009054906101000a900473ffffffffffffffffffffffffffffffffffffffff1681565b6108a3612b23565b73ffffffffffffffffffffffffffffffffffffffff166108c16118c5565b73ffffffffffffffffffffffffffffffffffffffff1614610917576040517f08c379a000000000000000000000000000000000000000000000000000000000815260040161090e9061356a565b60405180910390fd5b6000811161095a576040517f08c379a0000000000000000000000000000000000000000000000000000000008152600401610951906135d6565b60405180910390fd5b8060068190555050565b61096c612b23565b73ffffffffffffffffffffffffffffffffffffffff1661098a6118c5565b73ffffffffffffffffffffffffffffffffffffffff16146109e0576040517f08c379a00000000000000000000000000000000000000000000000000000000081526004016109d79061356a565b60405180910390fd5b8073ffffffffffffffffffffffffffffffffffffffff16600460009054906101000a900473ffffffffffffffffffffffffffffffffffffffff1673ffffffffffffffffffffffffffffffffffffffff161415610a71576040517f08c379a0000000000000000000000000000000000000000000000000000000008152600401610a6890613642565b60405180910390fd5b80600460006101000a81548173ffffffffffffffffffffffffffffffffffffffff021916908373ffffffffffffffffffffffffffffffffffffffff1602179055507fc02dd078a5d63c2645d0da4b3173f425d353dafebbb14064059edbd4244a31bf81604051610ae19190613688565b60405180910390a150565b610af4612c31565b600b82604051610b0491906136eb565b90815260200160405180910390206040518060800160405290816000820154815260200160018201548152602001600282018054610b4190613731565b80601f0160208091040260200160405190810160405280929190818152602001828054610b6d90613731565b8015610bba5780601f10610b8f57610100808354040283529160200191610bba565b820191906000526020600020905b815481529060010190602001808311610b9d57829003601f168201915b505050505081526020016003820160009054906101000a900473ffffffffffffffffffffffffffffffffffffffff1673ffffffffffffffffffffffffffffffffffffffff1673ffffffffffffffffffffffffffffffffffffffff16815250509050919050565b6000610c4a6064610c3c86600e54612b2b90919063ffffffff16565b612b4190919063ffffffff16565b90506000610c766064610c6887600d54612b2b90919063ffffffff16565b612b4190919063ffffffff16565b90506000610c9f82610c918589612b5790919063ffffffff16565b612b5790919063ffffffff16565b9050600160009054906101000a900473ffffffffffffffffffffffffffffffffffffffff1673ffffffffffffffffffffffffffffffffffffffff166323b872dd610ce7612b23565b600360009054906101000a900473ffffffffffffffffffffffffffffffffffffffff16856040518463ffffffff167c0100000000000000000000000000000000000000000000000000000000028152600401610d45939291906137c2565b6020604051808303816000875af1158015610d64573d6000803e3d6000fd5b505050506040513d601f19601f82011682018060405250810190610d88919061380e565b610dc7576040517f08c379a0000000000000000000000000000000000000000000000000000000008152600401610dbe90613887565b60405180910390fd5b600160009054906101000a900473ffffffffffffffffffffffffffffffffffffffff1673ffffffffffffffffffffffffffffffffffffffff166323b872dd610e0d612b23565b600460009054906101000a900473ffffffffffffffffffffffffffffffffffffffff16866040518463ffffffff167c0100000000000000000000000000000000000000000000000000000000028152600401610e6b939291906137c2565b6020604051808303816000875af1158015610e8a573d6000803e3d6000fd5b505050506040513d601f19601f82011682018060405250810190610eae919061380e565b610eed576040517f08c379a0000000000000000000000000000000000000000000000000000000008152600401610ee490613887565b60405180910390fd5b600160009054906101000a900473ffffffffffffffffffffffffffffffffffffffff1673ffffffffffffffffffffffffffffffffffffffff166323b872dd610f33612b23565b600260009054906101000a900473ffffffffffffffffffffffffffffffffffffffff16846040518463ffffffff167c0100000000000000000000000000000000000000000000000000000000028152600401610f91939291906137c2565b6020604051808303816000875af1158015610fb0573d6000803e3d6000fd5b505050506040513d601f19601f82011682018060405250810190610fd4919061380e565b611013576040517f08c379a000000000000000000000000000000000000000000000000000000000815260040161100a90613887565b60405180910390fd5b61101b612c31565b86816000018181525050428160200181815250506040518060400160405280600f81526020017f54726561737572655f49736c616e6400000000000000000000000000000000008152508160400181905250611075612b23565b816060019073ffffffffffffffffffffffffffffffffffffffff16908173ffffffffffffffffffffffffffffffffffffffff168152505080600b866040516110bd91906136eb565b9081526020016040518091039020600082015181600001556020820151816001015560408201518160020190805190602001906110fb929190612c6f565b5060608201518160030160006101000a81548173ffffffffffffffffffffffffffffffffffffffff021916908373ffffffffffffffffffffffffffffffffffffffff16021790555090505061114e612b23565b73ffffffffffffffffffffffffffffffffffffffff167f767e67814a1c7640a36e59e1c0d4c049b6332c9141a4e2aeb32372247c56fcfd898989604051611197939291906138a7565b60405180910390a25050505050505050565b6111b1612b23565b73ffffffffffffffffffffffffffffffffffffffff166111cf6118c5565b73ffffffffffffffffffffffffffffffffffffffff1614611225576040517f08c379a000000000000000000000000000000000000000000000000000000000815260040161121c9061356a565b60405180910390fd5b60008111611268576040517f08c379a000000000000000000000000000000000000000000000000000000000815260040161125f906135d6565b60405180910390fd5b8060088190555050565b61127a612b23565b73ffffffffffffffffffffffffffffffffffffffff166112986118c5565b73ffffffffffffffffffffffffffffffffffffffff16146112ee576040517f08c379a00000000000000000000000000000000000000000000000000000000081526004016112e59061356a565b60405180910390fd5b60008111611331576040517f08c379a0000000000000000000000000000000000000000000000000000000008152600401611328906135d6565b60405180910390fd5b8060078190555050565b611343612b23565b73ffffffffffffffffffffffffffffffffffffffff166113616118c5565b73ffffffffffffffffffffffffffffffffffffffff16146113b7576040517f08c379a00000000000000000000000000000000000000000000000000000000081526004016113ae9061356a565b60405180910390fd5b8073ffffffffffffffffffffffffffffffffffffffff16600560009054906101000a900473ffffffffffffffffffffffffffffffffffffffff1673ffffffffffffffffffffffffffffffffffffffff161415611448576040517f08c379a000000000000000000000000000000000000000000000000000000000815260040161143f90613938565b60405180910390fd5b80600560006101000a81548173ffffffffffffffffffffffffffffffffffffffff021916908373ffffffffffffffffffffffffffffffffffffffff1602179055507fc02dd078a5d63c2645d0da4b3173f425d353dafebbb14064059edbd4244a31bf816040516114b8919061397e565b60405180910390a150565b600360009054906101000a900473ffffffffffffffffffffffffffffffffffffffff1681565b6114f1612b23565b73ffffffffffffffffffffffffffffffffffffffff1661150f6118c5565b73ffffffffffffffffffffffffffffffffffffffff1614611565576040517f08c379a000000000000000000000000000000000000000000000000000000000815260040161155c9061356a565b60405180910390fd5b61156f6000612b6d565b565b600d5481565b61157f612b23565b73ffffffffffffffffffffffffffffffffffffffff1661159d6118c5565b73ffffffffffffffffffffffffffffffffffffffff16146115f3576040517f08c379a00000000000000000000000000000000000000000000000000000000081526004016115ea9061356a565b60405180910390fd5b80600d54141561160257600080fd5b80600d8190555050565b600160009054906101000a900473ffffffffffffffffffffffffffffffffffffffff1673ffffffffffffffffffffffffffffffffffffffff166323b872dd611652612b23565b600460009054906101000a900473ffffffffffffffffffffffffffffffffffffffff16866040518463ffffffff167c01000000000000000000000000000000000000000000000000000000000281526004016116b0939291906137c2565b6020604051808303816000875af11580156116cf573d6000803e3d6000fd5b505050506040513d601f19601f820116820180604052508101906116f3919061380e565b611732576040517f08c379a000000000000000000000000000000000000000000000000000000000815260040161172990613887565b60405180910390fd5b61173a612c31565b83816000018181525050428160200181815250506040518060400160405280600d81526020017f557067726164655f4c6576656c000000000000000000000000000000000000008152508160400181905250611794612b23565b816060019073ffffffffffffffffffffffffffffffffffffffff16908173ffffffffffffffffffffffffffffffffffffffff168152505080600b836040516117dc91906136eb565b90815260200160405180910390206000820151816000015560208201518160010155604082015181600201908051906020019061181a929190612c6f565b5060608201518160030160006101000a81548173ffffffffffffffffffffffffffffffffffffffff021916908373ffffffffffffffffffffffffffffffffffffffff16021790555090505061186d612b23565b73ffffffffffffffffffffffffffffffffffffffff167fb6aae7d237831a0dbd1ca5c639a1df94f7c741cdeb54f6f91d2841a995f1552f8486886040516118b6939291906138a7565b60405180910390a25050505050565b60008060009054906101000a900473ffffffffffffffffffffffffffffffffffffffff16905090565b600a602052816000526040600020818154811061190a57600080fd5b90600052602060002090600302016000915091505080600001805461192e90613731565b80601f016020809104026020016040519081016040528092919081815260200182805461195a90613731565b80156119a75780601f1061197c576101008083540402835291602001916119a7565b820191906000526020600020905b81548152906001019060200180831161198a57829003601f168201915b5050505050908060010180546119bc90613731565b80601f01602080910402602001604051908101604052809291908181526020018280546119e890613731565b8015611a355780601f10611a0a57610100808354040283529160200191611a35565b820191906000526020600020905b815481529060010190602001808311611a1857829003601f168201915b5050505050908060020154905083565b6000611a4f612b23565b73ffffffffffffffffffffffffffffffffffffffff16611a6d6118c5565b73ffffffffffffffffffffffffffffffffffffffff1614611ac3576040517f08c379a0000000000000000000000000000000000000000000000000000000008152600401611aba9061356a565b60405180910390fd5b600754905090565b611ad3612b23565b73ffffffffffffffffffffffffffffffffffffffff16611af16118c5565b73ffffffffffffffffffffffffffffffffffffffff1614611b47576040517f08c379a0000000000000000000000000000000000000000000000000000000008152600401611b3e9061356a565b60405180910390fd5b8073ffffffffffffffffffffffffffffffffffffffff16600160009054906101000a900473ffffffffffffffffffffffffffffffffffffffff1673ffffffffffffffffffffffffffffffffffffffff161415611bd8576040517f08c379a0000000000000000000000000000000000000000000000000000000008152600401611bcf90613938565b60405180910390fd5b80600160006101000a81548173ffffffffffffffffffffffffffffffffffffffff021916908373ffffffffffffffffffffffffffffffffffffffff1602179055507fc02dd078a5d63c2645d0da4b3173f425d353dafebbb14064059edbd4244a31bf81604051611c4891906139cb565b60405180910390a150565b611c5b612b23565b73ffffffffffffffffffffffffffffffffffffffff16611c796118c5565b73ffffffffffffffffffffffffffffffffffffffff1614611ccf576040517f08c379a0000000000000000000000000000000000000000000000000000000008152600401611cc69061356a565b60405180910390fd5b8073ffffffffffffffffffffffffffffffffffffffff16600360009054906101000a900473ffffffffffffffffffffffffffffffffffffffff1673ffffffffffffffffffffffffffffffffffffffff161415611d60576040517f08c379a0000000000000000000000000000000000000000000000000000000008152600401611d5790613642565b60405180910390fd5b80600360006101000a81548173ffffffffffffffffffffffffffffffffffffffff021916908373ffffffffffffffffffffffffffffffffffffffff1602179055507fc02dd078a5d63c2645d0da4b3173f425d353dafebbb14064059edbd4244a31bf81604051611dd09190613a18565b60405180910390a150565b600460009054906101000a900473ffffffffffffffffffffffffffffffffffffffff1681565b6000611e0b612b23565b73ffffffffffffffffffffffffffffffffffffffff16611e296118c5565b73ffffffffffffffffffffffffffffffffffffffff1614611e7f576040517f08c379a0000000000000000000000000000000000000000000000000000000008152600401611e769061356a565b60405180910390fd5b600854905090565b600160009054906101000a900473ffffffffffffffffffffffffffffffffffffffff1681565b6000611eb7612b23565b73ffffffffffffffffffffffffffffffffffffffff16611ed56118c5565b73ffffffffffffffffffffffffffffffffffffffff1614611f2b576040517f08c379a0000000000000000000000000000000000000000000000000000000008152600401611f229061356a565b60405180910390fd5b600654905090565b611f3b612b23565b73ffffffffffffffffffffffffffffffffffffffff16611f596118c5565b73ffffffffffffffffffffffffffffffffffffffff1614611faf576040517f08c379a0000000000000000000000000000000000000000000000000000000008152600401611fa69061356a565b60405180910390fd5b8073ffffffffffffffffffffffffffffffffffffffff16600260009054906101000a900473ffffffffffffffffffffffffffffffffffffffff1673ffffffffffffffffffffffffffffffffffffffff161415612040576040517f08c379a000000000000000000000000000000000000000000000000000000000815260040161203790613642565b60405180910390fd5b80600260006101000a81548173ffffffffffffffffffffffffffffffffffffffff021916908373ffffffffffffffffffffffffffffffffffffffff1602179055507fc02dd078a5d63c2645d0da4b3173f425d353dafebbb14064059edbd4244a31bf816040516120b09190613a65565b60405180910390a150565b60006120c5612b23565b73ffffffffffffffffffffffffffffffffffffffff166120e36118c5565b73ffffffffffffffffffffffffffffffffffffffff1614612139576040517f08c379a00000000000000000000000000000000000000000000000000000000081526004016121309061356a565b60405180910390fd5b6000600560009054906101000a900473ffffffffffffffffffffffffffffffffffffffff16905060008173ffffffffffffffffffffffffffffffffffffffff166362451958888888886040518563ffffffff167c01000000000000000000000000000000000000000000000000000000000281526004016121bd9493929190613a9b565b6020604051808303816000875af11580156121dc573d6000803e3d6000fd5b505050506040513d601f19601f820116820180604052508101906122009190613b03565b90508673ffffffffffffffffffffffffffffffffffffffff167f46238052cfa7c5df910b62a49d8a17f3961cb3458a74bcda9b34f727f5c83654826040516122489190612d61565b60405180910390a28092505050949350505050565b600060018360ff1614156122b5576006548510156122b0576040517f08c379a00000000000000000000000000000000000000000000000000000000081526004016122a790613b7c565b60405180910390fd5b61235f565b60028360ff16141561230b57600754851015612306576040517f08c379a00000000000000000000000000000000000000000000000000000000081526004016122fd90613b7c565b60405180910390fd5b61235e565b60038360ff16141561235d5760085485101561235c576040517f08c379a000000000000000000000000000000000000000000000000000000000815260040161235390613b7c565b60405180910390fd5b5b5b5b6000612389606461237b88600c54612b2b90919063ffffffff16565b612b4190919063ffffffff16565b905060006123a08288612b5790919063ffffffff16565b9050600160009054906101000a900473ffffffffffffffffffffffffffffffffffffffff1673ffffffffffffffffffffffffffffffffffffffff166323b872dd6123e8612b23565b600360009054906101000a900473ffffffffffffffffffffffffffffffffffffffff16856040518463ffffffff167c0100000000000000000000000000000000000000000000000000000000028152600401612446939291906137c2565b6020604051808303816000875af1158015612465573d6000803e3d6000fd5b505050506040513d601f19601f82011682018060405250810190612489919061380e565b80156125785750600160009054906101000a900473ffffffffffffffffffffffffffffffffffffffff1673ffffffffffffffffffffffffffffffffffffffff166323b872dd6124d6612b23565b600460009054906101000a900473ffffffffffffffffffffffffffffffffffffffff16846040518463ffffffff167c0100000000000000000000000000000000000000000000000000000000028152600401612534939291906137c2565b6020604051808303816000875af1158015612553573d6000803e3d6000fd5b505050506040513d601f19601f82011682018060405250810190612577919061380e565b5b15612891576000600560009054906101000a900473ffffffffffffffffffffffffffffffffffffffff16905060008173ffffffffffffffffffffffffffffffffffffffff1663624519586125ca612b23565b8c8b8b6040518563ffffffff167c01000000000000000000000000000000000000000000000000000000000281526004016126089493929190613a9b565b6020604051808303816000875af1158015612627573d6000803e3d6000fd5b505050506040513d601f19601f8201168201806040525081019061264b9190613b03565b9050612655612c31565b898160000181815250504281602001818152505060018860ff1614156126b8576040518060400160405280600981526020017f4275795f436865737400000000000000000000000000000000000000000000008152508160400181905250612754565b60028860ff161415612707576040518060400160405280600d81526020017f4275795f43686573745f566970000000000000000000000000000000000000008152508160400181905250612753565b60038860ff161415612752576040518060400160405280600e81526020017f4275795f43686573745f4974656d00000000000000000000000000000000000081525081604001819052505b5b5b61275c612b23565b816060019073ffffffffffffffffffffffffffffffffffffffff16908173ffffffffffffffffffffffffffffffffffffffff168152505080600b886040516127a491906136eb565b9081526020016040518091039020600082015181600001556020820151816001015560408201518160020190805190602001906127e2929190612c6f565b5060608201518160030160006101000a81548173ffffffffffffffffffffffffffffffffffffffff021916908373ffffffffffffffffffffffffffffffffffffffff160217905550905050612835612b23565b73ffffffffffffffffffffffffffffffffffffffff167f0b7aedbaa76a97b080a284478fb554a90303ca2cc9b4497817eeb28f6d1e4538838c60405161287c929190613b9c565b60405180910390a281955050505050506128cc565b6040517f08c379a00000000000000000000000000000000000000000000000000000000081526004016128c390613c11565b60405180910390fd5b95945050505050565b6128dd612b23565b73ffffffffffffffffffffffffffffffffffffffff166128fb6118c5565b73ffffffffffffffffffffffffffffffffffffffff1614612951576040517f08c379a00000000000000000000000000000000000000000000000000000000081526004016129489061356a565b60405180910390fd5b80600c54141561296057600080fd5b80600c8190555050565b612972612b23565b73ffffffffffffffffffffffffffffffffffffffff166129906118c5565b73ffffffffffffffffffffffffffffffffffffffff16146129e6576040517f08c379a00000000000000000000000000000000000000000000000000000000081526004016129dd9061356a565b60405180910390fd5b600073ffffffffffffffffffffffffffffffffffffffff168173ffffffffffffffffffffffffffffffffffffffff161415612a56576040517f08c379a0000000000000000000000000000000000000000000000000000000008152600401612a4d90613ca3565b60405180910390fd5b612a5f81612b6d565b50565b600560009054906101000a900473ffffffffffffffffffffffffffffffffffffffff1681565b600c5481565b612a96612b23565b73ffffffffffffffffffffffffffffffffffffffff16612ab46118c5565b73ffffffffffffffffffffffffffffffffffffffff1614612b0a576040517f08c379a0000000000000000000000000000000000000000000000000000000008152600401612b019061356a565b60405180910390fd5b80600e541415612b1957600080fd5b80600e8190555050565b600033905090565b60008183612b399190613cf2565b905092915050565b60008183612b4f9190613d7b565b905092915050565b60008183612b659190613dac565b905092915050565b60008060009054906101000a900473ffffffffffffffffffffffffffffffffffffffff169050816000806101000a81548173ffffffffffffffffffffffffffffffffffffffff021916908373ffffffffffffffffffffffffffffffffffffffff1602179055508173ffffffffffffffffffffffffffffffffffffffff168173ffffffffffffffffffffffffffffffffffffffff167f8be0079c531659141344cd1fd0a4f28419497f9722a3daafe3b4186f6b6457e060405160405180910390a35050565b6040518060800160405280600081526020016000815260200160608152602001600073ffffffffffffffffffffffffffffffffffffffff1681525090565b828054612c7b90613731565b90600052602060002090601f016020900481019282612c9d5760008555612ce4565b82601f10612cb657805160ff1916838001178555612ce4565b82800160010185558215612ce4579182015b82811115612ce3578251825591602001919060010190612cc8565b5b509050612cf19190612cf5565b5090565b5b80821115612d0e576000816000905550600101612cf6565b5090565b60008115159050919050565b612d2781612d12565b82525050565b6000602082019050612d426000830184612d1e565b92915050565b6000819050919050565b612d5b81612d48565b82525050565b6000602082019050612d766000830184612d52565b92915050565b6000604051905090565b600080fd5b600080fd5b612d9981612d12565b8114612da457600080fd5b50565b600081359050612db681612d90565b92915050565b600060208284031215612dd257612dd1612d86565b5b6000612de084828501612da7565b91505092915050565b600073ffffffffffffffffffffffffffffffffffffffff82169050919050565b6000612e1482612de9565b9050919050565b612e2481612e09565b82525050565b6000602082019050612e3f6000830184612e1b565b92915050565b612e4e81612d48565b8114612e5957600080fd5b50565b600081359050612e6b81612e45565b92915050565b600060208284031215612e8757612e86612d86565b5b6000612e9584828501612e5c565b91505092915050565b6000612ea982612de9565b9050919050565b612eb981612e9e565b8114612ec457600080fd5b50565b600081359050612ed681612eb0565b92915050565b600060208284031215612ef257612ef1612d86565b5b6000612f0084828501612ec7565b91505092915050565b600080fd5b600080fd5b6000601f19601f8301169050919050565b7f4e487b7100000000000000000000000000000000000000000000000000000000600052604160045260246000fd5b612f5c82612f13565b810181811067ffffffffffffffff82111715612f7b57612f7a612f24565b5b80604052505050565b6000612f8e612d7c565b9050612f9a8282612f53565b919050565b600067ffffffffffffffff821115612fba57612fb9612f24565b5b612fc382612f13565b9050602081019050919050565b82818337600083830152505050565b6000612ff2612fed84612f9f565b612f84565b90508281526020810184848401111561300e5761300d612f0e565b5b613019848285612fd0565b509392505050565b600082601f83011261303657613035612f09565b5b8135613046848260208601612fdf565b91505092915050565b60006020828403121561306557613064612d86565b5b600082013567ffffffffffffffff81111561308357613082612d8b565b5b61308f84828501613021565b91505092915050565b6130a181612d48565b82525050565b600081519050919050565b600082825260208201905092915050565b60005b838110156130e15780820151818401526020810190506130c6565b838111156130f0576000848401525b50505050565b6000613101826130a7565b61310b81856130b2565b935061311b8185602086016130c3565b61312481612f13565b840191505092915050565b61313881612e9e565b82525050565b60006080830160008301516131566000860182613098565b5060208301516131696020860182613098565b506040830151848203604086015261318182826130f6565b9150506060830151613196606086018261312f565b508091505092915050565b600060208201905081810360008301526131bb818461313e565b905092915050565b600080600080608085870312156131dd576131dc612d86565b5b600085013567ffffffffffffffff8111156131fb576131fa612d8b565b5b61320787828801613021565b945050602061321887828801612e5c565b935050604085013567ffffffffffffffff81111561323957613238612d8b565b5b61324587828801613021565b925050606085013567ffffffffffffffff81111561326657613265612d8b565b5b61327287828801613021565b91505092959194509250565b61328781612e9e565b82525050565b60006020820190506132a2600083018461327e565b92915050565b600080604083850312156132bf576132be612d86565b5b60006132cd85828601612ec7565b92505060206132de85828601612e5c565b9150509250929050565b600082825260208201905092915050565b6000613304826130a7565b61330e81856132e8565b935061331e8185602086016130c3565b61332781612f13565b840191505092915050565b6000606082019050818103600083015261334c81866132f9565b9050818103602083015261336081856132f9565b905061336f6040830184612d52565b949350505050565b600060ff82169050919050565b61338d81613377565b811461339857600080fd5b50565b6000813590506133aa81613384565b92915050565b600080600080608085870312156133ca576133c9612d86565b5b60006133d887828801612ec7565b945050602085013567ffffffffffffffff8111156133f9576133f8612d8b565b5b61340587828801613021565b935050604085013567ffffffffffffffff81111561342657613425612d8b565b5b61343287828801613021565b92505060606134438782880161339b565b91505092959194509250565b600080600080600060a0868803121561346b5761346a612d86565b5b600086013567ffffffffffffffff81111561348957613488612d8b565b5b61349588828901613021565b95505060206134a688828901612e5c565b945050604086013567ffffffffffffffff8111156134c7576134c6612d8b565b5b6134d388828901613021565b93505060606134e48882890161339b565b925050608086013567ffffffffffffffff81111561350557613504612d8b565b5b61351188828901613021565b9150509295509295909350565b7f4f776e61626c653a2063616c6c6572206973206e6f7420746865206f776e6572600082015250565b60006135546020836132e8565b915061355f8261351e565b602082019050919050565b6000602082019050818103600083015261358381613547565b9050919050565b7f636f7374206d757374206265203e203000000000000000000000000000000000600082015250565b60006135c06010836132e8565b91506135cb8261358a565b602082019050919050565b600060208201905081810360008301526135ef816135b3565b9050919050565b7f5468697320616464726573732077617320616c72656164792075736564000000600082015250565b600061362c601d836132e8565b9150613637826135f6565b602082019050919050565b6000602082019050818103600083015261365b8161361f565b9050919050565b7f646576506f6f6c00000000000000000000000000000000000000000000000000815250565b600060408201905061369d600083018461327e565b6136a960208301613662565b92915050565b600081905092915050565b60006136c5826130a7565b6136cf81856136af565b93506136df8185602086016130c3565b80840191505092915050565b60006136f782846136ba565b915081905092915050565b7f4e487b7100000000000000000000000000000000000000000000000000000000600052602260045260246000fd5b6000600282049050600182168061374957607f821691505b6020821081141561375d5761375c613702565b5b50919050565b6000819050919050565b600061378861378361377e84612de9565b613763565b612de9565b9050919050565b600061379a8261376d565b9050919050565b60006137ac8261378f565b9050919050565b6137bc816137a1565b82525050565b60006060820190506137d7600083018661327e565b6137e460208301856137b3565b6137f16040830184612d52565b949350505050565b60008151905061380881612d90565b92915050565b60006020828403121561382457613823612d86565b5b6000613832848285016137f9565b91505092915050565b7f4465706f736974206661696c6564000000000000000000000000000000000000600082015250565b6000613871600e836132e8565b915061387c8261383b565b602082019050919050565b600060208201905081810360008301526138a081613864565b9050919050565b600060608201905081810360008301526138c181866132f9565b90506138d06020830185612d52565b81810360408301526138e281846132f9565b9050949350505050565b7f5468697320636f6e74726163742077617320616c726561647920757365640000600082015250565b6000613922601e836132e8565b915061392d826138ec565b602082019050919050565b6000602082019050818103600083015261395181613915565b9050919050565b7f6368657374000000000000000000000000000000000000000000000000000000815250565b6000604082019050613993600083018461327e565b61399f60208301613958565b92915050565b7f706b740000000000000000000000000000000000000000000000000000000000815250565b60006040820190506139e0600083018461327e565b6139ec602083016139a5565b92915050565b7f726577617264506f6f6c00000000000000000000000000000000000000000000815250565b6000604082019050613a2d600083018461327e565b613a39602083016139f2565b92915050565b7f66696e64547265617375726549736c616e640000000000000000000000000000815250565b6000604082019050613a7a600083018461327e565b613a8660208301613a3f565b92915050565b613a9581613377565b82525050565b6000608082019050613ab0600083018761327e565b8181036020830152613ac281866132f9565b90508181036040830152613ad681856132f9565b9050613ae56060830184613a8c565b95945050505050565b600081519050613afd81612e45565b92915050565b600060208284031215613b1957613b18612d86565b5b6000613b2784828501613aee565b91505092915050565b7f5f7072696365206d757374206265203e2062617365436f737400000000000000600082015250565b6000613b666019836132e8565b9150613b7182613b30565b602082019050919050565b60006020820190508181036000830152613b9581613b59565b9050919050565b6000604082019050613bb16000830185612d52565b613bbe6020830184612d52565b9392505050565b7f4572726f72207472616e7366657272696e6720746f6b656e7300000000000000600082015250565b6000613bfb6019836132e8565b9150613c0682613bc5565b602082019050919050565b60006020820190508181036000830152613c2a81613bee565b9050919050565b7f4f776e61626c653a206e6577206f776e657220697320746865207a65726f206160008201527f6464726573730000000000000000000000000000000000000000000000000000602082015250565b6000613c8d6026836132e8565b9150613c9882613c31565b604082019050919050565b60006020820190508181036000830152613cbc81613c80565b9050919050565b7f4e487b7100000000000000000000000000000000000000000000000000000000600052601160045260246000fd5b6000613cfd82612d48565b9150613d0883612d48565b9250817fffffffffffffffffffffffffffffffffffffffffffffffffffffffffffffffff0483118215151615613d4157613d40613cc3565b5b828202905092915050565b7f4e487b7100000000000000000000000000000000000000000000000000000000600052601260045260246000fd5b6000613d8682612d48565b9150613d9183612d48565b925082613da157613da0613d4c565b5b828204905092915050565b6000613db782612d48565b9150613dc283612d48565b925082821015613dd557613dd4613cc3565b5b82820390509291505056fea2646970667358221220702b6dd85141c64639c36ebb4e66d109839c20b0e09df86ace42d23cdae94ed564736f6c634300080c0033",
  "immutableReferences": {},
  "source": "// SPDX-License-Identifier: MIT\npragma solidity ^0.8.0;\npragma abicoder v2;\n\nimport \"@openzeppelin/contracts/utils/Context.sol\";\nimport '@openzeppelin/contracts/utils/math/SafeMath.sol';\nimport \"@openzeppelin/contracts/access/Ownable.sol\";\nimport './IBEP20.sol';\nimport \"./IPiratesKingChest.sol\";\n\n\ncontract PiratesKingGame is Context, Ownable, IPiratesKingBase\n{\n\n    struct IsLandChoseStruct {\n        string  date;\n        string  isLandName;\n        uint256 amount;\n    }\n\n\n    struct TransactionInfo {\n        uint256 amount;\n        uint256 timestamp;\n        string t_type;\n        address wallet;\n    }\n\n    using SafeMath for uint256;\n    address public pktContract;\n    address payable public findTreasureIslandPool;\n    address payable public rewardPool;\n    address payable public devPool;\n    address public chestContract;\n    uint256 private baseCost;\n    uint256 private baseCostChestVip;\n    uint256 private baseCostItemChest;\n\n    // Contract status\n    bool public active;\n    mapping (address => IsLandChoseStruct[]) public islandsChose;\n    mapping (string => TransactionInfo) private _transInfo;\n\n    uint256 public buyChestRewardPercent = 70;\n    uint256 public treasureIslandRewardPercent = 2;\n    uint256 public treasureIslandDevPercent = 8;\n\n    /*\n    *\t@dev Check if contract is active\n\t*/\n    modifier isContractActive {\n        require( active, \"Contract is inactive\" );\n        _;\n    }\n\n\n    /*\n    * @dev Log contract status update\n  */\n    event ContractStatusUpdate(bool newStatus);\n    event LibContractAddressUpdate(address newAddress, bytes32 contractName);\n    event NewIsLandChose(address indexed player, string name, uint256 amount, string date);\n    event NewLevelUpgrade(address indexed player, string id_level, uint256 amount, string id_pirate);\n    event NewChestPurchased(address indexed player, uint256 chest_id, uint256 amount);\n    event GiveChestToContestWinner(address indexed player, uint256 chest_id);\n\n    /*\n    * @dev Set default admin role to owner\n  */\n\n    constructor(\n    ) {\n        findTreasureIslandPool = payable(0x6D5527D0c4494Dd9D8a2Fad80FF7872558eD9FdC);\n        rewardPool = payable(0x6D5527D0c4494Dd9D8a2Fad80FF7872558eD9FdC);\n        devPool = payable(0x9B5b98D20042c29293289Fea8324ef1584e9c78E);\n        pktContract = payable(0x4cbd8ADCD7eCa7D1B71ADbBF484F1e8014681a9D);\n        chestContract = payable(0x4b9E79936be974Ca4bEeffe160cceDa11f5c4400);\n        baseCost = 1500*10**18;\n        baseCostChestVip = 2000*10**18;\n        baseCostItemChest = 1000*10**18;\n        active = true;\n    }\n\n    /*\n    *  @Update weapon contract address\n  */\n    function setFindTreasureIslandPoolAddress(address _address)\n    external\n    onlyOwner\n    {\n        require(findTreasureIslandPool != _address, 'This address was already used');\n        findTreasureIslandPool = payable(_address);\n        emit LibContractAddressUpdate(_address, 'findTreasureIsland');\n    }\n\n    function setRewardPoolAddress(address _address)\n    external\n    onlyOwner\n    {\n        require(rewardPool != _address, 'This address was already used');\n        rewardPool = payable(_address);\n        emit LibContractAddressUpdate(_address, 'rewardPool');\n    }\n\n    function setDevPoolAddress(address _address)\n    external\n    onlyOwner\n    {\n        require(devPool != _address, 'This address was already used');\n        devPool = payable(_address);\n        emit LibContractAddressUpdate(_address, 'devPool');\n    }\n\n    /*\n    *  @Update token contract address\n  */\n    function setPKTContractAddress(address _contract)\n    external\n    onlyOwner\n    {\n        require(pktContract != _contract, 'This contract was already used');\n        pktContract = _contract;\n        emit LibContractAddressUpdate(_contract, 'pkt');\n    }\n\n    function setChestContractAddress(address _contract)\n    external\n    onlyOwner\n    {\n        require(chestContract != _contract, 'This contract was already used');\n        chestContract = _contract;\n        emit LibContractAddressUpdate(_contract, 'chest');\n    }\n\n    function setBuyChestRewardPercent(uint256 percent) external onlyOwner {\n        require(buyChestRewardPercent != percent);\n        buyChestRewardPercent = percent;\n    }\n\n    function setTreasureIslandRewardPercent(uint256 percent) external onlyOwner {\n        require(treasureIslandRewardPercent != percent);\n        treasureIslandRewardPercent = percent;\n    }\n\n    function setTreasureIslandDevPercent(uint256 percent) external onlyOwner {\n        require(treasureIslandDevPercent != percent);\n        treasureIslandDevPercent = percent;\n    }\n\n\n    function setBaseCost(uint256 _cost) external onlyOwner {\n        require(_cost > 0, \"cost must be > 0\");\n        baseCost = _cost;\n    }\n\n    function getBaseCost() public view onlyOwner returns (uint256) {\n        return baseCost;\n    }\n\n    function setBaseCostChestVip(uint256 _cost) external onlyOwner {\n        require(_cost > 0, \"cost must be > 0\");\n        baseCostChestVip = _cost;\n    }\n\n    function getBaseCostChestVip() public view onlyOwner returns (uint256) {\n        return baseCostChestVip;\n    }\n\n    function setBaseCostItemChest(uint256 _cost) external onlyOwner {\n        require(_cost > 0, \"cost must be > 0\");\n        baseCostItemChest = _cost;\n    }\n\n    function getBaseCostItemChest() public view onlyOwner returns (uint256) {\n        return baseCostItemChest;\n    }\n\n\n    function activateDeactivateContract(bool _active)\n    external\n    onlyOwner\n    {\n        active = _active;\n        emit ContractStatusUpdate(_active);\n    }\n\n    function playerChooseIsland(string memory  _islandName, uint256 _amount, string memory _date, string memory trans_id)\n    external\n    payable\n    {\n        uint256 devAmount = treasureIslandDevPercent.mul(_amount).div(100);\n        uint256 rwAmount = treasureIslandRewardPercent.mul(_amount).div(100);\n        uint256 treasureIslandAmount = _amount.sub(devAmount).sub(rwAmount);\n        require(IBEP20(pktContract).transferFrom(\n                _msgSender(),\n                rewardPool, rwAmount\n            ), \"Deposit failed\");\n\n        require(IBEP20(pktContract).transferFrom(\n                _msgSender(),\n                devPool, devAmount\n            ), \"Deposit failed\");\n\n        require(IBEP20(pktContract).transferFrom(\n            _msgSender(),\n            findTreasureIslandPool, treasureIslandAmount\n        ), \"Deposit failed\");\n\n\n        TransactionInfo memory trans ;\n        trans.amount = _amount;\n        trans.timestamp = block.timestamp;\n        trans.t_type = \"Treasure_Island\";\n        trans.wallet = _msgSender();\n        _transInfo[trans_id] = trans;\n\n\n        emit NewIsLandChose(_msgSender(), _islandName, _amount, _date);\n    }\n\n    function playerUpgradeLevel(string memory  _idPirate, uint256 _amount, string memory _idLevel, string memory trans_id)\n    external\n    payable\n    {\n        require(IBEP20(pktContract).transferFrom(\n                _msgSender(),\n                devPool,\n                _amount\n            ), \"Deposit failed\");\n\n        TransactionInfo memory trans ;\n        trans.amount = _amount;\n        trans.timestamp = block.timestamp;\n        trans.t_type = \"Upgrade_Level\";\n        trans.wallet = _msgSender();\n        _transInfo[trans_id] = trans;\n\n        emit NewLevelUpgrade(_msgSender(), _idLevel, _amount, _idPirate);\n    }\n\n    function buyChest(\n        string memory _tokenURI,\n        uint256 _price,\n        string memory _data,\n        uint8 _cType,\n        string memory trans_id\n    ) external payable returns (uint256) {\n        if (_cType == 1) {\n            require(_price >= baseCost, \"_price must be > baseCost\");\n        } else if (_cType == 2) {\n            require(_price >= baseCostChestVip, \"_price must be > baseCost\");\n        } else if (_cType == 3) {\n            require(_price >= baseCostItemChest, \"_price must be > baseCost\");\n        }\n        uint256 rwAmount = buyChestRewardPercent.mul(_price).div(100);\n        uint256 devAmount = _price.sub(rwAmount);\n        if (IBEP20(pktContract).transferFrom(_msgSender(), rewardPool, rwAmount) && IBEP20(pktContract).transferFrom(_msgSender(), devPool, devAmount))\n        {\n            IPiratesKingChest ChestContract = IPiratesKingChest(chestContract);\n            uint256 chest_id = ChestContract.buyChest(_msgSender(),_tokenURI, _data, _cType);\n            TransactionInfo memory trans ;\n            trans.amount = _price;\n            trans.timestamp = block.timestamp;\n\n            if (_cType == 1) {\n                trans.t_type = \"Buy_Chest\";\n            } else if (_cType == 2) {\n                trans.t_type = \"Buy_Chest_Vip\";\n            }else if (_cType == 3) {\n                trans.t_type = \"Buy_Chest_Item\";\n            }\n            trans.wallet = _msgSender();\n            _transInfo[trans_id] = trans;\n            emit NewChestPurchased(_msgSender(), chest_id, _price);\n            return chest_id;\n        } else {\n            revert(\"Error transferring tokens\");\n        }\n\n    }\n\n    function giveChestToContestWinner(\n        address winner,\n        string memory _tokenURI,\n        string memory _data,\n        uint8 _cType\n    ) external onlyOwner returns (uint256)\n    {\n        IPiratesKingChest ChestContract = IPiratesKingChest(chestContract);\n        uint256 chest_id = ChestContract.buyChest(winner,_tokenURI, _data, _cType);\n        emit GiveChestToContestWinner(winner, chest_id);\n        return chest_id;\n    }\n\n    function transactionInfoOf(string memory trans_id) public view  returns (TransactionInfo memory) {\n        return _transInfo[trans_id];\n    }\n\n}\n",
  "sourcePath": "/Users/macbook/Desktop/PiratesKingContract2022/PiratesKingContract2022/contracts/PiratesKingGame.sol",
  "compiler": {
    "name": "solc",
    "version": "0.8.12+commit.f00d7308.Emscripten.clang"
  },
  "schemaVersion": "3.4.4",
  "updatedAt": "2022-02-26T10:07:36.487Z",
  "devdoc": {
    "kind": "dev",
    "methods": {
      "owner()": {
        "details": "Returns the address of the current owner."
      },
      "renounceOwnership()": {
        "details": "Leaves the contract without owner. It will not be possible to call `onlyOwner` functions anymore. Can only be called by the current owner. NOTE: Renouncing ownership will leave the contract without an owner, thereby removing any functionality that is only available to the owner."
      },
      "transferOwnership(address)": {
        "details": "Transfers ownership of the contract to a new account (`newOwner`). Can only be called by the current owner."
      }
    },
    "version": 1
  },
  "userdoc": {
    "kind": "user",
    "methods": {},
    "version": 1
  }
}