{
  "contractName": "PiratesKingGame",
  "abi": [
    {
      "inputs": [
        {
          "internalType": "address",
          "name": "_chestAddress",
          "type": "address"
        },
        {
          "internalType": "address",
          "name": "_characterAddress",
          "type": "address"
        },
        {
          "internalType": "address",
          "name": "_weaponAddress",
          "type": "address"
        },
        {
          "internalType": "address",
          "name": "_pktAddress",
          "type": "address"
        }
      ],
      "stateMutability": "nonpayable",
      "type": "constructor"
    },
    {
      "anonymous": false,
      "inputs": [
        {
          "indexed": false,
          "internalType": "bool",
          "name": "newStatus",
          "type": "bool"
        }
      ],
      "name": "ContractStatusUpdate",
      "type": "event"
    },
    {
      "anonymous": false,
      "inputs": [
        {
          "indexed": false,
          "internalType": "address",
          "name": "newAddress",
          "type": "address"
        },
        {
          "indexed": false,
          "internalType": "bytes32",
          "name": "contractName",
          "type": "bytes32"
        }
      ],
      "name": "LibContractAddressUpdate",
      "type": "event"
    },
    {
      "anonymous": false,
      "inputs": [
        {
          "indexed": true,
          "internalType": "address",
          "name": "player",
          "type": "address"
        },
        {
          "indexed": false,
          "internalType": "bytes32",
          "name": "name",
          "type": "bytes32"
        }
      ],
      "name": "NewCharacterMinted",
      "type": "event"
    },
    {
      "anonymous": false,
      "inputs": [
        {
          "indexed": true,
          "internalType": "address",
          "name": "player",
          "type": "address"
        },
        {
          "indexed": false,
          "internalType": "bytes32",
          "name": "name",
          "type": "bytes32"
        },
        {
          "indexed": false,
          "internalType": "uint256",
          "name": "totalPlayers",
          "type": "uint256"
        }
      ],
      "name": "NewPlayerRegistered",
      "type": "event"
    },
    {
      "anonymous": false,
      "inputs": [
        {
          "indexed": true,
          "internalType": "bytes32",
          "name": "role",
          "type": "bytes32"
        },
        {
          "indexed": true,
          "internalType": "bytes32",
          "name": "previousAdminRole",
          "type": "bytes32"
        },
        {
          "indexed": true,
          "internalType": "bytes32",
          "name": "newAdminRole",
          "type": "bytes32"
        }
      ],
      "name": "RoleAdminChanged",
      "type": "event"
    },
    {
      "anonymous": false,
      "inputs": [
        {
          "indexed": true,
          "internalType": "bytes32",
          "name": "role",
          "type": "bytes32"
        },
        {
          "indexed": true,
          "internalType": "address",
          "name": "account",
          "type": "address"
        },
        {
          "indexed": true,
          "internalType": "address",
          "name": "sender",
          "type": "address"
        }
      ],
      "name": "RoleGranted",
      "type": "event"
    },
    {
      "anonymous": false,
      "inputs": [
        {
          "indexed": true,
          "internalType": "bytes32",
          "name": "role",
          "type": "bytes32"
        },
        {
          "indexed": true,
          "internalType": "address",
          "name": "account",
          "type": "address"
        },
        {
          "indexed": true,
          "internalType": "address",
          "name": "sender",
          "type": "address"
        }
      ],
      "name": "RoleRevoked",
      "type": "event"
    },
    {
      "inputs": [],
      "name": "DEFAULT_ADMIN_ROLE",
      "outputs": [
        {
          "internalType": "bytes32",
          "name": "",
          "type": "bytes32"
        }
      ],
      "stateMutability": "view",
      "type": "function"
    },
    {
      "inputs": [],
      "name": "PLAYER_ROLE",
      "outputs": [
        {
          "internalType": "bytes32",
          "name": "",
          "type": "bytes32"
        }
      ],
      "stateMutability": "view",
      "type": "function"
    },
    {
      "inputs": [],
      "name": "active",
      "outputs": [
        {
          "internalType": "bool",
          "name": "",
          "type": "bool"
        }
      ],
      "stateMutability": "view",
      "type": "function"
    },
    {
      "inputs": [],
      "name": "characterContract",
      "outputs": [
        {
          "internalType": "address",
          "name": "",
          "type": "address"
        }
      ],
      "stateMutability": "view",
      "type": "function"
    },
    {
      "inputs": [],
      "name": "chestContract",
      "outputs": [
        {
          "internalType": "address",
          "name": "",
          "type": "address"
        }
      ],
      "stateMutability": "view",
      "type": "function"
    },
    {
      "inputs": [
        {
          "internalType": "bytes32",
          "name": "role",
          "type": "bytes32"
        }
      ],
      "name": "getRoleAdmin",
      "outputs": [
        {
          "internalType": "bytes32",
          "name": "",
          "type": "bytes32"
        }
      ],
      "stateMutability": "view",
      "type": "function"
    },
    {
      "inputs": [
        {
          "internalType": "bytes32",
          "name": "role",
          "type": "bytes32"
        },
        {
          "internalType": "uint256",
          "name": "index",
          "type": "uint256"
        }
      ],
      "name": "getRoleMember",
      "outputs": [
        {
          "internalType": "address",
          "name": "",
          "type": "address"
        }
      ],
      "stateMutability": "view",
      "type": "function"
    },
    {
      "inputs": [
        {
          "internalType": "bytes32",
          "name": "role",
          "type": "bytes32"
        }
      ],
      "name": "getRoleMemberCount",
      "outputs": [
        {
          "internalType": "uint256",
          "name": "",
          "type": "uint256"
        }
      ],
      "stateMutability": "view",
      "type": "function"
    },
    {
      "inputs": [
        {
          "internalType": "bytes32",
          "name": "role",
          "type": "bytes32"
        },
        {
          "internalType": "address",
          "name": "account",
          "type": "address"
        }
      ],
      "name": "grantRole",
      "outputs": [],
      "stateMutability": "nonpayable",
      "type": "function"
    },
    {
      "inputs": [
        {
          "internalType": "bytes32",
          "name": "role",
          "type": "bytes32"
        },
        {
          "internalType": "address",
          "name": "account",
          "type": "address"
        }
      ],
      "name": "hasRole",
      "outputs": [
        {
          "internalType": "bool",
          "name": "",
          "type": "bool"
        }
      ],
      "stateMutability": "view",
      "type": "function"
    },
    {
      "inputs": [],
      "name": "numPlayers",
      "outputs": [
        {
          "internalType": "uint256",
          "name": "",
          "type": "uint256"
        }
      ],
      "stateMutability": "view",
      "type": "function"
    },
    {
      "inputs": [],
      "name": "pktContract",
      "outputs": [
        {
          "internalType": "address",
          "name": "",
          "type": "address"
        }
      ],
      "stateMutability": "view",
      "type": "function"
    },
    {
      "inputs": [
        {
          "internalType": "address",
          "name": "",
          "type": "address"
        }
      ],
      "name": "playerData",
      "outputs": [
        {
          "internalType": "bytes32",
          "name": "nickname",
          "type": "bytes32"
        },
        {
          "internalType": "uint32",
          "name": "wins",
          "type": "uint32"
        },
        {
          "internalType": "uint32",
          "name": "loss",
          "type": "uint32"
        },
        {
          "internalType": "uint32",
          "name": "tie",
          "type": "uint32"
        },
        {
          "internalType": "uint32",
          "name": "gaveup",
          "type": "uint32"
        }
      ],
      "stateMutability": "view",
      "type": "function"
    },
    {
      "inputs": [
        {
          "internalType": "address",
          "name": "",
          "type": "address"
        }
      ],
      "name": "playerIsRegistered",
      "outputs": [
        {
          "internalType": "bool",
          "name": "",
          "type": "bool"
        }
      ],
      "stateMutability": "view",
      "type": "function"
    },
    {
      "inputs": [
        {
          "internalType": "bytes32",
          "name": "",
          "type": "bytes32"
        }
      ],
      "name": "playerNicknameExists",
      "outputs": [
        {
          "internalType": "bool",
          "name": "",
          "type": "bool"
        }
      ],
      "stateMutability": "view",
      "type": "function"
    },
    {
      "inputs": [
        {
          "internalType": "uint256",
          "name": "",
          "type": "uint256"
        }
      ],
      "name": "players",
      "outputs": [
        {
          "internalType": "address",
          "name": "",
          "type": "address"
        }
      ],
      "stateMutability": "view",
      "type": "function"
    },
    {
      "inputs": [
        {
          "internalType": "bytes32",
          "name": "role",
          "type": "bytes32"
        },
        {
          "internalType": "address",
          "name": "account",
          "type": "address"
        }
      ],
      "name": "renounceRole",
      "outputs": [],
      "stateMutability": "nonpayable",
      "type": "function"
    },
    {
      "inputs": [
        {
          "internalType": "bytes32",
          "name": "role",
          "type": "bytes32"
        },
        {
          "internalType": "address",
          "name": "account",
          "type": "address"
        }
      ],
      "name": "revokeRole",
      "outputs": [],
      "stateMutability": "nonpayable",
      "type": "function"
    },
    {
      "inputs": [],
      "name": "weaponContract",
      "outputs": [
        {
          "internalType": "address",
          "name": "",
          "type": "address"
        }
      ],
      "stateMutability": "view",
      "type": "function"
    },
    {
      "inputs": [
        {
          "internalType": "bytes32",
          "name": "_name",
          "type": "bytes32"
        }
      ],
      "name": "registerPlayer",
      "outputs": [],
      "stateMutability": "nonpayable",
      "type": "function"
    },
    {
      "inputs": [
        {
          "internalType": "bool",
          "name": "_active",
          "type": "bool"
        }
      ],
      "name": "activateDeactivateContract",
      "outputs": [],
      "stateMutability": "nonpayable",
      "type": "function"
    }
  ],
  "bytecode": "0x60806040523480156200001157600080fd5b5060405162001f6f38038062001f6f833981810160405281019062000037919062000465565b6200005b6000801b6200004f620000c460201b60201c565b620000cc60201b60201c565b6200006c84620000e260201b60201c565b6200007d836200015f60201b60201c565b6200008e82620001dc60201b60201c565b6200009f816200025960201b60201c565b6001600460146101000a81548160ff0219169083151502179055505050505062000674565b600033905090565b620000de8282620002d660201b60201c565b5050565b80600260006101000a81548173ffffffffffffffffffffffffffffffffffffffff021916908373ffffffffffffffffffffffffffffffffffffffff1602179055507fc02dd078a5d63c2645d0da4b3173f425d353dafebbb14064059edbd4244a31bf81604051620001549190620005fb565b60405180910390a150565b80600160006101000a81548173ffffffffffffffffffffffffffffffffffffffff021916908373ffffffffffffffffffffffffffffffffffffffff1602179055507fc02dd078a5d63c2645d0da4b3173f425d353dafebbb14064059edbd4244a31bf81604051620001d191906200057a565b60405180910390a150565b80600360006101000a81548173ffffffffffffffffffffffffffffffffffffffff021916908373ffffffffffffffffffffffffffffffffffffffff1602179055507fc02dd078a5d63c2645d0da4b3173f425d353dafebbb14064059edbd4244a31bf816040516200024e9190620005a5565b60405180910390a150565b80600460006101000a81548173ffffffffffffffffffffffffffffffffffffffff021916908373ffffffffffffffffffffffffffffffffffffffff1602179055507fc02dd078a5d63c2645d0da4b3173f425d353dafebbb14064059edbd4244a31bf81604051620002cb9190620005d0565b60405180910390a150565b62000304816000808581526020019081526020016000206000016200037960201b620009611790919060201c565b1562000375576200031a620000c460201b60201c565b73ffffffffffffffffffffffffffffffffffffffff168173ffffffffffffffffffffffffffffffffffffffff16837f2f8788117e7eff1d82e926ec794901d17c78024a50270940304540a733656f0d60405160405180910390a45b5050565b6000620003a9836000018373ffffffffffffffffffffffffffffffffffffffff1660001b620003b160201b60201c565b905092915050565b6000620003c583836200042b60201b60201c565b6200042057826000018290806001815401808255809150506001900390600052602060002001600090919091909150558260000180549050836001016000848152602001908152602001600020819055506001905062000425565b600090505b92915050565b600080836001016000848152602001908152602001600020541415905092915050565b6000815190506200045f816200065a565b92915050565b600080600080608085870312156200047c57600080fd5b60006200048c878288016200044e565b94505060206200049f878288016200044e565b9350506040620004b2878288016200044e565b9250506060620004c5878288016200044e565b91505092959194509250565b620004dc8162000626565b82525050565b7f6368617261637465720000000000000000000000000000000000000000000000815250565b7f776561706f6e0000000000000000000000000000000000000000000000000000815250565b7f706b740000000000000000000000000000000000000000000000000000000000815250565b7f6368657374000000000000000000000000000000000000000000000000000000815250565b6000604082019050620005916000830184620004d1565b6200059f60208301620004e2565b92915050565b6000604082019050620005bc6000830184620004d1565b620005ca6020830162000508565b92915050565b6000604082019050620005e76000830184620004d1565b620005f5602083016200052e565b92915050565b6000604082019050620006126000830184620004d1565b620006206020830162000554565b92915050565b600062000633826200063a565b9050919050565b600073ffffffffffffffffffffffffffffffffffffffff82169050919050565b620006658162000626565b81146200067157600080fd5b50565b6118eb80620006846000396000f3fe608060405234801561001057600080fd5b50600436106101375760003560e01c80638996e7dc116100b8578063ca15c8731161007c578063ca15c87314610354578063d547741f14610384578063d59134ba146103a0578063d5cfee3e146103be578063f71d96cb146103ee578063fa91ab4a1461041e57610137565b80638996e7dc1461029c5780639010d07c146102b857806391d14854146102e857806397b2f55614610318578063a217fddf1461033657610137565b806336568abe116100ff57806336568abe146101e0578063424aeded146101fc57806343b60f74146102305780634810c35b1461024e57806360042dee1461027e57610137565b806302fb0c5e1461013c57806316c30ebc1461015a57806321bbf14c14610178578063248a9ca3146101945780632f2ff15d146101c4575b600080fd5b61014461043c565b604051610151919061156f565b60405180910390f35b61016261044f565b60405161016f919061158a565b60405180910390f35b610192600480360381019061018d9190611287565b610473565b005b6101ae60048036038101906101a991906112b0565b61051a565b6040516101bb919061158a565b60405180910390f35b6101de60048036038101906101d991906112d9565b610539565b005b6101fa60048036038101906101f591906112d9565b6105c2565b005b6102166004803603810190610211919061125e565b61065b565b6040516102279594939291906115ce565b60405180910390f35b6102386106d1565b6040516102459190611554565b60405180910390f35b610268600480360381019061026391906112b0565b6106f7565b604051610275919061156f565b60405180910390f35b610286610717565b6040516102939190611554565b60405180910390f35b6102b660048036038101906102b191906112b0565b61073d565b005b6102d260048036038101906102cd9190611315565b610798565b6040516102df9190611554565b60405180910390f35b61030260048036038101906102fd91906112d9565b6107c9565b60405161030f919061156f565b60405180910390f35b6103206107fa565b60405161032d91906116fc565b60405180910390f35b61033e610800565b60405161034b919061158a565b60405180910390f35b61036e600480360381019061036991906112b0565b610807565b60405161037b91906116fc565b60405180910390f35b61039e600480360381019061039991906112d9565b61082d565b005b6103a86108b6565b6040516103b59190611554565b60405180910390f35b6103d860048036038101906103d3919061125e565b6108dc565b6040516103e5919061156f565b60405180910390f35b61040860048036038101906104039190611351565b6108fc565b6040516104159190611554565b60405180910390f35b61042661093b565b6040516104339190611554565b60405180910390f35b600460149054906101000a900460ff1681565b7fce04d177cfe9f73a7157bda35b0add7251966ad70509ceaef76ad7d5e6c4504281565b6104876000801b610482610991565b6107c9565b6104c6576040517f08c379a00000000000000000000000000000000000000000000000000000000081526004016104bd9061163c565b60405180910390fd5b80600460146101000a81548160ff0219169083151502179055507f09712b3452a5348a0328397d58ce3c6cdc382ad233b3c04924a1f5683fa925748160405161050f919061156f565b60405180910390a150565b6000806000838152602001908152602001600020600201549050919050565b61055f6000808481526020019081526020016000206002015461055a610991565b6107c9565b6105b4576040517f08c379a000000000000000000000000000000000000000000000000000000000815260040180806020018281038252602f815260200180611828602f913960400191505060405180910390fd5b6105be8282610999565b5050565b6105ca610991565b73ffffffffffffffffffffffffffffffffffffffff168173ffffffffffffffffffffffffffffffffffffffff161461064d576040517f08c379a000000000000000000000000000000000000000000000000000000000815260040180806020018281038252602f815260200180611887602f913960400191505060405180910390fd5b6106578282610a2c565b5050565b60056020528060005260406000206000915090508060000154908060010160009054906101000a900463ffffffff16908060010160049054906101000a900463ffffffff16908060010160089054906101000a900463ffffffff169080600101600c9054906101000a900463ffffffff16905085565b600160009054906101000a900473ffffffffffffffffffffffffffffffffffffffff1681565b60086020528060005260406000206000915054906101000a900460ff1681565b600360009054906101000a900473ffffffffffffffffffffffffffffffffffffffff1681565b600460149054906101000a900460ff1661078c576040517f08c379a00000000000000000000000000000000000000000000000000000000081526004016107839061167c565b60405180910390fd5b61079581610abf565b50565b60006107c182600080868152602001908152602001600020600001610f5e90919063ffffffff16565b905092915050565b60006107f282600080868152602001908152602001600020600001610f7890919063ffffffff16565b905092915050565b60075481565b6000801b81565b6000610826600080848152602001908152602001600020600001610fa8565b9050919050565b6108536000808481526020019081526020016000206002015461084e610991565b6107c9565b6108a8576040517f08c379a00000000000000000000000000000000000000000000000000000000081526004018080602001828103825260308152602001806118576030913960400191505060405180910390fd5b6108b28282610a2c565b5050565b600460009054906101000a900473ffffffffffffffffffffffffffffffffffffffff1681565b60096020528060005260406000206000915054906101000a900460ff1681565b6006818154811061090c57600080fd5b906000526020600020016000915054906101000a900473ffffffffffffffffffffffffffffffffffffffff1681565b600260009054906101000a900473ffffffffffffffffffffffffffffffffffffffff1681565b6000610989836000018373ffffffffffffffffffffffffffffffffffffffff1660001b610fbd565b905092915050565b600033905090565b6109c08160008085815260200190815260200160002060000161096190919063ffffffff16565b15610a28576109cd610991565b73ffffffffffffffffffffffffffffffffffffffff168173ffffffffffffffffffffffffffffffffffffffff16837f2f8788117e7eff1d82e926ec794901d17c78024a50270940304540a733656f0d60405160405180910390a45b5050565b610a538160008085815260200190815260200160002060000161102d90919063ffffffff16565b15610abb57610a60610991565b73ffffffffffffffffffffffffffffffffffffffff168173ffffffffffffffffffffffffffffffffffffffff16837ff6391f5c32d9c69d2a47ea670b442974b53935d1edc7fd64eb21e047a839171b60405160405180910390a45b5050565b80604051602001610acf906116dc565b6040516020818303038152906040528051906020012081604051602001610af6919061158a565b6040516020818303038152906040528051906020012014158015610b6757506000604051602001610b279190611621565b6040516020818303038152906040528051906020012081604051602001610b4e919061158a565b6040516020818303038152906040528051906020012014155b610ba6576040517f08c379a0000000000000000000000000000000000000000000000000000000008152600401610b9d9061165c565b60405180910390fd5b60096000610bb2610991565b73ffffffffffffffffffffffffffffffffffffffff1673ffffffffffffffffffffffffffffffffffffffff16815260200190815260200160002060009054906101000a900460ff1615610c3a576040517f08c379a0000000000000000000000000000000000000000000000000000000008152600401610c31906116bc565b60405180910390fd5b816008600082815260200190815260200160002060009054906101000a900460ff1615610c9c576040517f08c379a0000000000000000000000000000000000000000000000000000000008152600401610c939061169c565b60405180910390fd5b6040518060a00160405280848152602001600063ffffffff168152602001600063ffffffff168152602001600063ffffffff168152602001600063ffffffff1681525060056000610ceb610991565b73ffffffffffffffffffffffffffffffffffffffff1673ffffffffffffffffffffffffffffffffffffffff1681526020019081526020016000206000820151816000015560208201518160010160006101000a81548163ffffffff021916908363ffffffff16021790555060408201518160010160046101000a81548163ffffffff021916908363ffffffff16021790555060608201518160010160086101000a81548163ffffffff021916908363ffffffff160217905550608082015181600101600c6101000a81548163ffffffff021916908363ffffffff1602179055509050506006610dd8610991565b9080600181540180825580915050600190039060005260206000200160009091909190916101000a81548173ffffffffffffffffffffffffffffffffffffffff021916908373ffffffffffffffffffffffffffffffffffffffff16021790555060016008600085815260200190815260200160002060006101000a81548160ff021916908315150217905550600160096000610e72610991565b73ffffffffffffffffffffffffffffffffffffffff1673ffffffffffffffffffffffffffffffffffffffff16815260200190815260200160002060006101000a81548160ff021916908315150217905550600680549050600781905550610f007fce04d177cfe9f73a7157bda35b0add7251966ad70509ceaef76ad7d5e6c45042610efb610991565b61105d565b610f08610991565b73ffffffffffffffffffffffffffffffffffffffff167fb15dfd21b68df9009b3cf0c00f71adb58432149afacbb5e885e3cece431e95ff84600754604051610f519291906115a5565b60405180910390a2505050565b6000610f6d836000018361106b565b60001c905092915050565b6000610fa0836000018373ffffffffffffffffffffffffffffffffffffffff1660001b6110ee565b905092915050565b6000610fb682600001611111565b9050919050565b6000610fc983836110ee565b611022578260000182908060018154018082558091505060019003906000526020600020016000909190919091505582600001805490508360010160008481526020019081526020016000208190555060019050611027565b600090505b92915050565b6000611055836000018373ffffffffffffffffffffffffffffffffffffffff1660001b611122565b905092915050565b6110678282610999565b5050565b6000818360000180549050116110cc576040517f08c379a00000000000000000000000000000000000000000000000000000000081526004018080602001828103825260228152602001806118066022913960400191505060405180910390fd5b8260000182815481106110db57fe5b9060005260206000200154905092915050565b600080836001016000848152602001908152602001600020541415905092915050565b600081600001805490509050919050565b600080836001016000848152602001908152602001600020549050600081146111fe576000600182039050600060018660000180549050039050600086600001828154811061116d57fe5b906000526020600020015490508087600001848154811061118a57fe5b90600052602060002001819055506001830187600101600083815260200190815260200160002081905550866000018054806111c257fe5b60019003818190600052602060002001600090559055866001016000878152602001908152602001600020600090556001945050505050611204565b60009150505b92915050565b600081359050611219816117a9565b92915050565b60008135905061122e816117c0565b92915050565b600081359050611243816117d7565b92915050565b600081359050611258816117ee565b92915050565b60006020828403121561127057600080fd5b600061127e8482850161120a565b91505092915050565b60006020828403121561129957600080fd5b60006112a78482850161121f565b91505092915050565b6000602082840312156112c257600080fd5b60006112d084828501611234565b91505092915050565b600080604083850312156112ec57600080fd5b60006112fa85828601611234565b925050602061130b8582860161120a565b9150509250929050565b6000806040838503121561132857600080fd5b600061133685828601611234565b925050602061134785828601611249565b9150509250929050565b60006020828403121561136357600080fd5b600061137184828501611249565b91505092915050565b61138381611728565b82525050565b6113928161173a565b82525050565b6113a181611746565b82525050565b6113b081611797565b82525050565b60006113c3603083611717565b91507f616374697661746544656163746976617465436f6e74726163743a206d75737460008301527f20686176652061646d696e20726f6c65000000000000000000000000000000006020830152604082019050919050565b6000611429601883611717565b91507f456d70747920737472696e67206e6f7420616c6c6f77656400000000000000006000830152602082019050919050565b6000611469601483611717565b91507f436f6e747261637420697320696e6163746976650000000000000000000000006000830152602082019050919050565b60006114a9601c83611717565b91507f4e69636b6e616d65206e616d6520616c726561647920657869737473000000006000830152602082019050919050565b60006114e9601c83611717565b91507f506c6179657220697320616c72656164792072656769737465726564000000006000830152602082019050919050565b6000611529600083611717565b9150600082019050919050565b61153f81611770565b82525050565b61154e8161177a565b82525050565b6000602082019050611569600083018461137a565b92915050565b60006020820190506115846000830184611389565b92915050565b600060208201905061159f6000830184611398565b92915050565b60006040820190506115ba6000830185611398565b6115c76020830184611536565b9392505050565b600060a0820190506115e36000830188611398565b6115f06020830187611545565b6115fd6040830186611545565b61160a6060830185611545565b6116176080830184611545565b9695505050505050565b600060208201905061163660008301846113a7565b92915050565b60006020820190508181036000830152611655816113b6565b9050919050565b600060208201905081810360008301526116758161141c565b9050919050565b600060208201905081810360008301526116958161145c565b9050919050565b600060208201905081810360008301526116b58161149c565b9050919050565b600060208201905081810360008301526116d5816114dc565b9050919050565b600060208201905081810360008301526116f58161151c565b9050919050565b60006020820190506117116000830184611536565b92915050565b600082825260208201905092915050565b600061173382611750565b9050919050565b60008115159050919050565b6000819050919050565b600073ffffffffffffffffffffffffffffffffffffffff82169050919050565b6000819050919050565b600063ffffffff82169050919050565b600060ff82169050919050565b60006117a28261178a565b9050919050565b6117b281611728565b81146117bd57600080fd5b50565b6117c98161173a565b81146117d457600080fd5b50565b6117e081611746565b81146117eb57600080fd5b50565b6117f781611770565b811461180257600080fd5b5056fe456e756d657261626c655365743a20696e646578206f7574206f6620626f756e6473416363657373436f6e74726f6c3a2073656e646572206d75737420626520616e2061646d696e20746f206772616e74416363657373436f6e74726f6c3a2073656e646572206d75737420626520616e2061646d696e20746f207265766f6b65416363657373436f6e74726f6c3a2063616e206f6e6c792072656e6f756e636520726f6c657320666f722073656c66a264697066735822122080f0a5a9666408feacd2862678a0cf61ef18b5fa0682c2e93633f566dbe1d49f64736f6c63430007050033",
  "immutableReferences": {},
  "source": "// SPDX-License-Identifier: MIT\npragma solidity 0.7.5;\npragma abicoder v2;\n\nimport '@openzeppelin/contracts/access/AccessControl.sol';\nimport \"@openzeppelin/contracts/utils/Context.sol\";\nimport '@openzeppelin/contracts/math/SafeMath.sol';\nimport './SafeMath8.sol';\nimport './SafeMath16.sol';\nimport './SafeMath24.sol';\nimport './SafeMath32.sol';\nimport './IBEP20.sol';\n\n\ncontract PiratesKingGame is Context, AccessControl\n{\n    using SafeMath for uint256;\n    using SafeMath8 for uint8;\n    using SafeMath16 for uint16;\n    using SafeMath24 for uint24;\n    using SafeMath32 for uint32;\n\n    struct Player {\n        bytes32 nickname;\n        uint32 wins;\n        uint32 loss;\n        uint32 tie;\n        uint32 gaveup;\n    }\n\n    // Player role to improve access control\n    bytes32 public constant PLAYER_ROLE = keccak256(\"PLAYER_ROLE\");\n\n    // Addresses of other contracts\n    address public characterContract;\n    address public chestContract;\n    address public weaponContract;\n    address public pktContract;\n\n    // Contract status\n    bool public active;\n    // Table of players\n    mapping(address => Player) public playerData;\n    address[] public players;\n    uint256 public numPlayers;\n    mapping(bytes32 => bool) public playerNicknameExists;\n    mapping(address => bool) public playerIsRegistered;\n\n    /*\n    * @dev Check if bytes32 is empty\n  */\n    modifier isNotEmptyBytes32(bytes32 _s)\n    {\n        require(\n            (keccak256(abi.encode(_s)) != keccak256(abi.encode(\"\"))) &&\n            (keccak256(abi.encode(_s)) != keccak256(abi.encode(0x00))),\n            \"Empty string not allowed\"\n        );\n        _;\n    }\n\n\n    /*\n    *\t@dev Check if contract is active\n\t*/\n    modifier isContractActive {\n        require( active, \"Contract is inactive\" );\n        _;\n    }\n\n    /*\n    * @dev Check if contract is active\n  */\n    modifier isNotRegistered() {\n        require(!playerIsRegistered[_msgSender()], \"Player is already registered\");\n        _;\n    }\n\n    /*\n    * @dev Check if planet name is available or if is already used\n  */\n    modifier isPlayerNicknameAvailable(bytes32 _name) {\n        require(\n            !playerNicknameExists[_name],\n            \"Nickname name already exists\"\n        );\n        _;\n    }\n\n\n    /*\n    * @dev Log contract status update\n  */\n    event ContractStatusUpdate(bool newStatus);\n    event LibContractAddressUpdate(address newAddress, bytes32 contractName);\n    event NewPlayerRegistered(address indexed player, bytes32 name, uint256 totalPlayers);\n    event NewCharacterMinted(address indexed player, bytes32 name);\n\n\n    /*\n    * @dev Set default admin role to owner\n  */\n\n    constructor(\n        address _chestAddress,\n        address _characterAddress,\n        address  _weaponAddress,\n        address  _pktAddress\n    ) {\n        _setupRole(DEFAULT_ADMIN_ROLE, _msgSender());\n        _setChestContractAddress(_chestAddress);\n        _setCharacterContractAddress(_characterAddress);\n        _setWeaponContractAddress(_weaponAddress);\n        _setPKTContractAddress(_pktAddress);\n        active = true;\n    }\n\n    /*\n    *  @Update planet contract address\n  */\n    function _setChestContractAddress(address _contract)\n    private\n    {\n        chestContract = _contract;\n        emit LibContractAddressUpdate(_contract, 'chest');\n    }\n\n    /*\n    *  @Update character contract address\n  */\n    function _setCharacterContractAddress(address _contract)\n    private\n    {\n        characterContract = _contract;\n        emit LibContractAddressUpdate(_contract, 'character');\n    }\n\n    /*\n    *  @Update weapon contract address\n  */\n    function _setWeaponContractAddress(address _contract)\n    private\n    {\n        weaponContract = _contract;\n        emit LibContractAddressUpdate(_contract, 'weapon');\n    }\n\n    /*\n    *  @Update token contract address\n  */\n    function _setPKTContractAddress(address _contract)\n    private\n    {\n        pktContract = _contract;\n        emit LibContractAddressUpdate(_contract, 'pkt');\n    }\n\n    /*\n    *  @dev Register a new player\n  */\n    function _registerPlayer(bytes32 _name)\n    private\n    isNotEmptyBytes32(_name)\n    isNotRegistered\n    isPlayerNicknameAvailable(_name)\n    {\n        playerData[_msgSender()] = Player(_name, 0, 0, 0, 0);\n        players.push(_msgSender());\n        playerNicknameExists[_name] = true;\n        playerIsRegistered[_msgSender()] = true;\n        numPlayers = players.length;\n        _setupRole(PLAYER_ROLE, _msgSender());\n        emit NewPlayerRegistered(_msgSender(), _name, numPlayers);\n    }\n\n    /*\n    * @dev Create a new player and send initial tokens\n  */\n    function registerPlayer(bytes32 _name)\n    public\n    isContractActive\n    {\n        _registerPlayer(_name);\n    }\n\n    function activateDeactivateContract(bool _active)\n    external\n    {\n        require(hasRole(DEFAULT_ADMIN_ROLE, _msgSender()), \"activateDeactivateContract: must have admin role\");\n\n        active = _active;\n        emit ContractStatusUpdate(_active);\n    }\n\n\n\n}\n",
  "sourcePath": "/Users/macbook/Desktop/tacrypto/contracts/PiratesKingGame.sol",
  "compiler": {
    "name": "solc",
    "version": "0.7.5+commit.eb77ed08.Emscripten.clang"
  },
  "schemaVersion": "3.4.4",
  "updatedAt": "2021-12-24T09:55:11.746Z",
  "devdoc": {
    "kind": "dev",
    "methods": {
      "getRoleAdmin(bytes32)": {
        "details": "Returns the admin role that controls `role`. See {grantRole} and {revokeRole}. To change a role's admin, use {_setRoleAdmin}."
      },
      "getRoleMember(bytes32,uint256)": {
        "details": "Returns one of the accounts that have `role`. `index` must be a value between 0 and {getRoleMemberCount}, non-inclusive. Role bearers are not sorted in any particular way, and their ordering may change at any point. WARNING: When using {getRoleMember} and {getRoleMemberCount}, make sure you perform all queries on the same block. See the following https://forum.openzeppelin.com/t/iterating-over-elements-on-enumerableset-in-openzeppelin-contracts/2296[forum post] for more information."
      },
      "getRoleMemberCount(bytes32)": {
        "details": "Returns the number of accounts that have `role`. Can be used together with {getRoleMember} to enumerate all bearers of a role."
      },
      "grantRole(bytes32,address)": {
        "details": "Grants `role` to `account`. If `account` had not been already granted `role`, emits a {RoleGranted} event. Requirements: - the caller must have ``role``'s admin role."
      },
      "hasRole(bytes32,address)": {
        "details": "Returns `true` if `account` has been granted `role`."
      },
      "renounceRole(bytes32,address)": {
        "details": "Revokes `role` from the calling account. Roles are often managed via {grantRole} and {revokeRole}: this function's purpose is to provide a mechanism for accounts to lose their privileges if they are compromised (such as when a trusted device is misplaced). If the calling account had been granted `role`, emits a {RoleRevoked} event. Requirements: - the caller must be `account`."
      },
      "revokeRole(bytes32,address)": {
        "details": "Revokes `role` from `account`. If `account` had been granted `role`, emits a {RoleRevoked} event. Requirements: - the caller must have ``role``'s admin role."
      }
    },
    "version": 1
  },
  "userdoc": {
    "kind": "user",
    "methods": {},
    "version": 1
  }
}