{
  "contractName": "PiratesKingToken",
  "abi": [
    {
      "inputs": [],
      "stateMutability": "nonpayable",
      "type": "constructor"
    },
    {
      "anonymous": false,
      "inputs": [
        {
          "indexed": true,
          "internalType": "address",
          "name": "owner",
          "type": "address"
        },
        {
          "indexed": true,
          "internalType": "address",
          "name": "spender",
          "type": "address"
        },
        {
          "indexed": false,
          "internalType": "uint256",
          "name": "value",
          "type": "uint256"
        }
      ],
      "name": "Approval",
      "type": "event"
    },
    {
      "anonymous": false,
      "inputs": [
        {
          "indexed": true,
          "internalType": "address",
          "name": "_account",
          "type": "address"
        }
      ],
      "name": "Blacklisted",
      "type": "event"
    },
    {
      "anonymous": false,
      "inputs": [
        {
          "indexed": true,
          "internalType": "address",
          "name": "newBlacklister",
          "type": "address"
        }
      ],
      "name": "BlacklisterChanged",
      "type": "event"
    },
    {
      "anonymous": false,
      "inputs": [
        {
          "indexed": true,
          "internalType": "address",
          "name": "previousOwner",
          "type": "address"
        },
        {
          "indexed": true,
          "internalType": "address",
          "name": "newOwner",
          "type": "address"
        }
      ],
      "name": "OwnershipTransferred",
      "type": "event"
    },
    {
      "anonymous": false,
      "inputs": [
        {
          "indexed": false,
          "internalType": "address",
          "name": "account",
          "type": "address"
        }
      ],
      "name": "Paused",
      "type": "event"
    },
    {
      "anonymous": false,
      "inputs": [
        {
          "indexed": true,
          "internalType": "address",
          "name": "from",
          "type": "address"
        },
        {
          "indexed": true,
          "internalType": "address",
          "name": "to",
          "type": "address"
        },
        {
          "indexed": false,
          "internalType": "uint256",
          "name": "value",
          "type": "uint256"
        }
      ],
      "name": "Transfer",
      "type": "event"
    },
    {
      "anonymous": false,
      "inputs": [
        {
          "indexed": true,
          "internalType": "address",
          "name": "_account",
          "type": "address"
        }
      ],
      "name": "UnBlacklisted",
      "type": "event"
    },
    {
      "anonymous": false,
      "inputs": [
        {
          "indexed": false,
          "internalType": "address",
          "name": "account",
          "type": "address"
        }
      ],
      "name": "Unpaused",
      "type": "event"
    },
    {
      "inputs": [
        {
          "internalType": "address",
          "name": "_account",
          "type": "address"
        }
      ],
      "name": "blacklist",
      "outputs": [],
      "stateMutability": "nonpayable",
      "type": "function"
    },
    {
      "inputs": [],
      "name": "blacklister",
      "outputs": [
        {
          "internalType": "address",
          "name": "",
          "type": "address"
        }
      ],
      "stateMutability": "view",
      "type": "function"
    },
    {
      "inputs": [
        {
          "internalType": "address",
          "name": "_account",
          "type": "address"
        }
      ],
      "name": "isBlacklisted",
      "outputs": [
        {
          "internalType": "bool",
          "name": "",
          "type": "bool"
        }
      ],
      "stateMutability": "view",
      "type": "function"
    },
    {
      "inputs": [],
      "name": "owner",
      "outputs": [
        {
          "internalType": "address",
          "name": "",
          "type": "address"
        }
      ],
      "stateMutability": "view",
      "type": "function"
    },
    {
      "inputs": [],
      "name": "paused",
      "outputs": [
        {
          "internalType": "bool",
          "name": "",
          "type": "bool"
        }
      ],
      "stateMutability": "view",
      "type": "function"
    },
    {
      "inputs": [],
      "name": "renounceOwnership",
      "outputs": [],
      "stateMutability": "nonpayable",
      "type": "function"
    },
    {
      "inputs": [
        {
          "internalType": "address",
          "name": "newOwner",
          "type": "address"
        }
      ],
      "name": "transferOwnership",
      "outputs": [],
      "stateMutability": "nonpayable",
      "type": "function"
    },
    {
      "inputs": [
        {
          "internalType": "address",
          "name": "_account",
          "type": "address"
        }
      ],
      "name": "unBlacklist",
      "outputs": [],
      "stateMutability": "nonpayable",
      "type": "function"
    },
    {
      "inputs": [
        {
          "internalType": "address",
          "name": "_newBlacklister",
          "type": "address"
        }
      ],
      "name": "updateBlacklister",
      "outputs": [],
      "stateMutability": "nonpayable",
      "type": "function"
    },
    {
      "inputs": [],
      "name": "pause",
      "outputs": [],
      "stateMutability": "nonpayable",
      "type": "function"
    },
    {
      "inputs": [],
      "name": "unpause",
      "outputs": [],
      "stateMutability": "nonpayable",
      "type": "function"
    },
    {
      "inputs": [],
      "name": "getOwner",
      "outputs": [
        {
          "internalType": "address",
          "name": "",
          "type": "address"
        }
      ],
      "stateMutability": "view",
      "type": "function"
    },
    {
      "inputs": [],
      "name": "decimals",
      "outputs": [
        {
          "internalType": "uint8",
          "name": "",
          "type": "uint8"
        }
      ],
      "stateMutability": "view",
      "type": "function"
    },
    {
      "inputs": [],
      "name": "symbol",
      "outputs": [
        {
          "internalType": "string",
          "name": "",
          "type": "string"
        }
      ],
      "stateMutability": "view",
      "type": "function"
    },
    {
      "inputs": [],
      "name": "name",
      "outputs": [
        {
          "internalType": "string",
          "name": "",
          "type": "string"
        }
      ],
      "stateMutability": "view",
      "type": "function"
    },
    {
      "inputs": [],
      "name": "totalSupply",
      "outputs": [
        {
          "internalType": "uint256",
          "name": "",
          "type": "uint256"
        }
      ],
      "stateMutability": "view",
      "type": "function"
    },
    {
      "inputs": [
        {
          "internalType": "address",
          "name": "account",
          "type": "address"
        }
      ],
      "name": "balanceOf",
      "outputs": [
        {
          "internalType": "uint256",
          "name": "",
          "type": "uint256"
        }
      ],
      "stateMutability": "view",
      "type": "function"
    },
    {
      "inputs": [
        {
          "internalType": "address",
          "name": "recipient",
          "type": "address"
        },
        {
          "internalType": "uint256",
          "name": "amount",
          "type": "uint256"
        }
      ],
      "name": "transfer",
      "outputs": [
        {
          "internalType": "bool",
          "name": "",
          "type": "bool"
        }
      ],
      "stateMutability": "nonpayable",
      "type": "function"
    },
    {
      "inputs": [
        {
          "internalType": "address",
          "name": "owner",
          "type": "address"
        },
        {
          "internalType": "address",
          "name": "spender",
          "type": "address"
        }
      ],
      "name": "allowance",
      "outputs": [
        {
          "internalType": "uint256",
          "name": "",
          "type": "uint256"
        }
      ],
      "stateMutability": "view",
      "type": "function"
    },
    {
      "inputs": [
        {
          "internalType": "address",
          "name": "spender",
          "type": "address"
        },
        {
          "internalType": "uint256",
          "name": "amount",
          "type": "uint256"
        }
      ],
      "name": "approve",
      "outputs": [
        {
          "internalType": "bool",
          "name": "",
          "type": "bool"
        }
      ],
      "stateMutability": "nonpayable",
      "type": "function"
    },
    {
      "inputs": [
        {
          "internalType": "address",
          "name": "sender",
          "type": "address"
        },
        {
          "internalType": "address",
          "name": "recipient",
          "type": "address"
        },
        {
          "internalType": "uint256",
          "name": "amount",
          "type": "uint256"
        }
      ],
      "name": "transferFrom",
      "outputs": [
        {
          "internalType": "bool",
          "name": "",
          "type": "bool"
        }
      ],
      "stateMutability": "nonpayable",
      "type": "function"
    },
    {
      "inputs": [
        {
          "internalType": "address",
          "name": "spender",
          "type": "address"
        },
        {
          "internalType": "uint256",
          "name": "addedValue",
          "type": "uint256"
        }
      ],
      "name": "increaseAllowance",
      "outputs": [
        {
          "internalType": "bool",
          "name": "",
          "type": "bool"
        }
      ],
      "stateMutability": "nonpayable",
      "type": "function"
    },
    {
      "inputs": [
        {
          "internalType": "address",
          "name": "spender",
          "type": "address"
        },
        {
          "internalType": "uint256",
          "name": "subtractedValue",
          "type": "uint256"
        }
      ],
      "name": "decreaseAllowance",
      "outputs": [
        {
          "internalType": "bool",
          "name": "",
          "type": "bool"
        }
      ],
      "stateMutability": "nonpayable",
      "type": "function"
    }
  ],
  "bytecode": "0x60806040523480156200001157600080fd5b5062000032620000266200020d60201b60201c565b6200021560201b60201c565b60008060146101000a81548160ff0219169083151502179055506040518060400160405280600b81526020017f506972617465734b696e670000000000000000000000000000000000000000008152506008908051906020019062000099929190620002d9565b506040518060400160405280600381526020017f504b54000000000000000000000000000000000000000000000000000000000081525060079080519060200190620000e7929190620002d9565b506012600660006101000a81548160ff021916908360ff1602179055506a52b7d2dcc80cd2e4000000600581905550600554600360003373ffffffffffffffffffffffffffffffffffffffff1673ffffffffffffffffffffffffffffffffffffffff1681526020019081526020016000208190555033600160006101000a81548173ffffffffffffffffffffffffffffffffffffffff021916908373ffffffffffffffffffffffffffffffffffffffff1602179055503373ffffffffffffffffffffffffffffffffffffffff16600073ffffffffffffffffffffffffffffffffffffffff167fddf252ad1be2c89b69c2b068fc378daa952ba7f163c4a11628f55a4df523b3ef600554604051620001ff9190620003a4565b60405180910390a362000426565b600033905090565b60008060009054906101000a900473ffffffffffffffffffffffffffffffffffffffff169050816000806101000a81548173ffffffffffffffffffffffffffffffffffffffff021916908373ffffffffffffffffffffffffffffffffffffffff1602179055508173ffffffffffffffffffffffffffffffffffffffff168173ffffffffffffffffffffffffffffffffffffffff167f8be0079c531659141344cd1fd0a4f28419497f9722a3daafe3b4186f6b6457e060405160405180910390a35050565b828054620002e790620003f0565b90600052602060002090601f0160209004810192826200030b576000855562000357565b82601f106200032657805160ff191683800117855562000357565b8280016001018555821562000357579182015b828111156200035657825182559160200191906001019062000339565b5b5090506200036691906200036a565b5090565b5b80821115620003855760008160009055506001016200036b565b5090565b6000819050919050565b6200039e8162000389565b82525050565b6000602082019050620003bb600083018462000393565b92915050565b7f4e487b7100000000000000000000000000000000000000000000000000000000600052602260045260246000fd5b600060028204905060018216806200040957607f821691505b6020821081141562000420576200041f620003c1565b5b50919050565b61260780620004366000396000f3fe608060405234801561001057600080fd5b506004361061014d5760003560e01c80638456cb59116100c3578063ad38bf221161007c578063ad38bf221461037e578063bd1024301461039a578063dd62ed3e146103b8578063f2fde38b146103e8578063f9f92be414610404578063fe575a87146104205761014d565b80638456cb59146102ba578063893d20e8146102c45780638da5cb5b146102e257806395d89b4114610300578063a457c2d71461031e578063a9059cbb1461034e5761014d565b8063313ce56711610115578063313ce5671461020a57806339509351146102285780633f4ba83a146102585780635c975abb1461026257806370a0823114610280578063715018a6146102b05761014d565b806306fdde0314610152578063095ea7b31461017057806318160ddd146101a05780631a895266146101be57806323b872dd146101da575b600080fd5b61015a610450565b6040516101679190611c28565b60405180910390f35b61018a60048036038101906101859190611ce3565b6104e2565b6040516101979190611d3e565b60405180910390f35b6101a8610666565b6040516101b59190611d68565b60405180910390f35b6101d860048036038101906101d39190611d83565b610670565b005b6101f460048036038101906101ef9190611db0565b61079e565b6040516102019190611d3e565b60405180910390f35b610212610a6c565b60405161021f9190611e1f565b60405180910390f35b610242600480360381019061023d9190611ce3565b610a83565b60405161024f9190611d3e565b60405180910390f35b610260610b36565b005b61026a610bbc565b6040516102779190611d3e565b60405180910390f35b61029a60048036038101906102959190611d83565b610bd2565b6040516102a79190611d68565b60405180910390f35b6102b8610c1b565b005b6102c2610ca3565b005b6102cc610d29565b6040516102d99190611e49565b60405180910390f35b6102ea610d38565b6040516102f79190611e49565b60405180910390f35b610308610d61565b6040516103159190611c28565b60405180910390f35b61033860048036038101906103339190611ce3565b610df3565b6040516103459190611d3e565b60405180910390f35b61036860048036038101906103639190611ce3565b610ec0565b6040516103759190611d3e565b60405180910390f35b61039860048036038101906103939190611d83565b610fb5565b005b6103a261114a565b6040516103af9190611e49565b60405180910390f35b6103d260048036038101906103cd9190611e64565b611170565b6040516103df9190611d68565b60405180910390f35b61040260048036038101906103fd9190611d83565b61123f565b005b61041e60048036038101906104199190611d83565b611337565b005b61043a60048036038101906104359190611d83565b611465565b6040516104479190611d3e565b60405180910390f35b60606008805461045f90611ed3565b80601f016020809104026020016040519081016040528092919081815260200182805461048b90611ed3565b80156104d85780601f106104ad576101008083540402835291602001916104d8565b820191906000526020600020905b8154815290600101906020018083116104bb57829003601f168201915b5050505050905090565b60006104ec610bbc565b1561052c576040517f08c379a000000000000000000000000000000000000000000000000000000000815260040161052390611f51565b60405180910390fd5b33600260008273ffffffffffffffffffffffffffffffffffffffff1673ffffffffffffffffffffffffffffffffffffffff16815260200190815260200160002060009054906101000a900460ff16156105ba576040517f08c379a00000000000000000000000000000000000000000000000000000000081526004016105b190611fe3565b60405180910390fd5b83600260008273ffffffffffffffffffffffffffffffffffffffff1673ffffffffffffffffffffffffffffffffffffffff16815260200190815260200160002060009054906101000a900460ff1615610648576040517f08c379a000000000000000000000000000000000000000000000000000000000815260040161063f90611fe3565b60405180910390fd5b61065a6106536114bb565b86866114c3565b60019250505092915050565b6000600554905090565b600160009054906101000a900473ffffffffffffffffffffffffffffffffffffffff1673ffffffffffffffffffffffffffffffffffffffff163373ffffffffffffffffffffffffffffffffffffffff1614610700576040517f08c379a00000000000000000000000000000000000000000000000000000000081526004016106f790612075565b60405180910390fd5b6000600260008373ffffffffffffffffffffffffffffffffffffffff1673ffffffffffffffffffffffffffffffffffffffff16815260200190815260200160002060006101000a81548160ff0219169083151502179055508073ffffffffffffffffffffffffffffffffffffffff167f117e3210bb9aa7d9baff172026820255c6f6c30ba8999d1c2fd88e2848137c4e60405160405180910390a250565b60006107a8610bbc565b156107e8576040517f08c379a00000000000000000000000000000000000000000000000000000000081526004016107df90611f51565b60405180910390fd5b33600260008273ffffffffffffffffffffffffffffffffffffffff1673ffffffffffffffffffffffffffffffffffffffff16815260200190815260200160002060009054906101000a900460ff1615610876576040517f08c379a000000000000000000000000000000000000000000000000000000000815260040161086d90611fe3565b60405180910390fd5b84600260008273ffffffffffffffffffffffffffffffffffffffff1673ffffffffffffffffffffffffffffffffffffffff16815260200190815260200160002060009054906101000a900460ff1615610904576040517f08c379a00000000000000000000000000000000000000000000000000000000081526004016108fb90611fe3565b60405180910390fd5b84600260008273ffffffffffffffffffffffffffffffffffffffff1673ffffffffffffffffffffffffffffffffffffffff16815260200190815260200160002060009054906101000a900460ff1615610992576040517f08c379a000000000000000000000000000000000000000000000000000000000815260040161098990611fe3565b60405180910390fd5b61099d87878761168e565b610a5e876109a96114bb565b610a598860405180606001604052806028815260200161255f60289139600460008e73ffffffffffffffffffffffffffffffffffffffff1673ffffffffffffffffffffffffffffffffffffffff1681526020019081526020016000206000610a0f6114bb565b73ffffffffffffffffffffffffffffffffffffffff1673ffffffffffffffffffffffffffffffffffffffff1681526020019081526020016000205461191c9092919063ffffffff16565b6114c3565b600193505050509392505050565b6000600660009054906101000a900460ff16905090565b6000610b2c610a906114bb565b84610b278560046000610aa16114bb565b73ffffffffffffffffffffffffffffffffffffffff1673ffffffffffffffffffffffffffffffffffffffff16815260200190815260200160002060008973ffffffffffffffffffffffffffffffffffffffff1673ffffffffffffffffffffffffffffffffffffffff1681526020019081526020016000205461197190919063ffffffff16565b6114c3565b6001905092915050565b610b3e6114bb565b73ffffffffffffffffffffffffffffffffffffffff16610b5c610d38565b73ffffffffffffffffffffffffffffffffffffffff1614610bb2576040517f08c379a0000000000000000000000000000000000000000000000000000000008152600401610ba9906120e1565b60405180910390fd5b610bba611987565b565b60008060149054906101000a900460ff16905090565b6000600360008373ffffffffffffffffffffffffffffffffffffffff1673ffffffffffffffffffffffffffffffffffffffff168152602001908152602001600020549050919050565b610c236114bb565b73ffffffffffffffffffffffffffffffffffffffff16610c41610d38565b73ffffffffffffffffffffffffffffffffffffffff1614610c97576040517f08c379a0000000000000000000000000000000000000000000000000000000008152600401610c8e906120e1565b60405180910390fd5b610ca16000611a28565b565b610cab6114bb565b73ffffffffffffffffffffffffffffffffffffffff16610cc9610d38565b73ffffffffffffffffffffffffffffffffffffffff1614610d1f576040517f08c379a0000000000000000000000000000000000000000000000000000000008152600401610d16906120e1565b60405180910390fd5b610d27611aec565b565b6000610d33610d38565b905090565b60008060009054906101000a900473ffffffffffffffffffffffffffffffffffffffff16905090565b606060078054610d7090611ed3565b80601f0160208091040260200160405190810160405280929190818152602001828054610d9c90611ed3565b8015610de95780601f10610dbe57610100808354040283529160200191610de9565b820191906000526020600020905b815481529060010190602001808311610dcc57829003601f168201915b5050505050905090565b6000610eb6610e006114bb565b84610eb1856040518060600160405280602581526020016125ad6025913960046000610e2a6114bb565b73ffffffffffffffffffffffffffffffffffffffff1673ffffffffffffffffffffffffffffffffffffffff16815260200190815260200160002060008a73ffffffffffffffffffffffffffffffffffffffff1673ffffffffffffffffffffffffffffffffffffffff1681526020019081526020016000205461191c9092919063ffffffff16565b6114c3565b6001905092915050565b6000610eca610bbc565b15610f0a576040517f08c379a0000000000000000000000000000000000000000000000000000000008152600401610f0190611f51565b60405180910390fd5b33600260008273ffffffffffffffffffffffffffffffffffffffff1673ffffffffffffffffffffffffffffffffffffffff16815260200190815260200160002060009054906101000a900460ff1615610f98576040517f08c379a0000000000000000000000000000000000000000000000000000000008152600401610f8f90611fe3565b60405180910390fd5b610faa610fa36114bb565b858561168e565b600191505092915050565b610fbd6114bb565b73ffffffffffffffffffffffffffffffffffffffff16610fdb610d38565b73ffffffffffffffffffffffffffffffffffffffff1614611031576040517f08c379a0000000000000000000000000000000000000000000000000000000008152600401611028906120e1565b60405180910390fd5b600073ffffffffffffffffffffffffffffffffffffffff168173ffffffffffffffffffffffffffffffffffffffff1614156110a1576040517f08c379a000000000000000000000000000000000000000000000000000000000815260040161109890612173565b60405180910390fd5b80600160006101000a81548173ffffffffffffffffffffffffffffffffffffffff021916908373ffffffffffffffffffffffffffffffffffffffff160217905550600160009054906101000a900473ffffffffffffffffffffffffffffffffffffffff1673ffffffffffffffffffffffffffffffffffffffff167fc67398012c111ce95ecb7429b933096c977380ee6c421175a71a4a4c6c88c06e60405160405180910390a250565b600160009054906101000a900473ffffffffffffffffffffffffffffffffffffffff1681565b600061117a610bbc565b156111ba576040517f08c379a00000000000000000000000000000000000000000000000000000000081526004016111b190611f51565b60405180910390fd5b600460008473ffffffffffffffffffffffffffffffffffffffff1673ffffffffffffffffffffffffffffffffffffffff16815260200190815260200160002060008373ffffffffffffffffffffffffffffffffffffffff1673ffffffffffffffffffffffffffffffffffffffff16815260200190815260200160002054905092915050565b6112476114bb565b73ffffffffffffffffffffffffffffffffffffffff16611265610d38565b73ffffffffffffffffffffffffffffffffffffffff16146112bb576040517f08c379a00000000000000000000000000000000000000000000000000000000081526004016112b2906120e1565b60405180910390fd5b600073ffffffffffffffffffffffffffffffffffffffff168173ffffffffffffffffffffffffffffffffffffffff16141561132b576040517f08c379a000000000000000000000000000000000000000000000000000000000815260040161132290612205565b60405180910390fd5b61133481611a28565b50565b600160009054906101000a900473ffffffffffffffffffffffffffffffffffffffff1673ffffffffffffffffffffffffffffffffffffffff163373ffffffffffffffffffffffffffffffffffffffff16146113c7576040517f08c379a00000000000000000000000000000000000000000000000000000000081526004016113be90612075565b60405180910390fd5b6001600260008373ffffffffffffffffffffffffffffffffffffffff1673ffffffffffffffffffffffffffffffffffffffff16815260200190815260200160002060006101000a81548160ff0219169083151502179055508073ffffffffffffffffffffffffffffffffffffffff167fffa4e6181777692565cf28528fc88fd1516ea86b56da075235fa575af6a4b85560405160405180910390a250565b6000600260008373ffffffffffffffffffffffffffffffffffffffff1673ffffffffffffffffffffffffffffffffffffffff16815260200190815260200160002060009054906101000a900460ff169050919050565b600033905090565b600073ffffffffffffffffffffffffffffffffffffffff168373ffffffffffffffffffffffffffffffffffffffff161415611533576040517f08c379a000000000000000000000000000000000000000000000000000000000815260040161152a90612297565b60405180910390fd5b600073ffffffffffffffffffffffffffffffffffffffff168273ffffffffffffffffffffffffffffffffffffffff1614156115a3576040517f08c379a000000000000000000000000000000000000000000000000000000000815260040161159a90612329565b60405180910390fd5b80600460008573ffffffffffffffffffffffffffffffffffffffff1673ffffffffffffffffffffffffffffffffffffffff16815260200190815260200160002060008473ffffffffffffffffffffffffffffffffffffffff1673ffffffffffffffffffffffffffffffffffffffff168152602001908152602001600020819055508173ffffffffffffffffffffffffffffffffffffffff168373ffffffffffffffffffffffffffffffffffffffff167f8c5be1e5ebec7d5bd14f71427d1e84f3dd0314c0f7b2291e5b200ac8c7c3b925836040516116819190611d68565b60405180910390a3505050565b600073ffffffffffffffffffffffffffffffffffffffff168373ffffffffffffffffffffffffffffffffffffffff1614156116fe576040517f08c379a00000000000000000000000000000000000000000000000000000000081526004016116f5906123bb565b60405180910390fd5b600073ffffffffffffffffffffffffffffffffffffffff168273ffffffffffffffffffffffffffffffffffffffff16141561176e576040517f08c379a00000000000000000000000000000000000000000000000000000000081526004016117659061244d565b60405180910390fd5b6117da8160405180606001604052806026815260200161258760269139600360008773ffffffffffffffffffffffffffffffffffffffff1673ffffffffffffffffffffffffffffffffffffffff1681526020019081526020016000205461191c9092919063ffffffff16565b600360008573ffffffffffffffffffffffffffffffffffffffff1673ffffffffffffffffffffffffffffffffffffffff1681526020019081526020016000208190555061186f81600360008573ffffffffffffffffffffffffffffffffffffffff1673ffffffffffffffffffffffffffffffffffffffff1681526020019081526020016000205461197190919063ffffffff16565b600360008473ffffffffffffffffffffffffffffffffffffffff1673ffffffffffffffffffffffffffffffffffffffff168152602001908152602001600020819055508173ffffffffffffffffffffffffffffffffffffffff168373ffffffffffffffffffffffffffffffffffffffff167fddf252ad1be2c89b69c2b068fc378daa952ba7f163c4a11628f55a4df523b3ef8360405161190f9190611d68565b60405180910390a3505050565b6000838311158290611964576040517f08c379a000000000000000000000000000000000000000000000000000000000815260040161195b9190611c28565b60405180910390fd5b5082840390509392505050565b6000818361197f919061249c565b905092915050565b61198f610bbc565b6119ce576040517f08c379a00000000000000000000000000000000000000000000000000000000081526004016119c59061253e565b60405180910390fd5b60008060146101000a81548160ff0219169083151502179055507f5db9ee0a495bf2e6ff9c91a7834c1ba4fdd244a5e8aa4e537bd38aeae4b073aa611a116114bb565b604051611a1e9190611e49565b60405180910390a1565b60008060009054906101000a900473ffffffffffffffffffffffffffffffffffffffff169050816000806101000a81548173ffffffffffffffffffffffffffffffffffffffff021916908373ffffffffffffffffffffffffffffffffffffffff1602179055508173ffffffffffffffffffffffffffffffffffffffff168173ffffffffffffffffffffffffffffffffffffffff167f8be0079c531659141344cd1fd0a4f28419497f9722a3daafe3b4186f6b6457e060405160405180910390a35050565b611af4610bbc565b15611b34576040517f08c379a0000000000000000000000000000000000000000000000000000000008152600401611b2b90611f51565b60405180910390fd5b6001600060146101000a81548160ff0219169083151502179055507f62e78cea01bee320cd4e420270b5ea74000d11b0c9f74754ebdbfc544b05a258611b786114bb565b604051611b859190611e49565b60405180910390a1565b600081519050919050565b600082825260208201905092915050565b60005b83811015611bc9578082015181840152602081019050611bae565b83811115611bd8576000848401525b50505050565b6000601f19601f8301169050919050565b6000611bfa82611b8f565b611c048185611b9a565b9350611c14818560208601611bab565b611c1d81611bde565b840191505092915050565b60006020820190508181036000830152611c428184611bef565b905092915050565b600080fd5b600073ffffffffffffffffffffffffffffffffffffffff82169050919050565b6000611c7a82611c4f565b9050919050565b611c8a81611c6f565b8114611c9557600080fd5b50565b600081359050611ca781611c81565b92915050565b6000819050919050565b611cc081611cad565b8114611ccb57600080fd5b50565b600081359050611cdd81611cb7565b92915050565b60008060408385031215611cfa57611cf9611c4a565b5b6000611d0885828601611c98565b9250506020611d1985828601611cce565b9150509250929050565b60008115159050919050565b611d3881611d23565b82525050565b6000602082019050611d536000830184611d2f565b92915050565b611d6281611cad565b82525050565b6000602082019050611d7d6000830184611d59565b92915050565b600060208284031215611d9957611d98611c4a565b5b6000611da784828501611c98565b91505092915050565b600080600060608486031215611dc957611dc8611c4a565b5b6000611dd786828701611c98565b9350506020611de886828701611c98565b9250506040611df986828701611cce565b9150509250925092565b600060ff82169050919050565b611e1981611e03565b82525050565b6000602082019050611e346000830184611e10565b92915050565b611e4381611c6f565b82525050565b6000602082019050611e5e6000830184611e3a565b92915050565b60008060408385031215611e7b57611e7a611c4a565b5b6000611e8985828601611c98565b9250506020611e9a85828601611c98565b9150509250929050565b7f4e487b7100000000000000000000000000000000000000000000000000000000600052602260045260246000fd5b60006002820490506001821680611eeb57607f821691505b60208210811415611eff57611efe611ea4565b5b50919050565b7f5061757361626c653a2070617573656400000000000000000000000000000000600082015250565b6000611f3b601083611b9a565b9150611f4682611f05565b602082019050919050565b60006020820190508181036000830152611f6a81611f2e565b9050919050565b7f426c61636b6c69737461626c653a206163636f756e7420697320626c61636b6c60008201527f6973746564000000000000000000000000000000000000000000000000000000602082015250565b6000611fcd602583611b9a565b9150611fd882611f71565b604082019050919050565b60006020820190508181036000830152611ffc81611fc0565b9050919050565b7f426c61636b6c69737461626c653a2063616c6c6572206973206e6f742074686560008201527f20626c61636b6c69737465720000000000000000000000000000000000000000602082015250565b600061205f602c83611b9a565b915061206a82612003565b604082019050919050565b6000602082019050818103600083015261208e81612052565b9050919050565b7f4f776e61626c653a2063616c6c6572206973206e6f7420746865206f776e6572600082015250565b60006120cb602083611b9a565b91506120d682612095565b602082019050919050565b600060208201905081810360008301526120fa816120be565b9050919050565b7f426c61636b6c69737461626c653a206e657720626c61636b6c6973746572206960008201527f7320746865207a65726f20616464726573730000000000000000000000000000602082015250565b600061215d603283611b9a565b915061216882612101565b604082019050919050565b6000602082019050818103600083015261218c81612150565b9050919050565b7f4f776e61626c653a206e6577206f776e657220697320746865207a65726f206160008201527f6464726573730000000000000000000000000000000000000000000000000000602082015250565b60006121ef602683611b9a565b91506121fa82612193565b604082019050919050565b6000602082019050818103600083015261221e816121e2565b9050919050565b7f42455032303a20617070726f76652066726f6d20746865207a65726f2061646460008201527f7265737300000000000000000000000000000000000000000000000000000000602082015250565b6000612281602483611b9a565b915061228c82612225565b604082019050919050565b600060208201905081810360008301526122b081612274565b9050919050565b7f42455032303a20617070726f766520746f20746865207a65726f20616464726560008201527f7373000000000000000000000000000000000000000000000000000000000000602082015250565b6000612313602283611b9a565b915061231e826122b7565b604082019050919050565b6000602082019050818103600083015261234281612306565b9050919050565b7f42455032303a207472616e736665722066726f6d20746865207a65726f20616460008201527f6472657373000000000000000000000000000000000000000000000000000000602082015250565b60006123a5602583611b9a565b91506123b082612349565b604082019050919050565b600060208201905081810360008301526123d481612398565b9050919050565b7f42455032303a207472616e7366657220746f20746865207a65726f206164647260008201527f6573730000000000000000000000000000000000000000000000000000000000602082015250565b6000612437602383611b9a565b9150612442826123db565b604082019050919050565b600060208201905081810360008301526124668161242a565b9050919050565b7f4e487b7100000000000000000000000000000000000000000000000000000000600052601160045260246000fd5b60006124a782611cad565b91506124b283611cad565b9250827fffffffffffffffffffffffffffffffffffffffffffffffffffffffffffffffff038211156124e7576124e661246d565b5b828201905092915050565b7f5061757361626c653a206e6f7420706175736564000000000000000000000000600082015250565b6000612528601483611b9a565b9150612533826124f2565b602082019050919050565b600060208201905081810360008301526125578161251b565b905091905056fe42455032303a207472616e7366657220616d6f756e74206578636565647320616c6c6f77616e636542455032303a207472616e7366657220616d6f756e7420657863656564732062616c616e636542455032303a2064656372656173656420616c6c6f77616e63652062656c6f77207a65726fa2646970667358221220d3f8416bcb67e89d9d8f9190d226d6a2a5ae64e96154ab0e63edb7093843524964736f6c634300080b0033",
  "immutableReferences": {},
  "source": "pragma solidity ^0.8.0;\nimport '@openzeppelin/contracts/access/Ownable.sol';\nimport '@openzeppelin/contracts/utils/Context.sol';\nimport '@openzeppelin/contracts/utils/math/SafeMath.sol';\nimport '@openzeppelin/contracts/security/Pausable.sol';\nimport './IBEP20.sol';\nimport './Blacklistable.sol';\n\ncontract PiratesKingToken is Context, IBEP20, Ownable, Pausable, Blacklistable\n{\n    using SafeMath for uint256;\n\n    mapping (address => uint256) private _balances;\n\n    mapping (address => mapping (address => uint256)) private _allowances;\n\n    uint256 private _totalSupply;\n    uint8 private _decimals;\n    string private _symbol;\n    string private _name;\n\n    constructor() public {\n        _name = \"PiratesKing\";\n        _symbol = \"PKT\";\n        _decimals = 18;\n        _totalSupply = 100000000 * 10 ** 18;\n        _balances[msg.sender] = _totalSupply;\n        blacklister = msg.sender;\n        emit Transfer(address(0), msg.sender, _totalSupply);\n    }\n\n\n    function pause() public onlyOwner {\n        _pause();\n    }\n\n    function unpause() public onlyOwner {\n        _unpause();\n    }\n\n    /**\n     * @dev Returns the bep token owner.\n   */\n    function getOwner() override external view returns (address) {\n        return owner();\n    }\n\n    /**\n     * @dev Returns the token decimals.\n   */\n    function decimals() override external view returns (uint8) {\n        return _decimals;\n    }\n\n    /**\n     * @dev Returns the token symbol.\n   */\n    function symbol() override external view returns (string memory) {\n        return _symbol;\n    }\n\n    /**\n    * @dev Returns the token name.\n  */\n    function name() override external view returns (string memory) {\n        return _name;\n    }\n\n    /**\n     * @dev See {BEP20-totalSupply}.\n   */\n    function totalSupply() override external view returns (uint256) {\n        return _totalSupply;\n    }\n\n    /**\n     * @dev See {BEP20-balanceOf}.\n   */\n    function balanceOf(address account) override external view returns (uint256) {\n        return _balances[account];\n    }\n\n    /**\n     * @dev See {BEP20-transfer}.\n   *\n   * Requirements:\n   *\n   * - `recipient` cannot be the zero address.\n   * - the caller must have a balance of at least `amount`.\n   */\n    function transfer(address recipient, uint256 amount)\n    override\n    external\n    whenNotPaused\n    notBlacklisted(msg.sender)\n    returns (bool)\n    {\n        _transfer(_msgSender(), recipient, amount);\n        return true;\n    }\n\n    /**\n     * @dev See {BEP20-allowance}.\n   */\n    function allowance(address owner, address spender)\n    override\n    external\n    view\n    whenNotPaused\n    returns (uint256) {\n        return _allowances[owner][spender];\n    }\n\n    /**\n     * @dev See {BEP20-approve}.\n   *\n   * Requirements:\n   *\n   * - `spender` cannot be the zero address.\n   */\n    function approve(address spender, uint256 amount)\n    override\n    external\n    whenNotPaused\n    notBlacklisted(msg.sender)\n    notBlacklisted(spender)\n    returns (bool) {\n        _approve(_msgSender(), spender, amount);\n        return true;\n    }\n\n    /**\n     * @dev See {BEP20-transferFrom}.\n   *\n   * Emits an {Approval} event indicating the updated allowance. This is not\n   * required by the EIP. See the note at the beginning of {BEP20};\n   *\n   * Requirements:\n   * - `sender` and `recipient` cannot be the zero address.\n   * - `sender` must have a balance of at least `amount`.\n   * - the caller must have allowance for `sender`'s tokens of at least\n   * `amount`.\n   */\n    function transferFrom(address sender, address recipient, uint256 amount)\n    override\n    external\n    whenNotPaused\n    notBlacklisted(msg.sender)\n    notBlacklisted(sender)\n    notBlacklisted(recipient)\n    returns (bool)\n    {\n        _transfer(sender, recipient, amount);\n        _approve(sender, _msgSender(), _allowances[sender][_msgSender()].sub(amount, \"BEP20: transfer amount exceeds allowance\"));\n        return true;\n    }\n\n    /**\n     * @dev Atomically increases the allowance granted to `spender` by the caller.\n   *\n   * This is an alternative to {approve} that can be used as a mitigation for\n   * problems described in {BEP20-approve}.\n   *\n   * Emits an {Approval} event indicating the updated allowance.\n   *\n   * Requirements:\n   *\n   * - `spender` cannot be the zero address.\n   */\n    function increaseAllowance(address spender, uint256 addedValue) public returns (bool) {\n        _approve(_msgSender(), spender, _allowances[_msgSender()][spender].add(addedValue));\n        return true;\n    }\n\n    /**\n     * @dev Atomically decreases the allowance granted to `spender` by the caller.\n   *\n   * This is an alternative to {approve} that can be used as a mitigation for\n   * problems described in {BEP20-approve}.\n   *\n   * Emits an {Approval} event indicating the updated allowance.\n   *\n   * Requirements:\n   *\n   * - `spender` cannot be the zero address.\n   * - `spender` must have allowance for the caller of at least\n   * `subtractedValue`.\n   */\n    function decreaseAllowance(address spender, uint256 subtractedValue) public returns (bool) {\n        _approve(_msgSender(), spender, _allowances[_msgSender()][spender].sub(subtractedValue, \"BEP20: decreased allowance below zero\"));\n        return true;\n    }\n\n\n    /**\n     * @dev Moves tokens `amount` from `sender` to `recipient`.\n   *\n   * This is internal function is equivalent to {transfer}, and can be used to\n   * e.g. implement automatic token fees, slashing mechanisms, etc.\n   *\n   * Emits a {Transfer} event.\n   *\n   * Requirements:\n   *\n   * - `sender` cannot be the zero address.\n   * - `recipient` cannot be the zero address.\n   * - `sender` must have a balance of at least `amount`.\n   */\n    function _transfer(address sender, address recipient, uint256 amount) internal {\n        require(sender != address(0), \"BEP20: transfer from the zero address\");\n        require(recipient != address(0), \"BEP20: transfer to the zero address\");\n\n        _balances[sender] = _balances[sender].sub(amount, \"BEP20: transfer amount exceeds balance\");\n        _balances[recipient] = _balances[recipient].add(amount);\n        emit Transfer(sender, recipient, amount);\n    }\n\n\n    /**\n     * @dev Destroys `amount` tokens from `account`, reducing the\n   * total supply.\n   *\n   * Emits a {Transfer} event with `to` set to the zero address.\n   *\n   * Requirements\n   *\n   * - `account` cannot be the zero address.\n   * - `account` must have at least `amount` tokens.\n   */\n    function _burn(address account, uint256 amount) internal {\n        require(account != address(0), \"BEP20: burn from the zero address\");\n\n        _balances[account] = _balances[account].sub(amount, \"BEP20: burn amount exceeds balance\");\n        _totalSupply = _totalSupply.sub(amount);\n        emit Transfer(account, address(0), amount);\n    }\n\n    /**\n     * @dev Sets `amount` as the allowance of `spender` over the `owner`s tokens.\n   *\n   * This is internal function is equivalent to `approve`, and can be used to\n   * e.g. set automatic allowances for certain subsystems, etc.\n   *\n   * Emits an {Approval} event.\n   *\n   * Requirements:\n   *\n   * - `owner` cannot be the zero address.\n   * - `spender` cannot be the zero address.\n   */\n    function _approve(address owner, address spender, uint256 amount) internal {\n        require(owner != address(0), \"BEP20: approve from the zero address\");\n        require(spender != address(0), \"BEP20: approve to the zero address\");\n\n        _allowances[owner][spender] = amount;\n        emit Approval(owner, spender, amount);\n    }\n\n    /**\n     * @dev Destroys `amount` tokens from `account`.`amount` is then deducted\n   * from the caller's allowance.\n   *\n   * See {_burn} and {_approve}.\n   */\n    function _burnFrom(address account, uint256 amount) internal {\n        _burn(account, amount);\n        _approve(account, _msgSender(), _allowances[account][_msgSender()].sub(amount, \"BEP20: burn amount exceeds allowance\"));\n    }\n}\n",
  "sourcePath": "/Users/macbook/Desktop/tacrypto/contracts/PiratesKingToken.sol",
  "compiler": {
    "name": "solc",
    "version": "0.8.11+commit.d7f03943.Emscripten.clang"
  },
  "schemaVersion": "3.4.4",
  "updatedAt": "2022-01-21T08:48:44.907Z",
  "devdoc": {
    "kind": "dev",
    "methods": {
      "allowance(address,address)": {
        "details": "See {BEP20-allowance}."
      },
      "approve(address,uint256)": {
        "details": "See {BEP20-approve}. Requirements: - `spender` cannot be the zero address."
      },
      "balanceOf(address)": {
        "details": "See {BEP20-balanceOf}."
      },
      "blacklist(address)": {
        "details": "Adds account to blacklist",
        "params": {
          "_account": "The address to blacklist"
        }
      },
      "decimals()": {
        "details": "Returns the token decimals."
      },
      "decreaseAllowance(address,uint256)": {
        "details": "Atomically decreases the allowance granted to `spender` by the caller. This is an alternative to {approve} that can be used as a mitigation for problems described in {BEP20-approve}. Emits an {Approval} event indicating the updated allowance. Requirements: - `spender` cannot be the zero address. - `spender` must have allowance for the caller of at least `subtractedValue`."
      },
      "getOwner()": {
        "details": "Returns the bep token owner."
      },
      "increaseAllowance(address,uint256)": {
        "details": "Atomically increases the allowance granted to `spender` by the caller. This is an alternative to {approve} that can be used as a mitigation for problems described in {BEP20-approve}. Emits an {Approval} event indicating the updated allowance. Requirements: - `spender` cannot be the zero address."
      },
      "isBlacklisted(address)": {
        "details": "Checks if account is blacklisted",
        "params": {
          "_account": "The address to check"
        }
      },
      "name()": {
        "details": "Returns the token name."
      },
      "owner()": {
        "details": "Returns the address of the current owner."
      },
      "paused()": {
        "details": "Returns true if the contract is paused, and false otherwise."
      },
      "renounceOwnership()": {
        "details": "Leaves the contract without owner. It will not be possible to call `onlyOwner` functions anymore. Can only be called by the current owner. NOTE: Renouncing ownership will leave the contract without an owner, thereby removing any functionality that is only available to the owner."
      },
      "symbol()": {
        "details": "Returns the token symbol."
      },
      "totalSupply()": {
        "details": "See {BEP20-totalSupply}."
      },
      "transfer(address,uint256)": {
        "details": "See {BEP20-transfer}. Requirements: - `recipient` cannot be the zero address. - the caller must have a balance of at least `amount`."
      },
      "transferFrom(address,address,uint256)": {
        "details": "See {BEP20-transferFrom}. Emits an {Approval} event indicating the updated allowance. This is not required by the EIP. See the note at the beginning of {BEP20}; Requirements: - `sender` and `recipient` cannot be the zero address. - `sender` must have a balance of at least `amount`. - the caller must have allowance for `sender`'s tokens of at least `amount`."
      },
      "transferOwnership(address)": {
        "details": "Transfers ownership of the contract to a new account (`newOwner`). Can only be called by the current owner."
      },
      "unBlacklist(address)": {
        "details": "Removes account from blacklist",
        "params": {
          "_account": "The address to remove from the blacklist"
        }
      }
    },
    "version": 1
  },
  "userdoc": {
    "kind": "user",
    "methods": {},
    "version": 1
  }
}