{
  "contractName": "PiratesKingToken",
  "abi": [
    {
      "inputs": [],
      "stateMutability": "nonpayable",
      "type": "constructor"
    },
    {
      "anonymous": false,
      "inputs": [
        {
          "indexed": false,
          "internalType": "bool",
          "name": "status",
          "type": "bool"
        }
      ],
      "name": "AddLiquidity",
      "type": "event"
    },
    {
      "anonymous": false,
      "inputs": [
        {
          "indexed": true,
          "internalType": "address",
          "name": "owner",
          "type": "address"
        },
        {
          "indexed": true,
          "internalType": "address",
          "name": "spender",
          "type": "address"
        },
        {
          "indexed": false,
          "internalType": "uint256",
          "name": "value",
          "type": "uint256"
        }
      ],
      "name": "Approval",
      "type": "event"
    },
    {
      "anonymous": false,
      "inputs": [
        {
          "indexed": false,
          "internalType": "address",
          "name": "account",
          "type": "address"
        }
      ],
      "name": "ExcludedFromFee",
      "type": "event"
    },
    {
      "anonymous": false,
      "inputs": [
        {
          "indexed": false,
          "internalType": "address",
          "name": "account",
          "type": "address"
        }
      ],
      "name": "IncludedToFee",
      "type": "event"
    },
    {
      "anonymous": false,
      "inputs": [
        {
          "indexed": true,
          "internalType": "address",
          "name": "previousOwner",
          "type": "address"
        },
        {
          "indexed": true,
          "internalType": "address",
          "name": "newOwner",
          "type": "address"
        }
      ],
      "name": "OwnershipTransferred",
      "type": "event"
    },
    {
      "anonymous": false,
      "inputs": [
        {
          "indexed": false,
          "internalType": "uint256",
          "name": "token",
          "type": "uint256"
        },
        {
          "indexed": false,
          "internalType": "uint256",
          "name": "liquidAmount",
          "type": "uint256"
        },
        {
          "indexed": false,
          "internalType": "uint256",
          "name": "bnbPool",
          "type": "uint256"
        },
        {
          "indexed": false,
          "internalType": "uint256",
          "name": "prPool",
          "type": "uint256"
        },
        {
          "indexed": false,
          "internalType": "uint256",
          "name": "bnbLiquidity",
          "type": "uint256"
        }
      ],
      "name": "SwapAndCharged",
      "type": "event"
    },
    {
      "anonymous": false,
      "inputs": [
        {
          "indexed": false,
          "internalType": "uint256",
          "name": "tokensSwapped",
          "type": "uint256"
        },
        {
          "indexed": false,
          "internalType": "uint256",
          "name": "ethReceived",
          "type": "uint256"
        },
        {
          "indexed": false,
          "internalType": "uint256",
          "name": "tokensIntoLiquidity",
          "type": "uint256"
        }
      ],
      "name": "SwapAndLiquify",
      "type": "event"
    },
    {
      "anonymous": false,
      "inputs": [
        {
          "indexed": false,
          "internalType": "bool",
          "name": "enabled",
          "type": "bool"
        }
      ],
      "name": "SwapAndLiquifyEnabledUpdated",
      "type": "event"
    },
    {
      "anonymous": false,
      "inputs": [
        {
          "indexed": false,
          "internalType": "bool",
          "name": "status",
          "type": "bool"
        }
      ],
      "name": "SwapTokensForEth",
      "type": "event"
    },
    {
      "anonymous": false,
      "inputs": [
        {
          "indexed": true,
          "internalType": "address",
          "name": "from",
          "type": "address"
        },
        {
          "indexed": true,
          "internalType": "address",
          "name": "to",
          "type": "address"
        },
        {
          "indexed": false,
          "internalType": "uint256",
          "name": "value",
          "type": "uint256"
        }
      ],
      "name": "Transfer",
      "type": "event"
    },
    {
      "anonymous": false,
      "inputs": [
        {
          "indexed": false,
          "internalType": "address",
          "name": "account",
          "type": "address"
        }
      ],
      "name": "UpdateBNBPoolAddress",
      "type": "event"
    },
    {
      "anonymous": false,
      "inputs": [
        {
          "indexed": false,
          "internalType": "uint256",
          "name": "bnbFee",
          "type": "uint256"
        },
        {
          "indexed": false,
          "internalType": "uint256",
          "name": "liquidityFee",
          "type": "uint256"
        },
        {
          "indexed": false,
          "internalType": "uint256",
          "name": "prFee",
          "type": "uint256"
        },
        {
          "indexed": false,
          "internalType": "uint256",
          "name": "buyFee",
          "type": "uint256"
        }
      ],
      "name": "UpdateFees",
      "type": "event"
    },
    {
      "anonymous": false,
      "inputs": [
        {
          "indexed": false,
          "internalType": "uint256",
          "name": "amount",
          "type": "uint256"
        }
      ],
      "name": "UpdateNumTokensToSwap",
      "type": "event"
    },
    {
      "anonymous": false,
      "inputs": [
        {
          "indexed": false,
          "internalType": "address",
          "name": "account",
          "type": "address"
        }
      ],
      "name": "UpdatePRPoolAddress",
      "type": "event"
    },
    {
      "anonymous": false,
      "inputs": [
        {
          "indexed": false,
          "internalType": "uint256",
          "name": "timeForContract",
          "type": "uint256"
        }
      ],
      "name": "UpdatedCoolDowntime",
      "type": "event"
    },
    {
      "anonymous": false,
      "inputs": [
        {
          "indexed": false,
          "internalType": "uint256",
          "name": "maxTxAmount",
          "type": "uint256"
        }
      ],
      "name": "UpdatedMaxTxAmount",
      "type": "event"
    },
    {
      "inputs": [],
      "name": "_BNBFee",
      "outputs": [
        {
          "internalType": "uint256",
          "name": "",
          "type": "uint256"
        }
      ],
      "stateMutability": "view",
      "type": "function"
    },
    {
      "inputs": [],
      "name": "_PRFee",
      "outputs": [
        {
          "internalType": "uint256",
          "name": "",
          "type": "uint256"
        }
      ],
      "stateMutability": "view",
      "type": "function"
    },
    {
      "inputs": [],
      "name": "_buyFee",
      "outputs": [
        {
          "internalType": "uint256",
          "name": "",
          "type": "uint256"
        }
      ],
      "stateMutability": "view",
      "type": "function"
    },
    {
      "inputs": [],
      "name": "_liquidityFee",
      "outputs": [
        {
          "internalType": "uint256",
          "name": "",
          "type": "uint256"
        }
      ],
      "stateMutability": "view",
      "type": "function"
    },
    {
      "inputs": [],
      "name": "_maxTxAmount",
      "outputs": [
        {
          "internalType": "uint256",
          "name": "",
          "type": "uint256"
        }
      ],
      "stateMutability": "view",
      "type": "function"
    },
    {
      "inputs": [],
      "name": "bnbPoolAddress",
      "outputs": [
        {
          "internalType": "address payable",
          "name": "",
          "type": "address"
        }
      ],
      "stateMutability": "view",
      "type": "function"
    },
    {
      "inputs": [],
      "name": "owner",
      "outputs": [
        {
          "internalType": "address",
          "name": "",
          "type": "address"
        }
      ],
      "stateMutability": "view",
      "type": "function"
    },
    {
      "inputs": [],
      "name": "pancakeswapV2Pair",
      "outputs": [
        {
          "internalType": "address",
          "name": "",
          "type": "address"
        }
      ],
      "stateMutability": "view",
      "type": "function"
    },
    {
      "inputs": [],
      "name": "pancakeswapV2Router",
      "outputs": [
        {
          "internalType": "contract IPancakeswapV2Router02",
          "name": "",
          "type": "address"
        }
      ],
      "stateMutability": "view",
      "type": "function"
    },
    {
      "inputs": [],
      "name": "prPoolAddress",
      "outputs": [
        {
          "internalType": "address payable",
          "name": "",
          "type": "address"
        }
      ],
      "stateMutability": "view",
      "type": "function"
    },
    {
      "inputs": [],
      "name": "renounceOwnership",
      "outputs": [],
      "stateMutability": "nonpayable",
      "type": "function"
    },
    {
      "inputs": [],
      "name": "swapAndLiquifyEnabled",
      "outputs": [
        {
          "internalType": "bool",
          "name": "",
          "type": "bool"
        }
      ],
      "stateMutability": "view",
      "type": "function"
    },
    {
      "inputs": [],
      "name": "swapCoolDownTime",
      "outputs": [
        {
          "internalType": "uint256",
          "name": "",
          "type": "uint256"
        }
      ],
      "stateMutability": "view",
      "type": "function"
    },
    {
      "inputs": [
        {
          "internalType": "address",
          "name": "newOwner",
          "type": "address"
        }
      ],
      "name": "transferOwnership",
      "outputs": [],
      "stateMutability": "nonpayable",
      "type": "function"
    },
    {
      "stateMutability": "payable",
      "type": "receive"
    },
    {
      "inputs": [],
      "name": "symbol",
      "outputs": [
        {
          "internalType": "string",
          "name": "",
          "type": "string"
        }
      ],
      "stateMutability": "view",
      "type": "function"
    },
    {
      "inputs": [],
      "name": "name",
      "outputs": [
        {
          "internalType": "string",
          "name": "",
          "type": "string"
        }
      ],
      "stateMutability": "view",
      "type": "function"
    },
    {
      "inputs": [],
      "name": "decimals",
      "outputs": [
        {
          "internalType": "uint8",
          "name": "",
          "type": "uint8"
        }
      ],
      "stateMutability": "view",
      "type": "function"
    },
    {
      "inputs": [],
      "name": "totalSupply",
      "outputs": [
        {
          "internalType": "uint256",
          "name": "",
          "type": "uint256"
        }
      ],
      "stateMutability": "view",
      "type": "function"
    },
    {
      "inputs": [],
      "name": "getOwner",
      "outputs": [
        {
          "internalType": "address",
          "name": "",
          "type": "address"
        }
      ],
      "stateMutability": "view",
      "type": "function"
    },
    {
      "inputs": [
        {
          "internalType": "address",
          "name": "account",
          "type": "address"
        }
      ],
      "name": "balanceOf",
      "outputs": [
        {
          "internalType": "uint256",
          "name": "",
          "type": "uint256"
        }
      ],
      "stateMutability": "view",
      "type": "function"
    },
    {
      "inputs": [
        {
          "internalType": "address",
          "name": "recipient",
          "type": "address"
        },
        {
          "internalType": "uint256",
          "name": "amount",
          "type": "uint256"
        }
      ],
      "name": "transfer",
      "outputs": [
        {
          "internalType": "bool",
          "name": "",
          "type": "bool"
        }
      ],
      "stateMutability": "nonpayable",
      "type": "function"
    },
    {
      "inputs": [
        {
          "internalType": "address",
          "name": "owner",
          "type": "address"
        },
        {
          "internalType": "address",
          "name": "spender",
          "type": "address"
        }
      ],
      "name": "allowance",
      "outputs": [
        {
          "internalType": "uint256",
          "name": "",
          "type": "uint256"
        }
      ],
      "stateMutability": "view",
      "type": "function"
    },
    {
      "inputs": [
        {
          "internalType": "address",
          "name": "spender",
          "type": "address"
        },
        {
          "internalType": "uint256",
          "name": "amount",
          "type": "uint256"
        }
      ],
      "name": "approve",
      "outputs": [
        {
          "internalType": "bool",
          "name": "",
          "type": "bool"
        }
      ],
      "stateMutability": "nonpayable",
      "type": "function"
    },
    {
      "inputs": [
        {
          "internalType": "address",
          "name": "sender",
          "type": "address"
        },
        {
          "internalType": "address",
          "name": "recipient",
          "type": "address"
        },
        {
          "internalType": "uint256",
          "name": "amount",
          "type": "uint256"
        }
      ],
      "name": "transferFrom",
      "outputs": [
        {
          "internalType": "bool",
          "name": "",
          "type": "bool"
        }
      ],
      "stateMutability": "nonpayable",
      "type": "function"
    },
    {
      "inputs": [
        {
          "internalType": "address",
          "name": "spender",
          "type": "address"
        },
        {
          "internalType": "uint256",
          "name": "addedValue",
          "type": "uint256"
        }
      ],
      "name": "increaseAllowance",
      "outputs": [
        {
          "internalType": "bool",
          "name": "",
          "type": "bool"
        }
      ],
      "stateMutability": "nonpayable",
      "type": "function"
    },
    {
      "inputs": [
        {
          "internalType": "address",
          "name": "spender",
          "type": "address"
        },
        {
          "internalType": "uint256",
          "name": "subtractedValue",
          "type": "uint256"
        }
      ],
      "name": "decreaseAllowance",
      "outputs": [
        {
          "internalType": "bool",
          "name": "",
          "type": "bool"
        }
      ],
      "stateMutability": "nonpayable",
      "type": "function"
    },
    {
      "inputs": [
        {
          "internalType": "address",
          "name": "account",
          "type": "address"
        }
      ],
      "name": "setBNBPoolAddress",
      "outputs": [],
      "stateMutability": "nonpayable",
      "type": "function"
    },
    {
      "inputs": [
        {
          "internalType": "address",
          "name": "account",
          "type": "address"
        }
      ],
      "name": "setPRPoolAddress",
      "outputs": [],
      "stateMutability": "nonpayable",
      "type": "function"
    },
    {
      "inputs": [
        {
          "internalType": "uint256",
          "name": "timeForContract",
          "type": "uint256"
        }
      ],
      "name": "setCoolDownTime",
      "outputs": [],
      "stateMutability": "nonpayable",
      "type": "function"
    },
    {
      "inputs": [
        {
          "internalType": "address",
          "name": "account",
          "type": "address"
        }
      ],
      "name": "excludeFromFee",
      "outputs": [],
      "stateMutability": "nonpayable",
      "type": "function"
    },
    {
      "inputs": [
        {
          "internalType": "address",
          "name": "account",
          "type": "address"
        }
      ],
      "name": "includeInFee",
      "outputs": [],
      "stateMutability": "nonpayable",
      "type": "function"
    },
    {
      "inputs": [
        {
          "internalType": "uint256",
          "name": "bnbFee",
          "type": "uint256"
        },
        {
          "internalType": "uint256",
          "name": "liquidityFee",
          "type": "uint256"
        },
        {
          "internalType": "uint256",
          "name": "prFee",
          "type": "uint256"
        },
        {
          "internalType": "uint256",
          "name": "buyFee",
          "type": "uint256"
        }
      ],
      "name": "setFees",
      "outputs": [],
      "stateMutability": "nonpayable",
      "type": "function"
    },
    {
      "inputs": [
        {
          "internalType": "uint256",
          "name": "percent",
          "type": "uint256"
        }
      ],
      "name": "setMaxTxAmount",
      "outputs": [],
      "stateMutability": "nonpayable",
      "type": "function"
    },
    {
      "inputs": [
        {
          "internalType": "uint256",
          "name": "amount",
          "type": "uint256"
        }
      ],
      "name": "setNumTokensToSwap",
      "outputs": [],
      "stateMutability": "nonpayable",
      "type": "function"
    },
    {
      "inputs": [
        {
          "internalType": "bool",
          "name": "_enabled",
          "type": "bool"
        }
      ],
      "name": "setSwapAndLiquifyEnabled",
      "outputs": [],
      "stateMutability": "nonpayable",
      "type": "function"
    },
    {
      "inputs": [
        {
          "internalType": "address",
          "name": "account",
          "type": "address"
        }
      ],
      "name": "isExcludedFromFee",
      "outputs": [
        {
          "internalType": "bool",
          "name": "",
          "type": "bool"
        }
      ],
      "stateMutability": "view",
      "type": "function"
    }
  ],
  "bytecode": "0x60806040526a52b7d2dcc80cd2e40000006006556040518060400160405280600b81526020017f506972617465734b696e67000000000000000000000000000000000000000000815250600790805190602001906200006092919062000927565b506040518060400160405280600381526020017f504b54000000000000000000000000000000000000000000000000000000000081525060089080519060200190620000ae92919062000927565b506012600960006101000a81548160ff021916908360ff1602179055506000600a55600a54600b556000600c55600c54600d556000600e55600e54600f5560006010556010546011556000601360156101000a81548160ff0219169083151502179055506a52b7d2dcc80cd2e4000000601455683635c9adc5dea0000060155560006016553480156200014057600080fd5b50620001736200015e6200065f640100000000026401000000009004565b62000667640100000000026401000000009004565b60007310ed43c718714eb63d5aa57b78b54704e256024e90508073ffffffffffffffffffffffffffffffffffffffff1663c45a01556040518163ffffffff167c0100000000000000000000000000000000000000000000000000000000028152600401602060405180830381865afa158015620001f4573d6000803e3d6000fd5b505050506040513d601f19601f820116820180604052508101906200021a919062000a41565b73ffffffffffffffffffffffffffffffffffffffff1663c9c65396308373ffffffffffffffffffffffffffffffffffffffff1663ad5c46486040518163ffffffff167c0100000000000000000000000000000000000000000000000000000000028152600401602060405180830381865afa1580156200029e573d6000803e3d6000fd5b505050506040513d601f19601f82011682018060405250810190620002c4919062000a41565b6040518363ffffffff167c0100000000000000000000000000000000000000000000000000000000028152600401620002ff92919062000a84565b6020604051808303816000875af11580156200031f573d6000803e3d6000fd5b505050506040513d601f19601f8201168201806040525081019062000345919062000a41565b601360006101000a81548173ffffffffffffffffffffffffffffffffffffffff021916908373ffffffffffffffffffffffffffffffffffffffff16021790555080601260006101000a81548173ffffffffffffffffffffffffffffffffffffffff021916908373ffffffffffffffffffffffffffffffffffffffff160217905550600160036000620003e56200065f640100000000026401000000009004565b73ffffffffffffffffffffffffffffffffffffffff1673ffffffffffffffffffffffffffffffffffffffff16815260200190815260200160002060006101000a81548160ff0219169083151502179055506001600360003073ffffffffffffffffffffffffffffffffffffffff1673ffffffffffffffffffffffffffffffffffffffff16815260200190815260200160002060006101000a81548160ff02191690831515021790555060065460016000620004ae6200065f640100000000026401000000009004565b73ffffffffffffffffffffffffffffffffffffffff1673ffffffffffffffffffffffffffffffffffffffff1681526020019081526020016000208190555073ba71532c52e78d719ef9233f9ba9e80cd3c81727600460006101000a81548173ffffffffffffffffffffffffffffffffffffffff021916908373ffffffffffffffffffffffffffffffffffffffff1602179055507318d6444d46d07283c6b9982ad75fd51d2a7cfec1600560006101000a81548173ffffffffffffffffffffffffffffffffffffffff021916908373ffffffffffffffffffffffffffffffffffffffff160217905550620005d630601260009054906101000a900473ffffffffffffffffffffffffffffffffffffffff166000196200072b640100000000026401000000009004565b620005ef620008fe640100000000026401000000009004565b73ffffffffffffffffffffffffffffffffffffffff16600073ffffffffffffffffffffffffffffffffffffffff167fddf252ad1be2c89b69c2b068fc378daa952ba7f163c4a11628f55a4df523b3ef60065460405162000650919062000acc565b60405180910390a35062000c8f565b600033905090565b60008060009054906101000a900473ffffffffffffffffffffffffffffffffffffffff169050816000806101000a81548173ffffffffffffffffffffffffffffffffffffffff021916908373ffffffffffffffffffffffffffffffffffffffff1602179055508173ffffffffffffffffffffffffffffffffffffffff168173ffffffffffffffffffffffffffffffffffffffff167f8be0079c531659141344cd1fd0a4f28419497f9722a3daafe3b4186f6b6457e060405160405180910390a35050565b600073ffffffffffffffffffffffffffffffffffffffff168373ffffffffffffffffffffffffffffffffffffffff1614156200079e576040517f08c379a0000000000000000000000000000000000000000000000000000000008152600401620007959062000b70565b60405180910390fd5b600073ffffffffffffffffffffffffffffffffffffffff168273ffffffffffffffffffffffffffffffffffffffff16141562000811576040517f08c379a0000000000000000000000000000000000000000000000000000000008152600401620008089062000c08565b60405180910390fd5b80600260008573ffffffffffffffffffffffffffffffffffffffff1673ffffffffffffffffffffffffffffffffffffffff16815260200190815260200160002060008473ffffffffffffffffffffffffffffffffffffffff1673ffffffffffffffffffffffffffffffffffffffff168152602001908152602001600020819055508173ffffffffffffffffffffffffffffffffffffffff168373ffffffffffffffffffffffffffffffffffffffff167f8c5be1e5ebec7d5bd14f71427d1e84f3dd0314c0f7b2291e5b200ac8c7c3b92583604051620008f1919062000acc565b60405180910390a3505050565b60008060009054906101000a900473ffffffffffffffffffffffffffffffffffffffff16905090565b828054620009359062000c59565b90600052602060002090601f016020900481019282620009595760008555620009a5565b82601f106200097457805160ff1916838001178555620009a5565b82800160010185558215620009a5579182015b82811115620009a457825182559160200191906001019062000987565b5b509050620009b49190620009b8565b5090565b5b80821115620009d3576000816000905550600101620009b9565b5090565b600080fd5b600073ffffffffffffffffffffffffffffffffffffffff82169050919050565b600062000a0982620009dc565b9050919050565b62000a1b81620009fc565b811462000a2757600080fd5b50565b60008151905062000a3b8162000a10565b92915050565b60006020828403121562000a5a5762000a59620009d7565b5b600062000a6a8482850162000a2a565b91505092915050565b62000a7e81620009fc565b82525050565b600060408201905062000a9b600083018562000a73565b62000aaa602083018462000a73565b9392505050565b6000819050919050565b62000ac68162000ab1565b82525050565b600060208201905062000ae3600083018462000abb565b92915050565b600082825260208201905092915050565b7f42455032303a20617070726f76652066726f6d20746865207a65726f2061646460008201527f7265737300000000000000000000000000000000000000000000000000000000602082015250565b600062000b5860248362000ae9565b915062000b658262000afa565b604082019050919050565b6000602082019050818103600083015262000b8b8162000b49565b9050919050565b7f42455032303a20617070726f766520746f20746865207a65726f20616464726560008201527f7373000000000000000000000000000000000000000000000000000000000000602082015250565b600062000bf060228362000ae9565b915062000bfd8262000b92565b604082019050919050565b6000602082019050818103600083015262000c238162000be1565b9050919050565b7f4e487b7100000000000000000000000000000000000000000000000000000000600052602260045260246000fd5b6000600282049050600182168062000c7257607f821691505b6020821081141562000c895762000c8862000c2a565b5b50919050565b6142948062000c9f6000396000f3fe608060405260043610610230576000357c0100000000000000000000000000000000000000000000000000000000900480637ccd982711610135578063c72425ff116100bd578063e6844b3a1161008c578063e6844b3a1461086f578063ea2f0b371461089a578063ec28438a146108c3578063f2fde38b146108ec578063f9e16fca14610915576102c7565b8063c72425ff146107b3578063db879c3d146107dc578063dd62ed3e14610807578063e5dffed314610844576102c7565b80638da5cb5b116101045780638da5cb5b146106ba57806395d89b41146106e5578063a457c2d714610710578063a9059cbb1461074d578063c49b9a801461078a576102c7565b80637ccd9827146106105780637d1db4a5146106395780638812f37414610664578063893d20e81461068f576102c7565b8063437823ec116101b85780636bc87c3a116101875780636bc87c3a1461053f5780636e16de111461056a5780636fcba3771461059357806370a08231146105bc578063715018a6146105f9576102c7565b8063437823ec146104835780634a74bb02146104ac57806352892884146104d75780635342acb414610502576102c7565b806318160ddd116101ff57806318160ddd1461038857806323b872dd146103b3578063313ce567146103f0578063395093511461041b57806340b9a54b14610458576102c7565b806306fdde03146102cc578063095ea7b3146102f75780630f569dad14610334578063103cbbf41461035d576102c7565b366102c757601260009054906101000a900473ffffffffffffffffffffffffffffffffffffffff1673ffffffffffffffffffffffffffffffffffffffff163373ffffffffffffffffffffffffffffffffffffffff16146102c5576040517f08c379a00000000000000000000000000000000000000000000000000000000081526004016102bc9061317e565b60405180910390fd5b005b600080fd5b3480156102d857600080fd5b506102e1610940565b6040516102ee9190613226565b60405180910390f35b34801561030357600080fd5b5061031e600480360381019061031991906132eb565b6109d2565b60405161032b9190613346565b60405180910390f35b34801561034057600080fd5b5061035b60048036038101906103569190613361565b6109f0565b005b34801561036957600080fd5b50610372610abc565b60405161037f91906133af565b60405180910390f35b34801561039457600080fd5b5061039d610ae2565b6040516103aa91906133d9565b60405180910390f35b3480156103bf57600080fd5b506103da60048036038101906103d591906133f4565b610aec565b6040516103e79190613346565b60405180910390f35b3480156103fc57600080fd5b50610405610bc5565b6040516104129190613463565b60405180910390f35b34801561042757600080fd5b50610442600480360381019061043d91906132eb565b610bdc565b60405161044f9190613346565b60405180910390f35b34801561046457600080fd5b5061046d610c8f565b60405161047a91906133d9565b60405180910390f35b34801561048f57600080fd5b506104aa60048036038101906104a5919061347e565b610c95565b005b3480156104b857600080fd5b506104c1610da3565b6040516104ce9190613346565b60405180910390f35b3480156104e357600080fd5b506104ec610db6565b6040516104f991906134ba565b60405180910390f35b34801561050e57600080fd5b506105296004803603810190610524919061347e565b610ddc565b6040516105369190613346565b60405180910390f35b34801561054b57600080fd5b50610554610e32565b60405161056191906133d9565b60405180910390f35b34801561057657600080fd5b50610591600480360381019061058c9190613361565b610e38565b005b34801561059f57600080fd5b506105ba60048036038101906105b591906134d5565b610f04565b005b3480156105c857600080fd5b506105e360048036038101906105de919061347e565b611010565b6040516105f091906133d9565b60405180910390f35b34801561060557600080fd5b5061060e611059565b005b34801561061c57600080fd5b506106376004803603810190610632919061347e565b6110e1565b005b34801561064557600080fd5b5061064e611269565b60405161065b91906133d9565b60405180910390f35b34801561067057600080fd5b5061067961126f565b60405161068691906133af565b60405180910390f35b34801561069b57600080fd5b506106a4611295565b6040516106b191906134ba565b60405180910390f35b3480156106c657600080fd5b506106cf6112a4565b6040516106dc91906134ba565b60405180910390f35b3480156106f157600080fd5b506106fa6112cd565b6040516107079190613226565b60405180910390f35b34801561071c57600080fd5b50610737600480360381019061073291906132eb565b61135f565b6040516107449190613346565b60405180910390f35b34801561075957600080fd5b50610774600480360381019061076f91906132eb565b61142c565b6040516107819190613346565b60405180910390f35b34801561079657600080fd5b506107b160048036038101906107ac9190613568565b61144a565b005b3480156107bf57600080fd5b506107da60048036038101906107d5919061347e565b61151a565b005b3480156107e857600080fd5b506107f16116a2565b6040516107fe91906133d9565b60405180910390f35b34801561081357600080fd5b5061082e60048036038101906108299190613595565b6116a8565b60405161083b91906133d9565b60405180910390f35b34801561085057600080fd5b5061085961172f565b6040516108669190613634565b60405180910390f35b34801561087b57600080fd5b50610884611755565b60405161089191906133d9565b60405180910390f35b3480156108a657600080fd5b506108c160048036038101906108bc919061347e565b61175b565b005b3480156108cf57600080fd5b506108ea60048036038101906108e59190613361565b611869565b005b3480156108f857600080fd5b50610913600480360381019061090e919061347e565b611992565b005b34801561092157600080fd5b5061092a611a8a565b60405161093791906133d9565b60405180910390f35b60606007805461094f9061367e565b80601f016020809104026020016040519081016040528092919081815260200182805461097b9061367e565b80156109c85780601f1061099d576101008083540402835291602001916109c8565b820191906000526020600020905b8154815290600101906020018083116109ab57829003601f168201915b5050505050905090565b60006109e66109df611a90565b8484611a98565b6001905092915050565b6109f8611a90565b73ffffffffffffffffffffffffffffffffffffffff16610a166112a4565b73ffffffffffffffffffffffffffffffffffffffff1614610a6c576040517f08c379a0000000000000000000000000000000000000000000000000000000008152600401610a63906136fc565b60405180910390fd5b806015541415610a7b57600080fd5b806015819055507fab90431d5e26b4033b9528ddbadc86e128e01949bb100ae3f2e966bb6e325b5181604051610ab191906133d9565b60405180910390a150565b600560009054906101000a900473ffffffffffffffffffffffffffffffffffffffff1681565b6000600654905090565b6000610af9848484611c63565b610bba84610b05611a90565b610bb58560405180606001604052806028815260200161421260289139600260008b73ffffffffffffffffffffffffffffffffffffffff1673ffffffffffffffffffffffffffffffffffffffff1681526020019081526020016000206000610b6b611a90565b73ffffffffffffffffffffffffffffffffffffffff1673ffffffffffffffffffffffffffffffffffffffff168152602001908152602001600020546122609092919063ffffffff16565b611a98565b600190509392505050565b6000600960009054906101000a900460ff16905090565b6000610c85610be9611a90565b84610c808560026000610bfa611a90565b73ffffffffffffffffffffffffffffffffffffffff1673ffffffffffffffffffffffffffffffffffffffff16815260200190815260200160002060008973ffffffffffffffffffffffffffffffffffffffff1673ffffffffffffffffffffffffffffffffffffffff168152602001908152602001600020546122b590919063ffffffff16565b611a98565b6001905092915050565b600e5481565b610c9d611a90565b73ffffffffffffffffffffffffffffffffffffffff16610cbb6112a4565b73ffffffffffffffffffffffffffffffffffffffff1614610d11576040517f08c379a0000000000000000000000000000000000000000000000000000000008152600401610d08906136fc565b60405180910390fd5b6001600360008373ffffffffffffffffffffffffffffffffffffffff1673ffffffffffffffffffffffffffffffffffffffff16815260200190815260200160002060006101000a81548160ff0219169083151502179055507ff1d6512ec7550bf605a5a38910e48fb6a57938ed74a5afa01753fa023001005c81604051610d9891906134ba565b60405180910390a150565b601360159054906101000a900460ff1681565b601360009054906101000a900473ffffffffffffffffffffffffffffffffffffffff1681565b6000600360008373ffffffffffffffffffffffffffffffffffffffff1673ffffffffffffffffffffffffffffffffffffffff16815260200190815260200160002060009054906101000a900460ff169050919050565b60105481565b610e40611a90565b73ffffffffffffffffffffffffffffffffffffffff16610e5e6112a4565b73ffffffffffffffffffffffffffffffffffffffff1614610eb4576040517f08c379a0000000000000000000000000000000000000000000000000000000008152600401610eab906136fc565b60405180910390fd5b806016541415610ec357600080fd5b806016819055507fa1549e44f9e72c53c056ec73782f5bb2b8c2950b3f11929b746d641f91048d7f81604051610ef991906133d9565b60405180910390a150565b610f0c611a90565b73ffffffffffffffffffffffffffffffffffffffff16610f2a6112a4565b73ffffffffffffffffffffffffffffffffffffffff1614610f80576040517f08c379a0000000000000000000000000000000000000000000000000000000008152600401610f77906136fc565b60405180910390fd5b6008828486610f8f919061374b565b610f99919061374b565b11158015610fa8575060048111155b610fb157600080fd5b83600a819055508260108190555081600c8190555080600e819055507f5c3aee3d65f7eb02cded951435d06b06ef307bc7f57b98975c4a41dc116e711c8484848460405161100294939291906137a1565b60405180910390a150505050565b6000600160008373ffffffffffffffffffffffffffffffffffffffff1673ffffffffffffffffffffffffffffffffffffffff168152602001908152602001600020549050919050565b611061611a90565b73ffffffffffffffffffffffffffffffffffffffff1661107f6112a4565b73ffffffffffffffffffffffffffffffffffffffff16146110d5576040517f08c379a00000000000000000000000000000000000000000000000000000000081526004016110cc906136fc565b60405180910390fd5b6110df60006122cb565b565b6110e9611a90565b73ffffffffffffffffffffffffffffffffffffffff166111076112a4565b73ffffffffffffffffffffffffffffffffffffffff161461115d576040517f08c379a0000000000000000000000000000000000000000000000000000000008152600401611154906136fc565b60405180910390fd5b600560009054906101000a900473ffffffffffffffffffffffffffffffffffffffff1673ffffffffffffffffffffffffffffffffffffffff168173ffffffffffffffffffffffffffffffffffffffff1614156111ee576040517f08c379a00000000000000000000000000000000000000000000000000000000081526004016111e590613832565b60405180910390fd5b80600560006101000a81548173ffffffffffffffffffffffffffffffffffffffff021916908373ffffffffffffffffffffffffffffffffffffffff1602179055507ff71f0f08e9a32e5990e64b4ea8909708ccd642d774cb8aa446789194056a608a8160405161125e91906134ba565b60405180910390a150565b60145481565b600460009054906101000a900473ffffffffffffffffffffffffffffffffffffffff1681565b600061129f6112a4565b905090565b60008060009054906101000a900473ffffffffffffffffffffffffffffffffffffffff16905090565b6060600880546112dc9061367e565b80601f01602080910402602001604051908101604052809291908181526020018280546113089061367e565b80156113555780601f1061132a57610100808354040283529160200191611355565b820191906000526020600020905b81548152906001019060200180831161133857829003601f168201915b5050505050905090565b600061142261136c611a90565b8461141d8560405180606001604052806025815260200161423a6025913960026000611396611a90565b73ffffffffffffffffffffffffffffffffffffffff1673ffffffffffffffffffffffffffffffffffffffff16815260200190815260200160002060008a73ffffffffffffffffffffffffffffffffffffffff1673ffffffffffffffffffffffffffffffffffffffff168152602001908152602001600020546122609092919063ffffffff16565b611a98565b6001905092915050565b6000611440611439611a90565b8484611c63565b6001905092915050565b611452611a90565b73ffffffffffffffffffffffffffffffffffffffff166114706112a4565b73ffffffffffffffffffffffffffffffffffffffff16146114c6576040517f08c379a00000000000000000000000000000000000000000000000000000000081526004016114bd906136fc565b60405180910390fd5b80601360156101000a81548160ff0219169083151502179055507f53726dfcaf90650aa7eb35524f4d3220f07413c8d6cb404cc8c18bf5591bc1598160405161150f9190613346565b60405180910390a150565b611522611a90565b73ffffffffffffffffffffffffffffffffffffffff166115406112a4565b73ffffffffffffffffffffffffffffffffffffffff1614611596576040517f08c379a000000000000000000000000000000000000000000000000000000000815260040161158d906136fc565b60405180910390fd5b600460009054906101000a900473ffffffffffffffffffffffffffffffffffffffff1673ffffffffffffffffffffffffffffffffffffffff168173ffffffffffffffffffffffffffffffffffffffff161415611627576040517f08c379a000000000000000000000000000000000000000000000000000000000815260040161161e90613832565b60405180910390fd5b80600460006101000a81548173ffffffffffffffffffffffffffffffffffffffff021916908373ffffffffffffffffffffffffffffffffffffffff1602179055507f382f7e63122d8478d132ef787957aef1547aa830de7aa05913ba1c28435ee2098160405161169791906134ba565b60405180910390a150565b60165481565b6000600260008473ffffffffffffffffffffffffffffffffffffffff1673ffffffffffffffffffffffffffffffffffffffff16815260200190815260200160002060008373ffffffffffffffffffffffffffffffffffffffff1673ffffffffffffffffffffffffffffffffffffffff16815260200190815260200160002054905092915050565b601260009054906101000a900473ffffffffffffffffffffffffffffffffffffffff1681565b600a5481565b611763611a90565b73ffffffffffffffffffffffffffffffffffffffff166117816112a4565b73ffffffffffffffffffffffffffffffffffffffff16146117d7576040517f08c379a00000000000000000000000000000000000000000000000000000000081526004016117ce906136fc565b60405180910390fd5b6000600360008373ffffffffffffffffffffffffffffffffffffffff1673ffffffffffffffffffffffffffffffffffffffff16815260200190815260200160002060006101000a81548160ff0219169083151502179055507f976ff2b01cb494434f270c12da5e45ac90c699b50c2312e2bb2fead2466aa4fe8160405161185e91906134ba565b60405180910390a150565b611871611a90565b73ffffffffffffffffffffffffffffffffffffffff1661188f6112a4565b73ffffffffffffffffffffffffffffffffffffffff16146118e5576040517f08c379a00000000000000000000000000000000000000000000000000000000081526004016118dc906136fc565b60405180910390fd5b60018111611928576040517f08c379a000000000000000000000000000000000000000000000000000000000815260040161191f9061389e565b60405180910390fd5b61195060646119428360065461238f90919063ffffffff16565b6123a590919063ffffffff16565b6014819055507f9f5e246af7c18550ffbb625af523d90c3be8c2f4c33faede31f8005c517200fa60145460405161198791906133d9565b60405180910390a150565b61199a611a90565b73ffffffffffffffffffffffffffffffffffffffff166119b86112a4565b73ffffffffffffffffffffffffffffffffffffffff1614611a0e576040517f08c379a0000000000000000000000000000000000000000000000000000000008152600401611a05906136fc565b60405180910390fd5b600073ffffffffffffffffffffffffffffffffffffffff168173ffffffffffffffffffffffffffffffffffffffff161415611a7e576040517f08c379a0000000000000000000000000000000000000000000000000000000008152600401611a7590613930565b60405180910390fd5b611a87816122cb565b50565b600c5481565b600033905090565b600073ffffffffffffffffffffffffffffffffffffffff168373ffffffffffffffffffffffffffffffffffffffff161415611b08576040517f08c379a0000000000000000000000000000000000000000000000000000000008152600401611aff906139c2565b60405180910390fd5b600073ffffffffffffffffffffffffffffffffffffffff168273ffffffffffffffffffffffffffffffffffffffff161415611b78576040517f08c379a0000000000000000000000000000000000000000000000000000000008152600401611b6f90613a54565b60405180910390fd5b80600260008573ffffffffffffffffffffffffffffffffffffffff1673ffffffffffffffffffffffffffffffffffffffff16815260200190815260200160002060008473ffffffffffffffffffffffffffffffffffffffff1673ffffffffffffffffffffffffffffffffffffffff168152602001908152602001600020819055508173ffffffffffffffffffffffffffffffffffffffff168373ffffffffffffffffffffffffffffffffffffffff167f8c5be1e5ebec7d5bd14f71427d1e84f3dd0314c0f7b2291e5b200ac8c7c3b92583604051611c5691906133d9565b60405180910390a3505050565b600073ffffffffffffffffffffffffffffffffffffffff168373ffffffffffffffffffffffffffffffffffffffff161415611cd3576040517f08c379a0000000000000000000000000000000000000000000000000000000008152600401611cca90613ae6565b60405180910390fd5b600073ffffffffffffffffffffffffffffffffffffffff168273ffffffffffffffffffffffffffffffffffffffff161415611d43576040517f08c379a0000000000000000000000000000000000000000000000000000000008152600401611d3a90613b78565b60405180910390fd5b60008111611d86576040517f08c379a0000000000000000000000000000000000000000000000000000000008152600401611d7d90613c0a565b60405180910390fd5b600360008473ffffffffffffffffffffffffffffffffffffffff1673ffffffffffffffffffffffffffffffffffffffff16815260200190815260200160002060009054906101000a900460ff16158015611e2a5750600360008373ffffffffffffffffffffffffffffffffffffffff1673ffffffffffffffffffffffffffffffffffffffff16815260200190815260200160002060009054906101000a900460ff16155b8015611e6057506000611e5e601360009054906101000a900473ffffffffffffffffffffffffffffffffffffffff16611010565b115b8015611e795750601360149054906101000a900460ff16155b8015611ed35750601260009054906101000a900473ffffffffffffffffffffffffffffffffffffffff1673ffffffffffffffffffffffffffffffffffffffff168373ffffffffffffffffffffffffffffffffffffffff1614155b8015611f845750601360009054906101000a900473ffffffffffffffffffffffffffffffffffffffff1673ffffffffffffffffffffffffffffffffffffffff168373ffffffffffffffffffffffffffffffffffffffff161480611f835750601360009054906101000a900473ffffffffffffffffffffffffffffffffffffffff1673ffffffffffffffffffffffffffffffffffffffff168273ffffffffffffffffffffffffffffffffffffffff16145b5b15611fcf57601454811115611fce576040517f08c379a0000000000000000000000000000000000000000000000000000000008152600401611fc590613c9c565b60405180910390fd5b5b6000611fda30611010565b90506014548110611feb5760145490505b6000601554821015905080801561200f5750601360149054906101000a900460ff16155b80156120695750601360009054906101000a900473ffffffffffffffffffffffffffffffffffffffff1673ffffffffffffffffffffffffffffffffffffffff168573ffffffffffffffffffffffffffffffffffffffff1614155b80156120815750601360159054906101000a900460ff165b801561209c5750601654601754612098919061374b565b4210155b156120b75760155491506120af826123bb565b426017819055505b6000806120e5601360009054906101000a900473ffffffffffffffffffffffffffffffffffffffff16611010565b1180156121975750601360009054906101000a900473ffffffffffffffffffffffffffffffffffffffff1673ffffffffffffffffffffffffffffffffffffffff168673ffffffffffffffffffffffffffffffffffffffff1614806121965750601360009054906101000a900473ffffffffffffffffffffffffffffffffffffffff1673ffffffffffffffffffffffffffffffffffffffff168573ffffffffffffffffffffffffffffffffffffffff16145b5b156121a157600190505b600360008773ffffffffffffffffffffffffffffffffffffffff1673ffffffffffffffffffffffffffffffffffffffff16815260200190815260200160002060009054906101000a900460ff16806122425750600360008673ffffffffffffffffffffffffffffffffffffffff1673ffffffffffffffffffffffffffffffffffffffff16815260200190815260200160002060009054906101000a900460ff165b1561224c57600090505b612258868686846126d0565b505050505050565b60008383111582906122a8576040517f08c379a000000000000000000000000000000000000000000000000000000000815260040161229f9190613226565b60405180910390fd5b5082840390509392505050565b600081836122c3919061374b565b905092915050565b60008060009054906101000a900473ffffffffffffffffffffffffffffffffffffffff169050816000806101000a81548173ffffffffffffffffffffffffffffffffffffffff021916908373ffffffffffffffffffffffffffffffffffffffff1602179055508173ffffffffffffffffffffffffffffffffffffffff168173ffffffffffffffffffffffffffffffffffffffff167f8be0079c531659141344cd1fd0a4f28419497f9722a3daafe3b4186f6b6457e060405160405180910390a35050565b6000818361239d9190613cbc565b905092915050565b600081836123b39190613d45565b905092915050565b6001601360146101000a81548160ff02191690831515021790555060003073ffffffffffffffffffffffffffffffffffffffff16319050600061244a600261243c600c54600a5460105461240f919061374b565b612419919061374b565b61242e6010548861238f90919063ffffffff16565b6123a590919063ffffffff16565b6123a590919063ffffffff16565b905061245f8184612a6e90919063ffffffff16565b925061246a83612a84565b6000612496833073ffffffffffffffffffffffffffffffffffffffff1631612a6e90919063ffffffff16565b905060006124bf856124b1858561238f90919063ffffffff16565b6123a590919063ffffffff16565b90506124cb8382612de1565b60003073ffffffffffffffffffffffffffffffffffffffff16319050600061252c600c5461251e601054600c54600a54612505919061374b565b61250f919061374b565b856123a590919063ffffffff16565b61238f90919063ffffffff16565b90506000818361253c9190613d76565b90506000600460009054906101000a900473ffffffffffffffffffffffffffffffffffffffff1673ffffffffffffffffffffffffffffffffffffffff168260405161258690613ddb565b60006040518083038185875af1925050503d80600081146125c3576040519150601f19603f3d011682016040523d82523d6000602084013e6125c8565b606091505b505090506000600560009054906101000a900473ffffffffffffffffffffffffffffffffffffffff1673ffffffffffffffffffffffffffffffffffffffff168460405161261490613ddb565b60006040518083038185875af1925050503d8060008114612651576040519150601f19603f3d011682016040523d82523d6000602084013e612656565b606091505b505090508180156126645750805b156126a9577f726d46bec92dd750b28da864562ce1bfea3f40d05a2e0c63e2f8cf359fdc75a98a8985878a6040516126a0959493929190613df0565b60405180910390a15b5050505050505050506000601360146101000a81548160ff02191690831515021790555050565b806126de576126dd612fc4565b5b6000829050601360009054906101000a900473ffffffffffffffffffffffffffffffffffffffff1673ffffffffffffffffffffffffffffffffffffffff168473ffffffffffffffffffffffffffffffffffffffff1614156127495761274283613045565b90506127ac565b601360009054906101000a900473ffffffffffffffffffffffffffffffffffffffff1673ffffffffffffffffffffffffffffffffffffffff168573ffffffffffffffffffffffffffffffffffffffff1614156127ab576127a8836130ad565b90505b5b6127fe83600160008873ffffffffffffffffffffffffffffffffffffffff1673ffffffffffffffffffffffffffffffffffffffff16815260200190815260200160002054612a6e90919063ffffffff16565b600160008773ffffffffffffffffffffffffffffffffffffffff1673ffffffffffffffffffffffffffffffffffffffff1681526020019081526020016000208190555061289381600160008773ffffffffffffffffffffffffffffffffffffffff1673ffffffffffffffffffffffffffffffffffffffff168152602001908152602001600020546122b590919063ffffffff16565b600160008673ffffffffffffffffffffffffffffffffffffffff1673ffffffffffffffffffffffffffffffffffffffff1681526020019081526020016000208190555061293a6128ec8285612a6e90919063ffffffff16565b600160003073ffffffffffffffffffffffffffffffffffffffff1673ffffffffffffffffffffffffffffffffffffffff168152602001908152602001600020546122b590919063ffffffff16565b600160003073ffffffffffffffffffffffffffffffffffffffff1673ffffffffffffffffffffffffffffffffffffffff168152602001908152602001600020819055508373ffffffffffffffffffffffffffffffffffffffff168573ffffffffffffffffffffffffffffffffffffffff167fddf252ad1be2c89b69c2b068fc378daa952ba7f163c4a11628f55a4df523b3ef836040516129da91906133d9565b60405180910390a33073ffffffffffffffffffffffffffffffffffffffff168573ffffffffffffffffffffffffffffffffffffffff167fddf252ad1be2c89b69c2b068fc378daa952ba7f163c4a11628f55a4df523b3ef612a448487612a6e90919063ffffffff16565b604051612a5191906133d9565b60405180910390a381612a6757612a666130fb565b5b5050505050565b60008183612a7c9190613d76565b905092915050565b6000600267ffffffffffffffff811115612aa157612aa0613e43565b5b604051908082528060200260200182016040528015612acf5781602001602082028036833780820191505090505b5090503081600081518110612ae757612ae6613e72565b5b602002602001019073ffffffffffffffffffffffffffffffffffffffff16908173ffffffffffffffffffffffffffffffffffffffff1681525050601260009054906101000a900473ffffffffffffffffffffffffffffffffffffffff1673ffffffffffffffffffffffffffffffffffffffff1663ad5c46486040518163ffffffff167c0100000000000000000000000000000000000000000000000000000000028152600401602060405180830381865afa158015612baa573d6000803e3d6000fd5b505050506040513d601f19601f82011682018060405250810190612bce9190613eb6565b81600181518110612be257612be1613e72565b5b602002602001019073ffffffffffffffffffffffffffffffffffffffff16908173ffffffffffffffffffffffffffffffffffffffff168152505081612c4930601260009054906101000a900473ffffffffffffffffffffffffffffffffffffffff166116a8565b11612c7e57612c7d30601260009054906101000a900473ffffffffffffffffffffffffffffffffffffffff16600019611a98565b5b601260009054906101000a900473ffffffffffffffffffffffffffffffffffffffff1673ffffffffffffffffffffffffffffffffffffffff1663791ac9478360008430426040518663ffffffff167c0100000000000000000000000000000000000000000000000000000000028152600401612cfe959493929190613fdc565b600060405180830381600087803b158015612d1857600080fd5b505af1925050508015612d29575060015b612da457612d3561405f565b806308c379a01415612d935750612d4a6140b2565b80612d555750612d95565b7f7e74d8aac3cefed9a6ca78b1fd1a7f473e8e26d817f50feebc4e79d8baf5d4176000604051612d859190613346565b60405180910390a150612d9f565b505b3d6000803e3d6000fd5b612ddd565b7f7e74d8aac3cefed9a6ca78b1fd1a7f473e8e26d817f50feebc4e79d8baf5d4176001604051612dd49190613346565b60405180910390a15b5050565b81612e0e30601260009054906101000a900473ffffffffffffffffffffffffffffffffffffffff166116a8565b11612e4357612e4230601260009054906101000a900473ffffffffffffffffffffffffffffffffffffffff16600019611a98565b5b601260009054906101000a900473ffffffffffffffffffffffffffffffffffffffff1673ffffffffffffffffffffffffffffffffffffffff1663f305d719823085600080612e8f6112a4565b426040518863ffffffff167c0100000000000000000000000000000000000000000000000000000000028152600401612ecd96959493929190614148565b60606040518083038185885af193505050508015612f0957506040513d601f19601f82011682018060405250810190612f0691906141be565b60015b612f8457612f1561405f565b806308c379a01415612f735750612f2a6140b2565b80612f355750612f75565b7fc48b19e80141cda1ccb72a068cc97609530975b4012340b18bd4dc11d4852c2a6000604051612f659190613346565b60405180910390a150612f7f565b505b3d6000803e3d6000fd5b612fc0565b5050507fc48b19e80141cda1ccb72a068cc97609530975b4012340b18bd4dc11d4852c2a6001604051612fb79190613346565b60405180910390a15b5050565b6000600a54148015612fd857506000601054145b8015612fe657506000600c54145b8015612ff457506000600e54145b15612ffe57613043565b600a54600b81905550601054601181905550600c54600d81905550600e54600f819055506000600a8190555060006010819055506000600c819055506000600e819055505b565b60008061308a606461307c601054600c54600a54613063919061374b565b61306d919061374b565b8661238f90919063ffffffff16565b6123a590919063ffffffff16565b905060006130a18285612a6e90919063ffffffff16565b90508092505050919050565b6000806130d860646130ca600e548661238f90919063ffffffff16565b6123a590919063ffffffff16565b905060006130ef8285612a6e90919063ffffffff16565b90508092505050919050565b600b54600a81905550601154601081905550600d54600c81905550600f54600e81905550565b600082825260208201905092915050565b7f4f6e6c7920726f7574657220697320616c6c6f77656400000000000000000000600082015250565b6000613168601683613121565b915061317382613132565b602082019050919050565b600060208201905081810360008301526131978161315b565b9050919050565b600081519050919050565b60005b838110156131c75780820151818401526020810190506131ac565b838111156131d6576000848401525b50505050565b6000601f19601f8301169050919050565b60006131f88261319e565b6132028185613121565b93506132128185602086016131a9565b61321b816131dc565b840191505092915050565b6000602082019050818103600083015261324081846131ed565b905092915050565b6000604051905090565b600080fd5b600073ffffffffffffffffffffffffffffffffffffffff82169050919050565b600061328282613257565b9050919050565b61329281613277565b811461329d57600080fd5b50565b6000813590506132af81613289565b92915050565b6000819050919050565b6132c8816132b5565b81146132d357600080fd5b50565b6000813590506132e5816132bf565b92915050565b6000806040838503121561330257613301613252565b5b6000613310858286016132a0565b9250506020613321858286016132d6565b9150509250929050565b60008115159050919050565b6133408161332b565b82525050565b600060208201905061335b6000830184613337565b92915050565b60006020828403121561337757613376613252565b5b6000613385848285016132d6565b91505092915050565b600061339982613257565b9050919050565b6133a98161338e565b82525050565b60006020820190506133c460008301846133a0565b92915050565b6133d3816132b5565b82525050565b60006020820190506133ee60008301846133ca565b92915050565b60008060006060848603121561340d5761340c613252565b5b600061341b868287016132a0565b935050602061342c868287016132a0565b925050604061343d868287016132d6565b9150509250925092565b600060ff82169050919050565b61345d81613447565b82525050565b60006020820190506134786000830184613454565b92915050565b60006020828403121561349457613493613252565b5b60006134a2848285016132a0565b91505092915050565b6134b481613277565b82525050565b60006020820190506134cf60008301846134ab565b92915050565b600080600080608085870312156134ef576134ee613252565b5b60006134fd878288016132d6565b945050602061350e878288016132d6565b935050604061351f878288016132d6565b9250506060613530878288016132d6565b91505092959194509250565b6135458161332b565b811461355057600080fd5b50565b6000813590506135628161353c565b92915050565b60006020828403121561357e5761357d613252565b5b600061358c84828501613553565b91505092915050565b600080604083850312156135ac576135ab613252565b5b60006135ba858286016132a0565b92505060206135cb858286016132a0565b9150509250929050565b6000819050919050565b60006135fa6135f56135f084613257565b6135d5565b613257565b9050919050565b600061360c826135df565b9050919050565b600061361e82613601565b9050919050565b61362e81613613565b82525050565b60006020820190506136496000830184613625565b92915050565b7f4e487b7100000000000000000000000000000000000000000000000000000000600052602260045260246000fd5b6000600282049050600182168061369657607f821691505b602082108114156136aa576136a961364f565b5b50919050565b7f4f776e61626c653a2063616c6c6572206973206e6f7420746865206f776e6572600082015250565b60006136e6602083613121565b91506136f1826136b0565b602082019050919050565b60006020820190508181036000830152613715816136d9565b9050919050565b7f4e487b7100000000000000000000000000000000000000000000000000000000600052601160045260246000fd5b6000613756826132b5565b9150613761836132b5565b9250827fffffffffffffffffffffffffffffffffffffffffffffffffffffffffffffffff038211156137965761379561371c565b5b828201905092915050565b60006080820190506137b660008301876133ca565b6137c360208301866133ca565b6137d060408301856133ca565b6137dd60608301846133ca565b95945050505050565b7f5468697320616464726573732077617320616c72656164792075736564000000600082015250565b600061381c601d83613121565b9150613827826137e6565b602082019050919050565b6000602082019050818103600083015261384b8161380f565b9050919050565b7f70657263656e74206d757374203e203100000000000000000000000000000000600082015250565b6000613888601083613121565b915061389382613852565b602082019050919050565b600060208201905081810360008301526138b78161387b565b9050919050565b7f4f776e61626c653a206e6577206f776e657220697320746865207a65726f206160008201527f6464726573730000000000000000000000000000000000000000000000000000602082015250565b600061391a602683613121565b9150613925826138be565b604082019050919050565b600060208201905081810360008301526139498161390d565b9050919050565b7f42455032303a20617070726f76652066726f6d20746865207a65726f2061646460008201527f7265737300000000000000000000000000000000000000000000000000000000602082015250565b60006139ac602483613121565b91506139b782613950565b604082019050919050565b600060208201905081810360008301526139db8161399f565b9050919050565b7f42455032303a20617070726f766520746f20746865207a65726f20616464726560008201527f7373000000000000000000000000000000000000000000000000000000000000602082015250565b6000613a3e602283613121565b9150613a49826139e2565b604082019050919050565b60006020820190508181036000830152613a6d81613a31565b9050919050565b7f42455032303a207472616e736665722066726f6d20746865207a65726f20616460008201527f6472657373000000000000000000000000000000000000000000000000000000602082015250565b6000613ad0602583613121565b9150613adb82613a74565b604082019050919050565b60006020820190508181036000830152613aff81613ac3565b9050919050565b7f42455032303a207472616e7366657220746f20746865207a65726f206164647260008201527f6573730000000000000000000000000000000000000000000000000000000000602082015250565b6000613b62602383613121565b9150613b6d82613b06565b604082019050919050565b60006020820190508181036000830152613b9181613b55565b9050919050565b7f5472616e7366657220616d6f756e74206d75737420626520677265617465722060008201527f7468616e207a65726f0000000000000000000000000000000000000000000000602082015250565b6000613bf4602983613121565b9150613bff82613b98565b604082019050919050565b60006020820190508181036000830152613c2381613be7565b9050919050565b7f5472616e7366657220616d6f756e74206578636565647320746865206d61785460008201527f78416d6f756e742e000000000000000000000000000000000000000000000000602082015250565b6000613c86602883613121565b9150613c9182613c2a565b604082019050919050565b60006020820190508181036000830152613cb581613c79565b9050919050565b6000613cc7826132b5565b9150613cd2836132b5565b9250817fffffffffffffffffffffffffffffffffffffffffffffffffffffffffffffffff0483118215151615613d0b57613d0a61371c565b5b828202905092915050565b7f4e487b7100000000000000000000000000000000000000000000000000000000600052601260045260246000fd5b6000613d50826132b5565b9150613d5b836132b5565b925082613d6b57613d6a613d16565b5b828204905092915050565b6000613d81826132b5565b9150613d8c836132b5565b925082821015613d9f57613d9e61371c565b5b828203905092915050565b600081905092915050565b50565b6000613dc5600083613daa565b9150613dd082613db5565b600082019050919050565b6000613de682613db8565b9150819050919050565b600060a082019050613e0560008301886133ca565b613e1260208301876133ca565b613e1f60408301866133ca565b613e2c60608301856133ca565b613e3960808301846133ca565b9695505050505050565b7f4e487b7100000000000000000000000000000000000000000000000000000000600052604160045260246000fd5b7f4e487b7100000000000000000000000000000000000000000000000000000000600052603260045260246000fd5b600081519050613eb081613289565b92915050565b600060208284031215613ecc57613ecb613252565b5b6000613eda84828501613ea1565b91505092915050565b6000819050919050565b6000613f08613f03613efe84613ee3565b6135d5565b6132b5565b9050919050565b613f1881613eed565b82525050565b600081519050919050565b600082825260208201905092915050565b6000819050602082019050919050565b613f5381613277565b82525050565b6000613f658383613f4a565b60208301905092915050565b6000602082019050919050565b6000613f8982613f1e565b613f938185613f29565b9350613f9e83613f3a565b8060005b83811015613fcf578151613fb68882613f59565b9750613fc183613f71565b925050600181019050613fa2565b5085935050505092915050565b600060a082019050613ff160008301886133ca565b613ffe6020830187613f0f565b81810360408301526140108186613f7e565b905061401f60608301856134ab565b61402c60808301846133ca565b9695505050505050565b60007c010000000000000000000000000000000000000000000000000000000082049050919050565b600060033d111561407e5760046000803e61407b600051614036565b90505b90565b61408a826131dc565b810181811067ffffffffffffffff821117156140a9576140a8613e43565b5b80604052505050565b600060443d10156140c257614145565b6140ca613248565b60043d036004823e80513d602482011167ffffffffffffffff821117156140f2575050614145565b808201805167ffffffffffffffff8111156141105750505050614145565b80602083010160043d03850181111561412d575050505050614145565b61413c82602001850186614081565b82955050505050505b90565b600060c08201905061415d60008301896134ab565b61416a60208301886133ca565b6141776040830187613f0f565b6141846060830186613f0f565b61419160808301856134ab565b61419e60a08301846133ca565b979650505050505050565b6000815190506141b8816132bf565b92915050565b6000806000606084860312156141d7576141d6613252565b5b60006141e5868287016141a9565b93505060206141f6868287016141a9565b9250506040614207868287016141a9565b915050925092509256fe42455032303a207472616e7366657220616d6f756e74206578636565647320616c6c6f77616e636542455032303a2064656372656173656420616c6c6f77616e63652062656c6f77207a65726fa2646970667358221220c95656ebc3e28b079a1945ce40fa81a953a8e8bb48522cfddc330d8a78630fc764736f6c634300080c0033",
  "immutableReferences": {},
  "source": "// SPDX-License-Identifier: Unlicensed\n\npragma solidity ^0.8.0;\n\nimport \"./IBEP20.sol\";\nimport \"@openzeppelin/contracts/utils/math/SafeMath.sol\";\nimport \"@openzeppelin/contracts/access/Ownable.sol\";\nimport \"@openzeppelin/contracts/utils/Context.sol\";\nimport \"./IPancakeswapV2Factory.sol\";\nimport \"./IPancakeswapV2Router02.sol\";\n\ncontract PiratesKingToken is Context, IBEP20, Ownable {\n    using SafeMath for uint256;\n\n    mapping (address => uint256) private _balances;\n    mapping (address => mapping (address => uint256)) private _allowances;\n    mapping (address => bool) private _isExcludedFromFee;\n\n    address payable public bnbPoolAddress;\n    address payable public prPoolAddress;\n\n\n    uint256 private _tTotal = 100 * 10**6 * 10**18;\n    uint256 private constant MAX = ~uint256(0);\n    string private _name = \"PiratesKing\";\n    string private _symbol = \"PKT\";\n    uint8 private _decimals = 18;\n\n    uint256 public _BNBFee = 0;\n    uint256 private _previousBNBFee = _BNBFee;\n    uint256 public  _PRFee = 0;\n    uint256 private _previousPRFee = _PRFee;\n    uint256 public _buyFee = 0;\n    uint256 private _previousBuyFee = _buyFee;\n    uint256 public _liquidityFee = 0;\n    uint256 private _previousLiquidityFee = _liquidityFee;\n\n\n    IPancakeswapV2Router02 public pancakeswapV2Router;\n    address public pancakeswapV2Pair;\n\n    bool inSwapAndLiquify;\n    bool public swapAndLiquifyEnabled = false;\n    // 00\n    uint256 public _maxTxAmount =  100 * 10**6 * 10**18;\n    uint256 private numTokensToSwap =  1 * 10**3 * 10**18;\n    uint256 public swapCoolDownTime = 0;\n    uint256 private lastSwapTime;\n    mapping(address => uint256) private lastTxTimes;\n\n    event SwapAndLiquifyEnabledUpdated(bool enabled);\n    event SwapAndLiquify(\n        uint256 tokensSwapped,\n        uint256 ethReceived,\n        uint256 tokensIntoLiquidity\n    );\n    event ExcludedFromFee(address account);\n    event IncludedToFee(address account);\n    event UpdateFees(uint256 bnbFee, uint256 liquidityFee, uint256 prFee, uint256 buyFee);\n    event UpdatedMaxTxAmount(uint256 maxTxAmount);\n    event UpdateNumTokensToSwap(uint256 amount);\n    event UpdateBNBPoolAddress(address account);\n    event UpdatePRPoolAddress(address account);\n    event SwapAndCharged(uint256 token, uint256 liquidAmount, uint256 bnbPool, uint256 prPool, uint256 bnbLiquidity);\n    event UpdatedCoolDowntime(uint256 timeForContract);\n    event SwapTokensForEth(bool status);\n    event AddLiquidity (bool status);\n    modifier lockTheSwap {\n        inSwapAndLiquify = true;\n        _;\n        inSwapAndLiquify = false;\n    }\n\n    constructor () {\n        //Test Net\n//        IPancakeswapV2Router02 _pancakeswapV2Router = IPancakeswapV2Router02(0x9Ac64Cc6e4415144C455BD8E4837Fea55603e5c3);\n        //Main Net\n        IPancakeswapV2Router02 _pancakeswapV2Router = IPancakeswapV2Router02(0x10ED43C718714eb63d5aA57B78B54704E256024E);\n\n        pancakeswapV2Pair = IPancakeswapV2Factory(_pancakeswapV2Router.factory())\n        .createPair(address(this), _pancakeswapV2Router.WETH());\n\n        // set the rest of the contract variables\n        pancakeswapV2Router = _pancakeswapV2Router;\n\n        //exclude owner and this contract from fee\n        _isExcludedFromFee[_msgSender()] = true;\n        _isExcludedFromFee[address(this)] = true;\n        _balances[_msgSender()] = _tTotal;\n\n        bnbPoolAddress = payable(0xBa71532C52E78d719Ef9233f9bA9E80Cd3c81727);\n        prPoolAddress = payable(0x18d6444D46D07283c6b9982Ad75fd51d2A7cFeC1);\n        _approve(address(this), address(pancakeswapV2Router), ~uint256(0));\n        emit Transfer(address(0), owner(), _tTotal);\n    }\n\n\n    function symbol() external view override returns (string memory) {\n        return _symbol;\n    }\n\n    function name() external view override returns (string memory) {\n        return _name;\n    }\n\n    function decimals() external view override returns (uint8) {\n        return _decimals;\n    }\n\n    function totalSupply() external view override returns (uint256) {\n        return _tTotal;\n    }\n\n    function getOwner() external view override returns (address) {\n        return owner();\n    }\n\n    function balanceOf(address account) public view override returns (uint256) {\n        return _balances[account];\n    }\n\n    function transfer(address recipient, uint256 amount) public override returns (bool) {\n        _transfer(_msgSender(), recipient, amount);\n        return true;\n    }\n\n    function allowance(address owner, address spender) public view override returns (uint256) {\n        return _allowances[owner][spender];\n    }\n\n    function approve(address spender, uint256 amount) public override returns (bool) {\n        _approve(_msgSender(), spender, amount);\n        return true;\n    }\n\n    function transferFrom(address sender, address recipient, uint256 amount) public override returns (bool) {\n        _transfer(sender, recipient, amount);\n        _approve(sender, _msgSender(), _allowances[sender][_msgSender()].sub(amount, \"BEP20: transfer amount exceeds allowance\"));\n        return true;\n    }\n\n    function increaseAllowance(address spender, uint256 addedValue) public virtual returns (bool) {\n        _approve(_msgSender(), spender, _allowances[_msgSender()][spender].add(addedValue));\n        return true;\n    }\n\n    function decreaseAllowance(address spender, uint256 subtractedValue) public virtual returns (bool) {\n        _approve(_msgSender(), spender, _allowances[_msgSender()][spender].sub(subtractedValue, \"BEP20: decreased allowance below zero\"));\n        return true;\n    }\n\n    function setBNBPoolAddress(address account) external onlyOwner {\n        require(account != bnbPoolAddress, 'This address was already used');\n        bnbPoolAddress = payable(account);\n        emit UpdateBNBPoolAddress(account);\n    }\n\n    function setPRPoolAddress(address account) external onlyOwner {\n        require(account != prPoolAddress, 'This address was already used');\n        prPoolAddress = payable(account);\n        emit UpdatePRPoolAddress(account);\n    }\n    function setCoolDownTime(uint256 timeForContract) external onlyOwner {\n        require(swapCoolDownTime != timeForContract);\n        swapCoolDownTime = timeForContract;\n        emit UpdatedCoolDowntime(timeForContract);\n    }\n\n\n    function excludeFromFee(address account) external onlyOwner {\n        _isExcludedFromFee[account] = true;\n        emit ExcludedFromFee(account);\n    }\n\n    function includeInFee(address account) external onlyOwner {\n        _isExcludedFromFee[account] = false;\n        emit IncludedToFee(account);\n    }\n\n    function setFees(uint256 bnbFee, uint256 liquidityFee, uint256 prFee, uint256 buyFee) external onlyOwner() {\n        require(bnbFee + liquidityFee + prFee <= 8  &&  buyFee <= 4);\n        _BNBFee = bnbFee;\n        _liquidityFee = liquidityFee;\n        _PRFee = prFee;\n        _buyFee = buyFee;\n        emit UpdateFees(bnbFee, liquidityFee, prFee, buyFee);\n    }\n\n    function setMaxTxAmount(uint256 percent) external onlyOwner() {\n        require(percent > 1 , 'percent must > 1');\n        _maxTxAmount = _tTotal.mul(percent).div(10**2);\n        emit UpdatedMaxTxAmount(_maxTxAmount);\n    }\n\n    function setNumTokensToSwap(uint256 amount) external onlyOwner() {\n        require(numTokensToSwap != amount);\n        numTokensToSwap = amount;\n        emit UpdateNumTokensToSwap(amount);\n    }\n\n\n    function setSwapAndLiquifyEnabled(bool _enabled) external onlyOwner {\n        swapAndLiquifyEnabled = _enabled;\n        emit SwapAndLiquifyEnabledUpdated(_enabled);\n    }\n\n    //to receive ETH from pancakeswapV2Router when swapping\n    receive() external payable {\n        require(msg.sender == address(pancakeswapV2Router), \"Only router is allowed\");\n    }\n\n    function _getBuyFeeValues(uint256 tAmount) private view returns (uint256) {\n\n        uint256 fee = tAmount.mul(_buyFee).div(10**2);\n        uint256 tTransferAmount = tAmount.sub(fee);\n        return tTransferAmount;\n    }\n\n    function _getSellFeeValues(uint256 tAmount) private view returns (uint256) {\n\n        uint256 fee = tAmount.mul(_BNBFee + _PRFee + _liquidityFee).div(10**2);\n        uint256 tTransferAmount = tAmount.sub(fee);\n        return tTransferAmount;\n    }\n\n    function removeAllFee() private {\n        if(_BNBFee == 0 && _liquidityFee == 0 && _PRFee == 0 && _buyFee == 0) return;\n\n        _previousBNBFee = _BNBFee;\n        _previousLiquidityFee = _liquidityFee;\n        _previousPRFee = _PRFee;\n        _previousBuyFee = _buyFee;\n\n        _BNBFee = 0;\n        _liquidityFee = 0;\n        _PRFee = 0;\n        _buyFee = 0;\n    }\n\n    function restoreAllFee() private {\n        _BNBFee = _previousBNBFee;\n        _liquidityFee = _previousLiquidityFee;\n        _PRFee = _previousPRFee;\n        _buyFee = _previousBuyFee;\n    }\n\n    function isExcludedFromFee(address account) external view returns(bool) {\n        return _isExcludedFromFee[account];\n    }\n\n    function _approve(address owner, address spender, uint256 amount) private {\n        require(owner != address(0), \"BEP20: approve from the zero address\");\n        require(spender != address(0), \"BEP20: approve to the zero address\");\n\n        _allowances[owner][spender] = amount;\n        emit Approval(owner, spender, amount);\n    }\n\n    function _transfer(\n        address from,\n        address to,\n        uint256 amount\n    ) private {\n        require(from != address(0), \"BEP20: transfer from the zero address\");\n        require(to != address(0), \"BEP20: transfer to the zero address\");\n        require(amount > 0, \"Transfer amount must be greater than zero\");\n        if(\n            !_isExcludedFromFee[from] &&\n        !_isExcludedFromFee[to] &&\n        balanceOf(pancakeswapV2Pair) > 0 &&\n        !inSwapAndLiquify &&\n        from != address(pancakeswapV2Router) &&\n        (from == pancakeswapV2Pair || to == pancakeswapV2Pair)\n        ) {\n            require(amount <= _maxTxAmount, \"Transfer amount exceeds the maxTxAmount.\");\n        }\n\n        // is the token balance of this contract address over the min number of\n        // tokens that we need to initiate a swap + liquidity lock?\n        // also, don't get caught in a circular liquidity event.\n        // also, don't swap & liquify if sender is pancakeswap pair.\n        uint256 tokenBalance = balanceOf(address(this));\n        if(tokenBalance >= _maxTxAmount)\n        {\n            tokenBalance = _maxTxAmount;\n        }\n\n        bool overMinTokenBalance = tokenBalance >= numTokensToSwap;\n        if (\n            overMinTokenBalance &&\n            !inSwapAndLiquify &&\n            from != pancakeswapV2Pair &&\n            swapAndLiquifyEnabled &&\n            block.timestamp >= lastSwapTime + swapCoolDownTime\n        ) {\n            tokenBalance = numTokensToSwap;\n            swapAndCharge(tokenBalance);\n            lastSwapTime = block.timestamp;\n        }\n\n        //indicates if fee should be deducted from transfer\n        bool takeFee = false;\n        if (balanceOf(pancakeswapV2Pair) > 0 && (from == pancakeswapV2Pair || to == pancakeswapV2Pair)) {\n            takeFee = true;\n        }\n\n        //if any account belongs to _isExcludedFromFee account then remove the fee\n        if (_isExcludedFromFee[from] || _isExcludedFromFee[to]){\n            takeFee = false;\n        }\n\n        //transfer amount, it will take tax, burn, liquidity fee\n        _tokenTransfer(from,to,amount,takeFee);\n    }\n\n    function swapAndCharge(uint256 tokenBalance) private lockTheSwap {\n        uint256 initialBalance = address(this).balance;\n\n        uint256 liquidBalance = tokenBalance.mul(_liquidityFee).div(_liquidityFee + _BNBFee + _PRFee).div(2);\n        tokenBalance = tokenBalance.sub(liquidBalance);\n        swapTokensForEth(tokenBalance);\n\n        uint256 newBalance = address(this).balance.sub(initialBalance);\n        uint256 bnbForLiquid = newBalance.mul(liquidBalance).div(tokenBalance);\n        addLiquidity(liquidBalance, bnbForLiquid);\n\n        uint256 poolBalance = address(this).balance;\n        uint256 prBalance = poolBalance.div(_BNBFee + _PRFee + _liquidityFee).mul(_PRFee);\n        uint256 rewardBalance = poolBalance - prBalance;\n\n        (bool r_success, ) = payable(bnbPoolAddress).call{value: rewardBalance}(\"\");\n        (bool p_success, ) = payable(prPoolAddress).call{value: prBalance}(\"\");\n        if(r_success && p_success) {\n            emit SwapAndCharged(tokenBalance, liquidBalance, rewardBalance, prBalance, bnbForLiquid);\n        }\n    }\n\n\n    function swapTokensForEth(uint256 tokenAmount) private {\n        // generate the pancakeswap pair path of token -> weth\n        address[] memory path = new address[](2);\n        path[0] = address(this);\n        path[1] = pancakeswapV2Router.WETH();\n\n        if (allowance(address(this), address(pancakeswapV2Router)) <= tokenAmount) {\n            _approve(address(this), address(pancakeswapV2Router), ~uint256(0));\n        }\n\n\n        // make the swap\n        try pancakeswapV2Router.swapExactTokensForETHSupportingFeeOnTransferTokens(\n            tokenAmount,\n            0, // accept any amount of ETH\n            path,\n            address(this),\n            block.timestamp\n        ) {\n            emit SwapTokensForEth(true);\n        } catch Error(string memory /*reason*/) {\n            emit SwapTokensForEth(false);\n        }\n    }\n\n    function addLiquidity(uint256 tokenAmount, uint256 ethAmount) private {\n        // approve token transfer to cover all possible scenarios\n\n        if (allowance(address(this), address(pancakeswapV2Router)) <= tokenAmount) {\n            _approve(address(this), address(pancakeswapV2Router), ~uint256(0));\n        }\n\n        // add the liquidity\n        try pancakeswapV2Router.addLiquidityETH{value: ethAmount}(\n            address(this),\n            tokenAmount,\n            0, // slippage is unavoidable\n            0, // slippage is unavoidable\n            owner(),\n            block.timestamp\n        ) {\n            emit AddLiquidity(true);\n        } catch Error(string memory /*reason*/) {\n            emit AddLiquidity(false);\n        }\n    }\n\n    //this method is responsible for taking all fee, if takeFee is true\n    function _tokenTransfer(address sender, address recipient, uint256 amount, bool takeFee) private {\n        if(!takeFee)\n            removeAllFee();\n        uint256 tTransferAmount = amount;\n        if (recipient == pancakeswapV2Pair) {\n             tTransferAmount = _getSellFeeValues(amount);\n        } else if (sender == pancakeswapV2Pair) {\n            tTransferAmount = _getBuyFeeValues(amount);\n        }\n\n        _balances[sender] = _balances[sender].sub(amount);\n        _balances[recipient] = _balances[recipient].add(tTransferAmount);\n        _balances[address(this)] = _balances[address(this)].add(amount.sub(tTransferAmount));\n        emit Transfer(sender, recipient, tTransferAmount);\n        emit Transfer(sender, address(this) , amount.sub(tTransferAmount));\n\n        if(!takeFee)\n            restoreAllFee();\n    }\n}\n",
  "sourcePath": "/Users/macbook/Desktop/PiratesKingContract2022/PiratesKingContract2022/contracts/PiratesKingToken.sol",
  "compiler": {
    "name": "solc",
    "version": "0.8.12+commit.f00d7308.Emscripten.clang"
  },
  "schemaVersion": "3.4.4",
  "updatedAt": "2022-02-22T05:36:20.945Z",
  "devdoc": {
    "kind": "dev",
    "methods": {
      "approve(address,uint256)": {
        "details": "Sets `amount` as the allowance of `spender` over the caller's tokens. Returns a boolean value indicating whether the operation succeeded. IMPORTANT: Beware that changing an allowance with this method brings the risk that someone may use both the old and the new allowance by unfortunate transaction ordering. One possible solution to mitigate this race condition is to first reduce the spender's allowance to 0 and set the desired value afterwards: https://github.com/ethereum/EIPs/issues/20#issuecomment-263524729 Emits an {Approval} event."
      },
      "balanceOf(address)": {
        "details": "Returns the amount of tokens owned by `account`."
      },
      "decimals()": {
        "details": "Returns the token decimals."
      },
      "getOwner()": {
        "details": "Returns the bep token owner."
      },
      "name()": {
        "details": "Returns the token name."
      },
      "owner()": {
        "details": "Returns the address of the current owner."
      },
      "renounceOwnership()": {
        "details": "Leaves the contract without owner. It will not be possible to call `onlyOwner` functions anymore. Can only be called by the current owner. NOTE: Renouncing ownership will leave the contract without an owner, thereby removing any functionality that is only available to the owner."
      },
      "symbol()": {
        "details": "Returns the token symbol."
      },
      "totalSupply()": {
        "details": "Returns the amount of tokens in existence."
      },
      "transfer(address,uint256)": {
        "details": "Moves `amount` tokens from the caller's account to `recipient`. Returns a boolean value indicating whether the operation succeeded. Emits a {Transfer} event."
      },
      "transferFrom(address,address,uint256)": {
        "details": "Moves `amount` tokens from `sender` to `recipient` using the allowance mechanism. `amount` is then deducted from the caller's allowance. Returns a boolean value indicating whether the operation succeeded. Emits a {Transfer} event."
      },
      "transferOwnership(address)": {
        "details": "Transfers ownership of the contract to a new account (`newOwner`). Can only be called by the current owner."
      }
    },
    "version": 1
  },
  "userdoc": {
    "kind": "user",
    "methods": {},
    "version": 1
  }
}