{
  "contractName": "PiratesKingCharacter",
  "abi": [
    {
      "inputs": [
        {
          "internalType": "address",
          "name": "_chestAddress",
          "type": "address"
        },
        {
          "internalType": "address",
          "name": "_pktContract",
          "type": "address"
        }
      ],
      "stateMutability": "nonpayable",
      "type": "constructor"
    },
    {
      "anonymous": false,
      "inputs": [
        {
          "indexed": true,
          "internalType": "address",
          "name": "owner",
          "type": "address"
        },
        {
          "indexed": true,
          "internalType": "address",
          "name": "approved",
          "type": "address"
        },
        {
          "indexed": true,
          "internalType": "uint256",
          "name": "tokenId",
          "type": "uint256"
        }
      ],
      "name": "Approval",
      "type": "event"
    },
    {
      "anonymous": false,
      "inputs": [
        {
          "indexed": true,
          "internalType": "address",
          "name": "owner",
          "type": "address"
        },
        {
          "indexed": true,
          "internalType": "address",
          "name": "operator",
          "type": "address"
        },
        {
          "indexed": false,
          "internalType": "bool",
          "name": "approved",
          "type": "bool"
        }
      ],
      "name": "ApprovalForAll",
      "type": "event"
    },
    {
      "anonymous": false,
      "inputs": [
        {
          "indexed": false,
          "internalType": "address",
          "name": "newAddress",
          "type": "address"
        },
        {
          "indexed": false,
          "internalType": "bytes32",
          "name": "contractName",
          "type": "bytes32"
        }
      ],
      "name": "LibContractAddressUpdate",
      "type": "event"
    },
    {
      "anonymous": false,
      "inputs": [
        {
          "indexed": true,
          "internalType": "address",
          "name": "previousOwner",
          "type": "address"
        },
        {
          "indexed": true,
          "internalType": "address",
          "name": "newOwner",
          "type": "address"
        }
      ],
      "name": "OwnershipTransferred",
      "type": "event"
    },
    {
      "anonymous": false,
      "inputs": [
        {
          "indexed": true,
          "internalType": "address",
          "name": "from",
          "type": "address"
        },
        {
          "indexed": true,
          "internalType": "address",
          "name": "to",
          "type": "address"
        },
        {
          "indexed": true,
          "internalType": "uint256",
          "name": "tokenId",
          "type": "uint256"
        }
      ],
      "name": "Transfer",
      "type": "event"
    },
    {
      "inputs": [
        {
          "internalType": "uint256",
          "name": "",
          "type": "uint256"
        }
      ],
      "name": "allCharacters",
      "outputs": [
        {
          "internalType": "uint256",
          "name": "tokenId",
          "type": "uint256"
        },
        {
          "internalType": "string",
          "name": "tokenURI",
          "type": "string"
        },
        {
          "internalType": "address payable",
          "name": "mintedBy",
          "type": "address"
        },
        {
          "internalType": "address payable",
          "name": "currentOwner",
          "type": "address"
        },
        {
          "internalType": "address payable",
          "name": "previousOwner",
          "type": "address"
        },
        {
          "internalType": "uint256",
          "name": "price",
          "type": "uint256"
        },
        {
          "internalType": "uint256",
          "name": "numberOfTransfers",
          "type": "uint256"
        },
        {
          "internalType": "bool",
          "name": "forSale",
          "type": "bool"
        }
      ],
      "stateMutability": "view",
      "type": "function"
    },
    {
      "inputs": [
        {
          "internalType": "address",
          "name": "to",
          "type": "address"
        },
        {
          "internalType": "uint256",
          "name": "tokenId",
          "type": "uint256"
        }
      ],
      "name": "approve",
      "outputs": [],
      "stateMutability": "nonpayable",
      "type": "function"
    },
    {
      "inputs": [
        {
          "internalType": "address",
          "name": "owner",
          "type": "address"
        }
      ],
      "name": "balanceOf",
      "outputs": [
        {
          "internalType": "uint256",
          "name": "",
          "type": "uint256"
        }
      ],
      "stateMutability": "view",
      "type": "function"
    },
    {
      "inputs": [],
      "name": "chestContract",
      "outputs": [
        {
          "internalType": "address",
          "name": "",
          "type": "address"
        }
      ],
      "stateMutability": "view",
      "type": "function"
    },
    {
      "inputs": [],
      "name": "collectionName",
      "outputs": [
        {
          "internalType": "string",
          "name": "",
          "type": "string"
        }
      ],
      "stateMutability": "view",
      "type": "function"
    },
    {
      "inputs": [],
      "name": "collectionNameSymbol",
      "outputs": [
        {
          "internalType": "string",
          "name": "",
          "type": "string"
        }
      ],
      "stateMutability": "view",
      "type": "function"
    },
    {
      "inputs": [
        {
          "internalType": "uint256",
          "name": "tokenId",
          "type": "uint256"
        }
      ],
      "name": "getApproved",
      "outputs": [
        {
          "internalType": "address",
          "name": "",
          "type": "address"
        }
      ],
      "stateMutability": "view",
      "type": "function"
    },
    {
      "inputs": [
        {
          "internalType": "address",
          "name": "owner",
          "type": "address"
        },
        {
          "internalType": "address",
          "name": "operator",
          "type": "address"
        }
      ],
      "name": "isApprovedForAll",
      "outputs": [
        {
          "internalType": "bool",
          "name": "",
          "type": "bool"
        }
      ],
      "stateMutability": "view",
      "type": "function"
    },
    {
      "inputs": [],
      "name": "name",
      "outputs": [
        {
          "internalType": "string",
          "name": "",
          "type": "string"
        }
      ],
      "stateMutability": "view",
      "type": "function"
    },
    {
      "inputs": [],
      "name": "owner",
      "outputs": [
        {
          "internalType": "address",
          "name": "",
          "type": "address"
        }
      ],
      "stateMutability": "view",
      "type": "function"
    },
    {
      "inputs": [
        {
          "internalType": "uint256",
          "name": "tokenId",
          "type": "uint256"
        }
      ],
      "name": "ownerOf",
      "outputs": [
        {
          "internalType": "address",
          "name": "",
          "type": "address"
        }
      ],
      "stateMutability": "view",
      "type": "function"
    },
    {
      "inputs": [],
      "name": "pktContract",
      "outputs": [
        {
          "internalType": "address",
          "name": "",
          "type": "address"
        }
      ],
      "stateMutability": "view",
      "type": "function"
    },
    {
      "inputs": [],
      "name": "renounceOwnership",
      "outputs": [],
      "stateMutability": "nonpayable",
      "type": "function"
    },
    {
      "inputs": [
        {
          "internalType": "address",
          "name": "from",
          "type": "address"
        },
        {
          "internalType": "address",
          "name": "to",
          "type": "address"
        },
        {
          "internalType": "uint256",
          "name": "tokenId",
          "type": "uint256"
        }
      ],
      "name": "safeTransferFrom",
      "outputs": [],
      "stateMutability": "nonpayable",
      "type": "function"
    },
    {
      "inputs": [
        {
          "internalType": "address",
          "name": "from",
          "type": "address"
        },
        {
          "internalType": "address",
          "name": "to",
          "type": "address"
        },
        {
          "internalType": "uint256",
          "name": "tokenId",
          "type": "uint256"
        },
        {
          "internalType": "bytes",
          "name": "_data",
          "type": "bytes"
        }
      ],
      "name": "safeTransferFrom",
      "outputs": [],
      "stateMutability": "nonpayable",
      "type": "function"
    },
    {
      "inputs": [
        {
          "internalType": "address",
          "name": "operator",
          "type": "address"
        },
        {
          "internalType": "bool",
          "name": "approved",
          "type": "bool"
        }
      ],
      "name": "setApprovalForAll",
      "outputs": [],
      "stateMutability": "nonpayable",
      "type": "function"
    },
    {
      "inputs": [],
      "name": "symbol",
      "outputs": [
        {
          "internalType": "string",
          "name": "",
          "type": "string"
        }
      ],
      "stateMutability": "view",
      "type": "function"
    },
    {
      "inputs": [
        {
          "internalType": "uint256",
          "name": "index",
          "type": "uint256"
        }
      ],
      "name": "tokenByIndex",
      "outputs": [
        {
          "internalType": "uint256",
          "name": "",
          "type": "uint256"
        }
      ],
      "stateMutability": "view",
      "type": "function"
    },
    {
      "inputs": [
        {
          "internalType": "address",
          "name": "owner",
          "type": "address"
        },
        {
          "internalType": "uint256",
          "name": "index",
          "type": "uint256"
        }
      ],
      "name": "tokenOfOwnerByIndex",
      "outputs": [
        {
          "internalType": "uint256",
          "name": "",
          "type": "uint256"
        }
      ],
      "stateMutability": "view",
      "type": "function"
    },
    {
      "inputs": [
        {
          "internalType": "string",
          "name": "",
          "type": "string"
        }
      ],
      "name": "tokenURIExists",
      "outputs": [
        {
          "internalType": "bool",
          "name": "",
          "type": "bool"
        }
      ],
      "stateMutability": "view",
      "type": "function"
    },
    {
      "inputs": [],
      "name": "totalSupply",
      "outputs": [
        {
          "internalType": "uint256",
          "name": "",
          "type": "uint256"
        }
      ],
      "stateMutability": "view",
      "type": "function"
    },
    {
      "inputs": [
        {
          "internalType": "address",
          "name": "from",
          "type": "address"
        },
        {
          "internalType": "address",
          "name": "to",
          "type": "address"
        },
        {
          "internalType": "uint256",
          "name": "tokenId",
          "type": "uint256"
        }
      ],
      "name": "transferFrom",
      "outputs": [],
      "stateMutability": "nonpayable",
      "type": "function"
    },
    {
      "inputs": [
        {
          "internalType": "address",
          "name": "newOwner",
          "type": "address"
        }
      ],
      "name": "transferOwnership",
      "outputs": [],
      "stateMutability": "nonpayable",
      "type": "function"
    },
    {
      "inputs": [
        {
          "internalType": "uint256",
          "name": "tokenId",
          "type": "uint256"
        }
      ],
      "name": "tokenURI",
      "outputs": [
        {
          "internalType": "string",
          "name": "",
          "type": "string"
        }
      ],
      "stateMutability": "view",
      "type": "function"
    },
    {
      "inputs": [
        {
          "internalType": "bytes4",
          "name": "interfaceId",
          "type": "bytes4"
        }
      ],
      "name": "supportsInterface",
      "outputs": [
        {
          "internalType": "bool",
          "name": "",
          "type": "bool"
        }
      ],
      "stateMutability": "view",
      "type": "function"
    },
    {
      "inputs": [
        {
          "internalType": "address",
          "name": "to",
          "type": "address"
        },
        {
          "internalType": "uint256",
          "name": "tokenId",
          "type": "uint256"
        }
      ],
      "name": "safeMint",
      "outputs": [],
      "stateMutability": "nonpayable",
      "type": "function"
    },
    {
      "inputs": [
        {
          "internalType": "uint256",
          "name": "_tokenId",
          "type": "uint256"
        }
      ],
      "name": "openChest",
      "outputs": [],
      "stateMutability": "nonpayable",
      "type": "function"
    },
    {
      "inputs": [
        {
          "internalType": "uint256",
          "name": "_tokenId",
          "type": "uint256"
        }
      ],
      "name": "getTokenOwner",
      "outputs": [
        {
          "internalType": "address",
          "name": "",
          "type": "address"
        }
      ],
      "stateMutability": "view",
      "type": "function"
    },
    {
      "inputs": [
        {
          "internalType": "uint256",
          "name": "_tokenId",
          "type": "uint256"
        }
      ],
      "name": "getTokenMetaData",
      "outputs": [
        {
          "internalType": "string",
          "name": "",
          "type": "string"
        }
      ],
      "stateMutability": "view",
      "type": "function"
    },
    {
      "inputs": [],
      "name": "getNumberOfTokensMinted",
      "outputs": [
        {
          "internalType": "uint256",
          "name": "",
          "type": "uint256"
        }
      ],
      "stateMutability": "view",
      "type": "function"
    },
    {
      "inputs": [
        {
          "internalType": "address",
          "name": "_owner",
          "type": "address"
        }
      ],
      "name": "getTotalNumberOfTokensOwnedByAnAddress",
      "outputs": [
        {
          "internalType": "uint256",
          "name": "",
          "type": "uint256"
        }
      ],
      "stateMutability": "view",
      "type": "function"
    },
    {
      "inputs": [
        {
          "internalType": "uint256",
          "name": "_tokenId",
          "type": "uint256"
        }
      ],
      "name": "getTokenExists",
      "outputs": [
        {
          "internalType": "bool",
          "name": "",
          "type": "bool"
        }
      ],
      "stateMutability": "view",
      "type": "function"
    },
    {
      "inputs": [
        {
          "internalType": "uint256",
          "name": "_tokenId",
          "type": "uint256"
        }
      ],
      "name": "buyToken",
      "outputs": [],
      "stateMutability": "payable",
      "type": "function"
    },
    {
      "inputs": [
        {
          "internalType": "uint256",
          "name": "_tokenId",
          "type": "uint256"
        },
        {
          "internalType": "uint256",
          "name": "_newPrice",
          "type": "uint256"
        }
      ],
      "name": "changeTokenPrice",
      "outputs": [],
      "stateMutability": "nonpayable",
      "type": "function"
    },
    {
      "inputs": [
        {
          "internalType": "uint256",
          "name": "_tokenId",
          "type": "uint256"
        }
      ],
      "name": "toggleForSale",
      "outputs": [],
      "stateMutability": "nonpayable",
      "type": "function"
    }
  ],
  "bytecode": "0x60806040523480156200001157600080fd5b5060405162005d0538038062005d0583398181016040528101906200003791906200056b565b60405180606001604052806021815260200162005ce4602191396040518060400160405280600481526020017f504b43480000000000000000000000000000000000000000000000000000000081525081600090805190602001906200009f92919062000451565b508060019080519060200190620000b892919062000451565b505050620000db620000cf6200015560201b60201c565b6200015d60201b60201c565b620000eb6200022360201b60201c565b600c90805190602001906200010292919062000451565b5062000113620002bd60201b60201c565b600d90805190602001906200012a92919062000451565b506200013c826200035760201b60201c565b6200014d81620003d460201b60201c565b5050620006ca565b600033905090565b6000600b60009054906101000a900473ffffffffffffffffffffffffffffffffffffffff16905081600b60006101000a81548173ffffffffffffffffffffffffffffffffffffffff021916908373ffffffffffffffffffffffffffffffffffffffff1602179055508173ffffffffffffffffffffffffffffffffffffffff168173ffffffffffffffffffffffffffffffffffffffff167f8be0079c531659141344cd1fd0a4f28419497f9722a3daafe3b4186f6b6457e060405160405180910390a35050565b6060600080546200023490620005e1565b80601f01602080910402602001604051908101604052809291908181526020018280546200026290620005e1565b8015620002b35780601f106200028757610100808354040283529160200191620002b3565b820191906000526020600020905b8154815290600101906020018083116200029557829003601f168201915b5050505050905090565b606060018054620002ce90620005e1565b80601f0160208091040260200160405190810160405280929190818152602001828054620002fc90620005e1565b80156200034d5780601f1062000321576101008083540402835291602001916200034d565b820191906000526020600020905b8154815290600101906020018083116200032f57829003601f168201915b5050505050905090565b80600f60006101000a81548173ffffffffffffffffffffffffffffffffffffffff021916908373ffffffffffffffffffffffffffffffffffffffff1602179055507fc02dd078a5d63c2645d0da4b3173f425d353dafebbb14064059edbd4244a31bf81604051620003c991906200064e565b60405180910390a150565b80601060006101000a81548173ffffffffffffffffffffffffffffffffffffffff021916908373ffffffffffffffffffffffffffffffffffffffff1602179055507fc02dd078a5d63c2645d0da4b3173f425d353dafebbb14064059edbd4244a31bf816040516200044691906200069f565b60405180910390a150565b8280546200045f90620005e1565b90600052602060002090601f016020900481019282620004835760008555620004cf565b82601f106200049e57805160ff1916838001178555620004cf565b82800160010185558215620004cf579182015b82811115620004ce578251825591602001919060010190620004b1565b5b509050620004de9190620004e2565b5090565b5b80821115620004fd576000816000905550600101620004e3565b5090565b600080fd5b600073ffffffffffffffffffffffffffffffffffffffff82169050919050565b6000620005338262000506565b9050919050565b620005458162000526565b81146200055157600080fd5b50565b60008151905062000565816200053a565b92915050565b6000806040838503121562000585576200058462000501565b5b6000620005958582860162000554565b9250506020620005a88582860162000554565b9150509250929050565b7f4e487b7100000000000000000000000000000000000000000000000000000000600052602260045260246000fd5b60006002820490506001821680620005fa57607f821691505b60208210811415620006115762000610620005b2565b5b50919050565b620006228162000526565b82525050565b7f6368657374000000000000000000000000000000000000000000000000000000815250565b600060408201905062000665600083018462000617565b620006736020830162000628565b92915050565b7f706b740000000000000000000000000000000000000000000000000000000000815250565b6000604082019050620006b6600083018462000617565b620006c46020830162000679565b92915050565b61560a80620006da6000396000f3fe6080604052600436106102045760003560e01c806367c623cf11610118578063a5cd761f116100a0578063d59134ba1161006f578063d59134ba146107cf578063e5326ab1146107fa578063e985e9c514610825578063f2fde38b14610862578063fa91ab4a1461088b57610204565b8063a5cd761f14610701578063b88d4fde1461073e578063c87b56dd14610767578063cc151f3a146107a457610204565b80638da5cb5b116100e75780638da5cb5b1461063057806395d89b411461065b578063a144819414610686578063a22cb465146106af578063a32018b9146106d857610204565b806367c623cf146105745780636f9507f9146105b157806370a08231146105dc578063715018a61461061957610204565b80632d296bf11161019b57806343d32ae71161016a57806343d32ae71461046b5780634f6ccce7146104a85780636075eb7d146104e557806362e8e8ac1461050e5780636352211e1461053757610204565b80632d296bf1146103ac5780632f745c59146103c857806342842e0e14610405578063439028501461042e57610204565b8063142687f3116101d7578063142687f3146102d757806317b7b61b1461031457806318160ddd1461035857806323b872dd1461038357610204565b806301ffc9a71461020957806306fdde0314610246578063081812fc14610271578063095ea7b3146102ae575b600080fd5b34801561021557600080fd5b50610230600480360381019061022b9190613c43565b6108b6565b60405161023d9190613c8b565b60405180910390f35b34801561025257600080fd5b5061025b6108c8565b6040516102689190613d3f565b60405180910390f35b34801561027d57600080fd5b5061029860048036038101906102939190613d97565b61095a565b6040516102a59190613e05565b60405180910390f35b3480156102ba57600080fd5b506102d560048036038101906102d09190613e4c565b6109df565b005b3480156102e357600080fd5b506102fe60048036038101906102f99190613d97565b610af7565b60405161030b9190613c8b565b60405180910390f35b34801561032057600080fd5b5061033b60048036038101906103369190613d97565b610b0e565b60405161034f989796959493929190613ebc565b60405180910390f35b34801561036457600080fd5b5061036d610c4b565b60405161037a9190613f41565b60405180910390f35b34801561038f57600080fd5b506103aa60048036038101906103a59190613f5c565b610c58565b005b6103c660048036038101906103c19190613d97565b610cb8565b005b3480156103d457600080fd5b506103ef60048036038101906103ea9190613e4c565b61126e565b6040516103fc9190613f41565b60405180910390f35b34801561041157600080fd5b5061042c60048036038101906104279190613f5c565b611313565b005b34801561043a57600080fd5b5061045560048036038101906104509190613faf565b611333565b6040516104629190613f41565b60405180910390f35b34801561047757600080fd5b50610492600480360381019061048d9190614111565b61134a565b60405161049f9190613c8b565b60405180910390f35b3480156104b457600080fd5b506104cf60048036038101906104ca9190613d97565b611380565b6040516104dc9190613f41565b60405180910390f35b3480156104f157600080fd5b5061050c60048036038101906105079190613d97565b6113f1565b005b34801561051a57600080fd5b506105356004803603810190610530919061415a565b61178e565b005b34801561054357600080fd5b5061055e60048036038101906105599190613d97565b611b66565b60405161056b9190613e05565b60405180910390f35b34801561058057600080fd5b5061059b60048036038101906105969190613d97565b611c18565b6040516105a89190613d3f565b60405180910390f35b3480156105bd57600080fd5b506105c6611c30565b6040516105d39190613d3f565b60405180910390f35b3480156105e857600080fd5b5061060360048036038101906105fe9190613faf565b611cbe565b6040516106109190613f41565b60405180910390f35b34801561062557600080fd5b5061062e611d76565b005b34801561063c57600080fd5b50610645611dfe565b6040516106529190613e05565b60405180910390f35b34801561066757600080fd5b50610670611e28565b60405161067d9190613d3f565b60405180910390f35b34801561069257600080fd5b506106ad60048036038101906106a89190613e4c565b611eba565b005b3480156106bb57600080fd5b506106d660048036038101906106d191906141c6565b611f44565b005b3480156106e457600080fd5b506106ff60048036038101906106fa9190613d97565b611f5a565b005b34801561070d57600080fd5b5061072860048036038101906107239190613d97565b612359565b6040516107359190613e05565b60405180910390f35b34801561074a57600080fd5b50610765600480360381019061076091906142a7565b612370565b005b34801561077357600080fd5b5061078e60048036038101906107899190613d97565b6123d2565b60405161079b9190613d3f565b60405180910390f35b3480156107b057600080fd5b506107b96123e4565b6040516107c69190613f41565b60405180910390f35b3480156107db57600080fd5b506107e46123f8565b6040516107f19190613e05565b60405180910390f35b34801561080657600080fd5b5061080f61241e565b60405161081c9190613d3f565b60405180910390f35b34801561083157600080fd5b5061084c6004803603810190610847919061432a565b6124ac565b6040516108599190613c8b565b60405180910390f35b34801561086e57600080fd5b5061088960048036038101906108849190613faf565b612540565b005b34801561089757600080fd5b506108a0612638565b6040516108ad9190613e05565b60405180910390f35b60006108c18261265e565b9050919050565b6060600080546108d790614399565b80601f016020809104026020016040519081016040528092919081815260200182805461090390614399565b80156109505780601f1061092557610100808354040283529160200191610950565b820191906000526020600020905b81548152906001019060200180831161093357829003601f168201915b5050505050905090565b6000610965826126d8565b6109a4576040517f08c379a000000000000000000000000000000000000000000000000000000000815260040161099b9061443d565b60405180910390fd5b6004600083815260200190815260200160002060009054906101000a900473ffffffffffffffffffffffffffffffffffffffff169050919050565b60006109ea82611b66565b90508073ffffffffffffffffffffffffffffffffffffffff168373ffffffffffffffffffffffffffffffffffffffff161415610a5b576040517f08c379a0000000000000000000000000000000000000000000000000000000008152600401610a52906144cf565b60405180910390fd5b8073ffffffffffffffffffffffffffffffffffffffff16610a7a612744565b73ffffffffffffffffffffffffffffffffffffffff161480610aa95750610aa881610aa3612744565b6124ac565b5b610ae8576040517f08c379a0000000000000000000000000000000000000000000000000000000008152600401610adf90614561565b60405180910390fd5b610af2838361274c565b505050565b600080610b03836126d8565b905080915050919050565b6011602052806000526040600020600091509050806000015490806001018054610b3790614399565b80601f0160208091040260200160405190810160405280929190818152602001828054610b6390614399565b8015610bb05780601f10610b8557610100808354040283529160200191610bb0565b820191906000526020600020905b815481529060010190602001808311610b9357829003601f168201915b5050505050908060020160009054906101000a900473ffffffffffffffffffffffffffffffffffffffff16908060030160009054906101000a900473ffffffffffffffffffffffffffffffffffffffff16908060040160009054906101000a900473ffffffffffffffffffffffffffffffffffffffff16908060050154908060060154908060070160009054906101000a900460ff16905088565b6000600880549050905090565b610c69610c63612744565b82612805565b610ca8576040517f08c379a0000000000000000000000000000000000000000000000000000000008152600401610c9f906145f3565b60405180910390fd5b610cb38383836128e3565b505050565b600073ffffffffffffffffffffffffffffffffffffffff163373ffffffffffffffffffffffffffffffffffffffff161415610cf257600080fd5b610cfb816126d8565b610d0457600080fd5b6000610d0f82611b66565b9050600073ffffffffffffffffffffffffffffffffffffffff168173ffffffffffffffffffffffffffffffffffffffff161415610d4b57600080fd5b3373ffffffffffffffffffffffffffffffffffffffff168173ffffffffffffffffffffffffffffffffffffffff161415610d8457600080fd5b6000601160008481526020019081526020016000206040518061010001604052908160008201548152602001600182018054610dbf90614399565b80601f0160208091040260200160405190810160405280929190818152602001828054610deb90614399565b8015610e385780601f10610e0d57610100808354040283529160200191610e38565b820191906000526020600020905b815481529060010190602001808311610e1b57829003601f168201915b505050505081526020016002820160009054906101000a900473ffffffffffffffffffffffffffffffffffffffff1673ffffffffffffffffffffffffffffffffffffffff1673ffffffffffffffffffffffffffffffffffffffff1681526020016003820160009054906101000a900473ffffffffffffffffffffffffffffffffffffffff1673ffffffffffffffffffffffffffffffffffffffff1673ffffffffffffffffffffffffffffffffffffffff1681526020016004820160009054906101000a900473ffffffffffffffffffffffffffffffffffffffff1673ffffffffffffffffffffffffffffffffffffffff1673ffffffffffffffffffffffffffffffffffffffff16815260200160058201548152602001600682015481526020016007820160009054906101000a900460ff16151515158152505090508060a00151341015610f8557600080fd5b8060e00151610f9357600080fd5b600081606001519050601060009054906101000a900473ffffffffffffffffffffffffffffffffffffffff1673ffffffffffffffffffffffffffffffffffffffff166323b872dd610fe2612744565b838560a001516040518463ffffffff1660e01b815260040161100693929190614672565b6020604051808303816000875af1158015611025573d6000803e3d6000fd5b505050506040513d601f19601f8201168201806040525081019061104991906146be565b611088576040517f08c379a000000000000000000000000000000000000000000000000000000000815260040161107f90614737565b60405180910390fd5b6110938333866128e3565b8160600151826080019073ffffffffffffffffffffffffffffffffffffffff16908173ffffffffffffffffffffffffffffffffffffffff168152505033826060019073ffffffffffffffffffffffffffffffffffffffff16908173ffffffffffffffffffffffffffffffffffffffff168152505060018260c00181815161111a9190614786565b91508181525050816011600086815260200190815260200160002060008201518160000155602082015181600101908051906020019061115b929190613b34565b5060408201518160020160006101000a81548173ffffffffffffffffffffffffffffffffffffffff021916908373ffffffffffffffffffffffffffffffffffffffff16021790555060608201518160030160006101000a81548173ffffffffffffffffffffffffffffffffffffffff021916908373ffffffffffffffffffffffffffffffffffffffff16021790555060808201518160040160006101000a81548173ffffffffffffffffffffffffffffffffffffffff021916908373ffffffffffffffffffffffffffffffffffffffff16021790555060a0820151816005015560c0820151816006015560e08201518160070160006101000a81548160ff02191690831515021790555090505050505050565b600061127983611cbe565b82106112ba576040517f08c379a00000000000000000000000000000000000000000000000000000000081526004016112b19061484e565b60405180910390fd5b600660008473ffffffffffffffffffffffffffffffffffffffff1673ffffffffffffffffffffffffffffffffffffffff168152602001908152602001600020600083815260200190815260200160002054905092915050565b61132e83838360405180602001604052806000815250612370565b505050565b60008061133f83611cbe565b905080915050919050565b6012818051602081018201805184825260208301602085012081835280955050505050506000915054906101000a900460ff1681565b600061138a610c4b565b82106113cb576040517f08c379a00000000000000000000000000000000000000000000000000000000081526004016113c2906148e0565b60405180910390fd5b600882815481106113df576113de614900565b5b90600052602060002001549050919050565b6000600f60009054906101000a900473ffffffffffffffffffffffffffffffffffffffff16905060008173ffffffffffffffffffffffffffffffffffffffff16639948c94361143e612744565b856040518363ffffffff1660e01b815260040161145c92919061492f565b6000604051808303816000875af115801561147b573d6000803e3d6000fd5b505050506040513d6000823e3d601f19601f820116820180604052508101906114a49190614b90565b9050600073ffffffffffffffffffffffffffffffffffffffff163373ffffffffffffffffffffffffffffffffffffffff1614156114e057600080fd5b6114ea600e612b3f565b6114fc6114f7600e612b55565b6126d8565b1561150657600080fd5b600081610120015190506012816040516115209190614c15565b908152602001604051809103902060009054906101000a900460ff161561154657600080fd5b61155933611554600e612b55565b612b63565b61156c611566600e612b55565b82612d31565b600160128260405161157e9190614c15565b908152602001604051809103902060006101000a81548160ff02191690831515021790555060006040518061010001604052806115bb600e612b55565b815260200184610120015181526020013373ffffffffffffffffffffffffffffffffffffffff1681526020013373ffffffffffffffffffffffffffffffffffffffff168152602001600073ffffffffffffffffffffffffffffffffffffffff16815260200160008152602001600081526020016000151581525090508060116000611646600e612b55565b815260200190815260200160002060008201518160000155602082015181600101908051906020019061167a929190613b34565b5060408201518160020160006101000a81548173ffffffffffffffffffffffffffffffffffffffff021916908373ffffffffffffffffffffffffffffffffffffffff16021790555060608201518160030160006101000a81548173ffffffffffffffffffffffffffffffffffffffff021916908373ffffffffffffffffffffffffffffffffffffffff16021790555060808201518160040160006101000a81548173ffffffffffffffffffffffffffffffffffffffff021916908373ffffffffffffffffffffffffffffffffffffffff16021790555060a0820151816005015560c0820151816006015560e08201518160070160006101000a81548160ff0219169083151502179055509050505050505050565b600073ffffffffffffffffffffffffffffffffffffffff163373ffffffffffffffffffffffffffffffffffffffff1614156117c857600080fd5b6117d1826126d8565b6117da57600080fd5b60006117e583611b66565b90503373ffffffffffffffffffffffffffffffffffffffff168173ffffffffffffffffffffffffffffffffffffffff161461181f57600080fd5b600060116000858152602001908152602001600020604051806101000160405290816000820154815260200160018201805461185a90614399565b80601f016020809104026020016040519081016040528092919081815260200182805461188690614399565b80156118d35780601f106118a8576101008083540402835291602001916118d3565b820191906000526020600020905b8154815290600101906020018083116118b657829003601f168201915b505050505081526020016002820160009054906101000a900473ffffffffffffffffffffffffffffffffffffffff1673ffffffffffffffffffffffffffffffffffffffff1673ffffffffffffffffffffffffffffffffffffffff1681526020016003820160009054906101000a900473ffffffffffffffffffffffffffffffffffffffff1673ffffffffffffffffffffffffffffffffffffffff1673ffffffffffffffffffffffffffffffffffffffff1681526020016004820160009054906101000a900473ffffffffffffffffffffffffffffffffffffffff1673ffffffffffffffffffffffffffffffffffffffff1673ffffffffffffffffffffffffffffffffffffffff16815260200160058201548152602001600682015481526020016007820160009054906101000a900460ff1615151515815250509050828160a00181815250508060116000868152602001908152602001600020600082015181600001556020820151816001019080519060200190611a53929190613b34565b5060408201518160020160006101000a81548173ffffffffffffffffffffffffffffffffffffffff021916908373ffffffffffffffffffffffffffffffffffffffff16021790555060608201518160030160006101000a81548173ffffffffffffffffffffffffffffffffffffffff021916908373ffffffffffffffffffffffffffffffffffffffff16021790555060808201518160040160006101000a81548173ffffffffffffffffffffffffffffffffffffffff021916908373ffffffffffffffffffffffffffffffffffffffff16021790555060a0820151816005015560c0820151816006015560e08201518160070160006101000a81548160ff02191690831515021790555090505050505050565b6000806002600084815260200190815260200160002060009054906101000a900473ffffffffffffffffffffffffffffffffffffffff169050600073ffffffffffffffffffffffffffffffffffffffff168173ffffffffffffffffffffffffffffffffffffffff161415611c0f576040517f08c379a0000000000000000000000000000000000000000000000000000000008152600401611c0690614c9e565b60405180910390fd5b80915050919050565b60606000611c25836123d2565b905080915050919050565b600d8054611c3d90614399565b80601f0160208091040260200160405190810160405280929190818152602001828054611c6990614399565b8015611cb65780601f10611c8b57610100808354040283529160200191611cb6565b820191906000526020600020905b815481529060010190602001808311611c9957829003601f168201915b505050505081565b60008073ffffffffffffffffffffffffffffffffffffffff168273ffffffffffffffffffffffffffffffffffffffff161415611d2f576040517f08c379a0000000000000000000000000000000000000000000000000000000008152600401611d2690614d30565b60405180910390fd5b600360008373ffffffffffffffffffffffffffffffffffffffff1673ffffffffffffffffffffffffffffffffffffffff168152602001908152602001600020549050919050565b611d7e612744565b73ffffffffffffffffffffffffffffffffffffffff16611d9c611dfe565b73ffffffffffffffffffffffffffffffffffffffff1614611df2576040517f08c379a0000000000000000000000000000000000000000000000000000000008152600401611de990614d9c565b60405180910390fd5b611dfc6000612da5565b565b6000600b60009054906101000a900473ffffffffffffffffffffffffffffffffffffffff16905090565b606060018054611e3790614399565b80601f0160208091040260200160405190810160405280929190818152602001828054611e6390614399565b8015611eb05780601f10611e8557610100808354040283529160200191611eb0565b820191906000526020600020905b815481529060010190602001808311611e9357829003601f168201915b5050505050905090565b611ec2612744565b73ffffffffffffffffffffffffffffffffffffffff16611ee0611dfe565b73ffffffffffffffffffffffffffffffffffffffff1614611f36576040517f08c379a0000000000000000000000000000000000000000000000000000000008152600401611f2d90614d9c565b60405180910390fd5b611f408282612e6b565b5050565b611f56611f4f612744565b8383612e89565b5050565b600073ffffffffffffffffffffffffffffffffffffffff163373ffffffffffffffffffffffffffffffffffffffff161415611f9457600080fd5b611f9d816126d8565b611fa657600080fd5b6000611fb182611b66565b90503373ffffffffffffffffffffffffffffffffffffffff168173ffffffffffffffffffffffffffffffffffffffff1614611feb57600080fd5b600060116000848152602001908152602001600020604051806101000160405290816000820154815260200160018201805461202690614399565b80601f016020809104026020016040519081016040528092919081815260200182805461205290614399565b801561209f5780601f106120745761010080835404028352916020019161209f565b820191906000526020600020905b81548152906001019060200180831161208257829003601f168201915b505050505081526020016002820160009054906101000a900473ffffffffffffffffffffffffffffffffffffffff1673ffffffffffffffffffffffffffffffffffffffff1673ffffffffffffffffffffffffffffffffffffffff1681526020016003820160009054906101000a900473ffffffffffffffffffffffffffffffffffffffff1673ffffffffffffffffffffffffffffffffffffffff1673ffffffffffffffffffffffffffffffffffffffff1681526020016004820160009054906101000a900473ffffffffffffffffffffffffffffffffffffffff1673ffffffffffffffffffffffffffffffffffffffff1673ffffffffffffffffffffffffffffffffffffffff16815260200160058201548152602001600682015481526020016007820160009054906101000a900460ff16151515158152505090508060e00151156121fb5760008160e001901515908115158152505061220d565b60018160e00190151590811515815250505b8060116000858152602001908152602001600020600082015181600001556020820151816001019080519060200190612247929190613b34565b5060408201518160020160006101000a81548173ffffffffffffffffffffffffffffffffffffffff021916908373ffffffffffffffffffffffffffffffffffffffff16021790555060608201518160030160006101000a81548173ffffffffffffffffffffffffffffffffffffffff021916908373ffffffffffffffffffffffffffffffffffffffff16021790555060808201518160040160006101000a81548173ffffffffffffffffffffffffffffffffffffffff021916908373ffffffffffffffffffffffffffffffffffffffff16021790555060a0820151816005015560c0820151816006015560e08201518160070160006101000a81548160ff021916908315150217905550905050505050565b60008061236583611b66565b905080915050919050565b61238161237b612744565b83612805565b6123c0576040517f08c379a00000000000000000000000000000000000000000000000000000000081526004016123b7906145f3565b60405180910390fd5b6123cc84848484612ff6565b50505050565b60606123dd82613052565b9050919050565b6000806123ef610c4b565b90508091505090565b601060009054906101000a900473ffffffffffffffffffffffffffffffffffffffff1681565b600c805461242b90614399565b80601f016020809104026020016040519081016040528092919081815260200182805461245790614399565b80156124a45780601f10612479576101008083540402835291602001916124a4565b820191906000526020600020905b81548152906001019060200180831161248757829003601f168201915b505050505081565b6000600560008473ffffffffffffffffffffffffffffffffffffffff1673ffffffffffffffffffffffffffffffffffffffff16815260200190815260200160002060008373ffffffffffffffffffffffffffffffffffffffff1673ffffffffffffffffffffffffffffffffffffffff16815260200190815260200160002060009054906101000a900460ff16905092915050565b612548612744565b73ffffffffffffffffffffffffffffffffffffffff16612566611dfe565b73ffffffffffffffffffffffffffffffffffffffff16146125bc576040517f08c379a00000000000000000000000000000000000000000000000000000000081526004016125b390614d9c565b60405180910390fd5b600073ffffffffffffffffffffffffffffffffffffffff168173ffffffffffffffffffffffffffffffffffffffff16141561262c576040517f08c379a000000000000000000000000000000000000000000000000000000000815260040161262390614e2e565b60405180910390fd5b61263581612da5565b50565b600f60009054906101000a900473ffffffffffffffffffffffffffffffffffffffff1681565b60007f780e9d63000000000000000000000000000000000000000000000000000000007bffffffffffffffffffffffffffffffffffffffffffffffffffffffff1916827bffffffffffffffffffffffffffffffffffffffffffffffffffffffff191614806126d157506126d0826131a4565b5b9050919050565b60008073ffffffffffffffffffffffffffffffffffffffff166002600084815260200190815260200160002060009054906101000a900473ffffffffffffffffffffffffffffffffffffffff1673ffffffffffffffffffffffffffffffffffffffff1614159050919050565b600033905090565b816004600083815260200190815260200160002060006101000a81548173ffffffffffffffffffffffffffffffffffffffff021916908373ffffffffffffffffffffffffffffffffffffffff160217905550808273ffffffffffffffffffffffffffffffffffffffff166127bf83611b66565b73ffffffffffffffffffffffffffffffffffffffff167f8c5be1e5ebec7d5bd14f71427d1e84f3dd0314c0f7b2291e5b200ac8c7c3b92560405160405180910390a45050565b6000612810826126d8565b61284f576040517f08c379a000000000000000000000000000000000000000000000000000000000815260040161284690614ec0565b60405180910390fd5b600061285a83611b66565b90508073ffffffffffffffffffffffffffffffffffffffff168473ffffffffffffffffffffffffffffffffffffffff1614806128c957508373ffffffffffffffffffffffffffffffffffffffff166128b18461095a565b73ffffffffffffffffffffffffffffffffffffffff16145b806128da57506128d981856124ac565b5b91505092915050565b8273ffffffffffffffffffffffffffffffffffffffff1661290382611b66565b73ffffffffffffffffffffffffffffffffffffffff1614612959576040517f08c379a000000000000000000000000000000000000000000000000000000000815260040161295090614f52565b60405180910390fd5b600073ffffffffffffffffffffffffffffffffffffffff168273ffffffffffffffffffffffffffffffffffffffff1614156129c9576040517f08c379a00000000000000000000000000000000000000000000000000000000081526004016129c090614fe4565b60405180910390fd5b6129d4838383613286565b6129df60008261274c565b6001600360008573ffffffffffffffffffffffffffffffffffffffff1673ffffffffffffffffffffffffffffffffffffffff1681526020019081526020016000206000828254612a2f9190615004565b925050819055506001600360008473ffffffffffffffffffffffffffffffffffffffff1673ffffffffffffffffffffffffffffffffffffffff1681526020019081526020016000206000828254612a869190614786565b92505081905550816002600083815260200190815260200160002060006101000a81548173ffffffffffffffffffffffffffffffffffffffff021916908373ffffffffffffffffffffffffffffffffffffffff160217905550808273ffffffffffffffffffffffffffffffffffffffff168473ffffffffffffffffffffffffffffffffffffffff167fddf252ad1be2c89b69c2b068fc378daa952ba7f163c4a11628f55a4df523b3ef60405160405180910390a4505050565b6001816000016000828254019250508190555050565b600081600001549050919050565b600073ffffffffffffffffffffffffffffffffffffffff168273ffffffffffffffffffffffffffffffffffffffff161415612bd3576040517f08c379a0000000000000000000000000000000000000000000000000000000008152600401612bca90615084565b60405180910390fd5b612bdc816126d8565b15612c1c576040517f08c379a0000000000000000000000000000000000000000000000000000000008152600401612c13906150f0565b60405180910390fd5b612c2860008383613286565b6001600360008473ffffffffffffffffffffffffffffffffffffffff1673ffffffffffffffffffffffffffffffffffffffff1681526020019081526020016000206000828254612c789190614786565b92505081905550816002600083815260200190815260200160002060006101000a81548173ffffffffffffffffffffffffffffffffffffffff021916908373ffffffffffffffffffffffffffffffffffffffff160217905550808273ffffffffffffffffffffffffffffffffffffffff16600073ffffffffffffffffffffffffffffffffffffffff167fddf252ad1be2c89b69c2b068fc378daa952ba7f163c4a11628f55a4df523b3ef60405160405180910390a45050565b612d3a826126d8565b612d79576040517f08c379a0000000000000000000000000000000000000000000000000000000008152600401612d7090615182565b60405180910390fd5b80600a60008481526020019081526020016000209080519060200190612da0929190613b34565b505050565b6000600b60009054906101000a900473ffffffffffffffffffffffffffffffffffffffff16905081600b60006101000a81548173ffffffffffffffffffffffffffffffffffffffff021916908373ffffffffffffffffffffffffffffffffffffffff1602179055508173ffffffffffffffffffffffffffffffffffffffff168173ffffffffffffffffffffffffffffffffffffffff167f8be0079c531659141344cd1fd0a4f28419497f9722a3daafe3b4186f6b6457e060405160405180910390a35050565b612e85828260405180602001604052806000815250613296565b5050565b8173ffffffffffffffffffffffffffffffffffffffff168373ffffffffffffffffffffffffffffffffffffffff161415612ef8576040517f08c379a0000000000000000000000000000000000000000000000000000000008152600401612eef906151ee565b60405180910390fd5b80600560008573ffffffffffffffffffffffffffffffffffffffff1673ffffffffffffffffffffffffffffffffffffffff16815260200190815260200160002060008473ffffffffffffffffffffffffffffffffffffffff1673ffffffffffffffffffffffffffffffffffffffff16815260200190815260200160002060006101000a81548160ff0219169083151502179055508173ffffffffffffffffffffffffffffffffffffffff168373ffffffffffffffffffffffffffffffffffffffff167f17307eab39ab6107e8899845ad3d59bd9653f200f220920489ca2b5937696c3183604051612fe99190613c8b565b60405180910390a3505050565b6130018484846128e3565b61300d848484846132f1565b61304c576040517f08c379a000000000000000000000000000000000000000000000000000000000815260040161304390615280565b60405180910390fd5b50505050565b606061305d826126d8565b61309c576040517f08c379a000000000000000000000000000000000000000000000000000000000815260040161309390615312565b60405180910390fd5b6000600a600084815260200190815260200160002080546130bc90614399565b80601f01602080910402602001604051908101604052809291908181526020018280546130e890614399565b80156131355780601f1061310a57610100808354040283529160200191613135565b820191906000526020600020905b81548152906001019060200180831161311857829003601f168201915b505050505090506000613146613479565b905060008151141561315c57819250505061319f565b600082511115613191578082604051602001613179929190615332565b6040516020818303038152906040529250505061319f565b61319a84613490565b925050505b919050565b60007f80ac58cd000000000000000000000000000000000000000000000000000000007bffffffffffffffffffffffffffffffffffffffffffffffffffffffff1916827bffffffffffffffffffffffffffffffffffffffffffffffffffffffff1916148061326f57507f5b5e139f000000000000000000000000000000000000000000000000000000007bffffffffffffffffffffffffffffffffffffffffffffffffffffffff1916827bffffffffffffffffffffffffffffffffffffffffffffffffffffffff1916145b8061327f575061327e82613537565b5b9050919050565b6132918383836135a1565b505050565b6132a08383612b63565b6132ad60008484846132f1565b6132ec576040517f08c379a00000000000000000000000000000000000000000000000000000000081526004016132e390615280565b60405180910390fd5b505050565b60006133128473ffffffffffffffffffffffffffffffffffffffff166136b5565b1561346c578373ffffffffffffffffffffffffffffffffffffffff1663150b7a0261333b612744565b8786866040518563ffffffff1660e01b815260040161335d94939291906153ab565b6020604051808303816000875af192505050801561339957506040513d601f19601f82011682018060405250810190613396919061540c565b60015b61341c573d80600081146133c9576040519150601f19603f3d011682016040523d82523d6000602084013e6133ce565b606091505b50600081511415613414576040517f08c379a000000000000000000000000000000000000000000000000000000000815260040161340b90615280565b60405180910390fd5b805181602001fd5b63150b7a0260e01b7bffffffffffffffffffffffffffffffffffffffffffffffffffffffff1916817bffffffffffffffffffffffffffffffffffffffffffffffffffffffff191614915050613471565b600190505b949350505050565b606060405180602001604052806000815250905090565b606061349b826126d8565b6134da576040517f08c379a00000000000000000000000000000000000000000000000000000000081526004016134d1906154ab565b60405180910390fd5b60006134e4613479565b90506000815111613504576040518060200160405280600081525061352f565b8061350e846136c8565b60405160200161351f929190615332565b6040516020818303038152906040525b915050919050565b60007f01ffc9a7000000000000000000000000000000000000000000000000000000007bffffffffffffffffffffffffffffffffffffffffffffffffffffffff1916827bffffffffffffffffffffffffffffffffffffffffffffffffffffffff1916149050919050565b6135ac838383613829565b600073ffffffffffffffffffffffffffffffffffffffff168373ffffffffffffffffffffffffffffffffffffffff1614156135ef576135ea8161382e565b61362e565b8173ffffffffffffffffffffffffffffffffffffffff168373ffffffffffffffffffffffffffffffffffffffff161461362d5761362c8382613877565b5b5b600073ffffffffffffffffffffffffffffffffffffffff168273ffffffffffffffffffffffffffffffffffffffff1614156136715761366c816139e4565b6136b0565b8273ffffffffffffffffffffffffffffffffffffffff168273ffffffffffffffffffffffffffffffffffffffff16146136af576136ae8282613ab5565b5b5b505050565b600080823b905060008111915050919050565b60606000821415613710576040518060400160405280600181526020017f30000000000000000000000000000000000000000000000000000000000000008152509050613824565b600082905060005b6000821461374257808061372b906154cb565b915050600a8261373b9190615543565b9150613718565b60008167ffffffffffffffff81111561375e5761375d613fe6565b5b6040519080825280601f01601f1916602001820160405280156137905781602001600182028036833780820191505090505b5090505b6000851461381d576001826137a99190615004565b9150600a856137b89190615574565b60306137c49190614786565b60f81b8183815181106137da576137d9614900565b5b60200101907effffffffffffffffffffffffffffffffffffffffffffffffffffffffffffff1916908160001a905350600a856138169190615543565b9450613794565b8093505050505b919050565b505050565b6008805490506009600083815260200190815260200160002081905550600881908060018154018082558091505060019003906000526020600020016000909190919091505550565b6000600161388484611cbe565b61388e9190615004565b9050600060076000848152602001908152602001600020549050818114613973576000600660008673ffffffffffffffffffffffffffffffffffffffff1673ffffffffffffffffffffffffffffffffffffffff168152602001908152602001600020600084815260200190815260200160002054905080600660008773ffffffffffffffffffffffffffffffffffffffff1673ffffffffffffffffffffffffffffffffffffffff168152602001908152602001600020600084815260200190815260200160002081905550816007600083815260200190815260200160002081905550505b6007600084815260200190815260200160002060009055600660008573ffffffffffffffffffffffffffffffffffffffff1673ffffffffffffffffffffffffffffffffffffffff16815260200190815260200160002060008381526020019081526020016000206000905550505050565b600060016008805490506139f89190615004565b9050600060096000848152602001908152602001600020549050600060088381548110613a2857613a27614900565b5b906000526020600020015490508060088381548110613a4a57613a49614900565b5b906000526020600020018190555081600960008381526020019081526020016000208190555060096000858152602001908152602001600020600090556008805480613a9957613a986155a5565b5b6001900381819060005260206000200160009055905550505050565b6000613ac083611cbe565b905081600660008573ffffffffffffffffffffffffffffffffffffffff1673ffffffffffffffffffffffffffffffffffffffff168152602001908152602001600020600083815260200190815260200160002081905550806007600084815260200190815260200160002081905550505050565b828054613b4090614399565b90600052602060002090601f016020900481019282613b625760008555613ba9565b82601f10613b7b57805160ff1916838001178555613ba9565b82800160010185558215613ba9579182015b82811115613ba8578251825591602001919060010190613b8d565b5b509050613bb69190613bba565b5090565b5b80821115613bd3576000816000905550600101613bbb565b5090565b6000604051905090565b600080fd5b600080fd5b60007fffffffff0000000000000000000000000000000000000000000000000000000082169050919050565b613c2081613beb565b8114613c2b57600080fd5b50565b600081359050613c3d81613c17565b92915050565b600060208284031215613c5957613c58613be1565b5b6000613c6784828501613c2e565b91505092915050565b60008115159050919050565b613c8581613c70565b82525050565b6000602082019050613ca06000830184613c7c565b92915050565b600081519050919050565b600082825260208201905092915050565b60005b83811015613ce0578082015181840152602081019050613cc5565b83811115613cef576000848401525b50505050565b6000601f19601f8301169050919050565b6000613d1182613ca6565b613d1b8185613cb1565b9350613d2b818560208601613cc2565b613d3481613cf5565b840191505092915050565b60006020820190508181036000830152613d598184613d06565b905092915050565b6000819050919050565b613d7481613d61565b8114613d7f57600080fd5b50565b600081359050613d9181613d6b565b92915050565b600060208284031215613dad57613dac613be1565b5b6000613dbb84828501613d82565b91505092915050565b600073ffffffffffffffffffffffffffffffffffffffff82169050919050565b6000613def82613dc4565b9050919050565b613dff81613de4565b82525050565b6000602082019050613e1a6000830184613df6565b92915050565b613e2981613de4565b8114613e3457600080fd5b50565b600081359050613e4681613e20565b92915050565b60008060408385031215613e6357613e62613be1565b5b6000613e7185828601613e37565b9250506020613e8285828601613d82565b9150509250929050565b613e9581613d61565b82525050565b6000613ea682613dc4565b9050919050565b613eb681613e9b565b82525050565b600061010082019050613ed2600083018b613e8c565b8181036020830152613ee4818a613d06565b9050613ef36040830189613ead565b613f006060830188613ead565b613f0d6080830187613ead565b613f1a60a0830186613e8c565b613f2760c0830185613e8c565b613f3460e0830184613c7c565b9998505050505050505050565b6000602082019050613f566000830184613e8c565b92915050565b600080600060608486031215613f7557613f74613be1565b5b6000613f8386828701613e37565b9350506020613f9486828701613e37565b9250506040613fa586828701613d82565b9150509250925092565b600060208284031215613fc557613fc4613be1565b5b6000613fd384828501613e37565b91505092915050565b600080fd5b600080fd5b7f4e487b7100000000000000000000000000000000000000000000000000000000600052604160045260246000fd5b61401e82613cf5565b810181811067ffffffffffffffff8211171561403d5761403c613fe6565b5b80604052505050565b6000614050613bd7565b905061405c8282614015565b919050565b600067ffffffffffffffff82111561407c5761407b613fe6565b5b61408582613cf5565b9050602081019050919050565b82818337600083830152505050565b60006140b46140af84614061565b614046565b9050828152602081018484840111156140d0576140cf613fe1565b5b6140db848285614092565b509392505050565b600082601f8301126140f8576140f7613fdc565b5b81356141088482602086016140a1565b91505092915050565b60006020828403121561412757614126613be1565b5b600082013567ffffffffffffffff81111561414557614144613be6565b5b614151848285016140e3565b91505092915050565b6000806040838503121561417157614170613be1565b5b600061417f85828601613d82565b925050602061419085828601613d82565b9150509250929050565b6141a381613c70565b81146141ae57600080fd5b50565b6000813590506141c08161419a565b92915050565b600080604083850312156141dd576141dc613be1565b5b60006141eb85828601613e37565b92505060206141fc858286016141b1565b9150509250929050565b600067ffffffffffffffff82111561422157614220613fe6565b5b61422a82613cf5565b9050602081019050919050565b600061424a61424584614206565b614046565b90508281526020810184848401111561426657614265613fe1565b5b614271848285614092565b509392505050565b600082601f83011261428e5761428d613fdc565b5b813561429e848260208601614237565b91505092915050565b600080600080608085870312156142c1576142c0613be1565b5b60006142cf87828801613e37565b94505060206142e087828801613e37565b93505060406142f187828801613d82565b925050606085013567ffffffffffffffff81111561431257614311613be6565b5b61431e87828801614279565b91505092959194509250565b6000806040838503121561434157614340613be1565b5b600061434f85828601613e37565b925050602061436085828601613e37565b9150509250929050565b7f4e487b7100000000000000000000000000000000000000000000000000000000600052602260045260246000fd5b600060028204905060018216806143b157607f821691505b602082108114156143c5576143c461436a565b5b50919050565b7f4552433732313a20617070726f76656420717565727920666f72206e6f6e657860008201527f697374656e7420746f6b656e0000000000000000000000000000000000000000602082015250565b6000614427602c83613cb1565b9150614432826143cb565b604082019050919050565b600060208201905081810360008301526144568161441a565b9050919050565b7f4552433732313a20617070726f76616c20746f2063757272656e74206f776e6560008201527f7200000000000000000000000000000000000000000000000000000000000000602082015250565b60006144b9602183613cb1565b91506144c48261445d565b604082019050919050565b600060208201905081810360008301526144e8816144ac565b9050919050565b7f4552433732313a20617070726f76652063616c6c6572206973206e6f74206f7760008201527f6e6572206e6f7220617070726f76656420666f7220616c6c0000000000000000602082015250565b600061454b603883613cb1565b9150614556826144ef565b604082019050919050565b6000602082019050818103600083015261457a8161453e565b9050919050565b7f4552433732313a207472616e736665722063616c6c6572206973206e6f74206f60008201527f776e6572206e6f7220617070726f766564000000000000000000000000000000602082015250565b60006145dd603183613cb1565b91506145e882614581565b604082019050919050565b6000602082019050818103600083015261460c816145d0565b9050919050565b6000819050919050565b600061463861463361462e84613dc4565b614613565b613dc4565b9050919050565b600061464a8261461d565b9050919050565b600061465c8261463f565b9050919050565b61466c81614651565b82525050565b60006060820190506146876000830186613df6565b6146946020830185614663565b6146a16040830184613e8c565b949350505050565b6000815190506146b88161419a565b92915050565b6000602082840312156146d4576146d3613be1565b5b60006146e2848285016146a9565b91505092915050565b7f4572726f72207472616e7366657272696e6720746f6b656e7300000000000000600082015250565b6000614721601983613cb1565b915061472c826146eb565b602082019050919050565b6000602082019050818103600083015261475081614714565b9050919050565b7f4e487b7100000000000000000000000000000000000000000000000000000000600052601160045260246000fd5b600061479182613d61565b915061479c83613d61565b9250827fffffffffffffffffffffffffffffffffffffffffffffffffffffffffffffffff038211156147d1576147d0614757565b5b828201905092915050565b7f455243373231456e756d657261626c653a206f776e657220696e646578206f7560008201527f74206f6620626f756e6473000000000000000000000000000000000000000000602082015250565b6000614838602b83613cb1565b9150614843826147dc565b604082019050919050565b600060208201905081810360008301526148678161482b565b9050919050565b7f455243373231456e756d657261626c653a20676c6f62616c20696e646578206f60008201527f7574206f6620626f756e64730000000000000000000000000000000000000000602082015250565b60006148ca602c83613cb1565b91506148d58261486e565b604082019050919050565b600060208201905081810360008301526148f9816148bd565b9050919050565b7f4e487b7100000000000000000000000000000000000000000000000000000000600052603260045260246000fd5b60006040820190506149446000830185613df6565b6149516020830184613e8c565b9392505050565b600080fd5b600080fd5b60008151905061497181613d6b565b92915050565b600061498a61498584614061565b614046565b9050828152602081018484840111156149a6576149a5613fe1565b5b6149b1848285613cc2565b509392505050565b600082601f8301126149ce576149cd613fdc565b5b81516149de848260208601614977565b91505092915050565b6149f081613e9b565b81146149fb57600080fd5b50565b600081519050614a0d816149e7565b92915050565b600060ff82169050919050565b614a2981614a13565b8114614a3457600080fd5b50565b600081519050614a4681614a20565b92915050565b60006101608284031215614a6357614a62614958565b5b614a6e610160614046565b90506000614a7e84828501614962565b600083015250602082015167ffffffffffffffff811115614aa257614aa161495d565b5b614aae848285016149b9565b6020830152506040614ac2848285016149fe565b6040830152506060614ad6848285016149fe565b6060830152506080614aea848285016149fe565b60808301525060a0614afe84828501614962565b60a08301525060c0614b1284828501614962565b60c08301525060e0614b26848285016146a9565b60e083015250610100614b3b848285016146a9565b6101008301525061012082015167ffffffffffffffff811115614b6157614b6061495d565b5b614b6d848285016149b9565b61012083015250610140614b8384828501614a37565b6101408301525092915050565b600060208284031215614ba657614ba5613be1565b5b600082015167ffffffffffffffff811115614bc457614bc3613be6565b5b614bd084828501614a4c565b91505092915050565b600081905092915050565b6000614bef82613ca6565b614bf98185614bd9565b9350614c09818560208601613cc2565b80840191505092915050565b6000614c218284614be4565b915081905092915050565b7f4552433732313a206f776e657220717565727920666f72206e6f6e657869737460008201527f656e7420746f6b656e0000000000000000000000000000000000000000000000602082015250565b6000614c88602983613cb1565b9150614c9382614c2c565b604082019050919050565b60006020820190508181036000830152614cb781614c7b565b9050919050565b7f4552433732313a2062616c616e636520717565727920666f7220746865207a6560008201527f726f206164647265737300000000000000000000000000000000000000000000602082015250565b6000614d1a602a83613cb1565b9150614d2582614cbe565b604082019050919050565b60006020820190508181036000830152614d4981614d0d565b9050919050565b7f4f776e61626c653a2063616c6c6572206973206e6f7420746865206f776e6572600082015250565b6000614d86602083613cb1565b9150614d9182614d50565b602082019050919050565b60006020820190508181036000830152614db581614d79565b9050919050565b7f4f776e61626c653a206e6577206f776e657220697320746865207a65726f206160008201527f6464726573730000000000000000000000000000000000000000000000000000602082015250565b6000614e18602683613cb1565b9150614e2382614dbc565b604082019050919050565b60006020820190508181036000830152614e4781614e0b565b9050919050565b7f4552433732313a206f70657261746f7220717565727920666f72206e6f6e657860008201527f697374656e7420746f6b656e0000000000000000000000000000000000000000602082015250565b6000614eaa602c83613cb1565b9150614eb582614e4e565b604082019050919050565b60006020820190508181036000830152614ed981614e9d565b9050919050565b7f4552433732313a207472616e73666572206f6620746f6b656e2074686174206960008201527f73206e6f74206f776e0000000000000000000000000000000000000000000000602082015250565b6000614f3c602983613cb1565b9150614f4782614ee0565b604082019050919050565b60006020820190508181036000830152614f6b81614f2f565b9050919050565b7f4552433732313a207472616e7366657220746f20746865207a65726f2061646460008201527f7265737300000000000000000000000000000000000000000000000000000000602082015250565b6000614fce602483613cb1565b9150614fd982614f72565b604082019050919050565b60006020820190508181036000830152614ffd81614fc1565b9050919050565b600061500f82613d61565b915061501a83613d61565b92508282101561502d5761502c614757565b5b828203905092915050565b7f4552433732313a206d696e7420746f20746865207a65726f2061646472657373600082015250565b600061506e602083613cb1565b915061507982615038565b602082019050919050565b6000602082019050818103600083015261509d81615061565b9050919050565b7f4552433732313a20746f6b656e20616c7265616479206d696e74656400000000600082015250565b60006150da601c83613cb1565b91506150e5826150a4565b602082019050919050565b60006020820190508181036000830152615109816150cd565b9050919050565b7f45524337323155524953746f726167653a2055524920736574206f66206e6f6e60008201527f6578697374656e7420746f6b656e000000000000000000000000000000000000602082015250565b600061516c602e83613cb1565b915061517782615110565b604082019050919050565b6000602082019050818103600083015261519b8161515f565b9050919050565b7f4552433732313a20617070726f766520746f2063616c6c657200000000000000600082015250565b60006151d8601983613cb1565b91506151e3826151a2565b602082019050919050565b60006020820190508181036000830152615207816151cb565b9050919050565b7f4552433732313a207472616e7366657220746f206e6f6e20455243373231526560008201527f63656976657220696d706c656d656e7465720000000000000000000000000000602082015250565b600061526a603283613cb1565b91506152758261520e565b604082019050919050565b600060208201905081810360008301526152998161525d565b9050919050565b7f45524337323155524953746f726167653a2055524920717565727920666f722060008201527f6e6f6e6578697374656e7420746f6b656e000000000000000000000000000000602082015250565b60006152fc603183613cb1565b9150615307826152a0565b604082019050919050565b6000602082019050818103600083015261532b816152ef565b9050919050565b600061533e8285614be4565b915061534a8284614be4565b91508190509392505050565b600081519050919050565b600082825260208201905092915050565b600061537d82615356565b6153878185615361565b9350615397818560208601613cc2565b6153a081613cf5565b840191505092915050565b60006080820190506153c06000830187613df6565b6153cd6020830186613df6565b6153da6040830185613e8c565b81810360608301526153ec8184615372565b905095945050505050565b60008151905061540681613c17565b92915050565b60006020828403121561542257615421613be1565b5b6000615430848285016153f7565b91505092915050565b7f4552433732314d657461646174613a2055524920717565727920666f72206e6f60008201527f6e6578697374656e7420746f6b656e0000000000000000000000000000000000602082015250565b6000615495602f83613cb1565b91506154a082615439565b604082019050919050565b600060208201905081810360008301526154c481615488565b9050919050565b60006154d682613d61565b91507fffffffffffffffffffffffffffffffffffffffffffffffffffffffffffffffff82141561550957615508614757565b5b600182019050919050565b7f4e487b7100000000000000000000000000000000000000000000000000000000600052601260045260246000fd5b600061554e82613d61565b915061555983613d61565b92508261556957615568615514565b5b828204905092915050565b600061557f82613d61565b915061558a83613d61565b92508261559a57615599615514565b5b828206905092915050565b7f4e487b7100000000000000000000000000000000000000000000000000000000600052603160045260246000fdfea2646970667358221220829c97127e7e89285a04f7ebde73a0bee464a3fb2c1a575aba541b59768d82da64736f6c634300080b003350697261746573204b696e672043686172616374657220436f6c6c656374696f6e",
  "immutableReferences": {},
  "source": "// SPDX-License-Identifier: MIT\npragma solidity ^0.8.0;\npragma abicoder v2;\nimport '@openzeppelin/contracts/access/Ownable.sol';\nimport \"@openzeppelin/contracts/token/ERC721/ERC721.sol\";\nimport \"@openzeppelin/contracts/token/ERC721/extensions/ERC721URIStorage.sol\";\nimport \"@openzeppelin/contracts/token/ERC721/extensions/ERC721Enumerable.sol\";\nimport \"@openzeppelin/contracts/utils/Counters.sol\";\nimport '@openzeppelin/contracts/utils/math/SafeMath.sol';\nimport \"./IPiratesKingBase.sol\";\nimport \"./IPiratesKingChest.sol\";\nimport './IBEP20.sol';\n\n\n// PiratesKing Characters smart contract inherits ERC721 interface\ncontract PiratesKingCharacter is ERC721, ERC721Enumerable, ERC721URIStorage , Ownable, IPiratesKingBase {\n\n    using SafeMath for uint256;\n    using Counters for Counters.Counter;\n    // this contract's token collection name\n    string public collectionName;\n    // this contract's token symbol\n    string public collectionNameSymbol;\n    // total number of pirates king characters minted\n    Counters.Counter private characterCounter;\n    address public chestContract;\n    address public pktContract;\n\n    event LibContractAddressUpdate(address newAddress, bytes32 contractName);\n\n    // define pirates king character struct\n    struct PKCharacter {\n        uint256 tokenId;\n        string tokenURI;\n        address payable mintedBy;\n        address payable currentOwner;\n        address payable previousOwner;\n        uint256 price;\n        uint256 numberOfTransfers;\n        bool forSale;\n    }\n\n    mapping(uint256 => PKCharacter) public allCharacters;\n    mapping(string => bool) public tokenURIExists;\n\n    // initialize contract while deployment with contract's collection name and token\n    constructor(address _chestAddress, address _pktContract) ERC721(\"Pirates King Character Collection\", \"PKCH\") {\n        collectionName = name();\n        collectionNameSymbol = symbol();\n        _setChestContractAddress(_chestAddress);\n        _setPKTContractAddress(_pktContract);\n    }\n\n    function _beforeTokenTransfer(address from, address to, uint256 tokenId)\n    internal\n    override(ERC721, ERC721Enumerable)\n    {\n        super._beforeTokenTransfer(from, to, tokenId);\n    }\n\n    function _burn(uint256 tokenId) internal override(ERC721, ERC721URIStorage) {\n        super._burn(tokenId);\n    }\n\n    function tokenURI(uint256 tokenId)\n    public\n    view\n    override(ERC721, ERC721URIStorage)\n    returns (string memory)\n    {\n        return super.tokenURI(tokenId);\n    }\n\n    function supportsInterface(bytes4 interfaceId)\n    public\n    view\n    override(ERC721, ERC721Enumerable)\n    returns (bool)\n    {\n        return super.supportsInterface(interfaceId);\n    }\n\n    function safeMint(address to, uint256 tokenId) public onlyOwner {\n        _safeMint(to, tokenId);\n    }\n\n\n\n    /*\n*  @Update pkt contract address\n  */\n    function _setPKTContractAddress(address _contract)\n    private\n    {\n        pktContract = _contract;\n        emit LibContractAddressUpdate(_contract, 'pkt');\n    }\n\n    /*\n*  @Update planet contract address\n  */\n    function _setChestContractAddress(address _contract)\n    private\n    {\n        chestContract = _contract;\n        emit LibContractAddressUpdate(_contract, 'chest');\n    }\n\n    function openChest(uint256 _tokenId) external\n    {\n\n        IPiratesKingChest ChestContract = IPiratesKingChest(chestContract);\n        PKChest memory chest = ChestContract.openChest(_msgSender(), _tokenId);\n        require(msg.sender != address(0));\n        // increment counter\n        characterCounter.increment();\n        // check if a token exists with the above token id => incremented counter\n        require(!_exists(characterCounter.current()));\n\n        string memory _tokenURI = chest.data;\n        // check if the token URI already exists or not\n        require(!tokenURIExists[_tokenURI]);\n        // check if the token name already exists or not\n\n        // mint the token\n        _mint(msg.sender, characterCounter.current());\n        // set token URI (bind token id with the passed in token URI)\n        _setTokenURI(characterCounter.current(), _tokenURI);\n        // make passed token URI as exists\n        tokenURIExists[_tokenURI] = true;\n        // make token name passed as exists\n\n        // creat a new pirates king character (struct) and pass in new values\n        PKCharacter memory newCharacter = PKCharacter(\n            characterCounter.current(),\n            chest.data,\n            payable(msg.sender),\n            payable(msg.sender),\n            payable(address(0)),\n            0,\n            0,\n            false);\n        // add the token id and it's pirates king character to all pirates king characters mapping\n        allCharacters[characterCounter.current()] = newCharacter;\n\n    }\n\n    // get owner of the token\n    function getTokenOwner(uint256 _tokenId)\n    public\n    view\n    returns(address)\n    {\n        address _tokenOwner = ownerOf(_tokenId);\n        return _tokenOwner;\n    }\n\n    // get metadata of the token\n    function getTokenMetaData(uint _tokenId)\n    public\n    view\n    returns(string memory)\n    {\n        string memory tokenMetaData = tokenURI(_tokenId);\n        return tokenMetaData;\n    }\n\n    // get total number of tokens minted so far\n    function getNumberOfTokensMinted()\n    public\n    view\n    returns(uint256)\n    {\n        uint256 totalNumberOfTokensMinted = totalSupply();\n        return totalNumberOfTokensMinted;\n    }\n\n    // get total number of tokens owned by an address\n    function getTotalNumberOfTokensOwnedByAnAddress(address _owner)\n    public\n    view\n    returns(uint256)\n    {\n        uint256 totalNumberOfTokensOwned = balanceOf(_owner);\n        return totalNumberOfTokensOwned;\n    }\n\n    // check if the token already exists\n    function getTokenExists(uint256 _tokenId)\n    public\n    view\n    returns(bool)\n    {\n        bool tokenExists = _exists(_tokenId);\n        return tokenExists;\n    }\n\n    // by a token by passing in the token's id\n    function buyToken(uint256 _tokenId) public payable\n    {\n        // check if the function caller is not an zero account address\n        require(msg.sender != address(0));\n        // check if the token id of the token being bought exists or not\n        require(_exists(_tokenId));\n        // get the token's owner\n        address tokenOwner = ownerOf(_tokenId);\n        // token's owner should not be an zero address account\n        require(tokenOwner != address(0));\n        // the one who wants to buy the token should not be the token's owner\n        require(tokenOwner != msg.sender);\n        // get that token from all pirates king characters mapping and create a memory of it defined as (struct => PKCharacter)\n        PKCharacter memory character = allCharacters[_tokenId];\n        // price sent in to buy should be equal to or more than the token's price\n        require(msg.value >= character.price);\n        // token should be for sale\n        require(character.forSale);\n        // get owner of the token\n        address payable sendTo = character.currentOwner;\n        // send token's worth of ethers to the owner\n        if (!IBEP20(pktContract).transferFrom(\n                _msgSender(),\n                sendTo,\n                character.price\n        )) {\n            revert(\"Error transferring tokens\");\n        }\n        // transfer the token from owner to the caller of the function (buyer)\n        _transfer(tokenOwner, msg.sender, _tokenId);\n        // update the token's previous owner\n        character.previousOwner = character.currentOwner;\n        // update the token's current owner\n        character.currentOwner = payable(msg.sender);\n        // update the how many times this token was transfered\n        character.numberOfTransfers += 1;\n        // set and update that token in the mapping\n        allCharacters[_tokenId] = character;\n    }\n\n    function changeTokenPrice(uint256 _tokenId, uint256 _newPrice)\n    public\n    {\n        // require caller of the function is not an empty address\n        require(msg.sender != address(0));\n        // require that token should exist\n        require(_exists(_tokenId));\n        // get the token's owner\n        address tokenOwner = ownerOf(_tokenId);\n        // check that token's owner should be equal to the caller of the function\n        require(tokenOwner == msg.sender);\n        // get that token from all pirates king characters mapping and create a memory of it defined as (struct => PKCharacter)\n        PKCharacter memory character = allCharacters[_tokenId];\n        // update token's price with new price\n        character.price = _newPrice;\n        // set and update that token in the mapping\n        allCharacters[_tokenId] = character;\n    }\n\n    // switch between set for sale and set not for sale\n    function toggleForSale(uint256 _tokenId)\n    public\n    {\n        // require caller of the function is not an empty address\n        require(msg.sender != address(0));\n        // require that token should exist\n        require(_exists(_tokenId));\n        // get the token's owner\n        address tokenOwner = ownerOf(_tokenId);\n        // check that token's owner should be equal to the caller of the function\n        require(tokenOwner == msg.sender);\n        // get that token from all pirates king characters mapping and create a memory of it defined as (struct => PKCharacter)\n        PKCharacter memory character = allCharacters[_tokenId];\n        // if token's forSale is false make it true and vice versa\n        if(character.forSale) {\n            character.forSale = false;\n        } else {\n            character.forSale = true;\n        }\n        // set and update that token in the mapping\n        allCharacters[_tokenId] = character;\n    }\n\n}\n",
  "sourcePath": "/Users/macbook/Desktop/tacrypto/contracts/PiratesKingCharacter.sol",
  "compiler": {
    "name": "solc",
    "version": "0.8.11+commit.d7f03943.Emscripten.clang"
  },
  "schemaVersion": "3.4.4",
  "updatedAt": "2022-01-21T08:48:44.871Z",
  "devdoc": {
    "kind": "dev",
    "methods": {
      "approve(address,uint256)": {
        "details": "See {IERC721-approve}."
      },
      "balanceOf(address)": {
        "details": "See {IERC721-balanceOf}."
      },
      "getApproved(uint256)": {
        "details": "See {IERC721-getApproved}."
      },
      "isApprovedForAll(address,address)": {
        "details": "See {IERC721-isApprovedForAll}."
      },
      "name()": {
        "details": "See {IERC721Metadata-name}."
      },
      "owner()": {
        "details": "Returns the address of the current owner."
      },
      "ownerOf(uint256)": {
        "details": "See {IERC721-ownerOf}."
      },
      "renounceOwnership()": {
        "details": "Leaves the contract without owner. It will not be possible to call `onlyOwner` functions anymore. Can only be called by the current owner. NOTE: Renouncing ownership will leave the contract without an owner, thereby removing any functionality that is only available to the owner."
      },
      "safeTransferFrom(address,address,uint256)": {
        "details": "See {IERC721-safeTransferFrom}."
      },
      "safeTransferFrom(address,address,uint256,bytes)": {
        "details": "See {IERC721-safeTransferFrom}."
      },
      "setApprovalForAll(address,bool)": {
        "details": "See {IERC721-setApprovalForAll}."
      },
      "symbol()": {
        "details": "See {IERC721Metadata-symbol}."
      },
      "tokenByIndex(uint256)": {
        "details": "See {IERC721Enumerable-tokenByIndex}."
      },
      "tokenOfOwnerByIndex(address,uint256)": {
        "details": "See {IERC721Enumerable-tokenOfOwnerByIndex}."
      },
      "totalSupply()": {
        "details": "See {IERC721Enumerable-totalSupply}."
      },
      "transferFrom(address,address,uint256)": {
        "details": "See {IERC721-transferFrom}."
      },
      "transferOwnership(address)": {
        "details": "Transfers ownership of the contract to a new account (`newOwner`). Can only be called by the current owner."
      }
    },
    "version": 1
  },
  "userdoc": {
    "kind": "user",
    "methods": {},
    "version": 1
  }
}