{
  "contractName": "StakingRewards",
  "abi": [
    {
      "inputs": [
        {
          "internalType": "address",
          "name": "_rewardsToken",
          "type": "address"
        },
        {
          "internalType": "address",
          "name": "_stakingToken",
          "type": "address"
        }
      ],
      "stateMutability": "nonpayable",
      "type": "constructor"
    },
    {
      "anonymous": false,
      "inputs": [
        {
          "indexed": false,
          "internalType": "uint256",
          "name": "value",
          "type": "uint256"
        }
      ],
      "name": "APYUpdated",
      "type": "event"
    },
    {
      "anonymous": false,
      "inputs": [
        {
          "indexed": false,
          "internalType": "uint256",
          "name": "value",
          "type": "uint256"
        }
      ],
      "name": "LockDurationUpdated",
      "type": "event"
    },
    {
      "anonymous": false,
      "inputs": [
        {
          "indexed": false,
          "internalType": "uint256",
          "name": "amount",
          "type": "uint256"
        }
      ],
      "name": "MaxTokenStakeUpdated",
      "type": "event"
    },
    {
      "anonymous": false,
      "inputs": [
        {
          "indexed": false,
          "internalType": "uint256",
          "name": "amount",
          "type": "uint256"
        }
      ],
      "name": "MinTokenStakeUpdated",
      "type": "event"
    },
    {
      "anonymous": false,
      "inputs": [
        {
          "indexed": true,
          "internalType": "address",
          "name": "previousOwner",
          "type": "address"
        },
        {
          "indexed": true,
          "internalType": "address",
          "name": "newOwner",
          "type": "address"
        }
      ],
      "name": "OwnershipTransferred",
      "type": "event"
    },
    {
      "anonymous": false,
      "inputs": [
        {
          "indexed": false,
          "internalType": "address",
          "name": "token",
          "type": "address"
        },
        {
          "indexed": false,
          "internalType": "uint256",
          "name": "amount",
          "type": "uint256"
        }
      ],
      "name": "Recovered",
      "type": "event"
    },
    {
      "anonymous": false,
      "inputs": [
        {
          "indexed": false,
          "internalType": "uint256",
          "name": "reward",
          "type": "uint256"
        }
      ],
      "name": "RewardAdded",
      "type": "event"
    },
    {
      "anonymous": false,
      "inputs": [
        {
          "indexed": true,
          "internalType": "address",
          "name": "user",
          "type": "address"
        },
        {
          "indexed": false,
          "internalType": "uint256",
          "name": "reward",
          "type": "uint256"
        }
      ],
      "name": "RewardPaid",
      "type": "event"
    },
    {
      "anonymous": false,
      "inputs": [
        {
          "indexed": true,
          "internalType": "address",
          "name": "user",
          "type": "address"
        },
        {
          "indexed": false,
          "internalType": "uint256",
          "name": "amount",
          "type": "uint256"
        }
      ],
      "name": "Staked",
      "type": "event"
    },
    {
      "anonymous": false,
      "inputs": [
        {
          "indexed": true,
          "internalType": "address",
          "name": "user",
          "type": "address"
        },
        {
          "indexed": false,
          "internalType": "uint256",
          "name": "amount",
          "type": "uint256"
        }
      ],
      "name": "Withdrawn",
      "type": "event"
    },
    {
      "inputs": [],
      "name": "APY",
      "outputs": [
        {
          "internalType": "uint256",
          "name": "",
          "type": "uint256"
        }
      ],
      "stateMutability": "view",
      "type": "function"
    },
    {
      "inputs": [],
      "name": "lockDuration",
      "outputs": [
        {
          "internalType": "uint256",
          "name": "",
          "type": "uint256"
        }
      ],
      "stateMutability": "view",
      "type": "function"
    },
    {
      "inputs": [],
      "name": "owner",
      "outputs": [
        {
          "internalType": "address",
          "name": "",
          "type": "address"
        }
      ],
      "stateMutability": "view",
      "type": "function"
    },
    {
      "inputs": [],
      "name": "renounceOwnership",
      "outputs": [],
      "stateMutability": "nonpayable",
      "type": "function"
    },
    {
      "inputs": [],
      "name": "rewardsToken",
      "outputs": [
        {
          "internalType": "contract IBEP20",
          "name": "",
          "type": "address"
        }
      ],
      "stateMutability": "view",
      "type": "function"
    },
    {
      "inputs": [],
      "name": "stakingToken",
      "outputs": [
        {
          "internalType": "contract IBEP20",
          "name": "",
          "type": "address"
        }
      ],
      "stateMutability": "view",
      "type": "function"
    },
    {
      "inputs": [
        {
          "internalType": "address",
          "name": "newOwner",
          "type": "address"
        }
      ],
      "name": "transferOwnership",
      "outputs": [],
      "stateMutability": "nonpayable",
      "type": "function"
    },
    {
      "inputs": [],
      "name": "totalSupply",
      "outputs": [
        {
          "internalType": "uint256",
          "name": "",
          "type": "uint256"
        }
      ],
      "stateMutability": "view",
      "type": "function"
    },
    {
      "inputs": [
        {
          "internalType": "uint256",
          "name": "stakingId",
          "type": "uint256"
        }
      ],
      "name": "balanceOf",
      "outputs": [
        {
          "internalType": "uint256",
          "name": "",
          "type": "uint256"
        }
      ],
      "stateMutability": "view",
      "type": "function"
    },
    {
      "inputs": [
        {
          "internalType": "address",
          "name": "account",
          "type": "address"
        }
      ],
      "name": "totalBalanceOf",
      "outputs": [
        {
          "internalType": "uint256",
          "name": "",
          "type": "uint256"
        }
      ],
      "stateMutability": "view",
      "type": "function"
    },
    {
      "inputs": [
        {
          "internalType": "uint256",
          "name": "stakingId",
          "type": "uint256"
        }
      ],
      "name": "userStakingTime",
      "outputs": [
        {
          "internalType": "uint256",
          "name": "",
          "type": "uint256"
        }
      ],
      "stateMutability": "view",
      "type": "function"
    },
    {
      "inputs": [
        {
          "internalType": "address",
          "name": "account",
          "type": "address"
        }
      ],
      "name": "totalStakingOfUser",
      "outputs": [
        {
          "internalType": "uint256[]",
          "name": "",
          "type": "uint256[]"
        }
      ],
      "stateMutability": "view",
      "type": "function"
    },
    {
      "inputs": [
        {
          "internalType": "uint256",
          "name": "value",
          "type": "uint256"
        }
      ],
      "name": "setMinTokenStake",
      "outputs": [],
      "stateMutability": "nonpayable",
      "type": "function"
    },
    {
      "inputs": [
        {
          "internalType": "uint256",
          "name": "value",
          "type": "uint256"
        }
      ],
      "name": "setMaxTokenStake",
      "outputs": [],
      "stateMutability": "nonpayable",
      "type": "function"
    },
    {
      "inputs": [
        {
          "internalType": "uint256",
          "name": "value",
          "type": "uint256"
        }
      ],
      "name": "setAPY",
      "outputs": [],
      "stateMutability": "nonpayable",
      "type": "function"
    },
    {
      "inputs": [
        {
          "internalType": "uint256",
          "name": "value",
          "type": "uint256"
        }
      ],
      "name": "setLockDuration",
      "outputs": [],
      "stateMutability": "nonpayable",
      "type": "function"
    },
    {
      "inputs": [
        {
          "internalType": "uint256",
          "name": "amount",
          "type": "uint256"
        }
      ],
      "name": "stake",
      "outputs": [
        {
          "internalType": "uint256",
          "name": "",
          "type": "uint256"
        }
      ],
      "stateMutability": "nonpayable",
      "type": "function"
    },
    {
      "inputs": [
        {
          "internalType": "uint256",
          "name": "stakingId",
          "type": "uint256"
        }
      ],
      "name": "exit",
      "outputs": [],
      "stateMutability": "nonpayable",
      "type": "function"
    },
    {
      "inputs": [
        {
          "internalType": "address",
          "name": "tokenAddress",
          "type": "address"
        },
        {
          "internalType": "uint256",
          "name": "tokenAmount",
          "type": "uint256"
        }
      ],
      "name": "recoverERC20",
      "outputs": [],
      "stateMutability": "nonpayable",
      "type": "function"
    },
    {
      "inputs": [
        {
          "internalType": "uint256",
          "name": "stakingId",
          "type": "uint256"
        }
      ],
      "name": "rewardOf",
      "outputs": [
        {
          "internalType": "uint256",
          "name": "",
          "type": "uint256"
        }
      ],
      "stateMutability": "view",
      "type": "function"
    },
    {
      "inputs": [
        {
          "internalType": "uint256",
          "name": "stakingId",
          "type": "uint256"
        }
      ],
      "name": "infoOf",
      "outputs": [
        {
          "components": [
            {
              "internalType": "uint256",
              "name": "balance",
              "type": "uint256"
            },
            {
              "internalType": "uint256",
              "name": "timestamp",
              "type": "uint256"
            },
            {
              "internalType": "uint256",
              "name": "reward",
              "type": "uint256"
            }
          ],
          "internalType": "struct StakingRewards.StakingInfo",
          "name": "",
          "type": "tuple"
        }
      ],
      "stateMutability": "view",
      "type": "function"
    }
  ],
  "bytecode": "0x608060405261016d6005556206978060065569d3c21bcecceda100000060075569010f0cf064dd592000006008553480156200003a57600080fd5b50604051620029973803806200299783398181016040528101906200006091906200025c565b60016000819055506200009a6200008562000124640100000000026401000000009004565b6200012c640100000000026401000000009004565b81600360006101000a81548173ffffffffffffffffffffffffffffffffffffffff021916908373ffffffffffffffffffffffffffffffffffffffff16021790555080600460006101000a81548173ffffffffffffffffffffffffffffffffffffffff021916908373ffffffffffffffffffffffffffffffffffffffff1602179055505050620002a3565b600033905090565b6000600160009054906101000a900473ffffffffffffffffffffffffffffffffffffffff16905081600160006101000a81548173ffffffffffffffffffffffffffffffffffffffff021916908373ffffffffffffffffffffffffffffffffffffffff1602179055508173ffffffffffffffffffffffffffffffffffffffff168173ffffffffffffffffffffffffffffffffffffffff167f8be0079c531659141344cd1fd0a4f28419497f9722a3daafe3b4186f6b6457e060405160405180910390a35050565b600080fd5b600073ffffffffffffffffffffffffffffffffffffffff82169050919050565b60006200022482620001f7565b9050919050565b620002368162000217565b81146200024257600080fd5b50565b60008151905062000256816200022b565b92915050565b60008060408385031215620002765762000275620001f2565b5b6000620002868582860162000245565b9250506020620002998582860162000245565b9150509250929050565b6126e480620002b36000396000f3fe608060405234801561001057600080fd5b5060043610610154576000357c0100000000000000000000000000000000000000000000000000000000900480637f8661a1116100d5578063aed457b211610099578063aed457b214610357578063c2207a7014610387578063d1af0c7d146103a3578063daa3770c146103c1578063ef8bd305146103f1578063f2fde38b1461040f57610154565b80637f8661a1146102a15780638980f11f146102bd5780638da5cb5b146102d95780639cc7f708146102f7578063a694fc3a1461032757610154565b80634eb665af1161011c5780634eb665af146101fd5780636d182d5f14610219578063715018a61461024957806372f702f31461025357806378b38f361461027157610154565b8063045544431461015957806318160ddd1461017757806324f45e671461019557806331862773146101b15780634b0ee02a146101cd575b600080fd5b61016161042b565b60405161016e9190611c50565b60405180910390f35b61017f610431565b60405161018c9190611c50565b60405180910390f35b6101af60048036038101906101aa9190611c9c565b61043b565b005b6101cb60048036038101906101c69190611c9c565b61053d565b005b6101e760048036038101906101e29190611d27565b61063f565b6040516101f49190611c50565b60405180910390f35b61021760048036038101906102129190611c9c565b610688565b005b610233600480360381019061022e9190611d27565b61078a565b6040516102409190611e12565b60405180910390f35b610251610821565b005b61025b6108a9565b6040516102689190611e93565b60405180910390f35b61028b60048036038101906102869190611c9c565b6108cf565b6040516102989190611ef0565b60405180910390f35b6102bb60048036038101906102b69190611c9c565b6109b8565b005b6102d760048036038101906102d29190611f0b565b610ad1565b005b6102e1610cbd565b6040516102ee9190611f5a565b60405180910390f35b610311600480360381019061030c9190611c9c565b610ce7565b60405161031e9190611c50565b60405180910390f35b610341600480360381019061033c9190611c9c565b610d04565b60405161034e9190611c50565b60405180910390f35b610371600480360381019061036c9190611c9c565b6111c6565b60405161037e9190611c50565b60405180910390f35b6103a1600480360381019061039c9190611c9c565b6111e3565b005b6103ab6112e5565b6040516103b89190611e93565b60405180910390f35b6103db60048036038101906103d69190611c9c565b61130b565b6040516103e89190611c50565b60405180910390f35b6103f96113a0565b6040516104069190611c50565b60405180910390f35b61042960048036038101906104249190611d27565b6113a6565b005b60065481565b6000600954905090565b61044361149e565b73ffffffffffffffffffffffffffffffffffffffff16610461610cbd565b73ffffffffffffffffffffffffffffffffffffffff16146104b7576040517f08c379a00000000000000000000000000000000000000000000000000000000081526004016104ae90611fd2565b60405180910390fd5b8060055414156104fc576040517f08c379a00000000000000000000000000000000000000000000000000000000081526004016104f39061203e565b60405180910390fd5b806005819055507f5d96611557274413c64267972d202ca41009c399954bcb4cbab17d2a5156fbb0816040516105329190611c50565b60405180910390a150565b61054561149e565b73ffffffffffffffffffffffffffffffffffffffff16610563610cbd565b73ffffffffffffffffffffffffffffffffffffffff16146105b9576040517f08c379a00000000000000000000000000000000000000000000000000000000081526004016105b090611fd2565b60405180910390fd5b8060085414156105fe576040517f08c379a00000000000000000000000000000000000000000000000000000000081526004016105f59061203e565b60405180910390fd5b806008819055507f143d3446f2346bfbc3256b6963fc26c47064d3dec91767e1e3f4478cc767adb7816040516106349190611c50565b60405180910390a150565b6000600b60008373ffffffffffffffffffffffffffffffffffffffff1673ffffffffffffffffffffffffffffffffffffffff168152602001908152602001600020549050919050565b61069061149e565b73ffffffffffffffffffffffffffffffffffffffff166106ae610cbd565b73ffffffffffffffffffffffffffffffffffffffff1614610704576040517f08c379a00000000000000000000000000000000000000000000000000000000081526004016106fb90611fd2565b60405180910390fd5b806006541415610749576040517f08c379a00000000000000000000000000000000000000000000000000000000081526004016107409061203e565b60405180910390fd5b806006819055507f3e062f634a950eae456fa5f8fb53a4f59f55039983bd73df7a34a313b75443d48160405161077f9190611c50565b60405180910390a150565b6060600e60008373ffffffffffffffffffffffffffffffffffffffff1673ffffffffffffffffffffffffffffffffffffffff16815260200190815260200160002080548060200260200160405190810160405280929190818152602001828054801561081557602002820191906000526020600020905b815481526020019060010190808311610801575b50505050509050919050565b61082961149e565b73ffffffffffffffffffffffffffffffffffffffff16610847610cbd565b73ffffffffffffffffffffffffffffffffffffffff161461089d576040517f08c379a000000000000000000000000000000000000000000000000000000000815260040161089490611fd2565b60405180910390fd5b6108a760006114a6565b565b600460009054906101000a900473ffffffffffffffffffffffffffffffffffffffff1681565b6108d7611c16565b6108df611c16565b600a600084815260200190815260200160002054816000018181525050600c6000848152602001908152602001600020548160200181815250506000600c6000858152602001908152602001600020544261093a919061208d565b905060006109a16201518061099384610985618e94610977600554600a60008e81526020019081526020016000205461156c90919063ffffffff16565b61158290919063ffffffff16565b61156c90919063ffffffff16565b61158290919063ffffffff16565b905080836040018181525050829350505050919050565b3373ffffffffffffffffffffffffffffffffffffffff16600d600083815260200190815260200160002060009054906101000a900473ffffffffffffffffffffffffffffffffffffffff1673ffffffffffffffffffffffffffffffffffffffff1614610a59576040517f08c379a0000000000000000000000000000000000000000000000000000000008152600401610a509061210d565b60405180910390fd5b600654600c60008381526020019081526020016000205442610a7b919061208d565b1015610abc576040517f08c379a0000000000000000000000000000000000000000000000000000000008152600401610ab390612179565b60405180910390fd5b610ac581611598565b610ace816118d5565b50565b610ad961149e565b73ffffffffffffffffffffffffffffffffffffffff16610af7610cbd565b73ffffffffffffffffffffffffffffffffffffffff1614610b4d576040517f08c379a0000000000000000000000000000000000000000000000000000000008152600401610b4490611fd2565b60405180910390fd5b600460009054906101000a900473ffffffffffffffffffffffffffffffffffffffff1673ffffffffffffffffffffffffffffffffffffffff168273ffffffffffffffffffffffffffffffffffffffff161415610bde576040517f08c379a0000000000000000000000000000000000000000000000000000000008152600401610bd59061220b565b60405180910390fd5b8173ffffffffffffffffffffffffffffffffffffffff1663a9059cbb610c02610cbd565b836040518363ffffffff167c0100000000000000000000000000000000000000000000000000000000028152600401610c3c92919061222b565b6020604051808303816000875af1158015610c5b573d6000803e3d6000fd5b505050506040513d601f19601f82011682018060405250810190610c7f919061228c565b507f8c1256b8896378cd5044f80c202f9772b9d77dc85c8a6eb51967210b09bfaa288282604051610cb192919061222b565b60405180910390a15050565b6000600160009054906101000a900473ffffffffffffffffffffffffffffffffffffffff16905090565b6000600a6000838152602001908152602001600020549050919050565b600060026000541415610d4c576040517f08c379a0000000000000000000000000000000000000000000000000000000008152600401610d4390612305565b60405180910390fd5b6002600081905550600854821015610d99576040517f08c379a0000000000000000000000000000000000000000000000000000000008152600401610d9090612371565b60405180910390fd5b600754610dee83600b60003373ffffffffffffffffffffffffffffffffffffffff1673ffffffffffffffffffffffffffffffffffffffff16815260200190815260200160002054611bc690919063ffffffff16565b1115610e2f576040517f08c379a0000000000000000000000000000000000000000000000000000000008152600401610e26906123dd565b60405180910390fd5b610e396002611bdc565b600073ffffffffffffffffffffffffffffffffffffffff16600d6000610e5f6002611bf2565b815260200190815260200160002060009054906101000a900473ffffffffffffffffffffffffffffffffffffffff1673ffffffffffffffffffffffffffffffffffffffff1614610ee4576040517f08c379a0000000000000000000000000000000000000000000000000000000008152600401610edb90612449565b60405180910390fd5b33600d6000610ef36002611bf2565b815260200190815260200160002060006101000a81548173ffffffffffffffffffffffffffffffffffffffff021916908373ffffffffffffffffffffffffffffffffffffffff160217905550600e60003373ffffffffffffffffffffffffffffffffffffffff1673ffffffffffffffffffffffffffffffffffffffff168152602001908152602001600020610f886002611bf2565b9080600181540180825580915050600190039060005260206000200160009091909190915055610fc382600954611bc690919063ffffffff16565b60098190555081600a6000610fd86002611bf2565b81526020019081526020016000208190555061103c82600b60003373ffffffffffffffffffffffffffffffffffffffff1673ffffffffffffffffffffffffffffffffffffffff16815260200190815260200160002054611bc690919063ffffffff16565b600b60003373ffffffffffffffffffffffffffffffffffffffff1673ffffffffffffffffffffffffffffffffffffffff16815260200190815260200160002081905550600460009054906101000a900473ffffffffffffffffffffffffffffffffffffffff1673ffffffffffffffffffffffffffffffffffffffff166323b872dd3330856040518463ffffffff167c01000000000000000000000000000000000000000000000000000000000281526004016110fa93929190612469565b6020604051808303816000875af1158015611119573d6000803e3d6000fd5b505050506040513d601f19601f8201168201806040525081019061113d919061228c565b5042600c600061114d6002611bf2565b8152602001908152602001600020819055503373ffffffffffffffffffffffffffffffffffffffff167f9e71bc8eea02a63969f509818f2dafb9254532904319f9dbda79b67bd34a5f3d836040516111a59190611c50565b60405180910390a26111b76002611bf2565b90506001600081905550919050565b6000600c6000838152602001908152602001600020549050919050565b6111eb61149e565b73ffffffffffffffffffffffffffffffffffffffff16611209610cbd565b73ffffffffffffffffffffffffffffffffffffffff161461125f576040517f08c379a000000000000000000000000000000000000000000000000000000000815260040161125690611fd2565b60405180910390fd5b8060075414156112a4576040517f08c379a000000000000000000000000000000000000000000000000000000000815260040161129b9061203e565b60405180910390fd5b806007819055507fbd1adf6942adf3cf248df88132a5a771a6ebeceb60623d020d8970a4baf3691c816040516112da9190611c50565b60405180910390a150565b600360009054906101000a900473ffffffffffffffffffffffffffffffffffffffff1681565b600080600c6000848152602001908152602001600020544261132d919061208d565b905060006113946201518061138684611378618e9461136a600554600a60008d81526020019081526020016000205461156c90919063ffffffff16565b61158290919063ffffffff16565b61156c90919063ffffffff16565b61158290919063ffffffff16565b90508092505050919050565b60055481565b6113ae61149e565b73ffffffffffffffffffffffffffffffffffffffff166113cc610cbd565b73ffffffffffffffffffffffffffffffffffffffff1614611422576040517f08c379a000000000000000000000000000000000000000000000000000000000815260040161141990611fd2565b60405180910390fd5b600073ffffffffffffffffffffffffffffffffffffffff168173ffffffffffffffffffffffffffffffffffffffff161415611492576040517f08c379a000000000000000000000000000000000000000000000000000000000815260040161148990612512565b60405180910390fd5b61149b816114a6565b50565b600033905090565b6000600160009054906101000a900473ffffffffffffffffffffffffffffffffffffffff16905081600160006101000a81548173ffffffffffffffffffffffffffffffffffffffff021916908373ffffffffffffffffffffffffffffffffffffffff1602179055508173ffffffffffffffffffffffffffffffffffffffff168173ffffffffffffffffffffffffffffffffffffffff167f8be0079c531659141344cd1fd0a4f28419497f9722a3daafe3b4186f6b6457e060405160405180910390a35050565b6000818361157a9190612532565b905092915050565b6000818361159091906125bb565b905092915050565b600260005414156115de576040517f08c379a00000000000000000000000000000000000000000000000000000000081526004016115d590612305565b60405180910390fd5b60026000819055503373ffffffffffffffffffffffffffffffffffffffff16600d600083815260200190815260200160002060009054906101000a900473ffffffffffffffffffffffffffffffffffffffff1673ffffffffffffffffffffffffffffffffffffffff1614611687576040517f08c379a000000000000000000000000000000000000000000000000000000000815260040161167e9061210d565b60405180910390fd5b6000600a600083815260200190815260200160002054116116dd576040517f08c379a00000000000000000000000000000000000000000000000000000000081526004016116d490612638565b60405180910390fd5b6000600a600083815260200190815260200160002054905061170a81600954611c0090919063ffffffff16565b60098190555061176281600b60003373ffffffffffffffffffffffffffffffffffffffff1673ffffffffffffffffffffffffffffffffffffffff16815260200190815260200160002054611c0090919063ffffffff16565b600b60003373ffffffffffffffffffffffffffffffffffffffff1673ffffffffffffffffffffffffffffffffffffffff168152602001908152602001600020819055506000600a600084815260200190815260200160002081905550600460009054906101000a900473ffffffffffffffffffffffffffffffffffffffff1673ffffffffffffffffffffffffffffffffffffffff1663a9059cbb33836040518363ffffffff167c010000000000000000000000000000000000000000000000000000000002815260040161183792919061222b565b6020604051808303816000875af1158015611856573d6000803e3d6000fd5b505050506040513d601f19601f8201168201806040525081019061187a919061228c565b503373ffffffffffffffffffffffffffffffffffffffff167f7084f5476618d8e60b11ef0d7d3f06914655adb8793e28ff7f018d4c76d505d5826040516118c19190611c50565b60405180910390a250600160008190555050565b6002600054141561191b576040517f08c379a000000000000000000000000000000000000000000000000000000000815260040161191290612305565b60405180910390fd5b60026000819055503373ffffffffffffffffffffffffffffffffffffffff16600d600083815260200190815260200160002060009054906101000a900473ffffffffffffffffffffffffffffffffffffffff1673ffffffffffffffffffffffffffffffffffffffff16146119c4576040517f08c379a00000000000000000000000000000000000000000000000000000000081526004016119bb9061210d565b60405180910390fd5b6000600a60008381526020019081526020016000205411611a1a576040517f08c379a0000000000000000000000000000000000000000000000000000000008152600401611a1190612638565b60405180910390fd5b6000600c60008381526020019081526020016000205442611a3b919061208d565b90506000611aa262015180611a9484611a86618e94611a78600554600a60008c81526020019081526020016000205461156c90919063ffffffff16565b61158290919063ffffffff16565b61156c90919063ffffffff16565b61158290919063ffffffff16565b90506000811115611bb957600360009054906101000a900473ffffffffffffffffffffffffffffffffffffffff1673ffffffffffffffffffffffffffffffffffffffff1663a9059cbb33836040518363ffffffff167c0100000000000000000000000000000000000000000000000000000000028152600401611b2692919061222b565b6020604051808303816000875af1158015611b45573d6000803e3d6000fd5b505050506040513d601f19601f82011682018060405250810190611b69919061228c565b503373ffffffffffffffffffffffffffffffffffffffff167fe2403640ba68fed3a2f88b7557551d1993f84b99bb10ff833f0cf8db0c5e048682604051611bb09190611c50565b60405180910390a25b5050600160008190555050565b60008183611bd49190612658565b905092915050565b6001816000016000828254019250508190555050565b600081600001549050919050565b60008183611c0e919061208d565b905092915050565b60405180606001604052806000815260200160008152602001600081525090565b6000819050919050565b611c4a81611c37565b82525050565b6000602082019050611c656000830184611c41565b92915050565b600080fd5b611c7981611c37565b8114611c8457600080fd5b50565b600081359050611c9681611c70565b92915050565b600060208284031215611cb257611cb1611c6b565b5b6000611cc084828501611c87565b91505092915050565b600073ffffffffffffffffffffffffffffffffffffffff82169050919050565b6000611cf482611cc9565b9050919050565b611d0481611ce9565b8114611d0f57600080fd5b50565b600081359050611d2181611cfb565b92915050565b600060208284031215611d3d57611d3c611c6b565b5b6000611d4b84828501611d12565b91505092915050565b600081519050919050565b600082825260208201905092915050565b6000819050602082019050919050565b611d8981611c37565b82525050565b6000611d9b8383611d80565b60208301905092915050565b6000602082019050919050565b6000611dbf82611d54565b611dc98185611d5f565b9350611dd483611d70565b8060005b83811015611e05578151611dec8882611d8f565b9750611df783611da7565b925050600181019050611dd8565b5085935050505092915050565b60006020820190508181036000830152611e2c8184611db4565b905092915050565b6000819050919050565b6000611e59611e54611e4f84611cc9565b611e34565b611cc9565b9050919050565b6000611e6b82611e3e565b9050919050565b6000611e7d82611e60565b9050919050565b611e8d81611e72565b82525050565b6000602082019050611ea86000830184611e84565b92915050565b606082016000820151611ec46000850182611d80565b506020820151611ed76020850182611d80565b506040820151611eea6040850182611d80565b50505050565b6000606082019050611f056000830184611eae565b92915050565b60008060408385031215611f2257611f21611c6b565b5b6000611f3085828601611d12565b9250506020611f4185828601611c87565b9150509250929050565b611f5481611ce9565b82525050565b6000602082019050611f6f6000830184611f4b565b92915050565b600082825260208201905092915050565b7f4f776e61626c653a2063616c6c6572206973206e6f7420746865206f776e6572600082015250565b6000611fbc602083611f75565b9150611fc782611f86565b602082019050919050565b60006020820190508181036000830152611feb81611faf565b9050919050565b7f546869732076616c75652077617320616c726561647920757365640000000000600082015250565b6000612028601b83611f75565b915061203382611ff2565b602082019050919050565b600060208201905081810360008301526120578161201b565b9050919050565b7f4e487b7100000000000000000000000000000000000000000000000000000000600052601160045260246000fd5b600061209882611c37565b91506120a383611c37565b9250828210156120b6576120b561205e565b5b828203905092915050565b7f796f75206d757374206f776e6572206f66207374616b696e6720696400000000600082015250565b60006120f7601c83611f75565b9150612102826120c1565b602082019050919050565b60006020820190508181036000830152612126816120ea565b9050919050565b7f796f752063616e6e6f74207769746864726177206e6f77210000000000000000600082015250565b6000612163601883611f75565b915061216e8261212d565b602082019050919050565b6000602082019050818103600083015261219281612156565b9050919050565b7f43616e6e6f7420776974686472617720746865207374616b696e6720746f6b6560008201527f6e00000000000000000000000000000000000000000000000000000000000000602082015250565b60006121f5602183611f75565b915061220082612199565b604082019050919050565b60006020820190508181036000830152612224816121e8565b9050919050565b60006040820190506122406000830185611f4b565b61224d6020830184611c41565b9392505050565b60008115159050919050565b61226981612254565b811461227457600080fd5b50565b60008151905061228681612260565b92915050565b6000602082840312156122a2576122a1611c6b565b5b60006122b084828501612277565b91505092915050565b7f5265656e7472616e637947756172643a207265656e7472616e742063616c6c00600082015250565b60006122ef601f83611f75565b91506122fa826122b9565b602082019050919050565b6000602082019050818103600083015261231e816122e2565b9050919050565b7f43616e6e6f74207374616b65203c206d696e0000000000000000000000000000600082015250565b600061235b601283611f75565b915061236682612325565b602082019050919050565b6000602082019050818103600083015261238a8161234e565b9050919050565b7f43616e6e6f74207374616b65203e206d61780000000000000000000000000000600082015250565b60006123c7601283611f75565b91506123d282612391565b602082019050919050565b600060208201905081810360008301526123f6816123ba565b9050919050565b7f416e206572726f72206f63637572726564000000000000000000000000000000600082015250565b6000612433601183611f75565b915061243e826123fd565b602082019050919050565b6000602082019050818103600083015261246281612426565b9050919050565b600060608201905061247e6000830186611f4b565b61248b6020830185611f4b565b6124986040830184611c41565b949350505050565b7f4f776e61626c653a206e6577206f776e657220697320746865207a65726f206160008201527f6464726573730000000000000000000000000000000000000000000000000000602082015250565b60006124fc602683611f75565b9150612507826124a0565b604082019050919050565b6000602082019050818103600083015261252b816124ef565b9050919050565b600061253d82611c37565b915061254883611c37565b9250817fffffffffffffffffffffffffffffffffffffffffffffffffffffffffffffffff04831182151516156125815761258061205e565b5b828202905092915050565b7f4e487b7100000000000000000000000000000000000000000000000000000000600052601260045260246000fd5b60006125c682611c37565b91506125d183611c37565b9250826125e1576125e061258c565b5b828204905092915050565b7f62616c616e6365206d757374203e203000000000000000000000000000000000600082015250565b6000612622601083611f75565b915061262d826125ec565b602082019050919050565b6000602082019050818103600083015261265181612615565b9050919050565b600061266382611c37565b915061266e83611c37565b9250827fffffffffffffffffffffffffffffffffffffffffffffffffffffffffffffffff038211156126a3576126a261205e565b5b82820190509291505056fea2646970667358221220648dbf9aa5da28ea1694970ac1a9727617fe89408f60e02d6de8c3fd97ea755264736f6c634300080c0033",
  "immutableReferences": {},
  "source": "// SPDX-License-Identifier: Unlicensed\n\npragma solidity ^0.8.0;\nimport \"@openzeppelin/contracts/utils/math/SafeMath.sol\";\nimport \"@openzeppelin/contracts/security/ReentrancyGuard.sol\";\nimport '@openzeppelin/contracts/access/Ownable.sol';\nimport \"@openzeppelin/contracts/utils/Counters.sol\";\nimport \"./IBEP20.sol\";\n\n\n\ncontract StakingRewards is ReentrancyGuard, Ownable {\n    using SafeMath for uint256;\n\n    struct StakingInfo {\n        uint256 balance;\n        uint256 timestamp;\n        uint256 reward;\n    }\n\n    /* ========== STATE VARIABLES ========== */\n    using Counters for Counters.Counter;\n    Counters.Counter private stakingCounter;\n    IBEP20 public rewardsToken;\n    IBEP20 public stakingToken;\n    uint256 public APY = 365;\n    uint256 public lockDuration = 5 * 86400;\n    uint256 private _maxTokenStake = 1 * 10**6 * 10**18;\n    uint256 private _minTokenStake = 5 * 10**3 * 10**18;\n\n    uint256 private _totalSupply;\n    mapping(uint256 => uint256) private _balances;\n    mapping(address => uint256) private _totalBalances;\n    mapping(uint256 => uint256) private _userStakingTime;\n    mapping(uint256 => address) private _stakingIdMapping;\n    mapping(address => uint256[]) private _totalStakingOfUser;\n\n    /* ========== CONSTRUCTOR ========== */\n\n    constructor(\n        address _rewardsToken,\n        address _stakingToken\n    ) public  {\n        rewardsToken = IBEP20(_rewardsToken);\n        stakingToken = IBEP20(_stakingToken);\n    }\n\n    /* ========== VIEWS ========== */\n\n    function totalSupply() external view returns (uint256) {\n        return _totalSupply;\n    }\n\n    function balanceOf(uint256 stakingId) external view returns (uint256) {\n        return _balances[stakingId];\n    }\n\n    function totalBalanceOf(address account) external view returns (uint256) {\n        return _totalBalances[account];\n    }\n\n    function userStakingTime(uint256 stakingId) external view returns (uint256) {\n        return _userStakingTime[stakingId];\n    }\n\n    function totalStakingOfUser(address account) public view returns (uint256[] memory) {\n        return _totalStakingOfUser[account];\n    }\n\n    function setMinTokenStake(uint256 value) external onlyOwner {\n        require(_minTokenStake != value, 'This value was already used');\n        _minTokenStake = value;\n        emit MinTokenStakeUpdated(value);\n    }\n\n    function setMaxTokenStake(uint256 value) external onlyOwner {\n        require(_maxTokenStake != value, 'This value was already used');\n        _maxTokenStake = value;\n        emit MaxTokenStakeUpdated(value);\n    }\n\n    function setAPY(uint256 value) external onlyOwner {\n        require(APY != value, 'This value was already used');\n        APY = value;\n        emit APYUpdated(value);\n    }\n\n    function setLockDuration(uint256 value) external onlyOwner {\n        require(lockDuration != value, 'This value was already used');\n        lockDuration = value;\n        emit LockDurationUpdated(value);\n    }\n\n    /* ========== MUTATIVE FUNCTIONS ========== */\n\n    function stake(uint256 amount) external nonReentrant returns (uint256){\n        require(amount >= _minTokenStake, \"Cannot stake < min\");\n        require(_totalBalances[msg.sender].add(amount) <= _maxTokenStake, \"Cannot stake > max\");\n        stakingCounter.increment();\n        require(_stakingIdMapping[stakingCounter.current()] == address(0), \"An error occurred\");\n        _stakingIdMapping[stakingCounter.current()] = msg.sender;\n        _totalStakingOfUser[msg.sender].push(stakingCounter.current());\n        _totalSupply = _totalSupply.add(amount);\n        _balances[stakingCounter.current()] = amount;\n        _totalBalances[msg.sender] = _totalBalances[msg.sender].add(amount);\n        stakingToken.transferFrom(msg.sender, address(this), amount);\n        _userStakingTime[stakingCounter.current()] = block.timestamp;\n        emit Staked(msg.sender, amount);\n        return stakingCounter.current();\n    }\n\n    function withdraw(uint256 stakingId) private nonReentrant {\n        require(_stakingIdMapping[stakingId] == msg.sender,\"you must owner of staking id\");\n        require(_balances[stakingId] > 0 , \"balance must > 0\");\n        uint256 amount = _balances[stakingId];\n        _totalSupply = _totalSupply.sub(amount);\n        _totalBalances[msg.sender] = _totalBalances[msg.sender].sub(amount);\n        _balances[stakingId] = 0;\n        stakingToken.transfer(msg.sender, amount);\n        emit Withdrawn(msg.sender, amount);\n    }\n\n    function getReward(uint256 stakingId) private nonReentrant  {\n        require(_stakingIdMapping[stakingId] == msg.sender,\"you must owner of staking id\");\n        require(_balances[stakingId] > 0 , \"balance must > 0\");\n        uint256 secs = block.timestamp - _userStakingTime[stakingId];\n        uint256 reward = _balances[stakingId].mul(APY).div(36500).mul(secs).div(86400);\n        if (reward > 0) {\n            rewardsToken.transfer(msg.sender, reward);\n            emit RewardPaid(msg.sender, reward);\n        }\n    }\n\n    function exit(uint256 stakingId) external {\n        require(_stakingIdMapping[stakingId] == msg.sender,\"you must owner of staking id\");\n        require((block.timestamp - _userStakingTime[stakingId]) >= lockDuration, \"you cannot withdraw now!\");\n        withdraw(stakingId);\n        getReward(stakingId);\n    }\n\n\n    // Added to support recovering LP Rewards from other systems such as BAL to be distributed to holders\n    function recoverERC20(address tokenAddress, uint256 tokenAmount) external onlyOwner {\n        require(tokenAddress != address(stakingToken), \"Cannot withdraw the staking token\");\n        IBEP20(tokenAddress).transfer(owner(), tokenAmount);\n        emit Recovered(tokenAddress, tokenAmount);\n    }\n\n    function rewardOf(uint256 stakingId) external view returns (uint256) {\n        uint256 secs = block.timestamp - _userStakingTime[stakingId];\n        uint256 rw = _balances[stakingId].mul(APY).div(36500).mul(secs).div(86400);\n        return rw;\n    }\n    function infoOf(uint256 stakingId) external view returns (StakingInfo memory) {\n        StakingInfo memory info;\n        info.balance = _balances[stakingId];\n        info.timestamp = _userStakingTime[stakingId];\n        uint256 secs = block.timestamp - _userStakingTime[stakingId];\n        uint256 rw = _balances[stakingId].mul(APY).div(36500).mul(secs).div(86400);\n        info.reward = rw;\n\n\n        return info;\n    }\n\n\n    /* ========== EVENTS ========== */\n\n    event RewardAdded(uint256 reward);\n    event Staked(address indexed user, uint256 amount);\n    event Withdrawn(address indexed user, uint256 amount);\n    event RewardPaid(address indexed user, uint256 reward);\n    event Recovered(address token, uint256 amount);\n    event MinTokenStakeUpdated(uint256 amount);\n    event MaxTokenStakeUpdated(uint256 amount);\n    event APYUpdated(uint256 value);\n    event LockDurationUpdated(uint256 value);\n}\n",
  "sourcePath": "/Users/macbook/Desktop/PiratesKingContract2022/PiratesKingContract2022/contracts/StakingRewards.sol",
  "compiler": {
    "name": "solc",
    "version": "0.8.12+commit.f00d7308.Emscripten.clang"
  },
  "schemaVersion": "3.4.4",
  "updatedAt": "2022-03-10T10:11:20.223Z",
  "devdoc": {
    "kind": "dev",
    "methods": {
      "owner()": {
        "details": "Returns the address of the current owner."
      },
      "renounceOwnership()": {
        "details": "Leaves the contract without owner. It will not be possible to call `onlyOwner` functions anymore. Can only be called by the current owner. NOTE: Renouncing ownership will leave the contract without an owner, thereby removing any functionality that is only available to the owner."
      },
      "transferOwnership(address)": {
        "details": "Transfers ownership of the contract to a new account (`newOwner`). Can only be called by the current owner."
      }
    },
    "version": 1
  },
  "userdoc": {
    "kind": "user",
    "methods": {},
    "version": 1
  }
}