{
  "contractName": "StakingRewards",
  "abi": [
    {
      "inputs": [
        {
          "internalType": "address",
          "name": "_rewardsToken",
          "type": "address"
        },
        {
          "internalType": "address",
          "name": "_stakingToken",
          "type": "address"
        }
      ],
      "stateMutability": "nonpayable",
      "type": "constructor"
    },
    {
      "anonymous": false,
      "inputs": [
        {
          "indexed": false,
          "internalType": "uint256",
          "name": "value",
          "type": "uint256"
        }
      ],
      "name": "LockDurationUpdated",
      "type": "event"
    },
    {
      "anonymous": false,
      "inputs": [
        {
          "indexed": false,
          "internalType": "uint256",
          "name": "amount",
          "type": "uint256"
        }
      ],
      "name": "MaxTokenStakeUpdated",
      "type": "event"
    },
    {
      "anonymous": false,
      "inputs": [
        {
          "indexed": false,
          "internalType": "uint256",
          "name": "amount",
          "type": "uint256"
        }
      ],
      "name": "MinTokenStakeUpdated",
      "type": "event"
    },
    {
      "anonymous": false,
      "inputs": [
        {
          "indexed": true,
          "internalType": "address",
          "name": "previousOwner",
          "type": "address"
        },
        {
          "indexed": true,
          "internalType": "address",
          "name": "newOwner",
          "type": "address"
        }
      ],
      "name": "OwnershipTransferred",
      "type": "event"
    },
    {
      "anonymous": false,
      "inputs": [
        {
          "indexed": false,
          "internalType": "uint256",
          "name": "r",
          "type": "uint256"
        }
      ],
      "name": "RatioUpdated",
      "type": "event"
    },
    {
      "anonymous": false,
      "inputs": [
        {
          "indexed": false,
          "internalType": "address",
          "name": "token",
          "type": "address"
        },
        {
          "indexed": false,
          "internalType": "uint256",
          "name": "amount",
          "type": "uint256"
        }
      ],
      "name": "Recovered",
      "type": "event"
    },
    {
      "anonymous": false,
      "inputs": [
        {
          "indexed": false,
          "internalType": "uint256",
          "name": "reward",
          "type": "uint256"
        }
      ],
      "name": "RewardAdded",
      "type": "event"
    },
    {
      "anonymous": false,
      "inputs": [
        {
          "indexed": true,
          "internalType": "address",
          "name": "user",
          "type": "address"
        },
        {
          "indexed": false,
          "internalType": "uint256",
          "name": "reward",
          "type": "uint256"
        }
      ],
      "name": "RewardPaid",
      "type": "event"
    },
    {
      "anonymous": false,
      "inputs": [
        {
          "indexed": true,
          "internalType": "address",
          "name": "user",
          "type": "address"
        },
        {
          "indexed": false,
          "internalType": "uint256",
          "name": "amount",
          "type": "uint256"
        }
      ],
      "name": "Staked",
      "type": "event"
    },
    {
      "anonymous": false,
      "inputs": [
        {
          "indexed": true,
          "internalType": "address",
          "name": "user",
          "type": "address"
        },
        {
          "indexed": false,
          "internalType": "uint256",
          "name": "amount",
          "type": "uint256"
        }
      ],
      "name": "Withdrawn",
      "type": "event"
    },
    {
      "inputs": [],
      "name": "lockDuration",
      "outputs": [
        {
          "internalType": "uint256",
          "name": "",
          "type": "uint256"
        }
      ],
      "stateMutability": "view",
      "type": "function"
    },
    {
      "inputs": [],
      "name": "owner",
      "outputs": [
        {
          "internalType": "address",
          "name": "",
          "type": "address"
        }
      ],
      "stateMutability": "view",
      "type": "function"
    },
    {
      "inputs": [],
      "name": "renounceOwnership",
      "outputs": [],
      "stateMutability": "nonpayable",
      "type": "function"
    },
    {
      "inputs": [],
      "name": "rewardsToken",
      "outputs": [
        {
          "internalType": "contract IBEP20",
          "name": "",
          "type": "address"
        }
      ],
      "stateMutability": "view",
      "type": "function"
    },
    {
      "inputs": [],
      "name": "stakingToken",
      "outputs": [
        {
          "internalType": "contract IBEP20",
          "name": "",
          "type": "address"
        }
      ],
      "stateMutability": "view",
      "type": "function"
    },
    {
      "inputs": [
        {
          "internalType": "address",
          "name": "newOwner",
          "type": "address"
        }
      ],
      "name": "transferOwnership",
      "outputs": [],
      "stateMutability": "nonpayable",
      "type": "function"
    },
    {
      "inputs": [],
      "name": "totalSupply",
      "outputs": [
        {
          "internalType": "uint256",
          "name": "",
          "type": "uint256"
        }
      ],
      "stateMutability": "view",
      "type": "function"
    },
    {
      "inputs": [
        {
          "internalType": "uint256",
          "name": "stakingId",
          "type": "uint256"
        }
      ],
      "name": "balanceOf",
      "outputs": [
        {
          "internalType": "uint256",
          "name": "",
          "type": "uint256"
        }
      ],
      "stateMutability": "view",
      "type": "function"
    },
    {
      "inputs": [
        {
          "internalType": "address",
          "name": "account",
          "type": "address"
        }
      ],
      "name": "totalBalanceOf",
      "outputs": [
        {
          "internalType": "uint256",
          "name": "",
          "type": "uint256"
        }
      ],
      "stateMutability": "view",
      "type": "function"
    },
    {
      "inputs": [
        {
          "internalType": "uint256",
          "name": "stakingId",
          "type": "uint256"
        }
      ],
      "name": "userStakingTime",
      "outputs": [
        {
          "internalType": "uint256",
          "name": "",
          "type": "uint256"
        }
      ],
      "stateMutability": "view",
      "type": "function"
    },
    {
      "inputs": [
        {
          "internalType": "address",
          "name": "account",
          "type": "address"
        }
      ],
      "name": "totalStakingOfUser",
      "outputs": [
        {
          "internalType": "uint256[]",
          "name": "",
          "type": "uint256[]"
        }
      ],
      "stateMutability": "view",
      "type": "function"
    },
    {
      "inputs": [
        {
          "internalType": "uint256",
          "name": "_principal",
          "type": "uint256"
        },
        {
          "internalType": "uint256",
          "name": "_rate",
          "type": "uint256"
        },
        {
          "internalType": "uint256",
          "name": "_age",
          "type": "uint256"
        }
      ],
      "name": "accrueInterest",
      "outputs": [
        {
          "internalType": "uint256",
          "name": "",
          "type": "uint256"
        }
      ],
      "stateMutability": "pure",
      "type": "function"
    },
    {
      "inputs": [
        {
          "internalType": "uint256",
          "name": "r",
          "type": "uint256"
        }
      ],
      "name": "setRatio",
      "outputs": [],
      "stateMutability": "nonpayable",
      "type": "function"
    },
    {
      "inputs": [
        {
          "internalType": "uint256",
          "name": "value",
          "type": "uint256"
        }
      ],
      "name": "setMinTokenStake",
      "outputs": [],
      "stateMutability": "nonpayable",
      "type": "function"
    },
    {
      "inputs": [
        {
          "internalType": "uint256",
          "name": "value",
          "type": "uint256"
        }
      ],
      "name": "setMaxTokenStake",
      "outputs": [],
      "stateMutability": "nonpayable",
      "type": "function"
    },
    {
      "inputs": [
        {
          "internalType": "uint256",
          "name": "value",
          "type": "uint256"
        }
      ],
      "name": "setLockDuration",
      "outputs": [],
      "stateMutability": "nonpayable",
      "type": "function"
    },
    {
      "inputs": [
        {
          "internalType": "uint256",
          "name": "amount",
          "type": "uint256"
        }
      ],
      "name": "stake",
      "outputs": [
        {
          "internalType": "uint256",
          "name": "",
          "type": "uint256"
        }
      ],
      "stateMutability": "nonpayable",
      "type": "function"
    },
    {
      "inputs": [
        {
          "internalType": "uint256",
          "name": "stakingId",
          "type": "uint256"
        }
      ],
      "name": "exit",
      "outputs": [],
      "stateMutability": "nonpayable",
      "type": "function"
    },
    {
      "inputs": [
        {
          "internalType": "address",
          "name": "tokenAddress",
          "type": "address"
        },
        {
          "internalType": "uint256",
          "name": "tokenAmount",
          "type": "uint256"
        }
      ],
      "name": "recoverERC20",
      "outputs": [],
      "stateMutability": "nonpayable",
      "type": "function"
    },
    {
      "inputs": [
        {
          "internalType": "uint256",
          "name": "stakingId",
          "type": "uint256"
        }
      ],
      "name": "infoOf",
      "outputs": [
        {
          "components": [
            {
              "internalType": "uint256",
              "name": "balance",
              "type": "uint256"
            },
            {
              "internalType": "uint256",
              "name": "timestamp",
              "type": "uint256"
            },
            {
              "internalType": "uint256",
              "name": "reward",
              "type": "uint256"
            }
          ],
          "internalType": "struct StakingRewards.StakingInfo",
          "name": "",
          "type": "tuple"
        }
      ],
      "stateMutability": "view",
      "type": "function"
    }
  ],
  "bytecode": "0x6080604052600060055569d3c21bcecceda100000060065569010f0cf064dd592000006007556b033b479afecb38a27ce000006008553480156200004257600080fd5b50604051620029c1380380620029c1833981810160405281019062000068919062000264565b6001600081905550620000a26200008d6200012c640100000000026401000000009004565b62000134640100000000026401000000009004565b81600360006101000a81548173ffffffffffffffffffffffffffffffffffffffff021916908373ffffffffffffffffffffffffffffffffffffffff16021790555080600460006101000a81548173ffffffffffffffffffffffffffffffffffffffff021916908373ffffffffffffffffffffffffffffffffffffffff1602179055505050620002ab565b600033905090565b6000600160009054906101000a900473ffffffffffffffffffffffffffffffffffffffff16905081600160006101000a81548173ffffffffffffffffffffffffffffffffffffffff021916908373ffffffffffffffffffffffffffffffffffffffff1602179055508173ffffffffffffffffffffffffffffffffffffffff168173ffffffffffffffffffffffffffffffffffffffff167f8be0079c531659141344cd1fd0a4f28419497f9722a3daafe3b4186f6b6457e060405160405180910390a35050565b600080fd5b600073ffffffffffffffffffffffffffffffffffffffff82169050919050565b60006200022c82620001ff565b9050919050565b6200023e816200021f565b81146200024a57600080fd5b50565b6000815190506200025e8162000233565b92915050565b600080604083850312156200027e576200027d620001fa565b5b60006200028e858286016200024d565b9250506020620002a1858286016200024d565b9150509250929050565b61270680620002bb6000396000f3fe608060405234801561001057600080fd5b5060043610610149576000357c0100000000000000000000000000000000000000000000000000000000900480638980f11f116100ca578063b2237ba31161008e578063b2237ba314610360578063c2207a701461037c578063d1af0c7d14610398578063de251fb6146103b6578063f2fde38b146103e657610149565b80638980f11f146102965780638da5cb5b146102b25780639cc7f708146102d0578063a694fc3a14610300578063aed457b21461033057610149565b80636d182d5f116101115780636d182d5f146101f2578063715018a61461022257806372f702f31461022c57806378b38f361461024a5780637f8661a11461027a57610149565b8063045544431461014e57806318160ddd1461016c578063318627731461018a5780634b0ee02a146101a65780634eb665af146101d6575b600080fd5b610156610402565b6040516101639190611acd565b60405180910390f35b610174610408565b6040516101819190611acd565b60405180910390f35b6101a4600480360381019061019f9190611b19565b610412565b005b6101c060048036038101906101bb9190611ba4565b610514565b6040516101cd9190611acd565b60405180910390f35b6101f060048036038101906101eb9190611b19565b61055d565b005b61020c60048036038101906102079190611ba4565b61065f565b6040516102199190611c8f565b60405180910390f35b61022a6106f6565b005b61023461077e565b6040516102419190611d10565b60405180910390f35b610264600480360381019061025f9190611b19565b6107a4565b6040516102719190611d6d565b60405180910390f35b610294600480360381019061028f9190611b19565b61080f565b005b6102b060048036038101906102ab9190611d88565b61091f565b005b6102ba610b0b565b6040516102c79190611dd7565b60405180910390f35b6102ea60048036038101906102e59190611b19565b610b35565b6040516102f79190611acd565b60405180910390f35b61031a60048036038101906103159190611b19565b610b52565b6040516103279190611acd565b60405180910390f35b61034a60048036038101906103459190611b19565b611035565b6040516103579190611acd565b60405180910390f35b61037a60048036038101906103759190611b19565b611052565b005b61039660048036038101906103919190611b19565b6111b2565b005b6103a06112b4565b6040516103ad9190611d10565b60405180910390f35b6103d060048036038101906103cb9190611df2565b6112da565b6040516103dd9190611acd565b60405180910390f35b61040060048036038101906103fb9190611ba4565b6112f8565b005b60055481565b6000600954905090565b61041a6113f0565b73ffffffffffffffffffffffffffffffffffffffff16610438610b0b565b73ffffffffffffffffffffffffffffffffffffffff161461048e576040517f08c379a000000000000000000000000000000000000000000000000000000000815260040161048590611ea2565b60405180910390fd5b8060075414156104d3576040517f08c379a00000000000000000000000000000000000000000000000000000000081526004016104ca90611f0e565b60405180910390fd5b806007819055507f143d3446f2346bfbc3256b6963fc26c47064d3dec91767e1e3f4478cc767adb7816040516105099190611acd565b60405180910390a150565b6000600b60008373ffffffffffffffffffffffffffffffffffffffff1673ffffffffffffffffffffffffffffffffffffffff168152602001908152602001600020549050919050565b6105656113f0565b73ffffffffffffffffffffffffffffffffffffffff16610583610b0b565b73ffffffffffffffffffffffffffffffffffffffff16146105d9576040517f08c379a00000000000000000000000000000000000000000000000000000000081526004016105d090611ea2565b60405180910390fd5b80600554141561061e576040517f08c379a000000000000000000000000000000000000000000000000000000000815260040161061590611f0e565b60405180910390fd5b806005819055507f3e062f634a950eae456fa5f8fb53a4f59f55039983bd73df7a34a313b75443d4816040516106549190611acd565b60405180910390a150565b6060600f60008373ffffffffffffffffffffffffffffffffffffffff1673ffffffffffffffffffffffffffffffffffffffff1681526020019081526020016000208054806020026020016040519081016040528092919081815260200182805480156106ea57602002820191906000526020600020905b8154815260200190600101908083116106d6575b50505050509050919050565b6106fe6113f0565b73ffffffffffffffffffffffffffffffffffffffff1661071c610b0b565b73ffffffffffffffffffffffffffffffffffffffff1614610772576040517f08c379a000000000000000000000000000000000000000000000000000000000815260040161076990611ea2565b60405180910390fd5b61077c60006113f8565b565b600460009054906101000a900473ffffffffffffffffffffffffffffffffffffffff1681565b6107ac611a93565b6107b4611a93565b600a600084815260200190815260200160002054816000018181525050600c60008481526020019081526020016000205481602001818152505060006107f9846114be565b9050808260400181815250508192505050919050565b3373ffffffffffffffffffffffffffffffffffffffff16600e600083815260200190815260200160002060009054906101000a900473ffffffffffffffffffffffffffffffffffffffff1673ffffffffffffffffffffffffffffffffffffffff16146108b0576040517f08c379a00000000000000000000000000000000000000000000000000000000081526004016108a790611f7a565b60405180910390fd5b600554600c600083815260200190815260200160002054426108d29190611fc9565b1015610913576040517f08c379a000000000000000000000000000000000000000000000000000000000815260040161090a90612049565b60405180910390fd5b61091c81611536565b50565b6109276113f0565b73ffffffffffffffffffffffffffffffffffffffff16610945610b0b565b73ffffffffffffffffffffffffffffffffffffffff161461099b576040517f08c379a000000000000000000000000000000000000000000000000000000000815260040161099290611ea2565b60405180910390fd5b600460009054906101000a900473ffffffffffffffffffffffffffffffffffffffff1673ffffffffffffffffffffffffffffffffffffffff168273ffffffffffffffffffffffffffffffffffffffff161415610a2c576040517f08c379a0000000000000000000000000000000000000000000000000000000008152600401610a23906120db565b60405180910390fd5b8173ffffffffffffffffffffffffffffffffffffffff1663a9059cbb610a50610b0b565b836040518363ffffffff167c0100000000000000000000000000000000000000000000000000000000028152600401610a8a9291906120fb565b6020604051808303816000875af1158015610aa9573d6000803e3d6000fd5b505050506040513d601f19601f82011682018060405250810190610acd919061215c565b507f8c1256b8896378cd5044f80c202f9772b9d77dc85c8a6eb51967210b09bfaa288282604051610aff9291906120fb565b60405180910390a15050565b6000600160009054906101000a900473ffffffffffffffffffffffffffffffffffffffff16905090565b6000600a6000838152602001908152602001600020549050919050565b600060026000541415610b9a576040517f08c379a0000000000000000000000000000000000000000000000000000000008152600401610b91906121d5565b60405180910390fd5b6002600081905550600754821015610be7576040517f08c379a0000000000000000000000000000000000000000000000000000000008152600401610bde90612241565b60405180910390fd5b600654610c3c83600b60003373ffffffffffffffffffffffffffffffffffffffff1673ffffffffffffffffffffffffffffffffffffffff1681526020019081526020016000205461189090919063ffffffff16565b1115610c7d576040517f08c379a0000000000000000000000000000000000000000000000000000000008152600401610c74906122ad565b60405180910390fd5b610c8760026118a6565b600073ffffffffffffffffffffffffffffffffffffffff16600e6000610cad60026118bc565b815260200190815260200160002060009054906101000a900473ffffffffffffffffffffffffffffffffffffffff1673ffffffffffffffffffffffffffffffffffffffff1614610d32576040517f08c379a0000000000000000000000000000000000000000000000000000000008152600401610d2990612319565b60405180910390fd5b33600e6000610d4160026118bc565b815260200190815260200160002060006101000a81548173ffffffffffffffffffffffffffffffffffffffff021916908373ffffffffffffffffffffffffffffffffffffffff160217905550600f60003373ffffffffffffffffffffffffffffffffffffffff1673ffffffffffffffffffffffffffffffffffffffff168152602001908152602001600020610dd660026118bc565b9080600181540180825580915050600190039060005260206000200160009091909190915055610e118260095461189090919063ffffffff16565b60098190555081600a6000610e2660026118bc565b815260200190815260200160002081905550610e8a82600b60003373ffffffffffffffffffffffffffffffffffffffff1673ffffffffffffffffffffffffffffffffffffffff1681526020019081526020016000205461189090919063ffffffff16565b600b60003373ffffffffffffffffffffffffffffffffffffffff1673ffffffffffffffffffffffffffffffffffffffff16815260200190815260200160002081905550600460009054906101000a900473ffffffffffffffffffffffffffffffffffffffff1673ffffffffffffffffffffffffffffffffffffffff166323b872dd3330856040518463ffffffff167c0100000000000000000000000000000000000000000000000000000000028152600401610f4893929190612339565b6020604051808303816000875af1158015610f67573d6000803e3d6000fd5b505050506040513d601f19601f82011682018060405250810190610f8b919061215c565b5042600c6000610f9b60026118bc565b81526020019081526020016000208190555042600d6000610fbc60026118bc565b8152602001908152602001600020819055503373ffffffffffffffffffffffffffffffffffffffff167f9e71bc8eea02a63969f509818f2dafb9254532904319f9dbda79b67bd34a5f3d836040516110149190611acd565b60405180910390a261102660026118bc565b90506001600081905550919050565b6000600c6000838152602001908152602001600020549050919050565b61105a6113f0565b73ffffffffffffffffffffffffffffffffffffffff16611078610b0b565b73ffffffffffffffffffffffffffffffffffffffff16146110ce576040517f08c379a00000000000000000000000000000000000000000000000000000000081526004016110c590611ea2565b60405180910390fd5b8060085414156110dd57600080fd5b6000600190505b6110ee60026118bc565b81101561117057600a600082815260200190815260200160002054611112826114be565b61111c9190611fc9565b600a6000838152602001908152602001600020600082825461113e9190612370565b9250508190555042600d6000838152602001908152602001600020819055508080611168906123c6565b9150506110e4565b50806008819055507f8bfafad5cbd7165952ec3370b6dcf547a709f2dad989ecb117d6d361038dd8c5816040516111a79190611acd565b60405180910390a150565b6111ba6113f0565b73ffffffffffffffffffffffffffffffffffffffff166111d8610b0b565b73ffffffffffffffffffffffffffffffffffffffff161461122e576040517f08c379a000000000000000000000000000000000000000000000000000000000815260040161122590611ea2565b60405180910390fd5b806006541415611273576040517f08c379a000000000000000000000000000000000000000000000000000000000815260040161126a90611f0e565b60405180910390fd5b806006819055507fbd1adf6942adf3cf248df88132a5a771a6ebeceb60623d020d8970a4baf3691c816040516112a99190611acd565b60405180910390a150565b600360009054906101000a900473ffffffffffffffffffffffffffffffffffffffff1681565b60006112ef846112ea85856118ca565b611955565b90509392505050565b6113006113f0565b73ffffffffffffffffffffffffffffffffffffffff1661131e610b0b565b73ffffffffffffffffffffffffffffffffffffffff1614611374576040517f08c379a000000000000000000000000000000000000000000000000000000000815260040161136b90611ea2565b60405180910390fd5b600073ffffffffffffffffffffffffffffffffffffffff168173ffffffffffffffffffffffffffffffffffffffff1614156113e4576040517f08c379a00000000000000000000000000000000000000000000000000000000081526004016113db90612481565b60405180910390fd5b6113ed816113f8565b50565b600033905090565b6000600160009054906101000a900473ffffffffffffffffffffffffffffffffffffffff16905081600160006101000a81548173ffffffffffffffffffffffffffffffffffffffff021916908373ffffffffffffffffffffffffffffffffffffffff1602179055508173ffffffffffffffffffffffffffffffffffffffff168173ffffffffffffffffffffffffffffffffffffffff167f8be0079c531659141344cd1fd0a4f28419497f9722a3daafe3b4186f6b6457e060405160405180910390a35050565b600080600d600084815260200190815260200160002054426114e09190611fc9565b905060006114f9610384836119a190919063ffffffff16565b90506000600a6000868152602001908152602001600020549050600061152282600854856112da565b905060008190508095505050505050919050565b6002600054141561157c576040517f08c379a0000000000000000000000000000000000000000000000000000000008152600401611573906121d5565b60405180910390fd5b60026000819055503373ffffffffffffffffffffffffffffffffffffffff16600e600083815260200190815260200160002060009054906101000a900473ffffffffffffffffffffffffffffffffffffffff1673ffffffffffffffffffffffffffffffffffffffff1614611625576040517f08c379a000000000000000000000000000000000000000000000000000000000815260040161161c90611f7a565b60405180910390fd5b6000600a6000838152602001908152602001600020541161167b576040517f08c379a0000000000000000000000000000000000000000000000000000000008152600401611672906124ed565b60405180910390fd5b6000600a6000838152602001908152602001600020549050600061169e836114be565b9050600081111561188357600360009054906101000a900473ffffffffffffffffffffffffffffffffffffffff1673ffffffffffffffffffffffffffffffffffffffff1663a9059cbb33836040518363ffffffff167c01000000000000000000000000000000000000000000000000000000000281526004016117229291906120fb565b6020604051808303816000875af1158015611741573d6000803e3d6000fd5b505050506040513d601f19601f82011682018060405250810190611765919061215c565b156118825761177f826009546119b790919063ffffffff16565b6009819055506117d782600b60003373ffffffffffffffffffffffffffffffffffffffff1673ffffffffffffffffffffffffffffffffffffffff168152602001908152602001600020546119b790919063ffffffff16565b600b60003373ffffffffffffffffffffffffffffffffffffffff1673ffffffffffffffffffffffffffffffffffffffff168152602001908152602001600020819055506000600a6000858152602001908152602001600020819055503373ffffffffffffffffffffffffffffffffffffffff167fe2403640ba68fed3a2f88b7557551d1993f84b99bb10ff833f0cf8db0c5e0486826040516118799190611acd565b60405180910390a25b5b5050600160008190555050565b6000818361189e9190612370565b905092915050565b6001816000016000828254019250508190555050565b600081600001549050919050565b6000806002836118da919061253c565b14156118f2576b033b2e3c9fd0803ce80000006118f4565b825b9050600282611903919061256d565b91505b6000821461194f576119188384611955565b92506000600283611929919061253c565b1461193b576119388184611955565b90505b600282611948919061256d565b9150611906565b92915050565b60006b033b2e3c9fd0803ce800000061198f61197185856119cd565b60026b033b2e3c9fd0803ce800000061198a919061256d565b611a3a565b611999919061256d565b905092915050565b600081836119af919061256d565b905092915050565b600081836119c59190611fc9565b905092915050565b6000808214806119f55750828283856119e6919061259e565b9250826119f3919061256d565b145b611a34576040517f08c379a0000000000000000000000000000000000000000000000000000000008152600401611a2b90612644565b60405180910390fd5b92915050565b6000828284611a499190612370565b9150811015611a8d576040517f08c379a0000000000000000000000000000000000000000000000000000000008152600401611a84906126b0565b60405180910390fd5b92915050565b60405180606001604052806000815260200160008152602001600081525090565b6000819050919050565b611ac781611ab4565b82525050565b6000602082019050611ae26000830184611abe565b92915050565b600080fd5b611af681611ab4565b8114611b0157600080fd5b50565b600081359050611b1381611aed565b92915050565b600060208284031215611b2f57611b2e611ae8565b5b6000611b3d84828501611b04565b91505092915050565b600073ffffffffffffffffffffffffffffffffffffffff82169050919050565b6000611b7182611b46565b9050919050565b611b8181611b66565b8114611b8c57600080fd5b50565b600081359050611b9e81611b78565b92915050565b600060208284031215611bba57611bb9611ae8565b5b6000611bc884828501611b8f565b91505092915050565b600081519050919050565b600082825260208201905092915050565b6000819050602082019050919050565b611c0681611ab4565b82525050565b6000611c188383611bfd565b60208301905092915050565b6000602082019050919050565b6000611c3c82611bd1565b611c468185611bdc565b9350611c5183611bed565b8060005b83811015611c82578151611c698882611c0c565b9750611c7483611c24565b925050600181019050611c55565b5085935050505092915050565b60006020820190508181036000830152611ca98184611c31565b905092915050565b6000819050919050565b6000611cd6611cd1611ccc84611b46565b611cb1565b611b46565b9050919050565b6000611ce882611cbb565b9050919050565b6000611cfa82611cdd565b9050919050565b611d0a81611cef565b82525050565b6000602082019050611d256000830184611d01565b92915050565b606082016000820151611d416000850182611bfd565b506020820151611d546020850182611bfd565b506040820151611d676040850182611bfd565b50505050565b6000606082019050611d826000830184611d2b565b92915050565b60008060408385031215611d9f57611d9e611ae8565b5b6000611dad85828601611b8f565b9250506020611dbe85828601611b04565b9150509250929050565b611dd181611b66565b82525050565b6000602082019050611dec6000830184611dc8565b92915050565b600080600060608486031215611e0b57611e0a611ae8565b5b6000611e1986828701611b04565b9350506020611e2a86828701611b04565b9250506040611e3b86828701611b04565b9150509250925092565b600082825260208201905092915050565b7f4f776e61626c653a2063616c6c6572206973206e6f7420746865206f776e6572600082015250565b6000611e8c602083611e45565b9150611e9782611e56565b602082019050919050565b60006020820190508181036000830152611ebb81611e7f565b9050919050565b7f546869732076616c75652077617320616c726561647920757365640000000000600082015250565b6000611ef8601b83611e45565b9150611f0382611ec2565b602082019050919050565b60006020820190508181036000830152611f2781611eeb565b9050919050565b7f796f75206d757374206f776e6572206f66207374616b696e6720696400000000600082015250565b6000611f64601c83611e45565b9150611f6f82611f2e565b602082019050919050565b60006020820190508181036000830152611f9381611f57565b9050919050565b7f4e487b7100000000000000000000000000000000000000000000000000000000600052601160045260246000fd5b6000611fd482611ab4565b9150611fdf83611ab4565b925082821015611ff257611ff1611f9a565b5b828203905092915050565b7f796f752063616e6e6f74207769746864726177206e6f77210000000000000000600082015250565b6000612033601883611e45565b915061203e82611ffd565b602082019050919050565b6000602082019050818103600083015261206281612026565b9050919050565b7f43616e6e6f7420776974686472617720746865207374616b696e6720746f6b6560008201527f6e00000000000000000000000000000000000000000000000000000000000000602082015250565b60006120c5602183611e45565b91506120d082612069565b604082019050919050565b600060208201905081810360008301526120f4816120b8565b9050919050565b60006040820190506121106000830185611dc8565b61211d6020830184611abe565b9392505050565b60008115159050919050565b61213981612124565b811461214457600080fd5b50565b60008151905061215681612130565b92915050565b60006020828403121561217257612171611ae8565b5b600061218084828501612147565b91505092915050565b7f5265656e7472616e637947756172643a207265656e7472616e742063616c6c00600082015250565b60006121bf601f83611e45565b91506121ca82612189565b602082019050919050565b600060208201905081810360008301526121ee816121b2565b9050919050565b7f43616e6e6f74207374616b65203c206d696e0000000000000000000000000000600082015250565b600061222b601283611e45565b9150612236826121f5565b602082019050919050565b6000602082019050818103600083015261225a8161221e565b9050919050565b7f43616e6e6f74207374616b65203e206d61780000000000000000000000000000600082015250565b6000612297601283611e45565b91506122a282612261565b602082019050919050565b600060208201905081810360008301526122c68161228a565b9050919050565b7f416e206572726f72206f63637572726564000000000000000000000000000000600082015250565b6000612303601183611e45565b915061230e826122cd565b602082019050919050565b60006020820190508181036000830152612332816122f6565b9050919050565b600060608201905061234e6000830186611dc8565b61235b6020830185611dc8565b6123686040830184611abe565b949350505050565b600061237b82611ab4565b915061238683611ab4565b9250827fffffffffffffffffffffffffffffffffffffffffffffffffffffffffffffffff038211156123bb576123ba611f9a565b5b828201905092915050565b60006123d182611ab4565b91507fffffffffffffffffffffffffffffffffffffffffffffffffffffffffffffffff82141561240457612403611f9a565b5b600182019050919050565b7f4f776e61626c653a206e6577206f776e657220697320746865207a65726f206160008201527f6464726573730000000000000000000000000000000000000000000000000000602082015250565b600061246b602683611e45565b91506124768261240f565b604082019050919050565b6000602082019050818103600083015261249a8161245e565b9050919050565b7f62616c616e6365206d757374203e203000000000000000000000000000000000600082015250565b60006124d7601083611e45565b91506124e2826124a1565b602082019050919050565b60006020820190508181036000830152612506816124ca565b9050919050565b7f4e487b7100000000000000000000000000000000000000000000000000000000600052601260045260246000fd5b600061254782611ab4565b915061255283611ab4565b9250826125625761256161250d565b5b828206905092915050565b600061257882611ab4565b915061258383611ab4565b9250826125935761259261250d565b5b828204905092915050565b60006125a982611ab4565b91506125b483611ab4565b9250817fffffffffffffffffffffffffffffffffffffffffffffffffffffffffffffffff04831182151516156125ed576125ec611f9a565b5b828202905092915050565b7f64732d6d6174682d6d756c2d6f766572666c6f77000000000000000000000000600082015250565b600061262e601483611e45565b9150612639826125f8565b602082019050919050565b6000602082019050818103600083015261265d81612621565b9050919050565b7f64732d6d6174682d6164642d6f766572666c6f77000000000000000000000000600082015250565b600061269a601483611e45565b91506126a582612664565b602082019050919050565b600060208201905081810360008301526126c98161268d565b905091905056fea2646970667358221220a8b6746df2059121115e7a6bd68b1c20bcab235e7b6df3e8be3d5ef21f1949b364736f6c634300080c0033",
  "immutableReferences": {},
  "source": "// SPDX-License-Identifier: Unlicensed\n\npragma solidity ^0.8.0;\nimport \"@openzeppelin/contracts/utils/math/SafeMath.sol\";\nimport \"@openzeppelin/contracts/security/ReentrancyGuard.sol\";\nimport '@openzeppelin/contracts/access/Ownable.sol';\nimport \"@openzeppelin/contracts/utils/Counters.sol\";\nimport \"./IBEP20.sol\";\nimport \"./DSMath.sol\";\n\n\n\ncontract StakingRewards is ReentrancyGuard, Ownable, DSMath {\n    using SafeMath for uint256;\n\n    struct StakingInfo {\n        uint256 balance;\n        uint256 timestamp;\n        uint256 reward;\n    }\n\n    /* ========== STATE VARIABLES ========== */\n    using Counters for Counters.Counter;\n    Counters.Counter private stakingCounter;\n    IBEP20 public rewardsToken;\n    IBEP20 public stakingToken;\n    uint256 public lockDuration = 0;\n    uint256 private _maxTokenStake = 1 * 10**6 * 10**18;\n    uint256 private _minTokenStake = 5 * 10**3 * 10**18;\n    uint256 private _ratio = 1000119800000000000000000000;\n    uint256 private _totalSupply;\n    mapping(uint256 => uint256) private _balances;\n    mapping(address => uint256) private _totalBalances;\n    mapping(uint256 => uint256) private _userStakingTime;\n    mapping(uint256 => uint256) private _userStakingLastUpdate;\n    mapping(uint256 => address) private _stakingIdMapping;\n    mapping(address => uint256[]) private _totalStakingOfUser;\n\n    /* ========== CONSTRUCTOR ========== */\n\n    constructor(\n        address _rewardsToken,\n        address _stakingToken\n    ) public  {\n        rewardsToken = IBEP20(_rewardsToken);\n        stakingToken = IBEP20(_stakingToken);\n    }\n\n    /* ========== VIEWS ========== */\n\n    function totalSupply() external view returns (uint256) {\n        return _totalSupply;\n    }\n\n    function balanceOf(uint256 stakingId) external view returns (uint256) {\n        return _balances[stakingId];\n    }\n\n    function totalBalanceOf(address account) external view returns (uint256) {\n        return _totalBalances[account];\n    }\n\n    function userStakingTime(uint256 stakingId) external view returns (uint256) {\n        return _userStakingTime[stakingId];\n    }\n\n    function totalStakingOfUser(address account) public view returns (uint256[] memory) {\n        return _totalStakingOfUser[account];\n    }\n\n    function accrueInterest(uint _principal, uint _rate, uint _age) public pure returns (uint) {\n        return rmul(_principal, rpow(_rate, _age));\n    }\n\n    function rewardOf(uint256 stakingId) private view returns (uint256) {\n        uint256 secs = block.timestamp - _userStakingLastUpdate[stakingId];\n        uint256 t = secs.div(15*60);\n\n        uint256 balance = _balances[stakingId];\n        uint256 b  = accrueInterest(balance, _ratio, t);\n        uint256 total_rw =  b;\n        return total_rw;\n    }\n\n    function setRatio(uint256 r) external onlyOwner() {\n        require(_ratio != r );\n        for (uint256 i=1; i< stakingCounter.current() ;i++) {\n            _balances[i] += rewardOf(i) - _balances[i];\n            _userStakingLastUpdate[i] = block.timestamp;\n        }\n        _ratio = r;\n        emit RatioUpdated(r);\n\n    }\n\n    function setMinTokenStake(uint256 value) external onlyOwner {\n        require(_minTokenStake != value, 'This value was already used');\n        _minTokenStake = value;\n        emit MinTokenStakeUpdated(value);\n    }\n\n    function setMaxTokenStake(uint256 value) external onlyOwner {\n        require(_maxTokenStake != value, 'This value was already used');\n        _maxTokenStake = value;\n        emit MaxTokenStakeUpdated(value);\n    }\n\n    function setLockDuration(uint256 value) external onlyOwner {\n        require(lockDuration != value, 'This value was already used');\n        lockDuration = value;\n        emit LockDurationUpdated(value);\n    }\n\n    /* ========== MUTATIVE FUNCTIONS ========== */\n\n    function stake(uint256 amount) external nonReentrant returns (uint256){\n        require(amount >= _minTokenStake, \"Cannot stake < min\");\n        require(_totalBalances[msg.sender].add(amount) <= _maxTokenStake, \"Cannot stake > max\");\n        stakingCounter.increment();\n        require(_stakingIdMapping[stakingCounter.current()] == address(0), \"An error occurred\");\n        _stakingIdMapping[stakingCounter.current()] = msg.sender;\n        _totalStakingOfUser[msg.sender].push(stakingCounter.current());\n        _totalSupply = _totalSupply.add(amount);\n        _balances[stakingCounter.current()] = amount;\n        _totalBalances[msg.sender] = _totalBalances[msg.sender].add(amount);\n        stakingToken.transferFrom(msg.sender, address(this), amount);\n        _userStakingTime[stakingCounter.current()] = block.timestamp;\n        _userStakingLastUpdate[stakingCounter.current()] = block.timestamp;\n        emit Staked(msg.sender, amount);\n        return stakingCounter.current();\n    }\n\n    function withdraw(uint256 stakingId) private nonReentrant  {\n        require(_stakingIdMapping[stakingId] == msg.sender,\"you must owner of staking id\");\n        require(_balances[stakingId] > 0 , \"balance must > 0\");\n        uint256 amount = _balances[stakingId];\n        uint256 reward = rewardOf(stakingId);\n\n        if (reward > 0) {\n            if (rewardsToken.transfer(msg.sender, reward)) {\n                _totalSupply = _totalSupply.sub(amount);\n                _totalBalances[msg.sender] = _totalBalances[msg.sender].sub(amount);\n                _balances[stakingId] = 0;\n                emit RewardPaid(msg.sender, reward);\n            }\n        }\n    }\n\n    function exit(uint256 stakingId) external {\n        require(_stakingIdMapping[stakingId] == msg.sender,\"you must owner of staking id\");\n        require((block.timestamp - _userStakingTime[stakingId]) >= lockDuration, \"you cannot withdraw now!\");\n        withdraw(stakingId);\n    }\n\n    // Added to support recovering LP Rewards from other systems such as BAL to be distributed to holders\n    function recoverERC20(address tokenAddress, uint256 tokenAmount) external onlyOwner {\n        require(tokenAddress != address(stakingToken), \"Cannot withdraw the staking token\");\n        IBEP20(tokenAddress).transfer(owner(), tokenAmount);\n        emit Recovered(tokenAddress, tokenAmount);\n    }\n\n\n    function infoOf(uint256 stakingId) external view returns (StakingInfo memory) {\n        StakingInfo memory info;\n        info.balance = _balances[stakingId];\n        info.timestamp = _userStakingTime[stakingId];\n        uint256 rw = rewardOf(stakingId);\n        info.reward = rw;\n\n        return info;\n    }\n\n\n    /* ========== EVENTS ========== */\n\n    event RewardAdded(uint256 reward);\n    event Staked(address indexed user, uint256 amount);\n    event Withdrawn(address indexed user, uint256 amount);\n    event RewardPaid(address indexed user, uint256 reward);\n    event Recovered(address token, uint256 amount);\n    event MinTokenStakeUpdated(uint256 amount);\n    event MaxTokenStakeUpdated(uint256 amount);\n    event LockDurationUpdated(uint256 value);\n    event RatioUpdated(uint256 r);\n}\n",
  "sourcePath": "/Users/macbook/Desktop/PiratesKingContract2022/PiratesKingContract2022/contracts/StakingRewards.sol",
  "compiler": {
    "name": "solc",
    "version": "0.8.12+commit.f00d7308.Emscripten.clang"
  },
  "schemaVersion": "3.4.4",
  "updatedAt": "2022-03-16T11:04:25.788Z",
  "devdoc": {
    "kind": "dev",
    "methods": {
      "owner()": {
        "details": "Returns the address of the current owner."
      },
      "renounceOwnership()": {
        "details": "Leaves the contract without owner. It will not be possible to call `onlyOwner` functions anymore. Can only be called by the current owner. NOTE: Renouncing ownership will leave the contract without an owner, thereby removing any functionality that is only available to the owner."
      },
      "transferOwnership(address)": {
        "details": "Transfers ownership of the contract to a new account (`newOwner`). Can only be called by the current owner."
      }
    },
    "version": 1
  },
  "userdoc": {
    "kind": "user",
    "methods": {},
    "version": 1
  }
}